{
  "_format": "hh-sol-artifact-1",
  "contractName": "DummyMarketAMM",
  "sourceName": "contracts/mocks/DummyMarketAMM.sol",
  "abi": [
    {
      "inputs": [
        {
          "internalType": "address",
          "name": "tokenAddress",
          "type": "address"
        }
      ],
      "stateMutability": "nonpayable",
      "type": "constructor"
    },
    {
      "inputs": [],
      "name": "lastCaller",
      "outputs": [
        {
          "internalType": "address",
          "name": "",
          "type": "address"
        }
      ],
      "stateMutability": "view",
      "type": "function"
    },
    {
      "inputs": [
        {
          "internalType": "uint256",
          "name": "amount",
          "type": "uint256"
        }
      ],
      "name": "mint",
      "outputs": [],
      "stateMutability": "nonpayable",
      "type": "function"
    },
    {
      "inputs": [],
      "name": "mintedTotal",
      "outputs": [
        {
          "internalType": "uint256",
          "name": "",
          "type": "uint256"
        }
      ],
      "stateMutability": "view",
      "type": "function"
    },
    {
      "inputs": [],
      "name": "token",
      "outputs": [
        {
          "internalType": "contract AlphaHelixToken",
          "name": "",
          "type": "address"
        }
      ],
      "stateMutability": "view",
      "type": "function"
    }
  ],
  "bytecode": "0x60a03461007157601f61030038819003918201601f19168301916001600160401b038311848410176100765780849260209460405283398101031261007157516001600160a01b0381169081900361007157608052604051610273908161008d82396080518181816064015260fd0152f35b600080fd5b634e487b7160e01b600052604160045260246000fdfe608060408181526004918236101561001657600080fd5b600092833560e01c9182632113522a1461021857508163891aaf68146101fb578163a0712d6814610097575063fc0c546a1461005157600080fd5b34610093578160031936011261009357517f00000000000000000000000000000000000000000000000000000000000000006001600160a01b03168152602090f35b5080fd5b919050346101f757602090816003193601126101f3578235336bffffffffffffffffffffffff60a01b600154161760015584548181018091116101e057855581516323b872dd60e01b8152338582015230602482015260448101919091528281606481887f00000000000000000000000000000000000000000000000000000000000000006001600160a01b03165af19081156101d6578591610172575b501561013f578380f35b5162461bcd60e51b815291820152600f60248201526e151c985b9cd9995c8819985a5b1959608a1b604482015260649150fd5b9050823d84116101cf575b601f8101601f1916820167ffffffffffffffff8111838210176101bc57849183918552810103126101b8575180151581036101b85738610135565b8480fd5b634e487b7160e01b875260418652602487fd5b503d61017d565b82513d87823e3d90fd5b634e487b7160e01b865260118552602486fd5b8380fd5b8280fd5b505034610093578160031936011261009357602091549051908152f35b8490346100935781600319360112610093576001546001600160a01b03168152602090f3fea26469706673582212202337ae29b731c94bb2dc7f02b4e3f94dd4b55709d1bf52d1a332c28b95f5c1d764736f6c63430008140033",
  "linkReferences": {},
  "deployedLinkReferences": {}
}