{
  "_format": "hh-sol-artifact-1",
  "contractName": "DummyMarketAMM",
  "sourceName": "contracts/mocks/DummyMarketAMM.sol",
  "abi": [
    {
      "inputs": [
        {
          "internalType": "address",
          "name": "tokenAddress",
          "type": "address"
        }
      ],
      "stateMutability": "nonpayable",
      "type": "constructor"
    },
    {
      "inputs": [],
      "name": "lastCaller",
      "outputs": [
        {
          "internalType": "address",
          "name": "",
          "type": "address"
        }
      ],
      "stateMutability": "view",
      "type": "function"
    },
    {
      "inputs": [
        {
          "internalType": "uint256",
          "name": "amount",
          "type": "uint256"
        }
      ],
      "name": "mint",
      "outputs": [],
      "stateMutability": "nonpayable",
      "type": "function"
    },
    {
      "inputs": [],
      "name": "mintedTotal",
      "outputs": [
        {
          "internalType": "uint256",
          "name": "",
          "type": "uint256"
        }
      ],
      "stateMutability": "view",
      "type": "function"
    },
    {
      "inputs": [],
      "name": "token",
      "outputs": [
        {
          "internalType": "contract AlphaHelixToken",
          "name": "",
          "type": "address"
        }
      ],
      "stateMutability": "view",
      "type": "function"
    }
  ],
  "bytecode": "0x60a060405234801561001057600080fd5b5060405161030b38038061030b83398101604081905261002f91610040565b6001600160a01b0316608052610070565b60006020828403121561005257600080fd5b81516001600160a01b038116811461006957600080fd5b9392505050565b60805161027a6100916000396000818160b20152610121015261027a6000f3fe608060405234801561001057600080fd5b506004361061004c5760003560e01c80632113522a14610051578063891aaf6814610081578063a0712d6814610098578063fc0c546a146100ad575b600080fd5b600154610064906001600160a01b031681565b6040516001600160a01b0390911681526020015b60405180910390f35b61008a60005481565b604051908152602001610078565b6100ab6100a63660046101db565b6100d4565b005b6100647f000000000000000000000000000000000000000000000000000000000000000081565b600180546001600160a01b031916331790556000805482919081906100fa9084906101f4565b90915550506040516323b872dd60e01b8152336004820152306024820152604481018290527f00000000000000000000000000000000000000000000000000000000000000006001600160a01b0316906323b872dd906064016020604051808303816000875af1158015610172573d6000803e3d6000fd5b505050506040513d601f19601f82011682018060405250810190610196919061021b565b6101d85760405162461bcd60e51b815260206004820152600f60248201526e151c985b9cd9995c8819985a5b1959608a1b604482015260640160405180910390fd5b50565b6000602082840312156101ed57600080fd5b5035919050565b8082018082111561021557634e487b7160e01b600052601160045260246000fd5b92915050565b60006020828403121561022d57600080fd5b8151801515811461023d57600080fd5b939250505056fea26469706673582212203ab375d075ee5c87697bfd2aeb8613d9b1689b0236e5a91e1a5f9cfe7d526d5e64736f6c63430008140033",
  "linkReferences": {},
  "deployedLinkReferences": {}
}