{"contracts/HelixMarket.sol":{"HelixMarket":{"abi":[{"inputs":[{"internalType":"address","name":"_token","type":"address"}],"stateMutability":"nonpayable","type":"constructor"},{"inputs":[],"name":"ReentrancyGuardReentrantCall","type":"error"},{"anonymous":false,"inputs":[{"indexed":true,"internalType":"uint256","name":"marketId","type":"uint256"},{"indexed":true,"internalType":"address","name":"user","type":"address"},{"indexed":false,"internalType":"bytes32","name":"commitHash","type":"bytes32"},{"indexed":false,"internalType":"uint256","name":"amount","type":"uint256"}],"name":"BetCommitted","type":"event"},{"anonymous":false,"inputs":[{"indexed":true,"internalType":"uint256","name":"marketId","type":"uint256"},{"indexed":true,"internalType":"address","name":"user","type":"address"},{"indexed":false,"internalType":"uint8","name":"choice","type":"uint8"},{"indexed":false,"internalType":"uint256","name":"amount","type":"uint256"}],"name":"BetRevealed","type":"event"},{"anonymous":false,"inputs":[{"indexed":true,"internalType":"uint256","name":"marketId","type":"uint256"},{"indexed":false,"internalType":"bool","name":"outcome","type":"bool"},{"indexed":false,"internalType":"bool","name":"tie","type":"bool"},{"indexed":false,"internalType":"uint256","name":"totalPool","type":"uint256"},{"indexed":false,"internalType":"uint256","name":"originatorFee","type":"uint256"}],"name":"MarketResolved","type":"event"},{"anonymous":false,"inputs":[{"indexed":true,"internalType":"uint256","name":"marketId","type":"uint256"},{"indexed":false,"internalType":"string","name":"ipfsCid","type":"string"},{"indexed":false,"internalType":"uint256","name":"commitEndTime","type":"uint256"},{"indexed":false,"internalType":"uint256","name":"revealEndTime","type":"uint256"},{"indexed":false,"internalType":"address","name":"originator","type":"address"}],"name":"StatementCreated","type":"event"},{"anonymous":false,"inputs":[{"indexed":true,"internalType":"uint256","name":"marketId","type":"uint256"},{"indexed":true,"internalType":"address","name":"user","type":"address"},{"indexed":false,"internalType":"uint256","name":"amountReturned","type":"uint256"},{"indexed":false,"internalType":"uint256","name":"penaltyBurned","type":"uint256"}],"name":"UnrevealedWithdrawn","type":"event"},{"inputs":[],"name":"ORIGINATOR_FEE_BPS","outputs":[{"internalType":"uint256","name":"","type":"uint256"}],"stateMutability":"view","type":"function"},{"inputs":[],"name":"STATEMENT_FEE","outputs":[{"internalType":"uint256","name":"","type":"uint256"}],"stateMutability":"view","type":"function"},{"inputs":[],"name":"UNREVEALED_PENALTY_BPS","outputs":[{"internalType":"uint256","name":"","type":"uint256"}],"stateMutability":"view","type":"function"},{"inputs":[{"internalType":"uint256","name":"","type":"uint256"},{"internalType":"address","name":"","type":"address"},{"internalType":"uint8","name":"","type":"uint8"}],"name":"bets","outputs":[{"internalType":"uint256","name":"","type":"uint256"}],"stateMutability":"view","type":"function"},{"inputs":[{"internalType":"uint256","name":"marketId","type":"uint256"}],"name":"claim","outputs":[],"stateMutability":"nonpayable","type":"function"},{"inputs":[{"internalType":"uint256","name":"marketId","type":"uint256"},{"internalType":"bytes32","name":"commitHash","type":"bytes32"},{"internalType":"uint256","name":"amount","type":"uint256"}],"name":"commitBet","outputs":[],"stateMutability":"nonpayable","type":"function"},{"inputs":[{"internalType":"uint256","name":"","type":"uint256"},{"internalType":"address","name":"","type":"address"}],"name":"commits","outputs":[{"internalType":"bytes32","name":"","type":"bytes32"}],"stateMutability":"view","type":"function"},{"inputs":[{"internalType":"uint256","name":"","type":"uint256"},{"internalType":"address","name":"","type":"address"}],"name":"committedAmount","outputs":[{"internalType":"uint256","name":"","type":"uint256"}],"stateMutability":"view","type":"function"},{"inputs":[{"internalType":"uint256","name":"","type":"uint256"},{"internalType":"address","name":"","type":"address"}],"name":"hasCommitted","outputs":[{"internalType":"bool","name":"","type":"bool"}],"stateMutability":"view","type":"function"},{"inputs":[],"name":"marketCount","outputs":[{"internalType":"uint256","name":"","type":"uint256"}],"stateMutability":"view","type":"function"},{"inputs":[{"internalType":"uint256","name":"","type":"uint256"}],"name":"markets","outputs":[{"internalType":"string","name":"ipfsCid","type":"string"},{"internalType":"uint256","name":"commitEndTime","type":"uint256"},{"internalType":"uint256","name":"revealEndTime","type":"uint256"},{"internalType":"uint256","name":"yesPool","type":"uint256"},{"internalType":"uint256","name":"noPool","type":"uint256"},{"internalType":"uint256","name":"unalignedPool","type":"uint256"},{"internalType":"bool","name":"resolved","type":"bool"},{"internalType":"bool","name":"outcome","type":"bool"},{"internalType":"bool","name":"tie","type":"bool"},{"internalType":"address","name":"originator","type":"address"}],"stateMutability":"view","type":"function"},{"inputs":[{"internalType":"uint256","name":"marketId","type":"uint256"}],"name":"resolve","outputs":[],"stateMutability":"nonpayable","type":"function"},{"inputs":[{"internalType":"uint256","name":"marketId","type":"uint256"},{"internalType":"uint8","name":"choice","type":"uint8"},{"internalType":"uint256","name":"salt","type":"uint256"}],"name":"revealBet","outputs":[],"stateMutability":"nonpayable","type":"function"},{"inputs":[{"internalType":"string","name":"ipfsCid","type":"string"},{"internalType":"uint256","name":"biddingDuration","type":"uint256"},{"internalType":"uint256","name":"revealDuration","type":"uint256"}],"name":"submitStatement","outputs":[],"stateMutability":"nonpayable","type":"function"},{"inputs":[],"name":"token","outputs":[{"internalType":"contract AlphaHelixToken","name":"","type":"address"}],"stateMutability":"view","type":"function"},{"inputs":[{"internalType":"uint256","name":"marketId","type":"uint256"}],"name":"withdrawUnrevealed","outputs":[],"stateMutability":"nonpayable","type":"function"}],"evm":{"bytecode":{"linkReferences":{},"object":"60a060405234801561001057600080fd5b50604051611bbb380380611bbb83398101604081905261002f91610045565b60016000556001600160a01b0316608052610075565b60006020828403121561005757600080fd5b81516001600160a01b038116811461006e57600080fd5b9392505050565b608051611afa6100c16000396000818161028d0152818161030c015281816103ee01528181610635015281816108b201528181610afc015281816111bd015261129a0152611afa6000f3fe608060405234801561001057600080fd5b50600436106101005760003560e01c80638f99230e11610097578063cdbf958211610066578063cdbf95821461026c578063ec9790821461027f578063fc0c546a14610288578063fe838b02146102c757600080fd5b80638f99230e146101d4578063a99ef9f514610205578063b1283e7714610243578063b9e42385146101a157600080fd5b80634f896d4f116100d35780634f896d4f1461016357806357cb0c11146101765780635acd45be146101a1578063885d68a8146101a957600080fd5b80631204078d146101055780631b88272a1461011a5780632e8f036a1461012d578063379607f514610150575b600080fd5b61011861011336600461160b565b6102da565b005b6101186101283660046116cf565b610571565b61013d68056bc75e2d6310000081565b6040519081526020015b60405180910390f35b61011861015e3660046116fb565b610792565b6101186101713660046116fb565b610977565b61013d610184366004611730565b600660209081526000928352604080842090915290825290205481565b61013d606481565b61013d6101b7366004611730565b600360209081526000928352604080842090915290825290205481565b61013d6101e236600461176d565b600560209081526000938452604080852082529284528284209052825290205481565b610233610213366004611730565b600460209081526000928352604080842090915290825290205460ff1681565b6040519015158152602001610147565b6102566102513660046116fb565b610bda565b6040516101479a999897969594939291906117ef565b61011861027a366004611858565b610cc5565b61013d60015481565b6102af7f000000000000000000000000000000000000000000000000000000000000000081565b6040516001600160a01b039091168152602001610147565b6101186102d53660046116fb565b61107e565b6102e261139f565b6040516323b872dd60e01b815233600482015230602482015268056bc75e2d6310000060448201527f00000000000000000000000000000000000000000000000000000000000000006001600160a01b0316906323b872dd906064016020604051808303816000875af115801561035d573d6000803e3d6000fd5b505050506040513d601f19601f82011682018060405250810190610381919061188d565b6103c85760405162461bcd60e51b8152602060048201526013602482015272119959481d1c985b9cd9995c8819985a5b1959606a1b60448201526064015b60405180910390fd5b60405163a9059cbb60e01b815261dead600482015268056bc75e2d6310000060248201527f00000000000000000000000000000000000000000000000000000000000000006001600160a01b03169063a9059cbb906044016020604051808303816000875af115801561043f573d6000803e3d6000fd5b505050506040513d601f19601f82011682018060405250810190610463919061188d565b6104a65760405162461bcd60e51b8152602060048201526014602482015273109d5c9b881d1c985b9cd9995c8819985a5b195960621b60448201526064016103bf565b60018054600091826104b7836118cc565b909155506000818152600260205260409020909150806104d7868261196d565b506104e28442611a2d565b600182018190556104f4908490611a2d565b600282018190556006820180546301000000600160b81b031916336301000000810291909117909155600183015460405185937fb0f44ab77840631afd2f642daa49e5d268bce7babf6c72558f47c5d027413b9893610558938b9390929190611a40565b60405180910390a2505061056c6001600055565b505050565b61057961139f565b6000838152600260205260409020600181015442106105ce5760405162461bcd60e51b815260206004820152601160248201527021b7b6b6b4ba10383430b9b29037bb32b960791b60448201526064016103bf565b600082116106135760405162461bcd60e51b81526020600482015260126024820152710416d6f756e74206d757374206265203e20360741b60448201526064016103bf565b6040516323b872dd60e01b8152336004820152306024820152604481018390527f00000000000000000000000000000000000000000000000000000000000000006001600160a01b0316906323b872dd906064016020604051808303816000875af1158015610686573d6000803e3d6000fd5b505050506040513d601f19601f820116820180604052508101906106aa919061188d565b6106e85760405162461bcd60e51b815260206004820152600f60248201526e151c985b9cd9995c8819985a5b1959608a1b60448201526064016103bf565b600084815260036020908152604080832033808552908352818420879055878452600483528184208185528352818420805460ff191660011790558784526006835281842090845290915281208054849290610745908490611a2d565b90915550506040805184815260208101849052339186917fc02f2358fe181cc846163d0ca2cd612408cef67a7acdbb92cd09045df0e2fd9a910160405180910390a35061056c6001600055565b61079a61139f565b6000818152600260205260409020600681015460ff166107eb5760405162461bcd60e51b815260206004820152600c60248201526b139bdd081c995cdbdb1d995960a21b60448201526064016103bf565b60008060006107fa84866113c9565b925092509250600083116108415760405162461bcd60e51b815260206004820152600e60248201526d139bc81dda5b9b9a5b99c818995d60921b60448201526064016103bf565b600684015461086290869060ff620100008204811691610100900416611509565b600684015460009062010000900460ff1661089157826108828386611a78565b61088c9190611a8f565b610893565b835b60405163a9059cbb60e01b8152336004820152602481018290529091507f00000000000000000000000000000000000000000000000000000000000000006001600160a01b03169063a9059cbb906044016020604051808303816000875af1158015610903573d6000803e3d6000fd5b505050506040513d601f19601f82011682018060405250810190610927919061188d565b6109655760405162461bcd60e51b815260206004820152600f60248201526e151c985b9cd9995c8819985a5b1959608a1b60448201526064016103bf565b50505050506109746001600055565b50565b61097f61139f565b60008181526002602081905260409091209081015442116109da5760405162461bcd60e51b81526020600482015260156024820152742932bb32b0b610383430b9b2903737ba1037bb32b960591b60448201526064016103bf565b600681015460ff1615610a225760405162461bcd60e51b815260206004820152601060248201526f105b1c9958591e481c995cdbdb1d995960821b60448201526064016103bf565b60068101805460ff1916600117905560038101546004820154610a45919061159c565b600683018054921515620100000262ff000019921515610100029290921662ffff00199093169290921717905560058101546004820154600383015460009291610a8e91611a2d565b610a989190611a2d565b600683015490915060009062010000900460ff16610abe57610ab9826115d5565b610ac1565b60005b90508015610b6b57600683015460405163a9059cbb60e01b815263010000009091046001600160a01b039081166004830152602482018390527f0000000000000000000000000000000000000000000000000000000000000000169063a9059cbb906044016020604051808303816000875af1158015610b45573d6000803e3d6000fd5b505050506040513d601f19601f82011682018060405250810190610b69919061188d565b505b60068301546040805160ff6101008404811615158252620100009093049092161515602083015281018390526060810182905284907fcf0a48d2ad3f7480002e60b1eda352f90145d89af44eb49e792dad0233f533b19060800160405180910390a25050506109746001600055565b600260205260009081526040902080548190610bf5906118e5565b80601f0160208091040260200160405190810160405280929190818152602001828054610c21906118e5565b8015610c6e5780601f10610c4357610100808354040283529160200191610c6e565b820191906000526020600020905b815481529060010190602001808311610c5157829003601f168201915b5050505060018301546002840154600385015460048601546005870154600690970154959693959294509092909160ff8082169161010081048216916201000082041690630100000090046001600160a01b03168a565b610ccd61139f565b60008381526002602052604090206001810154421015610d2f5760405162461bcd60e51b815260206004820152601760248201527f436f6d6d6974207068617365206e6f742061637469766500000000000000000060448201526064016103bf565b80600201544210610d765760405162461bcd60e51b81526020600482015260116024820152702932bb32b0b610383430b9b29037bb32b960791b60448201526064016103bf565b600084815260036020908152604080832033845290915290205480610dd05760405162461bcd60e51b815260206004820152601060248201526f139bc818995d0818dbdb5b5a5d1d195960821b60448201526064016103bf565b6040516001600160f81b031960f886901b166020820152602181018490526bffffffffffffffffffffffff193360601b16604182015281906055016040516020818303038152906040528051906020012014610e645760405162461bcd60e51b8152602060048201526013602482015272125b9d985b1a59081a185cda0bdc995d99585b606a1b60448201526064016103bf565b600085815260066020908152604080832033845290915290205480610ecb5760405162461bcd60e51b815260206004820152601d60248201527f416c72656164792072657665616c6564206f72206e6f20616d6f756e7400000060448201526064016103bf565b6000868152600660209081526040808320338452909152812055600260ff86161115610f2a5760405162461bcd60e51b815260206004820152600e60248201526d496e76616c69642063686f69636560901b60448201526064016103bf565b8460ff16600103610f8b5780836003016000828254610f499190611a2d565b9091555050600086815260056020908152604080832033845282528083206001845290915281208054839290610f80908490611a2d565b909155506110319050565b8460ff16600003610fe05780836004016000828254610faa9190611a2d565b90915550506000868152600560209081526040808320338452825280832083805290915281208054839290610f80908490611a2d565b80836005016000828254610ff49190611a2d565b909155505060008681526005602090815260408083203384528252808320600284529091528120805483929061102b908490611a2d565b90915550505b6040805160ff8716815260208101839052339188917f69cbe73b5f08f9347a0159dd589b5e7ea7f54d8b523f6bbe183c1a7c13b6dba7910160405180910390a350505061056c6001600055565b61108661139f565b60008181526002602081905260409091209081015442116110e15760405162461bcd60e51b81526020600482015260156024820152742932bb32b0b610383430b9b2903737ba1037bb32b960591b60448201526064016103bf565b60008281526006602090815260408083203384529091529020548061113e5760405162461bcd60e51b81526020600482015260136024820152724e6f20756e72657665616c6564207374616b6560681b60448201526064016103bf565b60008381526006602090815260408083203380855290835281842084905586845260038352818420908452909152812081905561271061117f606484611a78565b6111899190611a8f565b905060006111978284611ab1565b9050811561127e5760405163a9059cbb60e01b815261dead6004820152602481018390527f00000000000000000000000000000000000000000000000000000000000000006001600160a01b03169063a9059cbb906044016020604051808303816000875af115801561120e573d6000803e3d6000fd5b505050506040513d601f19601f82011682018060405250810190611232919061188d565b61127e5760405162461bcd60e51b815260206004820152601760248201527f50656e616c7479207472616e73666572206661696c656400000000000000000060448201526064016103bf565b60405163a9059cbb60e01b8152336004820152602481018290527f00000000000000000000000000000000000000000000000000000000000000006001600160a01b03169063a9059cbb906044016020604051808303816000875af11580156112eb573d6000803e3d6000fd5b505050506040513d601f19601f8201168201806040525081019061130f919061188d565b6113545760405162461bcd60e51b81526020600482015260166024820152751499599d5b99081d1c985b9cd9995c8819985a5b195960521b60448201526064016103bf565b6040805182815260208101849052339187917f8bb26e72aaf6e900094ea180bfbe84450e669b3c57d843fa18e33e40a46616f5910160405180910390a3505050506109746001600055565b6002600054036113c257604051633ee5aeb560e01b815260040160405180910390fd5b6002600055565b6000806000808560050154866004015487600301546113e89190611a2d565b6113f29190611a2d565b600687015490915060009062010000900460ff1661141857611413826115d5565b61141b565b60005b90506114278183611ab1565b600688015490935062010000900460ff161561148f576000868152600560209081526040808320338452825280832060028452909152808220546001835281832054838052919092205461147b9190611a2d565b6114859190611a2d565b9450819350611500565b6006870154610100900460ff16156114d357600086815260056020908152604080832033845282528083206001845290915290205460038801549095509350611500565b60008681526005602090815260408083203384528252808320838052909152902054600488015490955093505b50509250925092565b8115611549575050600090815260056020908152604080832033845282528083208380529091528082208290556001825280822082905560028252812055565b80156115765750506000908152600560209081526040808320338452825280832060018452909152812055565b505060009081526005602090815260408083203384528252808320838052909152812055565b600080828411156115b357506000905060016115ce565b838311156115c6575060009050806115ce565b506001905060005b9250929050565b60006127106115e5606484611a78565b6115ef9190611a8f565b92915050565b634e487b7160e01b600052604160045260246000fd5b60008060006060848603121561162057600080fd5b833567ffffffffffffffff8082111561163857600080fd5b818601915086601f83011261164c57600080fd5b81358181111561165e5761165e6115f5565b604051601f8201601f19908116603f01168101908382118183101715611686576116866115f5565b8160405282815289602084870101111561169f57600080fd5b82602086016020830137600060208483010152809750505050505060208401359150604084013590509250925092565b6000806000606084860312156116e457600080fd5b505081359360208301359350604090920135919050565b60006020828403121561170d57600080fd5b5035919050565b80356001600160a01b038116811461172b57600080fd5b919050565b6000806040838503121561174357600080fd5b8235915061175360208401611714565b90509250929050565b803560ff8116811461172b57600080fd5b60008060006060848603121561178257600080fd5b8335925061179260208501611714565b91506117a06040850161175c565b90509250925092565b6000815180845260005b818110156117cf576020818501810151868301820152016117b3565b506000602082860101526020601f19601f83011685010191505092915050565b60006101408083526118038184018e6117a9565b602084019c909c52505060408101989098526060880196909652608087019490945260a0860192909252151560c0850152151560e084015215156101008301526001600160a01b031661012090910152919050565b60008060006060848603121561186d57600080fd5b8335925061187d6020850161175c565b9150604084013590509250925092565b60006020828403121561189f57600080fd5b815180151581146118af57600080fd5b9392505050565b634e487b7160e01b600052601160045260246000fd5b6000600182016118de576118de6118b6565b5060010190565b600181811c908216806118f957607f821691505b60208210810361191957634e487b7160e01b600052602260045260246000fd5b50919050565b601f82111561056c57600081815260208120601f850160051c810160208610156119465750805b601f850160051c820191505b8181101561196557828155600101611952565b505050505050565b815167ffffffffffffffff811115611987576119876115f5565b61199b8161199584546118e5565b8461191f565b602080601f8311600181146119d057600084156119b85750858301515b600019600386901b1c1916600185901b178555611965565b600085815260208120601f198616915b828110156119ff578886015182559484019460019091019084016119e0565b5085821015611a1d5787850151600019600388901b60f8161c191681555b5050505050600190811b01905550565b808201808211156115ef576115ef6118b6565b608081526000611a5360808301876117a9565b60208301959095525060408101929092526001600160a01b0316606090910152919050565b80820281158282048414176115ef576115ef6118b6565b600082611aac57634e487b7160e01b600052601260045260246000fd5b500490565b818103818111156115ef576115ef6118b656fea2646970667358221220416088d1a5511935953d5471b15a430c2ea6b2f034a1f544db568648849145bb64736f6c63430008140033","opcodes":"PUSH1 0xA0 PUSH1 0x40 MSTORE CALLVALUE DUP1 ISZERO PUSH2 0x10 JUMPI PUSH1 0x0 DUP1 REVERT JUMPDEST POP PUSH1 0x40 MLOAD PUSH2 0x1BBB CODESIZE SUB DUP1 PUSH2 0x1BBB DUP4 CODECOPY DUP2 ADD PUSH1 0x40 DUP2 SWAP1 MSTORE PUSH2 0x2F SWAP2 PUSH2 0x45 JUMP JUMPDEST PUSH1 0x1 PUSH1 0x0 SSTORE PUSH1 0x1 PUSH1 0x1 PUSH1 0xA0 SHL SUB AND PUSH1 0x80 MSTORE PUSH2 0x75 JUMP JUMPDEST PUSH1 0x0 PUSH1 0x20 DUP3 DUP5 SUB SLT ISZERO PUSH2 0x57 JUMPI PUSH1 0x0 DUP1 REVERT JUMPDEST DUP2 MLOAD PUSH1 0x1 PUSH1 0x1 PUSH1 0xA0 SHL SUB DUP2 AND DUP2 EQ PUSH2 0x6E JUMPI PUSH1 0x0 DUP1 REVERT JUMPDEST SWAP4 SWAP3 POP POP POP JUMP JUMPDEST PUSH1 0x80 MLOAD PUSH2 0x1AFA PUSH2 0xC1 PUSH1 0x0 CODECOPY PUSH1 0x0 DUP2 DUP2 PUSH2 0x28D ADD MSTORE DUP2 DUP2 PUSH2 0x30C ADD MSTORE DUP2 DUP2 PUSH2 0x3EE ADD MSTORE DUP2 DUP2 PUSH2 0x635 ADD MSTORE DUP2 DUP2 PUSH2 0x8B2 ADD MSTORE DUP2 DUP2 PUSH2 0xAFC ADD MSTORE DUP2 DUP2 PUSH2 0x11BD ADD MSTORE PUSH2 0x129A ADD MSTORE PUSH2 0x1AFA PUSH1 0x0 RETURN INVALID PUSH1 0x80 PUSH1 0x40 MSTORE CALLVALUE DUP1 ISZERO PUSH2 0x10 JUMPI PUSH1 0x0 DUP1 REVERT JUMPDEST POP PUSH1 0x4 CALLDATASIZE LT PUSH2 0x100 JUMPI PUSH1 0x0 CALLDATALOAD PUSH1 0xE0 SHR DUP1 PUSH4 0x8F99230E GT PUSH2 0x97 JUMPI DUP1 PUSH4 0xCDBF9582 GT PUSH2 0x66 JUMPI DUP1 PUSH4 0xCDBF9582 EQ PUSH2 0x26C JUMPI DUP1 PUSH4 0xEC979082 EQ PUSH2 0x27F JUMPI DUP1 PUSH4 0xFC0C546A EQ PUSH2 0x288 JUMPI DUP1 PUSH4 0xFE838B02 EQ PUSH2 0x2C7 JUMPI PUSH1 0x0 DUP1 REVERT JUMPDEST DUP1 PUSH4 0x8F99230E EQ PUSH2 0x1D4 JUMPI DUP1 PUSH4 0xA99EF9F5 EQ PUSH2 0x205 JUMPI DUP1 PUSH4 0xB1283E77 EQ PUSH2 0x243 JUMPI DUP1 PUSH4 0xB9E42385 EQ PUSH2 0x1A1 JUMPI PUSH1 0x0 DUP1 REVERT JUMPDEST DUP1 PUSH4 0x4F896D4F GT PUSH2 0xD3 JUMPI DUP1 PUSH4 0x4F896D4F EQ PUSH2 0x163 JUMPI DUP1 PUSH4 0x57CB0C11 EQ PUSH2 0x176 JUMPI DUP1 PUSH4 0x5ACD45BE EQ PUSH2 0x1A1 JUMPI DUP1 PUSH4 0x885D68A8 EQ PUSH2 0x1A9 JUMPI PUSH1 0x0 DUP1 REVERT JUMPDEST DUP1 PUSH4 0x1204078D EQ PUSH2 0x105 JUMPI DUP1 PUSH4 0x1B88272A EQ PUSH2 0x11A JUMPI DUP1 PUSH4 0x2E8F036A EQ PUSH2 0x12D JUMPI DUP1 PUSH4 0x379607F5 EQ PUSH2 0x150 JUMPI JUMPDEST PUSH1 0x0 DUP1 REVERT JUMPDEST PUSH2 0x118 PUSH2 0x113 CALLDATASIZE PUSH1 0x4 PUSH2 0x160B JUMP JUMPDEST PUSH2 0x2DA JUMP JUMPDEST STOP JUMPDEST PUSH2 0x118 PUSH2 0x128 CALLDATASIZE PUSH1 0x4 PUSH2 0x16CF JUMP JUMPDEST PUSH2 0x571 JUMP JUMPDEST PUSH2 0x13D PUSH9 0x56BC75E2D63100000 DUP2 JUMP JUMPDEST PUSH1 0x40 MLOAD SWAP1 DUP2 MSTORE PUSH1 0x20 ADD JUMPDEST PUSH1 0x40 MLOAD DUP1 SWAP2 SUB SWAP1 RETURN JUMPDEST PUSH2 0x118 PUSH2 0x15E CALLDATASIZE PUSH1 0x4 PUSH2 0x16FB JUMP JUMPDEST PUSH2 0x792 JUMP JUMPDEST PUSH2 0x118 PUSH2 0x171 CALLDATASIZE PUSH1 0x4 PUSH2 0x16FB JUMP JUMPDEST PUSH2 0x977 JUMP JUMPDEST PUSH2 0x13D PUSH2 0x184 CALLDATASIZE PUSH1 0x4 PUSH2 0x1730 JUMP JUMPDEST PUSH1 0x6 PUSH1 0x20 SWAP1 DUP2 MSTORE PUSH1 0x0 SWAP3 DUP4 MSTORE PUSH1 0x40 DUP1 DUP5 KECCAK256 SWAP1 SWAP2 MSTORE SWAP1 DUP3 MSTORE SWAP1 KECCAK256 SLOAD DUP2 JUMP JUMPDEST PUSH2 0x13D PUSH1 0x64 DUP2 JUMP JUMPDEST PUSH2 0x13D PUSH2 0x1B7 CALLDATASIZE PUSH1 0x4 PUSH2 0x1730 JUMP JUMPDEST PUSH1 0x3 PUSH1 0x20 SWAP1 DUP2 MSTORE PUSH1 0x0 SWAP3 DUP4 MSTORE PUSH1 0x40 DUP1 DUP5 KECCAK256 SWAP1 SWAP2 MSTORE SWAP1 DUP3 MSTORE SWAP1 KECCAK256 SLOAD DUP2 JUMP JUMPDEST PUSH2 0x13D PUSH2 0x1E2 CALLDATASIZE PUSH1 0x4 PUSH2 0x176D JUMP JUMPDEST PUSH1 0x5 PUSH1 0x20 SWAP1 DUP2 MSTORE PUSH1 0x0 SWAP4 DUP5 MSTORE PUSH1 0x40 DUP1 DUP6 KECCAK256 DUP3 MSTORE SWAP3 DUP5 MSTORE DUP3 DUP5 KECCAK256 SWAP1 MSTORE DUP3 MSTORE SWAP1 KECCAK256 SLOAD DUP2 JUMP JUMPDEST PUSH2 0x233 PUSH2 0x213 CALLDATASIZE PUSH1 0x4 PUSH2 0x1730 JUMP JUMPDEST PUSH1 0x4 PUSH1 0x20 SWAP1 DUP2 MSTORE PUSH1 0x0 SWAP3 DUP4 MSTORE PUSH1 0x40 DUP1 DUP5 KECCAK256 SWAP1 SWAP2 MSTORE SWAP1 DUP3 MSTORE SWAP1 KECCAK256 SLOAD PUSH1 0xFF AND DUP2 JUMP JUMPDEST PUSH1 0x40 MLOAD SWAP1 ISZERO ISZERO DUP2 MSTORE PUSH1 0x20 ADD PUSH2 0x147 JUMP JUMPDEST PUSH2 0x256 PUSH2 0x251 CALLDATASIZE PUSH1 0x4 PUSH2 0x16FB JUMP JUMPDEST PUSH2 0xBDA JUMP JUMPDEST PUSH1 0x40 MLOAD PUSH2 0x147 SWAP11 SWAP10 SWAP9 SWAP8 SWAP7 SWAP6 SWAP5 SWAP4 SWAP3 SWAP2 SWAP1 PUSH2 0x17EF JUMP JUMPDEST PUSH2 0x118 PUSH2 0x27A CALLDATASIZE PUSH1 0x4 PUSH2 0x1858 JUMP JUMPDEST PUSH2 0xCC5 JUMP JUMPDEST PUSH2 0x13D PUSH1 0x1 SLOAD DUP2 JUMP JUMPDEST PUSH2 0x2AF PUSH32 0x0 DUP2 JUMP JUMPDEST PUSH1 0x40 MLOAD PUSH1 0x1 PUSH1 0x1 PUSH1 0xA0 SHL SUB SWAP1 SWAP2 AND DUP2 MSTORE PUSH1 0x20 ADD PUSH2 0x147 JUMP JUMPDEST PUSH2 0x118 PUSH2 0x2D5 CALLDATASIZE PUSH1 0x4 PUSH2 0x16FB JUMP JUMPDEST PUSH2 0x107E JUMP JUMPDEST PUSH2 0x2E2 PUSH2 0x139F JUMP JUMPDEST PUSH1 0x40 MLOAD PUSH4 0x23B872DD PUSH1 0xE0 SHL DUP2 MSTORE CALLER PUSH1 0x4 DUP3 ADD MSTORE ADDRESS PUSH1 0x24 DUP3 ADD MSTORE PUSH9 0x56BC75E2D63100000 PUSH1 0x44 DUP3 ADD MSTORE PUSH32 0x0 PUSH1 0x1 PUSH1 0x1 PUSH1 0xA0 SHL SUB AND SWAP1 PUSH4 0x23B872DD SWAP1 PUSH1 0x64 ADD PUSH1 0x20 PUSH1 0x40 MLOAD DUP1 DUP4 SUB DUP2 PUSH1 0x0 DUP8 GAS CALL ISZERO DUP1 ISZERO PUSH2 0x35D JUMPI RETURNDATASIZE PUSH1 0x0 DUP1 RETURNDATACOPY RETURNDATASIZE PUSH1 0x0 REVERT JUMPDEST POP POP POP POP PUSH1 0x40 MLOAD RETURNDATASIZE PUSH1 0x1F NOT PUSH1 0x1F DUP3 ADD AND DUP3 ADD DUP1 PUSH1 0x40 MSTORE POP DUP2 ADD SWAP1 PUSH2 0x381 SWAP2 SWAP1 PUSH2 0x188D JUMP JUMPDEST PUSH2 0x3C8 JUMPI PUSH1 0x40 MLOAD PUSH3 0x461BCD PUSH1 0xE5 SHL DUP2 MSTORE PUSH1 0x20 PUSH1 0x4 DUP3 ADD MSTORE PUSH1 0x13 PUSH1 0x24 DUP3 ADD MSTORE PUSH19 0x119959481D1C985B9CD9995C8819985A5B1959 PUSH1 0x6A SHL PUSH1 0x44 DUP3 ADD MSTORE PUSH1 0x64 ADD JUMPDEST PUSH1 0x40 MLOAD DUP1 SWAP2 SUB SWAP1 REVERT JUMPDEST PUSH1 0x40 MLOAD PUSH4 0xA9059CBB PUSH1 0xE0 SHL DUP2 MSTORE PUSH2 0xDEAD PUSH1 0x4 DUP3 ADD MSTORE PUSH9 0x56BC75E2D63100000 PUSH1 0x24 DUP3 ADD MSTORE PUSH32 0x0 PUSH1 0x1 PUSH1 0x1 PUSH1 0xA0 SHL SUB AND SWAP1 PUSH4 0xA9059CBB SWAP1 PUSH1 0x44 ADD PUSH1 0x20 PUSH1 0x40 MLOAD DUP1 DUP4 SUB DUP2 PUSH1 0x0 DUP8 GAS CALL ISZERO DUP1 ISZERO PUSH2 0x43F JUMPI RETURNDATASIZE PUSH1 0x0 DUP1 RETURNDATACOPY RETURNDATASIZE PUSH1 0x0 REVERT JUMPDEST POP POP POP POP PUSH1 0x40 MLOAD RETURNDATASIZE PUSH1 0x1F NOT PUSH1 0x1F DUP3 ADD AND DUP3 ADD DUP1 PUSH1 0x40 MSTORE POP DUP2 ADD SWAP1 PUSH2 0x463 SWAP2 SWAP1 PUSH2 0x188D JUMP JUMPDEST PUSH2 0x4A6 JUMPI PUSH1 0x40 MLOAD PUSH3 0x461BCD PUSH1 0xE5 SHL DUP2 MSTORE PUSH1 0x20 PUSH1 0x4 DUP3 ADD MSTORE PUSH1 0x14 PUSH1 0x24 DUP3 ADD MSTORE PUSH20 0x109D5C9B881D1C985B9CD9995C8819985A5B1959 PUSH1 0x62 SHL PUSH1 0x44 DUP3 ADD MSTORE PUSH1 0x64 ADD PUSH2 0x3BF JUMP JUMPDEST PUSH1 0x1 DUP1 SLOAD PUSH1 0x0 SWAP2 DUP3 PUSH2 0x4B7 DUP4 PUSH2 0x18CC JUMP JUMPDEST SWAP1 SWAP2 SSTORE POP PUSH1 0x0 DUP2 DUP2 MSTORE PUSH1 0x2 PUSH1 0x20 MSTORE PUSH1 0x40 SWAP1 KECCAK256 SWAP1 SWAP2 POP DUP1 PUSH2 0x4D7 DUP7 DUP3 PUSH2 0x196D JUMP JUMPDEST POP PUSH2 0x4E2 DUP5 TIMESTAMP PUSH2 0x1A2D JUMP JUMPDEST PUSH1 0x1 DUP3 ADD DUP2 SWAP1 SSTORE PUSH2 0x4F4 SWAP1 DUP5 SWAP1 PUSH2 0x1A2D JUMP JUMPDEST PUSH1 0x2 DUP3 ADD DUP2 SWAP1 SSTORE PUSH1 0x6 DUP3 ADD DUP1 SLOAD PUSH4 0x1000000 PUSH1 0x1 PUSH1 0xB8 SHL SUB NOT AND CALLER PUSH4 0x1000000 DUP2 MUL SWAP2 SWAP1 SWAP2 OR SWAP1 SWAP2 SSTORE PUSH1 0x1 DUP4 ADD SLOAD PUSH1 0x40 MLOAD DUP6 SWAP4 PUSH32 0xB0F44AB77840631AFD2F642DAA49E5D268BCE7BABF6C72558F47C5D027413B98 SWAP4 PUSH2 0x558 SWAP4 DUP12 SWAP4 SWAP1 SWAP3 SWAP2 SWAP1 PUSH2 0x1A40 JUMP JUMPDEST PUSH1 0x40 MLOAD DUP1 SWAP2 SUB SWAP1 LOG2 POP POP PUSH2 0x56C PUSH1 0x1 PUSH1 0x0 SSTORE JUMP JUMPDEST POP POP POP JUMP JUMPDEST PUSH2 0x579 PUSH2 0x139F JUMP JUMPDEST PUSH1 0x0 DUP4 DUP2 MSTORE PUSH1 0x2 PUSH1 0x20 MSTORE PUSH1 0x40 SWAP1 KECCAK256 PUSH1 0x1 DUP2 ADD SLOAD TIMESTAMP LT PUSH2 0x5CE JUMPI PUSH1 0x40 MLOAD PUSH3 0x461BCD PUSH1 0xE5 SHL DUP2 MSTORE PUSH1 0x20 PUSH1 0x4 DUP3 ADD MSTORE PUSH1 0x11 PUSH1 0x24 DUP3 ADD MSTORE PUSH17 0x21B7B6B6B4BA10383430B9B29037BB32B9 PUSH1 0x79 SHL PUSH1 0x44 DUP3 ADD MSTORE PUSH1 0x64 ADD PUSH2 0x3BF JUMP JUMPDEST PUSH1 0x0 DUP3 GT PUSH2 0x613 JUMPI PUSH1 0x40 MLOAD PUSH3 0x461BCD PUSH1 0xE5 SHL DUP2 MSTORE PUSH1 0x20 PUSH1 0x4 DUP3 ADD MSTORE PUSH1 0x12 PUSH1 0x24 DUP3 ADD MSTORE PUSH18 0x416D6F756E74206D757374206265203E203 PUSH1 0x74 SHL PUSH1 0x44 DUP3 ADD MSTORE PUSH1 0x64 ADD PUSH2 0x3BF JUMP JUMPDEST PUSH1 0x40 MLOAD PUSH4 0x23B872DD PUSH1 0xE0 SHL DUP2 MSTORE CALLER PUSH1 0x4 DUP3 ADD MSTORE ADDRESS PUSH1 0x24 DUP3 ADD MSTORE PUSH1 0x44 DUP2 ADD DUP4 SWAP1 MSTORE PUSH32 0x0 PUSH1 0x1 PUSH1 0x1 PUSH1 0xA0 SHL SUB AND SWAP1 PUSH4 0x23B872DD SWAP1 PUSH1 0x64 ADD PUSH1 0x20 PUSH1 0x40 MLOAD DUP1 DUP4 SUB DUP2 PUSH1 0x0 DUP8 GAS CALL ISZERO DUP1 ISZERO PUSH2 0x686 JUMPI RETURNDATASIZE PUSH1 0x0 DUP1 RETURNDATACOPY RETURNDATASIZE PUSH1 0x0 REVERT JUMPDEST POP POP POP POP PUSH1 0x40 MLOAD RETURNDATASIZE PUSH1 0x1F NOT PUSH1 0x1F DUP3 ADD AND DUP3 ADD DUP1 PUSH1 0x40 MSTORE POP DUP2 ADD SWAP1 PUSH2 0x6AA SWAP2 SWAP1 PUSH2 0x188D JUMP JUMPDEST PUSH2 0x6E8 JUMPI PUSH1 0x40 MLOAD PUSH3 0x461BCD PUSH1 0xE5 SHL DUP2 MSTORE PUSH1 0x20 PUSH1 0x4 DUP3 ADD MSTORE PUSH1 0xF PUSH1 0x24 DUP3 ADD MSTORE PUSH15 0x151C985B9CD9995C8819985A5B1959 PUSH1 0x8A SHL PUSH1 0x44 DUP3 ADD MSTORE PUSH1 0x64 ADD PUSH2 0x3BF JUMP JUMPDEST PUSH1 0x0 DUP5 DUP2 MSTORE PUSH1 0x3 PUSH1 0x20 SWAP1 DUP2 MSTORE PUSH1 0x40 DUP1 DUP4 KECCAK256 CALLER DUP1 DUP6 MSTORE SWAP1 DUP4 MSTORE DUP2 DUP5 KECCAK256 DUP8 SWAP1 SSTORE DUP8 DUP5 MSTORE PUSH1 0x4 DUP4 MSTORE DUP2 DUP5 KECCAK256 DUP2 DUP6 MSTORE DUP4 MSTORE DUP2 DUP5 KECCAK256 DUP1 SLOAD PUSH1 0xFF NOT AND PUSH1 0x1 OR SWAP1 SSTORE DUP8 DUP5 MSTORE PUSH1 0x6 DUP4 MSTORE DUP2 DUP5 KECCAK256 SWAP1 DUP5 MSTORE SWAP1 SWAP2 MSTORE DUP2 KECCAK256 DUP1 SLOAD DUP5 SWAP3 SWAP1 PUSH2 0x745 SWAP1 DUP5 SWAP1 PUSH2 0x1A2D JUMP JUMPDEST SWAP1 SWAP2 SSTORE POP POP PUSH1 0x40 DUP1 MLOAD DUP5 DUP2 MSTORE PUSH1 0x20 DUP2 ADD DUP5 SWAP1 MSTORE CALLER SWAP2 DUP7 SWAP2 PUSH32 0xC02F2358FE181CC846163D0CA2CD612408CEF67A7ACDBB92CD09045DF0E2FD9A SWAP2 ADD PUSH1 0x40 MLOAD DUP1 SWAP2 SUB SWAP1 LOG3 POP PUSH2 0x56C PUSH1 0x1 PUSH1 0x0 SSTORE JUMP JUMPDEST PUSH2 0x79A PUSH2 0x139F JUMP JUMPDEST PUSH1 0x0 DUP2 DUP2 MSTORE PUSH1 0x2 PUSH1 0x20 MSTORE PUSH1 0x40 SWAP1 KECCAK256 PUSH1 0x6 DUP2 ADD SLOAD PUSH1 0xFF AND PUSH2 0x7EB JUMPI PUSH1 0x40 MLOAD PUSH3 0x461BCD PUSH1 0xE5 SHL DUP2 MSTORE PUSH1 0x20 PUSH1 0x4 DUP3 ADD MSTORE PUSH1 0xC PUSH1 0x24 DUP3 ADD MSTORE PUSH12 0x139BDD081C995CDBDB1D9959 PUSH1 0xA2 SHL PUSH1 0x44 DUP3 ADD MSTORE PUSH1 0x64 ADD PUSH2 0x3BF JUMP JUMPDEST PUSH1 0x0 DUP1 PUSH1 0x0 PUSH2 0x7FA DUP5 DUP7 PUSH2 0x13C9 JUMP JUMPDEST SWAP3 POP SWAP3 POP SWAP3 POP PUSH1 0x0 DUP4 GT PUSH2 0x841 JUMPI PUSH1 0x40 MLOAD PUSH3 0x461BCD PUSH1 0xE5 SHL DUP2 MSTORE PUSH1 0x20 PUSH1 0x4 DUP3 ADD MSTORE PUSH1 0xE PUSH1 0x24 DUP3 ADD MSTORE PUSH14 0x139BC81DDA5B9B9A5B99C818995D PUSH1 0x92 SHL PUSH1 0x44 DUP3 ADD MSTORE PUSH1 0x64 ADD PUSH2 0x3BF JUMP JUMPDEST PUSH1 0x6 DUP5 ADD SLOAD PUSH2 0x862 SWAP1 DUP7 SWAP1 PUSH1 0xFF PUSH3 0x10000 DUP3 DIV DUP2 AND SWAP2 PUSH2 0x100 SWAP1 DIV AND PUSH2 0x1509 JUMP JUMPDEST PUSH1 0x6 DUP5 ADD SLOAD PUSH1 0x0 SWAP1 PUSH3 0x10000 SWAP1 DIV PUSH1 0xFF AND PUSH2 0x891 JUMPI DUP3 PUSH2 0x882 DUP4 DUP7 PUSH2 0x1A78 JUMP JUMPDEST PUSH2 0x88C SWAP2 SWAP1 PUSH2 0x1A8F JUMP JUMPDEST PUSH2 0x893 JUMP JUMPDEST DUP4 JUMPDEST PUSH1 0x40 MLOAD PUSH4 0xA9059CBB PUSH1 0xE0 SHL DUP2 MSTORE CALLER PUSH1 0x4 DUP3 ADD MSTORE PUSH1 0x24 DUP2 ADD DUP3 SWAP1 MSTORE SWAP1 SWAP2 POP PUSH32 0x0 PUSH1 0x1 PUSH1 0x1 PUSH1 0xA0 SHL SUB AND SWAP1 PUSH4 0xA9059CBB SWAP1 PUSH1 0x44 ADD PUSH1 0x20 PUSH1 0x40 MLOAD DUP1 DUP4 SUB DUP2 PUSH1 0x0 DUP8 GAS CALL ISZERO DUP1 ISZERO PUSH2 0x903 JUMPI RETURNDATASIZE PUSH1 0x0 DUP1 RETURNDATACOPY RETURNDATASIZE PUSH1 0x0 REVERT JUMPDEST POP POP POP POP PUSH1 0x40 MLOAD RETURNDATASIZE PUSH1 0x1F NOT PUSH1 0x1F DUP3 ADD AND DUP3 ADD DUP1 PUSH1 0x40 MSTORE POP DUP2 ADD SWAP1 PUSH2 0x927 SWAP2 SWAP1 PUSH2 0x188D JUMP JUMPDEST PUSH2 0x965 JUMPI PUSH1 0x40 MLOAD PUSH3 0x461BCD PUSH1 0xE5 SHL DUP2 MSTORE PUSH1 0x20 PUSH1 0x4 DUP3 ADD MSTORE PUSH1 0xF PUSH1 0x24 DUP3 ADD MSTORE PUSH15 0x151C985B9CD9995C8819985A5B1959 PUSH1 0x8A SHL PUSH1 0x44 DUP3 ADD MSTORE PUSH1 0x64 ADD PUSH2 0x3BF JUMP JUMPDEST POP POP POP POP POP PUSH2 0x974 PUSH1 0x1 PUSH1 0x0 SSTORE JUMP JUMPDEST POP JUMP JUMPDEST PUSH2 0x97F PUSH2 0x139F JUMP JUMPDEST PUSH1 0x0 DUP2 DUP2 MSTORE PUSH1 0x2 PUSH1 0x20 DUP2 SWAP1 MSTORE PUSH1 0x40 SWAP1 SWAP2 KECCAK256 SWAP1 DUP2 ADD SLOAD TIMESTAMP GT PUSH2 0x9DA JUMPI PUSH1 0x40 MLOAD PUSH3 0x461BCD PUSH1 0xE5 SHL DUP2 MSTORE PUSH1 0x20 PUSH1 0x4 DUP3 ADD MSTORE PUSH1 0x15 PUSH1 0x24 DUP3 ADD MSTORE PUSH21 0x2932BB32B0B610383430B9B2903737BA1037BB32B9 PUSH1 0x59 SHL PUSH1 0x44 DUP3 ADD MSTORE PUSH1 0x64 ADD PUSH2 0x3BF JUMP JUMPDEST PUSH1 0x6 DUP2 ADD SLOAD PUSH1 0xFF AND ISZERO PUSH2 0xA22 JUMPI PUSH1 0x40 MLOAD PUSH3 0x461BCD PUSH1 0xE5 SHL DUP2 MSTORE PUSH1 0x20 PUSH1 0x4 DUP3 ADD MSTORE PUSH1 0x10 PUSH1 0x24 DUP3 ADD MSTORE PUSH16 0x105B1C9958591E481C995CDBDB1D9959 PUSH1 0x82 SHL PUSH1 0x44 DUP3 ADD MSTORE PUSH1 0x64 ADD PUSH2 0x3BF JUMP JUMPDEST PUSH1 0x6 DUP2 ADD DUP1 SLOAD PUSH1 0xFF NOT AND PUSH1 0x1 OR SWAP1 SSTORE PUSH1 0x3 DUP2 ADD SLOAD PUSH1 0x4 DUP3 ADD SLOAD PUSH2 0xA45 SWAP2 SWAP1 PUSH2 0x159C JUMP JUMPDEST PUSH1 0x6 DUP4 ADD DUP1 SLOAD SWAP3 ISZERO ISZERO PUSH3 0x10000 MUL PUSH3 0xFF0000 NOT SWAP3 ISZERO ISZERO PUSH2 0x100 MUL SWAP3 SWAP1 SWAP3 AND PUSH3 0xFFFF00 NOT SWAP1 SWAP4 AND SWAP3 SWAP1 SWAP3 OR OR SWAP1 SSTORE PUSH1 0x5 DUP2 ADD SLOAD PUSH1 0x4 DUP3 ADD SLOAD PUSH1 0x3 DUP4 ADD SLOAD PUSH1 0x0 SWAP3 SWAP2 PUSH2 0xA8E SWAP2 PUSH2 0x1A2D JUMP JUMPDEST PUSH2 0xA98 SWAP2 SWAP1 PUSH2 0x1A2D JUMP JUMPDEST PUSH1 0x6 DUP4 ADD SLOAD SWAP1 SWAP2 POP PUSH1 0x0 SWAP1 PUSH3 0x10000 SWAP1 DIV PUSH1 0xFF AND PUSH2 0xABE JUMPI PUSH2 0xAB9 DUP3 PUSH2 0x15D5 JUMP JUMPDEST PUSH2 0xAC1 JUMP JUMPDEST PUSH1 0x0 JUMPDEST SWAP1 POP DUP1 ISZERO PUSH2 0xB6B JUMPI PUSH1 0x6 DUP4 ADD SLOAD PUSH1 0x40 MLOAD PUSH4 0xA9059CBB PUSH1 0xE0 SHL DUP2 MSTORE PUSH4 0x1000000 SWAP1 SWAP2 DIV PUSH1 0x1 PUSH1 0x1 PUSH1 0xA0 SHL SUB SWAP1 DUP2 AND PUSH1 0x4 DUP4 ADD MSTORE PUSH1 0x24 DUP3 ADD DUP4 SWAP1 MSTORE PUSH32 0x0 AND SWAP1 PUSH4 0xA9059CBB SWAP1 PUSH1 0x44 ADD PUSH1 0x20 PUSH1 0x40 MLOAD DUP1 DUP4 SUB DUP2 PUSH1 0x0 DUP8 GAS CALL ISZERO DUP1 ISZERO PUSH2 0xB45 JUMPI RETURNDATASIZE PUSH1 0x0 DUP1 RETURNDATACOPY RETURNDATASIZE PUSH1 0x0 REVERT JUMPDEST POP POP POP POP PUSH1 0x40 MLOAD RETURNDATASIZE PUSH1 0x1F NOT PUSH1 0x1F DUP3 ADD AND DUP3 ADD DUP1 PUSH1 0x40 MSTORE POP DUP2 ADD SWAP1 PUSH2 0xB69 SWAP2 SWAP1 PUSH2 0x188D JUMP JUMPDEST POP JUMPDEST PUSH1 0x6 DUP4 ADD SLOAD PUSH1 0x40 DUP1 MLOAD PUSH1 0xFF PUSH2 0x100 DUP5 DIV DUP2 AND ISZERO ISZERO DUP3 MSTORE PUSH3 0x10000 SWAP1 SWAP4 DIV SWAP1 SWAP3 AND ISZERO ISZERO PUSH1 0x20 DUP4 ADD MSTORE DUP2 ADD DUP4 SWAP1 MSTORE PUSH1 0x60 DUP2 ADD DUP3 SWAP1 MSTORE DUP5 SWAP1 PUSH32 0xCF0A48D2AD3F7480002E60B1EDA352F90145D89AF44EB49E792DAD0233F533B1 SWAP1 PUSH1 0x80 ADD PUSH1 0x40 MLOAD DUP1 SWAP2 SUB SWAP1 LOG2 POP POP POP PUSH2 0x974 PUSH1 0x1 PUSH1 0x0 SSTORE JUMP JUMPDEST PUSH1 0x2 PUSH1 0x20 MSTORE PUSH1 0x0 SWAP1 DUP2 MSTORE PUSH1 0x40 SWAP1 KECCAK256 DUP1 SLOAD DUP2 SWAP1 PUSH2 0xBF5 SWAP1 PUSH2 0x18E5 JUMP JUMPDEST DUP1 PUSH1 0x1F ADD PUSH1 0x20 DUP1 SWAP2 DIV MUL PUSH1 0x20 ADD PUSH1 0x40 MLOAD SWAP1 DUP2 ADD PUSH1 0x40 MSTORE DUP1 SWAP3 SWAP2 SWAP1 DUP2 DUP2 MSTORE PUSH1 0x20 ADD DUP3 DUP1 SLOAD PUSH2 0xC21 SWAP1 PUSH2 0x18E5 JUMP JUMPDEST DUP1 ISZERO PUSH2 0xC6E JUMPI DUP1 PUSH1 0x1F LT PUSH2 0xC43 JUMPI PUSH2 0x100 DUP1 DUP4 SLOAD DIV MUL DUP4 MSTORE SWAP2 PUSH1 0x20 ADD SWAP2 PUSH2 0xC6E JUMP JUMPDEST DUP3 ADD SWAP2 SWAP1 PUSH1 0x0 MSTORE PUSH1 0x20 PUSH1 0x0 KECCAK256 SWAP1 JUMPDEST DUP2 SLOAD DUP2 MSTORE SWAP1 PUSH1 0x1 ADD SWAP1 PUSH1 0x20 ADD DUP1 DUP4 GT PUSH2 0xC51 JUMPI DUP3 SWAP1 SUB PUSH1 0x1F AND DUP3 ADD SWAP2 JUMPDEST POP POP POP POP PUSH1 0x1 DUP4 ADD SLOAD PUSH1 0x2 DUP5 ADD SLOAD PUSH1 0x3 DUP6 ADD SLOAD PUSH1 0x4 DUP7 ADD SLOAD PUSH1 0x5 DUP8 ADD SLOAD PUSH1 0x6 SWAP1 SWAP8 ADD SLOAD SWAP6 SWAP7 SWAP4 SWAP6 SWAP3 SWAP5 POP SWAP1 SWAP3 SWAP1 SWAP2 PUSH1 0xFF DUP1 DUP3 AND SWAP2 PUSH2 0x100 DUP2 DIV DUP3 AND SWAP2 PUSH3 0x10000 DUP3 DIV AND SWAP1 PUSH4 0x1000000 SWAP1 DIV PUSH1 0x1 PUSH1 0x1 PUSH1 0xA0 SHL SUB AND DUP11 JUMP JUMPDEST PUSH2 0xCCD PUSH2 0x139F JUMP JUMPDEST PUSH1 0x0 DUP4 DUP2 MSTORE PUSH1 0x2 PUSH1 0x20 MSTORE PUSH1 0x40 SWAP1 KECCAK256 PUSH1 0x1 DUP2 ADD SLOAD TIMESTAMP LT ISZERO PUSH2 0xD2F JUMPI PUSH1 0x40 MLOAD PUSH3 0x461BCD PUSH1 0xE5 SHL DUP2 MSTORE PUSH1 0x20 PUSH1 0x4 DUP3 ADD MSTORE PUSH1 0x17 PUSH1 0x24 DUP3 ADD MSTORE PUSH32 0x436F6D6D6974207068617365206E6F7420616374697665000000000000000000 PUSH1 0x44 DUP3 ADD MSTORE PUSH1 0x64 ADD PUSH2 0x3BF JUMP JUMPDEST DUP1 PUSH1 0x2 ADD SLOAD TIMESTAMP LT PUSH2 0xD76 JUMPI PUSH1 0x40 MLOAD PUSH3 0x461BCD PUSH1 0xE5 SHL DUP2 MSTORE PUSH1 0x20 PUSH1 0x4 DUP3 ADD MSTORE PUSH1 0x11 PUSH1 0x24 DUP3 ADD MSTORE PUSH17 0x2932BB32B0B610383430B9B29037BB32B9 PUSH1 0x79 SHL PUSH1 0x44 DUP3 ADD MSTORE PUSH1 0x64 ADD PUSH2 0x3BF JUMP JUMPDEST PUSH1 0x0 DUP5 DUP2 MSTORE PUSH1 0x3 PUSH1 0x20 SWAP1 DUP2 MSTORE PUSH1 0x40 DUP1 DUP4 KECCAK256 CALLER DUP5 MSTORE SWAP1 SWAP2 MSTORE SWAP1 KECCAK256 SLOAD DUP1 PUSH2 0xDD0 JUMPI PUSH1 0x40 MLOAD PUSH3 0x461BCD PUSH1 0xE5 SHL DUP2 MSTORE PUSH1 0x20 PUSH1 0x4 DUP3 ADD MSTORE PUSH1 0x10 PUSH1 0x24 DUP3 ADD MSTORE PUSH16 0x139BC818995D0818DBDB5B5A5D1D1959 PUSH1 0x82 SHL PUSH1 0x44 DUP3 ADD MSTORE PUSH1 0x64 ADD PUSH2 0x3BF JUMP JUMPDEST PUSH1 0x40 MLOAD PUSH1 0x1 PUSH1 0x1 PUSH1 0xF8 SHL SUB NOT PUSH1 0xF8 DUP7 SWAP1 SHL AND PUSH1 0x20 DUP3 ADD MSTORE PUSH1 0x21 DUP2 ADD DUP5 SWAP1 MSTORE PUSH12 0xFFFFFFFFFFFFFFFFFFFFFFFF NOT CALLER PUSH1 0x60 SHL AND PUSH1 0x41 DUP3 ADD MSTORE DUP2 SWAP1 PUSH1 0x55 ADD PUSH1 0x40 MLOAD PUSH1 0x20 DUP2 DUP4 SUB SUB DUP2 MSTORE SWAP1 PUSH1 0x40 MSTORE DUP1 MLOAD SWAP1 PUSH1 0x20 ADD KECCAK256 EQ PUSH2 0xE64 JUMPI PUSH1 0x40 MLOAD PUSH3 0x461BCD PUSH1 0xE5 SHL DUP2 MSTORE PUSH1 0x20 PUSH1 0x4 DUP3 ADD MSTORE PUSH1 0x13 PUSH1 0x24 DUP3 ADD MSTORE PUSH19 0x125B9D985B1A59081A185CDA0BDC995D99585B PUSH1 0x6A SHL PUSH1 0x44 DUP3 ADD MSTORE PUSH1 0x64 ADD PUSH2 0x3BF JUMP JUMPDEST PUSH1 0x0 DUP6 DUP2 MSTORE PUSH1 0x6 PUSH1 0x20 SWAP1 DUP2 MSTORE PUSH1 0x40 DUP1 DUP4 KECCAK256 CALLER DUP5 MSTORE SWAP1 SWAP2 MSTORE SWAP1 KECCAK256 SLOAD DUP1 PUSH2 0xECB JUMPI PUSH1 0x40 MLOAD PUSH3 0x461BCD PUSH1 0xE5 SHL DUP2 MSTORE PUSH1 0x20 PUSH1 0x4 DUP3 ADD MSTORE PUSH1 0x1D PUSH1 0x24 DUP3 ADD MSTORE PUSH32 0x416C72656164792072657665616C6564206F72206E6F20616D6F756E74000000 PUSH1 0x44 DUP3 ADD MSTORE PUSH1 0x64 ADD PUSH2 0x3BF JUMP JUMPDEST PUSH1 0x0 DUP7 DUP2 MSTORE PUSH1 0x6 PUSH1 0x20 SWAP1 DUP2 MSTORE PUSH1 0x40 DUP1 DUP4 KECCAK256 CALLER DUP5 MSTORE SWAP1 SWAP2 MSTORE DUP2 KECCAK256 SSTORE PUSH1 0x2 PUSH1 0xFF DUP7 AND GT ISZERO PUSH2 0xF2A JUMPI PUSH1 0x40 MLOAD PUSH3 0x461BCD PUSH1 0xE5 SHL DUP2 MSTORE PUSH1 0x20 PUSH1 0x4 DUP3 ADD MSTORE PUSH1 0xE PUSH1 0x24 DUP3 ADD MSTORE PUSH14 0x496E76616C69642063686F696365 PUSH1 0x90 SHL PUSH1 0x44 DUP3 ADD MSTORE PUSH1 0x64 ADD PUSH2 0x3BF JUMP JUMPDEST DUP5 PUSH1 0xFF AND PUSH1 0x1 SUB PUSH2 0xF8B JUMPI DUP1 DUP4 PUSH1 0x3 ADD PUSH1 0x0 DUP3 DUP3 SLOAD PUSH2 0xF49 SWAP2 SWAP1 PUSH2 0x1A2D JUMP JUMPDEST SWAP1 SWAP2 SSTORE POP POP PUSH1 0x0 DUP7 DUP2 MSTORE PUSH1 0x5 PUSH1 0x20 SWAP1 DUP2 MSTORE PUSH1 0x40 DUP1 DUP4 KECCAK256 CALLER DUP5 MSTORE DUP3 MSTORE DUP1 DUP4 KECCAK256 PUSH1 0x1 DUP5 MSTORE SWAP1 SWAP2 MSTORE DUP2 KECCAK256 DUP1 SLOAD DUP4 SWAP3 SWAP1 PUSH2 0xF80 SWAP1 DUP5 SWAP1 PUSH2 0x1A2D JUMP JUMPDEST SWAP1 SWAP2 SSTORE POP PUSH2 0x1031 SWAP1 POP JUMP JUMPDEST DUP5 PUSH1 0xFF AND PUSH1 0x0 SUB PUSH2 0xFE0 JUMPI DUP1 DUP4 PUSH1 0x4 ADD PUSH1 0x0 DUP3 DUP3 SLOAD PUSH2 0xFAA SWAP2 SWAP1 PUSH2 0x1A2D JUMP JUMPDEST SWAP1 SWAP2 SSTORE POP POP PUSH1 0x0 DUP7 DUP2 MSTORE PUSH1 0x5 PUSH1 0x20 SWAP1 DUP2 MSTORE PUSH1 0x40 DUP1 DUP4 KECCAK256 CALLER DUP5 MSTORE DUP3 MSTORE DUP1 DUP4 KECCAK256 DUP4 DUP1 MSTORE SWAP1 SWAP2 MSTORE DUP2 KECCAK256 DUP1 SLOAD DUP4 SWAP3 SWAP1 PUSH2 0xF80 SWAP1 DUP5 SWAP1 PUSH2 0x1A2D JUMP JUMPDEST DUP1 DUP4 PUSH1 0x5 ADD PUSH1 0x0 DUP3 DUP3 SLOAD PUSH2 0xFF4 SWAP2 SWAP1 PUSH2 0x1A2D JUMP JUMPDEST SWAP1 SWAP2 SSTORE POP POP PUSH1 0x0 DUP7 DUP2 MSTORE PUSH1 0x5 PUSH1 0x20 SWAP1 DUP2 MSTORE PUSH1 0x40 DUP1 DUP4 KECCAK256 CALLER DUP5 MSTORE DUP3 MSTORE DUP1 DUP4 KECCAK256 PUSH1 0x2 DUP5 MSTORE SWAP1 SWAP2 MSTORE DUP2 KECCAK256 DUP1 SLOAD DUP4 SWAP3 SWAP1 PUSH2 0x102B SWAP1 DUP5 SWAP1 PUSH2 0x1A2D JUMP JUMPDEST SWAP1 SWAP2 SSTORE POP POP JUMPDEST PUSH1 0x40 DUP1 MLOAD PUSH1 0xFF DUP8 AND DUP2 MSTORE PUSH1 0x20 DUP2 ADD DUP4 SWAP1 MSTORE CALLER SWAP2 DUP9 SWAP2 PUSH32 0x69CBE73B5F08F9347A0159DD589B5E7EA7F54D8B523F6BBE183C1A7C13B6DBA7 SWAP2 ADD PUSH1 0x40 MLOAD DUP1 SWAP2 SUB SWAP1 LOG3 POP POP POP PUSH2 0x56C PUSH1 0x1 PUSH1 0x0 SSTORE JUMP JUMPDEST PUSH2 0x1086 PUSH2 0x139F JUMP JUMPDEST PUSH1 0x0 DUP2 DUP2 MSTORE PUSH1 0x2 PUSH1 0x20 DUP2 SWAP1 MSTORE PUSH1 0x40 SWAP1 SWAP2 KECCAK256 SWAP1 DUP2 ADD SLOAD TIMESTAMP GT PUSH2 0x10E1 JUMPI PUSH1 0x40 MLOAD PUSH3 0x461BCD PUSH1 0xE5 SHL DUP2 MSTORE PUSH1 0x20 PUSH1 0x4 DUP3 ADD MSTORE PUSH1 0x15 PUSH1 0x24 DUP3 ADD MSTORE PUSH21 0x2932BB32B0B610383430B9B2903737BA1037BB32B9 PUSH1 0x59 SHL PUSH1 0x44 DUP3 ADD MSTORE PUSH1 0x64 ADD PUSH2 0x3BF JUMP JUMPDEST PUSH1 0x0 DUP3 DUP2 MSTORE PUSH1 0x6 PUSH1 0x20 SWAP1 DUP2 MSTORE PUSH1 0x40 DUP1 DUP4 KECCAK256 CALLER DUP5 MSTORE SWAP1 SWAP2 MSTORE SWAP1 KECCAK256 SLOAD DUP1 PUSH2 0x113E JUMPI PUSH1 0x40 MLOAD PUSH3 0x461BCD PUSH1 0xE5 SHL DUP2 MSTORE PUSH1 0x20 PUSH1 0x4 DUP3 ADD MSTORE PUSH1 0x13 PUSH1 0x24 DUP3 ADD MSTORE PUSH19 0x4E6F20756E72657665616C6564207374616B65 PUSH1 0x68 SHL PUSH1 0x44 DUP3 ADD MSTORE PUSH1 0x64 ADD PUSH2 0x3BF JUMP JUMPDEST PUSH1 0x0 DUP4 DUP2 MSTORE PUSH1 0x6 PUSH1 0x20 SWAP1 DUP2 MSTORE PUSH1 0x40 DUP1 DUP4 KECCAK256 CALLER DUP1 DUP6 MSTORE SWAP1 DUP4 MSTORE DUP2 DUP5 KECCAK256 DUP5 SWAP1 SSTORE DUP7 DUP5 MSTORE PUSH1 0x3 DUP4 MSTORE DUP2 DUP5 KECCAK256 SWAP1 DUP5 MSTORE SWAP1 SWAP2 MSTORE DUP2 KECCAK256 DUP2 SWAP1 SSTORE PUSH2 0x2710 PUSH2 0x117F PUSH1 0x64 DUP5 PUSH2 0x1A78 JUMP JUMPDEST PUSH2 0x1189 SWAP2 SWAP1 PUSH2 0x1A8F JUMP JUMPDEST SWAP1 POP PUSH1 0x0 PUSH2 0x1197 DUP3 DUP5 PUSH2 0x1AB1 JUMP JUMPDEST SWAP1 POP DUP2 ISZERO PUSH2 0x127E JUMPI PUSH1 0x40 MLOAD PUSH4 0xA9059CBB PUSH1 0xE0 SHL DUP2 MSTORE PUSH2 0xDEAD PUSH1 0x4 DUP3 ADD MSTORE PUSH1 0x24 DUP2 ADD DUP4 SWAP1 MSTORE PUSH32 0x0 PUSH1 0x1 PUSH1 0x1 PUSH1 0xA0 SHL SUB AND SWAP1 PUSH4 0xA9059CBB SWAP1 PUSH1 0x44 ADD PUSH1 0x20 PUSH1 0x40 MLOAD DUP1 DUP4 SUB DUP2 PUSH1 0x0 DUP8 GAS CALL ISZERO DUP1 ISZERO PUSH2 0x120E JUMPI RETURNDATASIZE PUSH1 0x0 DUP1 RETURNDATACOPY RETURNDATASIZE PUSH1 0x0 REVERT JUMPDEST POP POP POP POP PUSH1 0x40 MLOAD RETURNDATASIZE PUSH1 0x1F NOT PUSH1 0x1F DUP3 ADD AND DUP3 ADD DUP1 PUSH1 0x40 MSTORE POP DUP2 ADD SWAP1 PUSH2 0x1232 SWAP2 SWAP1 PUSH2 0x188D JUMP JUMPDEST PUSH2 0x127E JUMPI PUSH1 0x40 MLOAD PUSH3 0x461BCD PUSH1 0xE5 SHL DUP2 MSTORE PUSH1 0x20 PUSH1 0x4 DUP3 ADD MSTORE PUSH1 0x17 PUSH1 0x24 DUP3 ADD MSTORE PUSH32 0x50656E616C7479207472616E73666572206661696C6564000000000000000000 PUSH1 0x44 DUP3 ADD MSTORE PUSH1 0x64 ADD PUSH2 0x3BF JUMP JUMPDEST PUSH1 0x40 MLOAD PUSH4 0xA9059CBB PUSH1 0xE0 SHL DUP2 MSTORE CALLER PUSH1 0x4 DUP3 ADD MSTORE PUSH1 0x24 DUP2 ADD DUP3 SWAP1 MSTORE PUSH32 0x0 PUSH1 0x1 PUSH1 0x1 PUSH1 0xA0 SHL SUB AND SWAP1 PUSH4 0xA9059CBB SWAP1 PUSH1 0x44 ADD PUSH1 0x20 PUSH1 0x40 MLOAD DUP1 DUP4 SUB DUP2 PUSH1 0x0 DUP8 GAS CALL ISZERO DUP1 ISZERO PUSH2 0x12EB JUMPI RETURNDATASIZE PUSH1 0x0 DUP1 RETURNDATACOPY RETURNDATASIZE PUSH1 0x0 REVERT JUMPDEST POP POP POP POP PUSH1 0x40 MLOAD RETURNDATASIZE PUSH1 0x1F NOT PUSH1 0x1F DUP3 ADD AND DUP3 ADD DUP1 PUSH1 0x40 MSTORE POP DUP2 ADD SWAP1 PUSH2 0x130F SWAP2 SWAP1 PUSH2 0x188D JUMP JUMPDEST PUSH2 0x1354 JUMPI PUSH1 0x40 MLOAD PUSH3 0x461BCD PUSH1 0xE5 SHL DUP2 MSTORE PUSH1 0x20 PUSH1 0x4 DUP3 ADD MSTORE PUSH1 0x16 PUSH1 0x24 DUP3 ADD MSTORE PUSH22 0x1499599D5B99081D1C985B9CD9995C8819985A5B1959 PUSH1 0x52 SHL PUSH1 0x44 DUP3 ADD MSTORE PUSH1 0x64 ADD PUSH2 0x3BF JUMP JUMPDEST PUSH1 0x40 DUP1 MLOAD DUP3 DUP2 MSTORE PUSH1 0x20 DUP2 ADD DUP5 SWAP1 MSTORE CALLER SWAP2 DUP8 SWAP2 PUSH32 0x8BB26E72AAF6E900094EA180BFBE84450E669B3C57D843FA18E33E40A46616F5 SWAP2 ADD PUSH1 0x40 MLOAD DUP1 SWAP2 SUB SWAP1 LOG3 POP POP POP POP PUSH2 0x974 PUSH1 0x1 PUSH1 0x0 SSTORE JUMP JUMPDEST PUSH1 0x2 PUSH1 0x0 SLOAD SUB PUSH2 0x13C2 JUMPI PUSH1 0x40 MLOAD PUSH4 0x3EE5AEB5 PUSH1 0xE0 SHL DUP2 MSTORE PUSH1 0x4 ADD PUSH1 0x40 MLOAD DUP1 SWAP2 SUB SWAP1 REVERT JUMPDEST PUSH1 0x2 PUSH1 0x0 SSTORE JUMP JUMPDEST PUSH1 0x0 DUP1 PUSH1 0x0 DUP1 DUP6 PUSH1 0x5 ADD SLOAD DUP7 PUSH1 0x4 ADD SLOAD DUP8 PUSH1 0x3 ADD SLOAD PUSH2 0x13E8 SWAP2 SWAP1 PUSH2 0x1A2D JUMP JUMPDEST PUSH2 0x13F2 SWAP2 SWAP1 PUSH2 0x1A2D JUMP JUMPDEST PUSH1 0x6 DUP8 ADD SLOAD SWAP1 SWAP2 POP PUSH1 0x0 SWAP1 PUSH3 0x10000 SWAP1 DIV PUSH1 0xFF AND PUSH2 0x1418 JUMPI PUSH2 0x1413 DUP3 PUSH2 0x15D5 JUMP JUMPDEST PUSH2 0x141B JUMP JUMPDEST PUSH1 0x0 JUMPDEST SWAP1 POP PUSH2 0x1427 DUP2 DUP4 PUSH2 0x1AB1 JUMP JUMPDEST PUSH1 0x6 DUP9 ADD SLOAD SWAP1 SWAP4 POP PUSH3 0x10000 SWAP1 DIV PUSH1 0xFF AND ISZERO PUSH2 0x148F JUMPI PUSH1 0x0 DUP7 DUP2 MSTORE PUSH1 0x5 PUSH1 0x20 SWAP1 DUP2 MSTORE PUSH1 0x40 DUP1 DUP4 KECCAK256 CALLER DUP5 MSTORE DUP3 MSTORE DUP1 DUP4 KECCAK256 PUSH1 0x2 DUP5 MSTORE SWAP1 SWAP2 MSTORE DUP1 DUP3 KECCAK256 SLOAD PUSH1 0x1 DUP4 MSTORE DUP2 DUP4 KECCAK256 SLOAD DUP4 DUP1 MSTORE SWAP2 SWAP1 SWAP3 KECCAK256 SLOAD PUSH2 0x147B SWAP2 SWAP1 PUSH2 0x1A2D JUMP JUMPDEST PUSH2 0x1485 SWAP2 SWAP1 PUSH2 0x1A2D JUMP JUMPDEST SWAP5 POP DUP2 SWAP4 POP PUSH2 0x1500 JUMP JUMPDEST PUSH1 0x6 DUP8 ADD SLOAD PUSH2 0x100 SWAP1 DIV PUSH1 0xFF AND ISZERO PUSH2 0x14D3 JUMPI PUSH1 0x0 DUP7 DUP2 MSTORE PUSH1 0x5 PUSH1 0x20 SWAP1 DUP2 MSTORE PUSH1 0x40 DUP1 DUP4 KECCAK256 CALLER DUP5 MSTORE DUP3 MSTORE DUP1 DUP4 KECCAK256 PUSH1 0x1 DUP5 MSTORE SWAP1 SWAP2 MSTORE SWAP1 KECCAK256 SLOAD PUSH1 0x3 DUP9 ADD SLOAD SWAP1 SWAP6 POP SWAP4 POP PUSH2 0x1500 JUMP JUMPDEST PUSH1 0x0 DUP7 DUP2 MSTORE PUSH1 0x5 PUSH1 0x20 SWAP1 DUP2 MSTORE PUSH1 0x40 DUP1 DUP4 KECCAK256 CALLER DUP5 MSTORE DUP3 MSTORE DUP1 DUP4 KECCAK256 DUP4 DUP1 MSTORE SWAP1 SWAP2 MSTORE SWAP1 KECCAK256 SLOAD PUSH1 0x4 DUP9 ADD SLOAD SWAP1 SWAP6 POP SWAP4 POP JUMPDEST POP POP SWAP3 POP SWAP3 POP SWAP3 JUMP JUMPDEST DUP2 ISZERO PUSH2 0x1549 JUMPI POP POP PUSH1 0x0 SWAP1 DUP2 MSTORE PUSH1 0x5 PUSH1 0x20 SWAP1 DUP2 MSTORE PUSH1 0x40 DUP1 DUP4 KECCAK256 CALLER DUP5 MSTORE DUP3 MSTORE DUP1 DUP4 KECCAK256 DUP4 DUP1 MSTORE SWAP1 SWAP2 MSTORE DUP1 DUP3 KECCAK256 DUP3 SWAP1 SSTORE PUSH1 0x1 DUP3 MSTORE DUP1 DUP3 KECCAK256 DUP3 SWAP1 SSTORE PUSH1 0x2 DUP3 MSTORE DUP2 KECCAK256 SSTORE JUMP JUMPDEST DUP1 ISZERO PUSH2 0x1576 JUMPI POP POP PUSH1 0x0 SWAP1 DUP2 MSTORE PUSH1 0x5 PUSH1 0x20 SWAP1 DUP2 MSTORE PUSH1 0x40 DUP1 DUP4 KECCAK256 CALLER DUP5 MSTORE DUP3 MSTORE DUP1 DUP4 KECCAK256 PUSH1 0x1 DUP5 MSTORE SWAP1 SWAP2 MSTORE DUP2 KECCAK256 SSTORE JUMP JUMPDEST POP POP PUSH1 0x0 SWAP1 DUP2 MSTORE PUSH1 0x5 PUSH1 0x20 SWAP1 DUP2 MSTORE PUSH1 0x40 DUP1 DUP4 KECCAK256 CALLER DUP5 MSTORE DUP3 MSTORE DUP1 DUP4 KECCAK256 DUP4 DUP1 MSTORE SWAP1 SWAP2 MSTORE DUP2 KECCAK256 SSTORE JUMP JUMPDEST PUSH1 0x0 DUP1 DUP3 DUP5 GT ISZERO PUSH2 0x15B3 JUMPI POP PUSH1 0x0 SWAP1 POP PUSH1 0x1 PUSH2 0x15CE JUMP JUMPDEST DUP4 DUP4 GT ISZERO PUSH2 0x15C6 JUMPI POP PUSH1 0x0 SWAP1 POP DUP1 PUSH2 0x15CE JUMP JUMPDEST POP PUSH1 0x1 SWAP1 POP PUSH1 0x0 JUMPDEST SWAP3 POP SWAP3 SWAP1 POP JUMP JUMPDEST PUSH1 0x0 PUSH2 0x2710 PUSH2 0x15E5 PUSH1 0x64 DUP5 PUSH2 0x1A78 JUMP JUMPDEST PUSH2 0x15EF SWAP2 SWAP1 PUSH2 0x1A8F JUMP JUMPDEST SWAP3 SWAP2 POP POP JUMP JUMPDEST PUSH4 0x4E487B71 PUSH1 0xE0 SHL PUSH1 0x0 MSTORE PUSH1 0x41 PUSH1 0x4 MSTORE PUSH1 0x24 PUSH1 0x0 REVERT JUMPDEST PUSH1 0x0 DUP1 PUSH1 0x0 PUSH1 0x60 DUP5 DUP7 SUB SLT ISZERO PUSH2 0x1620 JUMPI PUSH1 0x0 DUP1 REVERT JUMPDEST DUP4 CALLDATALOAD PUSH8 0xFFFFFFFFFFFFFFFF DUP1 DUP3 GT ISZERO PUSH2 0x1638 JUMPI PUSH1 0x0 DUP1 REVERT JUMPDEST DUP2 DUP7 ADD SWAP2 POP DUP7 PUSH1 0x1F DUP4 ADD SLT PUSH2 0x164C JUMPI PUSH1 0x0 DUP1 REVERT JUMPDEST DUP2 CALLDATALOAD DUP2 DUP2 GT ISZERO PUSH2 0x165E JUMPI PUSH2 0x165E PUSH2 0x15F5 JUMP JUMPDEST PUSH1 0x40 MLOAD PUSH1 0x1F DUP3 ADD PUSH1 0x1F NOT SWAP1 DUP2 AND PUSH1 0x3F ADD AND DUP2 ADD SWAP1 DUP4 DUP3 GT DUP2 DUP4 LT OR ISZERO PUSH2 0x1686 JUMPI PUSH2 0x1686 PUSH2 0x15F5 JUMP JUMPDEST DUP2 PUSH1 0x40 MSTORE DUP3 DUP2 MSTORE DUP10 PUSH1 0x20 DUP5 DUP8 ADD ADD GT ISZERO PUSH2 0x169F JUMPI PUSH1 0x0 DUP1 REVERT JUMPDEST DUP3 PUSH1 0x20 DUP7 ADD PUSH1 0x20 DUP4 ADD CALLDATACOPY PUSH1 0x0 PUSH1 0x20 DUP5 DUP4 ADD ADD MSTORE DUP1 SWAP8 POP POP POP POP POP POP PUSH1 0x20 DUP5 ADD CALLDATALOAD SWAP2 POP PUSH1 0x40 DUP5 ADD CALLDATALOAD SWAP1 POP SWAP3 POP SWAP3 POP SWAP3 JUMP JUMPDEST PUSH1 0x0 DUP1 PUSH1 0x0 PUSH1 0x60 DUP5 DUP7 SUB SLT ISZERO PUSH2 0x16E4 JUMPI PUSH1 0x0 DUP1 REVERT JUMPDEST POP POP DUP2 CALLDATALOAD SWAP4 PUSH1 0x20 DUP4 ADD CALLDATALOAD SWAP4 POP PUSH1 0x40 SWAP1 SWAP3 ADD CALLDATALOAD SWAP2 SWAP1 POP JUMP JUMPDEST PUSH1 0x0 PUSH1 0x20 DUP3 DUP5 SUB SLT ISZERO PUSH2 0x170D JUMPI PUSH1 0x0 DUP1 REVERT JUMPDEST POP CALLDATALOAD SWAP2 SWAP1 POP JUMP JUMPDEST DUP1 CALLDATALOAD PUSH1 0x1 PUSH1 0x1 PUSH1 0xA0 SHL SUB DUP2 AND DUP2 EQ PUSH2 0x172B JUMPI PUSH1 0x0 DUP1 REVERT JUMPDEST SWAP2 SWAP1 POP JUMP JUMPDEST PUSH1 0x0 DUP1 PUSH1 0x40 DUP4 DUP6 SUB SLT ISZERO PUSH2 0x1743 JUMPI PUSH1 0x0 DUP1 REVERT JUMPDEST DUP3 CALLDATALOAD SWAP2 POP PUSH2 0x1753 PUSH1 0x20 DUP5 ADD PUSH2 0x1714 JUMP JUMPDEST SWAP1 POP SWAP3 POP SWAP3 SWAP1 POP JUMP JUMPDEST DUP1 CALLDATALOAD PUSH1 0xFF DUP2 AND DUP2 EQ PUSH2 0x172B JUMPI PUSH1 0x0 DUP1 REVERT JUMPDEST PUSH1 0x0 DUP1 PUSH1 0x0 PUSH1 0x60 DUP5 DUP7 SUB SLT ISZERO PUSH2 0x1782 JUMPI PUSH1 0x0 DUP1 REVERT JUMPDEST DUP4 CALLDATALOAD SWAP3 POP PUSH2 0x1792 PUSH1 0x20 DUP6 ADD PUSH2 0x1714 JUMP JUMPDEST SWAP2 POP PUSH2 0x17A0 PUSH1 0x40 DUP6 ADD PUSH2 0x175C JUMP JUMPDEST SWAP1 POP SWAP3 POP SWAP3 POP SWAP3 JUMP JUMPDEST PUSH1 0x0 DUP2 MLOAD DUP1 DUP5 MSTORE PUSH1 0x0 JUMPDEST DUP2 DUP2 LT ISZERO PUSH2 0x17CF JUMPI PUSH1 0x20 DUP2 DUP6 ADD DUP2 ADD MLOAD DUP7 DUP4 ADD DUP3 ADD MSTORE ADD PUSH2 0x17B3 JUMP JUMPDEST POP PUSH1 0x0 PUSH1 0x20 DUP3 DUP7 ADD ADD MSTORE PUSH1 0x20 PUSH1 0x1F NOT PUSH1 0x1F DUP4 ADD AND DUP6 ADD ADD SWAP2 POP POP SWAP3 SWAP2 POP POP JUMP JUMPDEST PUSH1 0x0 PUSH2 0x140 DUP1 DUP4 MSTORE PUSH2 0x1803 DUP2 DUP5 ADD DUP15 PUSH2 0x17A9 JUMP JUMPDEST PUSH1 0x20 DUP5 ADD SWAP13 SWAP1 SWAP13 MSTORE POP POP PUSH1 0x40 DUP2 ADD SWAP9 SWAP1 SWAP9 MSTORE PUSH1 0x60 DUP9 ADD SWAP7 SWAP1 SWAP7 MSTORE PUSH1 0x80 DUP8 ADD SWAP5 SWAP1 SWAP5 MSTORE PUSH1 0xA0 DUP7 ADD SWAP3 SWAP1 SWAP3 MSTORE ISZERO ISZERO PUSH1 0xC0 DUP6 ADD MSTORE ISZERO ISZERO PUSH1 0xE0 DUP5 ADD MSTORE ISZERO ISZERO PUSH2 0x100 DUP4 ADD MSTORE PUSH1 0x1 PUSH1 0x1 PUSH1 0xA0 SHL SUB AND PUSH2 0x120 SWAP1 SWAP2 ADD MSTORE SWAP2 SWAP1 POP JUMP JUMPDEST PUSH1 0x0 DUP1 PUSH1 0x0 PUSH1 0x60 DUP5 DUP7 SUB SLT ISZERO PUSH2 0x186D JUMPI PUSH1 0x0 DUP1 REVERT JUMPDEST DUP4 CALLDATALOAD SWAP3 POP PUSH2 0x187D PUSH1 0x20 DUP6 ADD PUSH2 0x175C JUMP JUMPDEST SWAP2 POP PUSH1 0x40 DUP5 ADD CALLDATALOAD SWAP1 POP SWAP3 POP SWAP3 POP SWAP3 JUMP JUMPDEST PUSH1 0x0 PUSH1 0x20 DUP3 DUP5 SUB SLT ISZERO PUSH2 0x189F JUMPI PUSH1 0x0 DUP1 REVERT JUMPDEST DUP2 MLOAD DUP1 ISZERO ISZERO DUP2 EQ PUSH2 0x18AF JUMPI PUSH1 0x0 DUP1 REVERT JUMPDEST SWAP4 SWAP3 POP POP POP JUMP JUMPDEST PUSH4 0x4E487B71 PUSH1 0xE0 SHL PUSH1 0x0 MSTORE PUSH1 0x11 PUSH1 0x4 MSTORE PUSH1 0x24 PUSH1 0x0 REVERT JUMPDEST PUSH1 0x0 PUSH1 0x1 DUP3 ADD PUSH2 0x18DE JUMPI PUSH2 0x18DE PUSH2 0x18B6 JUMP JUMPDEST POP PUSH1 0x1 ADD SWAP1 JUMP JUMPDEST PUSH1 0x1 DUP2 DUP2 SHR SWAP1 DUP3 AND DUP1 PUSH2 0x18F9 JUMPI PUSH1 0x7F DUP3 AND SWAP2 POP JUMPDEST PUSH1 0x20 DUP3 LT DUP2 SUB PUSH2 0x1919 JUMPI PUSH4 0x4E487B71 PUSH1 0xE0 SHL PUSH1 0x0 MSTORE PUSH1 0x22 PUSH1 0x4 MSTORE PUSH1 0x24 PUSH1 0x0 REVERT JUMPDEST POP SWAP2 SWAP1 POP JUMP JUMPDEST PUSH1 0x1F DUP3 GT ISZERO PUSH2 0x56C JUMPI PUSH1 0x0 DUP2 DUP2 MSTORE PUSH1 0x20 DUP2 KECCAK256 PUSH1 0x1F DUP6 ADD PUSH1 0x5 SHR DUP2 ADD PUSH1 0x20 DUP7 LT ISZERO PUSH2 0x1946 JUMPI POP DUP1 JUMPDEST PUSH1 0x1F DUP6 ADD PUSH1 0x5 SHR DUP3 ADD SWAP2 POP JUMPDEST DUP2 DUP2 LT ISZERO PUSH2 0x1965 JUMPI DUP3 DUP2 SSTORE PUSH1 0x1 ADD PUSH2 0x1952 JUMP JUMPDEST POP POP POP POP POP POP JUMP JUMPDEST DUP2 MLOAD PUSH8 0xFFFFFFFFFFFFFFFF DUP2 GT ISZERO PUSH2 0x1987 JUMPI PUSH2 0x1987 PUSH2 0x15F5 JUMP JUMPDEST PUSH2 0x199B DUP2 PUSH2 0x1995 DUP5 SLOAD PUSH2 0x18E5 JUMP JUMPDEST DUP5 PUSH2 0x191F JUMP JUMPDEST PUSH1 0x20 DUP1 PUSH1 0x1F DUP4 GT PUSH1 0x1 DUP2 EQ PUSH2 0x19D0 JUMPI PUSH1 0x0 DUP5 ISZERO PUSH2 0x19B8 JUMPI POP DUP6 DUP4 ADD MLOAD JUMPDEST PUSH1 0x0 NOT PUSH1 0x3 DUP7 SWAP1 SHL SHR NOT AND PUSH1 0x1 DUP6 SWAP1 SHL OR DUP6 SSTORE PUSH2 0x1965 JUMP JUMPDEST PUSH1 0x0 DUP6 DUP2 MSTORE PUSH1 0x20 DUP2 KECCAK256 PUSH1 0x1F NOT DUP7 AND SWAP2 JUMPDEST DUP3 DUP2 LT ISZERO PUSH2 0x19FF JUMPI DUP9 DUP7 ADD MLOAD DUP3 SSTORE SWAP5 DUP5 ADD SWAP5 PUSH1 0x1 SWAP1 SWAP2 ADD SWAP1 DUP5 ADD PUSH2 0x19E0 JUMP JUMPDEST POP DUP6 DUP3 LT ISZERO PUSH2 0x1A1D JUMPI DUP8 DUP6 ADD MLOAD PUSH1 0x0 NOT PUSH1 0x3 DUP9 SWAP1 SHL PUSH1 0xF8 AND SHR NOT AND DUP2 SSTORE JUMPDEST POP POP POP POP POP PUSH1 0x1 SWAP1 DUP2 SHL ADD SWAP1 SSTORE POP JUMP JUMPDEST DUP1 DUP3 ADD DUP1 DUP3 GT ISZERO PUSH2 0x15EF JUMPI PUSH2 0x15EF PUSH2 0x18B6 JUMP JUMPDEST PUSH1 0x80 DUP2 MSTORE PUSH1 0x0 PUSH2 0x1A53 PUSH1 0x80 DUP4 ADD DUP8 PUSH2 0x17A9 JUMP JUMPDEST PUSH1 0x20 DUP4 ADD SWAP6 SWAP1 SWAP6 MSTORE POP PUSH1 0x40 DUP2 ADD SWAP3 SWAP1 SWAP3 MSTORE PUSH1 0x1 PUSH1 0x1 PUSH1 0xA0 SHL SUB AND PUSH1 0x60 SWAP1 SWAP2 ADD MSTORE SWAP2 SWAP1 POP JUMP JUMPDEST DUP1 DUP3 MUL DUP2 ISZERO DUP3 DUP3 DIV DUP5 EQ OR PUSH2 0x15EF JUMPI PUSH2 0x15EF PUSH2 0x18B6 JUMP JUMPDEST PUSH1 0x0 DUP3 PUSH2 0x1AAC JUMPI PUSH4 0x4E487B71 PUSH1 0xE0 SHL PUSH1 0x0 MSTORE PUSH1 0x12 PUSH1 0x4 MSTORE PUSH1 0x24 PUSH1 0x0 REVERT JUMPDEST POP DIV SWAP1 JUMP JUMPDEST DUP2 DUP2 SUB DUP2 DUP2 GT ISZERO PUSH2 0x15EF JUMPI PUSH2 0x15EF PUSH2 0x18B6 JUMP INVALID LOG2 PUSH5 0x6970667358 0x22 SLT KECCAK256 COINBASE PUSH1 0x88 0xD1 0xA5 MLOAD NOT CALLDATALOAD SWAP6 RETURNDATASIZE SLOAD PUSH18 0xB15A430C2EA6B2F034A1F544DB5686488491 GASLIMIT 0xBB PUSH5 0x736F6C6343 STOP ADDMOD EQ STOP CALLER "},"methodIdentifiers":{"ORIGINATOR_FEE_BPS()":"5acd45be","STATEMENT_FEE()":"2e8f036a","UNREVEALED_PENALTY_BPS()":"b9e42385","bets(uint256,address,uint8)":"8f99230e","claim(uint256)":"379607f5","commitBet(uint256,bytes32,uint256)":"1b88272a","commits(uint256,address)":"885d68a8","committedAmount(uint256,address)":"57cb0c11","hasCommitted(uint256,address)":"a99ef9f5","marketCount()":"ec979082","markets(uint256)":"b1283e77","resolve(uint256)":"4f896d4f","revealBet(uint256,uint8,uint256)":"cdbf9582","submitStatement(string,uint256,uint256)":"1204078d","token()":"fc0c546a","withdrawUnrevealed(uint256)":"fe838b02"}}}}}