{"contracts/mocks/DummyMarketAMM.sol":{"DummyMarketAMM":{"abi":[{"inputs":[{"internalType":"address","name":"tokenAddress","type":"address"}],"stateMutability":"nonpayable","type":"constructor"},{"inputs":[],"name":"lastCaller","outputs":[{"internalType":"address","name":"","type":"address"}],"stateMutability":"view","type":"function"},{"inputs":[{"internalType":"uint256","name":"amount","type":"uint256"}],"name":"mint","outputs":[],"stateMutability":"nonpayable","type":"function"},{"inputs":[],"name":"mintedTotal","outputs":[{"internalType":"uint256","name":"","type":"uint256"}],"stateMutability":"view","type":"function"},{"inputs":[],"name":"token","outputs":[{"internalType":"contract AlphaHelixToken","name":"","type":"address"}],"stateMutability":"view","type":"function"}],"evm":{"bytecode":{"linkReferences":{},"object":"60a03461007157601f61030038819003918201601f19168301916001600160401b038311848410176100765780849260209460405283398101031261007157516001600160a01b0381169081900361007157608052604051610273908161008d82396080518181816064015260fd0152f35b600080fd5b634e487b7160e01b600052604160045260246000fdfe608060408181526004918236101561001657600080fd5b600092833560e01c9182632113522a1461021857508163891aaf68146101fb578163a0712d6814610097575063fc0c546a1461005157600080fd5b34610093578160031936011261009357517f00000000000000000000000000000000000000000000000000000000000000006001600160a01b03168152602090f35b5080fd5b919050346101f757602090816003193601126101f3578235336bffffffffffffffffffffffff60a01b600154161760015584548181018091116101e057855581516323b872dd60e01b8152338582015230602482015260448101919091528281606481887f00000000000000000000000000000000000000000000000000000000000000006001600160a01b03165af19081156101d6578591610172575b501561013f578380f35b5162461bcd60e51b815291820152600f60248201526e151c985b9cd9995c8819985a5b1959608a1b604482015260649150fd5b9050823d84116101cf575b601f8101601f1916820167ffffffffffffffff8111838210176101bc57849183918552810103126101b8575180151581036101b85738610135565b8480fd5b634e487b7160e01b875260418652602487fd5b503d61017d565b82513d87823e3d90fd5b634e487b7160e01b865260118552602486fd5b8380fd5b8280fd5b505034610093578160031936011261009357602091549051908152f35b8490346100935781600319360112610093576001546001600160a01b03168152602090f3fea26469706673582212202337ae29b731c94bb2dc7f02b4e3f94dd4b55709d1bf52d1a332c28b95f5c1d764736f6c63430008140033","opcodes":"PUSH1 0xA0 CALLVALUE PUSH2 0x71 JUMPI PUSH1 0x1F PUSH2 0x300 CODESIZE DUP2 SWAP1 SUB SWAP2 DUP3 ADD PUSH1 0x1F NOT AND DUP4 ADD SWAP2 PUSH1 0x1 PUSH1 0x1 PUSH1 0x40 SHL SUB DUP4 GT DUP5 DUP5 LT OR PUSH2 0x76 JUMPI DUP1 DUP5 SWAP3 PUSH1 0x20 SWAP5 PUSH1 0x40 MSTORE DUP4 CODECOPY DUP2 ADD SUB SLT PUSH2 0x71 JUMPI MLOAD PUSH1 0x1 PUSH1 0x1 PUSH1 0xA0 SHL SUB DUP2 AND SWAP1 DUP2 SWAP1 SUB PUSH2 0x71 JUMPI PUSH1 0x80 MSTORE PUSH1 0x40 MLOAD PUSH2 0x273 SWAP1 DUP2 PUSH2 0x8D DUP3 CODECOPY PUSH1 0x80 MLOAD DUP2 DUP2 DUP2 PUSH1 0x64 ADD MSTORE PUSH1 0xFD ADD MSTORE RETURN JUMPDEST PUSH1 0x0 DUP1 REVERT JUMPDEST PUSH4 0x4E487B71 PUSH1 0xE0 SHL PUSH1 0x0 MSTORE PUSH1 0x41 PUSH1 0x4 MSTORE PUSH1 0x24 PUSH1 0x0 REVERT INVALID PUSH1 0x80 PUSH1 0x40 DUP2 DUP2 MSTORE PUSH1 0x4 SWAP2 DUP3 CALLDATASIZE LT ISZERO PUSH2 0x16 JUMPI PUSH1 0x0 DUP1 REVERT JUMPDEST PUSH1 0x0 SWAP3 DUP4 CALLDATALOAD PUSH1 0xE0 SHR SWAP2 DUP3 PUSH4 0x2113522A EQ PUSH2 0x218 JUMPI POP DUP2 PUSH4 0x891AAF68 EQ PUSH2 0x1FB JUMPI DUP2 PUSH4 0xA0712D68 EQ PUSH2 0x97 JUMPI POP PUSH4 0xFC0C546A EQ PUSH2 0x51 JUMPI PUSH1 0x0 DUP1 REVERT JUMPDEST CALLVALUE PUSH2 0x93 JUMPI DUP2 PUSH1 0x3 NOT CALLDATASIZE ADD SLT PUSH2 0x93 JUMPI MLOAD PUSH32 0x0 PUSH1 0x1 PUSH1 0x1 PUSH1 0xA0 SHL SUB AND DUP2 MSTORE PUSH1 0x20 SWAP1 RETURN JUMPDEST POP DUP1 REVERT JUMPDEST SWAP2 SWAP1 POP CALLVALUE PUSH2 0x1F7 JUMPI PUSH1 0x20 SWAP1 DUP2 PUSH1 0x3 NOT CALLDATASIZE ADD SLT PUSH2 0x1F3 JUMPI DUP3 CALLDATALOAD CALLER PUSH12 0xFFFFFFFFFFFFFFFFFFFFFFFF PUSH1 0xA0 SHL PUSH1 0x1 SLOAD AND OR PUSH1 0x1 SSTORE DUP5 SLOAD DUP2 DUP2 ADD DUP1 SWAP2 GT PUSH2 0x1E0 JUMPI DUP6 SSTORE DUP2 MLOAD PUSH4 0x23B872DD PUSH1 0xE0 SHL DUP2 MSTORE CALLER DUP6 DUP3 ADD MSTORE ADDRESS PUSH1 0x24 DUP3 ADD MSTORE PUSH1 0x44 DUP2 ADD SWAP2 SWAP1 SWAP2 MSTORE DUP3 DUP2 PUSH1 0x64 DUP2 DUP9 PUSH32 0x0 PUSH1 0x1 PUSH1 0x1 PUSH1 0xA0 SHL SUB AND GAS CALL SWAP1 DUP2 ISZERO PUSH2 0x1D6 JUMPI DUP6 SWAP2 PUSH2 0x172 JUMPI JUMPDEST POP ISZERO PUSH2 0x13F JUMPI DUP4 DUP1 RETURN JUMPDEST MLOAD PUSH3 0x461BCD PUSH1 0xE5 SHL DUP2 MSTORE SWAP2 DUP3 ADD MSTORE PUSH1 0xF PUSH1 0x24 DUP3 ADD MSTORE PUSH15 0x151C985B9CD9995C8819985A5B1959 PUSH1 0x8A SHL PUSH1 0x44 DUP3 ADD MSTORE PUSH1 0x64 SWAP2 POP REVERT JUMPDEST SWAP1 POP DUP3 RETURNDATASIZE DUP5 GT PUSH2 0x1CF JUMPI JUMPDEST PUSH1 0x1F DUP2 ADD PUSH1 0x1F NOT AND DUP3 ADD PUSH8 0xFFFFFFFFFFFFFFFF DUP2 GT DUP4 DUP3 LT OR PUSH2 0x1BC JUMPI DUP5 SWAP2 DUP4 SWAP2 DUP6 MSTORE DUP2 ADD SUB SLT PUSH2 0x1B8 JUMPI MLOAD DUP1 ISZERO ISZERO DUP2 SUB PUSH2 0x1B8 JUMPI CODESIZE PUSH2 0x135 JUMP JUMPDEST DUP5 DUP1 REVERT JUMPDEST PUSH4 0x4E487B71 PUSH1 0xE0 SHL DUP8 MSTORE PUSH1 0x41 DUP7 MSTORE PUSH1 0x24 DUP8 REVERT JUMPDEST POP RETURNDATASIZE PUSH2 0x17D JUMP JUMPDEST DUP3 MLOAD RETURNDATASIZE DUP8 DUP3 RETURNDATACOPY RETURNDATASIZE SWAP1 REVERT JUMPDEST PUSH4 0x4E487B71 PUSH1 0xE0 SHL DUP7 MSTORE PUSH1 0x11 DUP6 MSTORE PUSH1 0x24 DUP7 REVERT JUMPDEST DUP4 DUP1 REVERT JUMPDEST DUP3 DUP1 REVERT JUMPDEST POP POP CALLVALUE PUSH2 0x93 JUMPI DUP2 PUSH1 0x3 NOT CALLDATASIZE ADD SLT PUSH2 0x93 JUMPI PUSH1 0x20 SWAP2 SLOAD SWAP1 MLOAD SWAP1 DUP2 MSTORE RETURN JUMPDEST DUP5 SWAP1 CALLVALUE PUSH2 0x93 JUMPI DUP2 PUSH1 0x3 NOT CALLDATASIZE ADD SLT PUSH2 0x93 JUMPI PUSH1 0x1 SLOAD PUSH1 0x1 PUSH1 0x1 PUSH1 0xA0 SHL SUB AND DUP2 MSTORE PUSH1 0x20 SWAP1 RETURN INVALID LOG2 PUSH5 0x6970667358 0x22 SLT KECCAK256 0x23 CALLDATACOPY 0xAE 0x29 0xB7 BALANCE 0xC9 0x4B 0xB2 0xDC PUSH32 0x2B4E3F94DD4B55709D1BF52D1A332C28B95F5C1D764736F6C63430008140033 "},"methodIdentifiers":{"lastCaller()":"2113522a","mint(uint256)":"a0712d68","mintedTotal()":"891aaf68","token()":"fc0c546a"}}}}}