{"contracts/AlphaHelixRegistry.sol":{"AlphaHelixRegistry":{"abi":[{"inputs":[{"internalType":"address","name":"governor","type":"address"},{"internalType":"contract IERC20","name":"hlxToken","type":"address"},{"internalType":"contract AlphaHelixParameters","name":"parameters_","type":"address"},{"internalType":"contract MarketFactory","name":"factory_","type":"address"},{"internalType":"address","name":"treasury_","type":"address"}],"stateMutability":"nonpayable","type":"constructor"},{"inputs":[],"name":"AccessControlBadConfirmation","type":"error"},{"inputs":[{"internalType":"address","name":"account","type":"address"},{"internalType":"bytes32","name":"neededRole","type":"bytes32"}],"name":"AccessControlUnauthorizedAccount","type":"error"},{"inputs":[],"name":"ReentrancyGuardReentrantCall","type":"error"},{"inputs":[{"internalType":"address","name":"token","type":"address"}],"name":"SafeERC20FailedOperation","type":"error"},{"anonymous":false,"inputs":[{"indexed":true,"internalType":"uint256","name":"claimId","type":"uint256"},{"indexed":true,"internalType":"uint256","name":"version","type":"uint256"},{"indexed":false,"internalType":"enum ITruthMarket.Resolution","name":"outcome","type":"uint8"},{"indexed":false,"internalType":"uint256","name":"confidenceBps","type":"uint256"},{"indexed":false,"internalType":"uint256","name":"totalValueLocked","type":"uint256"},{"indexed":false,"internalType":"uint256","name":"trueStake","type":"uint256"},{"indexed":false,"internalType":"uint256","name":"falseStake","type":"uint256"},{"indexed":false,"internalType":"uint256","name":"unalignedStake","type":"uint256"},{"indexed":false,"internalType":"uint256","name":"protocolFee","type":"uint256"}],"name":"ClaimOutcome","type":"event"},{"anonymous":false,"inputs":[{"indexed":true,"internalType":"uint256","name":"claimId","type":"uint256"},{"indexed":true,"internalType":"uint256","name":"version","type":"uint256"},{"indexed":true,"internalType":"address","name":"market","type":"address"},{"indexed":false,"internalType":"bytes32","name":"claimHash","type":"bytes32"},{"indexed":false,"internalType":"address","name":"creator","type":"address"},{"indexed":false,"internalType":"string","name":"statement","type":"string"},{"indexed":false,"internalType":"string","name":"metadataURI","type":"string"},{"indexed":false,"internalType":"string","name":"evidenceURI","type":"string"},{"indexed":false,"internalType":"uint64","name":"tradingClosesAt","type":"uint64"}],"name":"ClaimRegistered","type":"event"},{"anonymous":false,"inputs":[{"indexed":true,"internalType":"uint256","name":"claimId","type":"uint256"},{"indexed":true,"internalType":"uint256","name":"version","type":"uint256"},{"indexed":true,"internalType":"address","name":"challenger","type":"address"},{"indexed":false,"internalType":"uint256","name":"challengeBond","type":"uint256"},{"indexed":false,"internalType":"uint64","name":"tradingClosesAt","type":"uint64"},{"indexed":false,"internalType":"string","name":"evidenceURI","type":"string"}],"name":"ClaimReopened","type":"event"},{"anonymous":false,"inputs":[{"indexed":false,"internalType":"address","name":"factory","type":"address"}],"name":"FactoryUpdated","type":"event"},{"anonymous":false,"inputs":[{"indexed":true,"internalType":"bytes32","name":"role","type":"bytes32"},{"indexed":true,"internalType":"bytes32","name":"previousAdminRole","type":"bytes32"},{"indexed":true,"internalType":"bytes32","name":"newAdminRole","type":"bytes32"}],"name":"RoleAdminChanged","type":"event"},{"anonymous":false,"inputs":[{"indexed":true,"internalType":"bytes32","name":"role","type":"bytes32"},{"indexed":true,"internalType":"address","name":"account","type":"address"},{"indexed":true,"internalType":"address","name":"sender","type":"address"}],"name":"RoleGranted","type":"event"},{"anonymous":false,"inputs":[{"indexed":true,"internalType":"bytes32","name":"role","type":"bytes32"},{"indexed":true,"internalType":"address","name":"account","type":"address"},{"indexed":true,"internalType":"address","name":"sender","type":"address"}],"name":"RoleRevoked","type":"event"},{"anonymous":false,"inputs":[{"indexed":false,"internalType":"address","name":"treasury","type":"address"}],"name":"TreasuryUpdated","type":"event"},{"inputs":[],"name":"DEFAULT_ADMIN_ROLE","outputs":[{"internalType":"bytes32","name":"","type":"bytes32"}],"stateMutability":"view","type":"function"},{"inputs":[],"name":"GOVERNOR_ROLE","outputs":[{"internalType":"bytes32","name":"","type":"bytes32"}],"stateMutability":"view","type":"function"},{"inputs":[{"internalType":"bytes32","name":"","type":"bytes32"}],"name":"claimIdByHash","outputs":[{"internalType":"uint256","name":"","type":"uint256"}],"stateMutability":"view","type":"function"},{"inputs":[{"internalType":"uint256","name":"","type":"uint256"}],"name":"claims","outputs":[{"internalType":"bytes32","name":"claimHash","type":"bytes32"},{"internalType":"string","name":"statement","type":"string"},{"internalType":"string","name":"metadataURI","type":"string"},{"internalType":"address","name":"creator","type":"address"},{"internalType":"uint256","name":"creationBond","type":"uint256"},{"internalType":"uint256","name":"activeVersion","type":"uint256"},{"internalType":"uint256","name":"totalVersions","type":"uint256"},{"internalType":"bool","name":"exists","type":"bool"}],"stateMutability":"view","type":"function"},{"inputs":[{"internalType":"string","name":"statement","type":"string"},{"internalType":"string","name":"metadataURI","type":"string"},{"internalType":"string","name":"evidenceURI","type":"string"},{"internalType":"uint64","name":"tradingClosesAt","type":"uint64"}],"name":"createClaim","outputs":[{"internalType":"uint256","name":"claimId","type":"uint256"},{"internalType":"uint256","name":"version","type":"uint256"},{"internalType":"address","name":"market","type":"address"}],"stateMutability":"nonpayable","type":"function"},{"inputs":[],"name":"factory","outputs":[{"internalType":"contract MarketFactory","name":"","type":"address"}],"stateMutability":"view","type":"function"},{"inputs":[{"internalType":"bytes32","name":"role","type":"bytes32"}],"name":"getRoleAdmin","outputs":[{"internalType":"bytes32","name":"","type":"bytes32"}],"stateMutability":"view","type":"function"},{"inputs":[{"internalType":"bytes32","name":"role","type":"bytes32"},{"internalType":"address","name":"account","type":"address"}],"name":"grantRole","outputs":[],"stateMutability":"nonpayable","type":"function"},{"inputs":[{"internalType":"bytes32","name":"role","type":"bytes32"},{"internalType":"address","name":"account","type":"address"}],"name":"hasRole","outputs":[{"internalType":"bool","name":"","type":"bool"}],"stateMutability":"view","type":"function"},{"inputs":[],"name":"hlx","outputs":[{"internalType":"contract IERC20","name":"","type":"address"}],"stateMutability":"view","type":"function"},{"inputs":[{"internalType":"address","name":"","type":"address"}],"name":"marketToClaimId","outputs":[{"internalType":"uint256","name":"","type":"uint256"}],"stateMutability":"view","type":"function"},{"inputs":[{"internalType":"address","name":"","type":"address"}],"name":"marketToVersion","outputs":[{"internalType":"uint256","name":"","type":"uint256"}],"stateMutability":"view","type":"function"},{"inputs":[],"name":"nextClaimId","outputs":[{"internalType":"uint256","name":"","type":"uint256"}],"stateMutability":"view","type":"function"},{"inputs":[{"components":[{"internalType":"uint256","name":"claimId","type":"uint256"},{"internalType":"uint256","name":"version","type":"uint256"},{"internalType":"enum ITruthMarket.Resolution","name":"outcome","type":"uint8"},{"internalType":"uint256","name":"confidenceBps","type":"uint256"},{"internalType":"uint256","name":"totalValueLocked","type":"uint256"},{"internalType":"uint256","name":"trueStake","type":"uint256"},{"internalType":"uint256","name":"falseStake","type":"uint256"},{"internalType":"uint256","name":"unalignedStake","type":"uint256"},{"internalType":"uint256","name":"protocolFee","type":"uint256"}],"internalType":"struct IAlphaHelixRegistry.ResolutionReport","name":"report","type":"tuple"}],"name":"onMarketResolved","outputs":[],"stateMutability":"nonpayable","type":"function"},{"inputs":[],"name":"parameters","outputs":[{"internalType":"address","name":"","type":"address"}],"stateMutability":"view","type":"function"},{"inputs":[],"name":"parametersContract","outputs":[{"internalType":"contract AlphaHelixParameters","name":"","type":"address"}],"stateMutability":"view","type":"function"},{"inputs":[{"internalType":"bytes32","name":"role","type":"bytes32"},{"internalType":"address","name":"callerConfirmation","type":"address"}],"name":"renounceRole","outputs":[],"stateMutability":"nonpayable","type":"function"},{"inputs":[{"internalType":"uint256","name":"claimId","type":"uint256"},{"internalType":"string","name":"evidenceURI","type":"string"},{"internalType":"uint64","name":"tradingClosesAt","type":"uint64"}],"name":"reopenClaim","outputs":[{"internalType":"uint256","name":"version","type":"uint256"},{"internalType":"address","name":"market","type":"address"}],"stateMutability":"nonpayable","type":"function"},{"inputs":[{"internalType":"bytes32","name":"role","type":"bytes32"},{"internalType":"address","name":"account","type":"address"}],"name":"revokeRole","outputs":[],"stateMutability":"nonpayable","type":"function"},{"inputs":[{"internalType":"address","name":"newFactory","type":"address"}],"name":"setFactory","outputs":[],"stateMutability":"nonpayable","type":"function"},{"inputs":[{"internalType":"address","name":"newTreasury","type":"address"}],"name":"setTreasury","outputs":[],"stateMutability":"nonpayable","type":"function"},{"inputs":[{"internalType":"bytes4","name":"interfaceId","type":"bytes4"}],"name":"supportsInterface","outputs":[{"internalType":"bool","name":"","type":"bool"}],"stateMutability":"view","type":"function"},{"inputs":[],"name":"treasury","outputs":[{"internalType":"address","name":"","type":"address"}],"stateMutability":"view","type":"function"},{"inputs":[{"internalType":"uint256","name":"","type":"uint256"},{"internalType":"uint256","name":"","type":"uint256"}],"name":"versions","outputs":[{"internalType":"address","name":"market","type":"address"},{"internalType":"address","name":"challenger","type":"address"},{"internalType":"uint64","name":"openedAt","type":"uint64"},{"internalType":"uint64","name":"resolvedAt","type":"uint64"},{"internalType":"enum ITruthMarket.Resolution","name":"outcome","type":"uint8"},{"internalType":"uint256","name":"confidenceBps","type":"uint256"},{"internalType":"uint256","name":"totalValueLocked","type":"uint256"},{"internalType":"uint256","name":"trueStake","type":"uint256"},{"internalType":"uint256","name":"falseStake","type":"uint256"},{"internalType":"uint256","name":"unalignedStake","type":"uint256"},{"internalType":"uint256","name":"protocolFee","type":"uint256"},{"internalType":"string","name":"evidenceURI","type":"string"}],"stateMutability":"view","type":"function"}],"evm":{"bytecode":{"linkReferences":{},"object":"60c0346200027157601f6200257438819003918201601f1916830191906001600160401b0383118484101762000276578160a09285926040958652833981010312620002715762000050826200028c565b6020838101516001600160a01b038082169591868103620002715785830151918083168084036200027157606085015194828616809603620002715760806200009a91016200028c565b906001805560049960018b55838916156200023a5715620002065715620001d15784156200019b57169384156200016557506200010595965060805260a05260018060a01b0319908160025416176002556003541617600355620000fe81620002a1565b5062000321565b50516121909081620003c482396080518181816101e90152818161056c015281816108fc015281816111f80152818161127c015281816113500152611997015260a0518181816102be01528181610e7f0152818161111e015261193c0152f35b8760649188519162461bcd60e51b83528201526011602482015270151c99585cdd5c9e481c995c5d5a5c9959607a1b6044820152fd5b875162461bcd60e51b8152808a01879052601060248201526f119858dd1bdc9e481c995c5d5a5c995960821b6044820152606490fd5b875162461bcd60e51b8152808a01879052600f60248201526e14185c985b5cc81c995c5d5a5c9959608a1b6044820152606490fd5b885162461bcd60e51b8152808b01889052600e60248201526d151bdad95b881c995c5d5a5c995960921b6044820152606490fd5b895162461bcd60e51b8152808c01899052601160248201527011dbdd995c9b9bdc881c995c5d5a5c9959607a1b6044820152606490fd5b600080fd5b634e487b7160e01b600052604160045260246000fd5b51906001600160a01b03821682036200027157565b6001600160a01b031660008181527fad3228b676f7d3cd4284a5443f17f1962b36e491b30a40b2405849e597ba5fb5602052604081205490919060ff166200031d57818052816020526040822081835260205260408220600160ff198254161790553391600080516020620025548339815191528180a4600190565b5090565b6001600160a01b031660008181527f6f3b488caa0dc03e5f3d9fd6a25fa8755afcfd62ccffb6e436c696bfa6b866de60205260408120549091907f7935bd0ae54bc31f548c14dba4d37c5c64b3f8ca900cb468fb8abd54d5894f559060ff16620003be57808352826020526040832082845260205260408320600160ff1982541617905560008051602062002554833981519152339380a4600190565b50509056fe608080604052600436101561001357600080fd5b600090813560e01c90816301ffc9a714611ae9575080630e29e5f0146117ae578063172ecfc8146110925780631ae3727b1461105957806320cb58fc1461102f578063248a9ca314611003578063298cacce14610e695780632f2ff15d14610fc657806336568abe14610f7e5780635bb4780814610ed757806361d027b314610eae5780638903573014610e6957806391d1485414610e1e578063a0021cf114610e00578063a217fddf14610de4578063a888c2cd14610d35578063c45a015514610d0c578063c97fddbd14610c25578063ccc5749014610bea578063d547741f14610ba9578063e018496014610b70578063e026b13e14610218578063e27f3b34146101d35763f0f442601461012957600080fd5b346101d05760203660031901126101d057610142611b6b565b61014a611d3f565b6001600160a01b0316801561019b576020817f7dae230f18360d76a040c81f050aa14eb9d6dc7901b20fc5d855e2a20fe814d1926001600160601b0360a01b6003541617600355604051908152a180f35b60405162461bcd60e51b815260206004820152600d60248201526c5a65726f20747265617375727960981b6044820152606490fd5b80fd5b50346101d057806003193601126101d0576040517f00000000000000000000000000000000000000000000000000000000000000006001600160a01b03168152602090f35b50346101d05760803660031901126101d0576004356001600160401b038111610b6c57610249903690600401611b3e565b916024356001600160401b038111610b6c57610269903690600401611b3e565b906044356001600160401b038111610b6857610289903690600401611b3e565b9091606435936001600160401b0385168503610b63576102a76120e8565b6040516330fe427560e21b815296610100886004817f00000000000000000000000000000000000000000000000000000000000000006001600160a01b03165afa978815610b58578798610b25575b506103226103116001600160401b0360608b01511642611f8f565b6001600160401b0388161015611fb2565b6001600160401b038911610b1157604051610347601f8b01601f191660200182611c15565b898152368a830111610b0d5760208101908a8383378860208c830101525190209889885260066020526040882054610ad157600454986000198a14610abd5760018a016004558989526005602052604089208b81556103a96001820154611b97565b601f8111610a78575b50828a601f8211600114610a0e578b91610a03575b508360011b906000198560031b1c19161760018201555b6001600160401b0385116109ef5790816103fc60028c940154611b97565b601f811161099e575b508583601f8211600114610931578491610926575b508660011b906000198860031b1c19161760028201555b336001600160601b0360a01b6003830154161760038201556007825191826004820155600160068201556001600582015501600160ff19825416179055806108f4575b508b82526006602090815260408084208d9055600254905163243d17b560e11b81523060048201529b8c9160249183916001600160a01b03165af1998a156108b457829a6108c3575b506040516104ca81611bd1565b8281528260208201528260408201528260608201528260808201528a60018060a01b0360035416926001600160401b036080820151166001600160401b0360a0830151169061ffff60c06040850151940151169360018060a01b03163b156108bf578f938f908f9793966080916101e4968b998a966001600160401b036040519d8e9c8d9b63054213ef60e51b8d528c6004309101528c602460018060a01b037f00000000000000000000000000000000000000000000000000000000000000001691015260448d015260648c0152600160848c01521660a48a015260c489015260e488015261010487015261012486015260018060a01b038151166101448601526020810151610164860152604081015161018486015260608101516101a4860152015115156101c484015260018060a01b03165af180156108b4579082916108a0575b50506001600160a01b0389168082526008602090815260408084208d9055600982528084206001908190558d855260078352818520818652909252832080546001600160a01b03191690921782558101805467ffffffffffffffff60a01b19164260a01b67ffffffffffffffff60a01b16179055906001600160401b03871161088c5761069f6009830154611b97565b601f8111610848575b5080601f881160011461079c577f0a9c0265ad3a3a7706fd7fd72a43525048b19f4cb7fb14379cf7965b30850b029660609d966107416001600160401b03978f9b9597600260019e988861075d9b61074f9991610791575b5060001960038b901b1c191660018a901b1760098201555b0160ff60401b1981541690556040519a8b523360208c015260c060408c015260c08b019161201d565b9188830360608a015261201d565b91858303608087015261201d565b951660a082015280848060a01b038716950390a4600180556040519182526001602083015260018060a01b03166040820152f35b90508a013538610700565b9060098301825260208220915b601f198916811061083057507f0a9c0265ad3a3a7706fd7fd72a43525048b19f4cb7fb14379cf7965b30850b029660609d966107416001600160401b03978f9b9597600260019e9861075d9a61074f988a601f19811610610816575b50508f89811b016009820155610718565b8b013560001960038c901b60f8161c191690553880610805565b9091602060018192858d0135815501930191016107a9565b60098301825260208220601f890160051c810160208a10610885575b601f830160051c8201811061087a5750506106a8565b838155600101610864565b5080610864565b634e487b7160e01b81526041600452602490fd5b6108a990611c02565b6101d057803861060f565b6040513d84823e3d90fd5b8680fd5b6108e6919a5060203d6020116108ed575b6108de8183611c15565b810190611ffe565b98386104bd565b503d6108d4565b6109209030337f000000000000000000000000000000000000000000000000000000000000000061203e565b38610474565b90508701353861041a565b600283018552602085209150845b601f1989168110610983575087601f19811610610969575b5050600186811b016002820155610431565b880135600019600389901b60f8161c191690553880610957565b8982013583558d95506001909201916020918201910161093f565b90919250600282018b5260208b20601f870160051c8101602088106109e8575b908c949392915b601f830160051c820181106109db575050610405565b9485558c946001016109c5565b50806109be565b634e487b7160e01b8a52604160045260248afd5b9050840135386103c7565b600183018c5260208c2091508b5b601f1986168110610a60575084601f19811610610a46575b5050600183811b0160018201556103de565b850135600019600386901b60f8161c191690553880610a34565b9091602060018192858a013581550193019101610a1c565b600182018b5260208b20601f850160051c810160208610610ab6575b8c601f840160051c83018210610aac575050506103b2565b8155600101610a94565b5080610a94565b634e487b7160e01b89526011600452602489fd5b60405162461bcd60e51b8152602060048201526014602482015273436c61696d20616c72656164792065786973747360601b6044820152606490fd5b8780fd5b634e487b7160e01b87526041600452602487fd5b610b4a9198506101003d61010011610b51575b610b428183611c15565b810190611ef5565b96386102f6565b503d610b38565b6040513d89823e3d90fd5b600080fd5b8380fd5b5080fd5b50346101d05760203660031901126101d0576020906040906001600160a01b03610b98611b6b565b168152600883522054604051908152f35b50346101d05760403660031901126101d057610be6600435610bc9611b81565b9080845283602052610be16001604086200154611db9565b611e5d565b5080f35b50346101d057806003193601126101d05760206040517f7935bd0ae54bc31f548c14dba4d37c5c64b3f8ca900cb468fb8abd54d5894f558152f35b50346101d05760403660031901126101d0576040906004358152600760205281812060243582526020522060018060a01b0390610d088282541691600181015490600281015460038201546004830154600584015490600685015492610cd5600787015495610c9b600960088a01549901611c36565b986040519c8d9c8d52811660208d01526001600160401b03809160a01c1660408d0152811660608c015260ff60808c019160401c16611d1c565b60a089015260c088015260e087015261010086015261012085015261014084015261018080610160850152830190611cdc565b0390f35b50346101d057806003193601126101d0576002546040516001600160a01b039091168152602090f35b50346101d05760203660031901126101d05760409060043581526005602052208054610d6360018301611c36565b91610d7060028201611c36565b60018060a01b03600383015416916004810154600582015490610dc460ff600760068601549501541694610db6604051998a998a526101008060208c01528a0190611cdc565b9088820360408a0152611cdc565b946060870152608086015260a085015260c0840152151560e08301520390f35b50346101d057806003193601126101d057602090604051908152f35b50346101d057806003193601126101d0576020600454604051908152f35b50346101d05760403660031901126101d0576040610e3a611b81565b91600435815280602052209060018060a01b0316600052602052602060ff604060002054166040519015158152f35b50346101d057806003193601126101d0576040517f00000000000000000000000000000000000000000000000000000000000000006001600160a01b03168152602090f35b50346101d057806003193601126101d0576003546040516001600160a01b039091168152602090f35b50346101d05760203660031901126101d057610ef1611b6b565b610ef9611d3f565b6001600160a01b03168015610f4a576020817f24cd1310c8883cbeaf5b805ab13586ce018b79c022827158ff3e8df14d344936926001600160601b0360a01b6002541617600255604051908152a180f35b60405162461bcd60e51b815260206004820152600c60248201526b5a65726f20666163746f727960a01b6044820152606490fd5b50346101d05760403660031901126101d057610f98611b81565b336001600160a01b03821603610fb457610be690600435611e5d565b60405163334bd91960e11b8152600490fd5b50346101d05760403660031901126101d057610be6600435610fe6611b81565b9080845283602052610ffe6001604086200154611db9565b611ddf565b50346101d05760203660031901126101d057600160406020926004358152808452200154604051908152f35b50346101d05760203660031901126101d05760406020916004358152600683522054604051908152f35b50346101d05760203660031901126101d0576020906040906001600160a01b03611081611b6b565b168152600983522054604051908152f35b50346101d05760603660031901126101d0576024356001600160401b038111610b6c576110c3903690600401611b3e565b60443592916001600160401b03841684036117aa576110e06120e8565b60043583526005602052604083209160ff6007840154161561177a5760058301948554611745576040516330fe427560e21b815293610100856004817f00000000000000000000000000000000000000000000000000000000000000006001600160a01b03165afa94851561173a578695611714575b506006906111856111746001600160401b0360608901511642611f8f565b6001600160401b0385161015611fb2565b019081546004358752600760205260408720908752602052604086209160ff600284015460401c16600481101561170057156116c557600486519301549761ffff60e08801511698808a8102048a1481151715610abd5788996127109199989902049161121c83861184871802841830337f000000000000000000000000000000000000000000000000000000000000000061203e565b60025460405163243d17b560e11b8152306004820152986020918a916024918391906001600160a01b03165af19788156116ba578a98611699575b50848318838611028318600181901c810311611685576112a0838611848718028418897f000000000000000000000000000000000000000000000000000000000000000061210b565b6040516112ac81611bd1565b338152858418848711028418600181811c602084018190529091036040830152606082018c90526080820181905282549081019a908b106116715760018060a01b0360035416916001600160401b03608083015116916001600160401b0360a0820151169061ffff60c0604083015192015116918d60018060a01b03163b1561166d576080948f6040519763054213ef60e51b89523060048a015260018060a01b037f00000000000000000000000000000000000000000000000000000000000000001660248a01526044890152600435606489015260848801526001600160401b038b1660a488015260c487015260e486015261010485015261012484015260018060a01b038151166101448401526020810151610164840152604081015161018484015260608101516101a4840152015115156101c48201528a816101e481838d60018060a01b03165af180156116625761164b575b508890558790556001600160a01b038616808952600860209081526040808b206004359081905560098352818c208b90558b5260078252808b208a8c52909152892080546001600160a01b031916909117815560018101805467ffffffffffffffff60a01b1933166001600160e01b0319909116174260a01b67ffffffffffffffff60a01b16179055600981016001600160401b0386116109ef576114a98154611b97565b601f8111611606575b5089601f8711600114611570579260026001600160401b03937fc630e6a272fc8d9cf04cd81d5f50a824155a8c1b5d2064e872f19896cee2ba9396938960409e8e9b9a9891611565575b508960011b906000198b60031b1c19161790555b0160ff60401b1981541690558a51938180821191180218835216602082015260608882015280611549339660043595606084019161201d565b0390a46001805582519182526001600160a01b03166020820152f35b90508b0135386114fc565b99601f198716828c5260208c209b5b8181106115ee57506001600160401b03937fc630e6a272fc8d9cf04cd81d5f50a824155a8c1b5d2064e872f19896cee2ba93969360409d8a9997948e9b600295106115d4575b5050600189811b019055611510565b8c013560001960038c901b60f8161c1916905538806115c5565b898301358d556001909c019b6020928301920161157f565b818b5260208b20601f880160051c81019160208910611641575b601f0160051c01905b81811061163657506114b2565b8b8155600101611629565b9091508190611620565b8992919a6116598492611c02565b9a919250611404565b6040513d8d823e3d90fd5b8f80fd5b634e487b7160e01b8c52601160045260248cfd5b634e487b7160e01b8a52601160045260248afd5b6116b391985060203d6020116108ed576108de8183611c15565b9638611257565b6040513d8c823e3d90fd5b60405162461bcd60e51b8152602060048201526013602482015272141c995d9a5bdd5cc81d5b9c995cdbdb1d9959606a1b6044820152606490fd5b634e487b7160e01b88526021600452602488fd5b6006919550611733906101003d61010011610b5157610b428183611c15565b9490611156565b6040513d88823e3d90fd5b60405162461bcd60e51b815260206004820152600d60248201526c1058dd1a5d99481b585c9ad95d609a1b6044820152606490fd5b60405162461bcd60e51b81526020600482015260086024820152674e6f20636c61696d60c01b6044820152606490fd5b8280fd5b50346101d0576101203660031901126101d0576117c96120e8565b338152602090600882526040812054918215611ab457338252600981526040822054926024358403611a7c578060043503611a4657808352600582526040832091600781526040842085855281526040842091600283019081549660ff8860401c16600481101561170057611a13578697604435926004841015611a0f577f7f83c888a7c5623cf8088f792b693ee3e867cf58724a3781ad9d045eb044633760e060019560088c9a8c9988976001600160401b0342169060ff60401b8660401b169068ffffffffffffffffff1916171790556064358060038301556084359081600484015560a4359d8e6005850155600560c4359d8e600687015560e4359586600782015561010435978891015501556118e66040518096611d1c565b8c85015260408401528b606084015289608084015260a083015260c0820152a31480611a02575b61191a575b846001805580f35b6040516330fe427560e21b815292610100926001600160a01b039284866004817f000000000000000000000000000000000000000000000000000000000000000088165afa9283156119f7576119bb966004968a956119d0575b50509061198091611f8f565b910151116119c657600384015416925b01918254907f000000000000000000000000000000000000000000000000000000000000000061210b565b558038808080611912565b6003541692611990565b6119809392955090816119ee92903d10610b5157610b428183611c15565b93909138611974565b6040513d8a823e3d90fd5b506004840154151561190d565b8880fd5b60405162461bcd60e51b815260048101859052600b60248201526a105b1c9958591e481cd95d60aa1b6044820152606490fd5b60405162461bcd60e51b815260048101839052600e60248201526d086d8c2d2da40dad2e6dac2e8c6d60931b6044820152606490fd5b60405162461bcd60e51b815260048101839052601060248201526f0accae4e6d2dedc40dad2e6dac2e8c6d60831b6044820152606490fd5b6064906040519062461bcd60e51b82526004820152600e60248201526d155b9adb9bdddb881b585c9ad95d60921b6044820152fd5b905034610b6c576020366003190112610b6c5760043563ffffffff60e01b81168091036117aa5760209250637965db0b60e01b8114908115611b2d575b5015158152f35b6301ffc9a760e01b14905038611b26565b9181601f84011215610b63578235916001600160401b038311610b635760208381860195010111610b6357565b600435906001600160a01b0382168203610b6357565b602435906001600160a01b0382168203610b6357565b90600182811c92168015611bc7575b6020831014611bb157565b634e487b7160e01b600052602260045260246000fd5b91607f1691611ba6565b60a081019081106001600160401b03821117611bec57604052565b634e487b7160e01b600052604160045260246000fd5b6001600160401b038111611bec57604052565b90601f801991011681019081106001600160401b03821117611bec57604052565b9060405191826000825492611c4a84611b97565b908184526001948581169081600014611cb95750600114611c76575b5050611c7492500383611c15565b565b9093915060005260209081600020936000915b818310611ca1575050611c7493508201013880611c66565b85548884018501529485019487945091830191611c89565b915050611c7494506020925060ff191682840152151560051b8201013880611c66565b919082519283825260005b848110611d08575050826000602080949584010152601f8019910116010190565b602081830181015184830182015201611ce7565b906004821015611d295752565b634e487b7160e01b600052602160045260246000fd5b3360009081527f6f3b488caa0dc03e5f3d9fd6a25fa8755afcfd62ccffb6e436c696bfa6b866de60205260409020547f7935bd0ae54bc31f548c14dba4d37c5c64b3f8ca900cb468fb8abd54d5894f559060ff1615611d9b5750565b6044906040519063e2517d3f60e01b82523360048301526024820152fd5b80600052600060205260406000203360005260205260ff6040600020541615611d9b5750565b9060009180835282602052604083209160018060a01b03169182845260205260ff60408420541615600014611e5857808352826020526040832082845260205260408320600160ff198254161790557f2f8788117e7eff1d82e926ec794901d17c78024a50270940304540a733656f0d339380a4600190565b505090565b9060009180835282602052604083209160018060a01b03169182845260205260ff604084205416600014611e585780835282602052604083208284526020526040832060ff1981541690557ff6391f5c32d9c69d2a47ea670b442974b53935d1edc7fd64eb21e047a839171b339380a4600190565b51906001600160401b0382168203610b6357565b519061ffff82168203610b6357565b80916101009283910312610b63576040519182018281106001600160401b03821117611bec57611f879160e091604052805184526020810151602085015260408101516040850152611f4960608201611ed2565b6060850152611f5a60808201611ed2565b6080850152611f6b60a08201611ed2565b60a0850152611f7c60c08201611ee6565b60c085015201611ee6565b60e082015290565b91908201809211611f9c57565b634e487b7160e01b600052601160045260246000fd5b15611fb957565b60405162461bcd60e51b815260206004820152601860248201527f54726164696e672077696e646f7720746f6f2073686f727400000000000000006044820152606490fd5b90816020910312610b6357516001600160a01b0381168103610b635790565b908060209392818452848401376000828201840152601f01601f1916010190565b6040516323b872dd60e01b60208201526001600160a01b039283166024820152929091166044830152606480830193909352918152611c749161208082611bd1565b906000602091828151910182855af1156120dc576000513d6120d357506001600160a01b0381163b155b6120b15750565b604051635274afe760e01b81526001600160a01b039091166004820152602490fd5b600114156120aa565b6040513d6000823e3d90fd5b6002600154146120f9576002600155565b604051633ee5aeb560e01b8152600490fd5b60405163a9059cbb60e01b60208201526001600160a01b03909216602483015260448083019390935291815260808101916001600160401b03831182841017611bec57611c749260405261208056fea2646970667358221220915193e88a37d42612f7fa3845a5283c431c0ec0b0b581761872cd9e6ca0cc1664736f6c634300081400332f8788117e7eff1d82e926ec794901d17c78024a50270940304540a733656f0d","opcodes":"PUSH1 0xC0 CALLVALUE PUSH3 0x271 JUMPI PUSH1 0x1F PUSH3 0x2574 CODESIZE DUP2 SWAP1 SUB SWAP2 DUP3 ADD PUSH1 0x1F NOT AND DUP4 ADD SWAP2 SWAP1 PUSH1 0x1 PUSH1 0x1 PUSH1 0x40 SHL SUB DUP4 GT DUP5 DUP5 LT OR PUSH3 0x276 JUMPI DUP2 PUSH1 0xA0 SWAP3 DUP6 SWAP3 PUSH1 0x40 SWAP6 DUP7 MSTORE DUP4 CODECOPY DUP2 ADD SUB SLT PUSH3 0x271 JUMPI PUSH3 0x50 DUP3 PUSH3 0x28C JUMP JUMPDEST PUSH1 0x20 DUP4 DUP2 ADD MLOAD PUSH1 0x1 PUSH1 0x1 PUSH1 0xA0 SHL SUB DUP1 DUP3 AND SWAP6 SWAP2 DUP7 DUP2 SUB PUSH3 0x271 JUMPI DUP6 DUP4 ADD MLOAD SWAP2 DUP1 DUP4 AND DUP1 DUP5 SUB PUSH3 0x271 JUMPI PUSH1 0x60 DUP6 ADD MLOAD SWAP5 DUP3 DUP7 AND DUP1 SWAP7 SUB PUSH3 0x271 JUMPI PUSH1 0x80 PUSH3 0x9A SWAP2 ADD PUSH3 0x28C JUMP JUMPDEST SWAP1 PUSH1 0x1 DUP1 SSTORE PUSH1 0x4 SWAP10 PUSH1 0x1 DUP12 SSTORE DUP4 DUP10 AND ISZERO PUSH3 0x23A JUMPI ISZERO PUSH3 0x206 JUMPI ISZERO PUSH3 0x1D1 JUMPI DUP5 ISZERO PUSH3 0x19B JUMPI AND SWAP4 DUP5 ISZERO PUSH3 0x165 JUMPI POP PUSH3 0x105 SWAP6 SWAP7 POP PUSH1 0x80 MSTORE PUSH1 0xA0 MSTORE PUSH1 0x1 DUP1 PUSH1 0xA0 SHL SUB NOT SWAP1 DUP2 PUSH1 0x2 SLOAD AND OR PUSH1 0x2 SSTORE PUSH1 0x3 SLOAD AND OR PUSH1 0x3 SSTORE PUSH3 0xFE DUP2 PUSH3 0x2A1 JUMP JUMPDEST POP PUSH3 0x321 JUMP JUMPDEST POP MLOAD PUSH2 0x2190 SWAP1 DUP2 PUSH3 0x3C4 DUP3 CODECOPY PUSH1 0x80 MLOAD DUP2 DUP2 DUP2 PUSH2 0x1E9 ADD MSTORE DUP2 DUP2 PUSH2 0x56C ADD MSTORE DUP2 DUP2 PUSH2 0x8FC ADD MSTORE DUP2 DUP2 PUSH2 0x11F8 ADD MSTORE DUP2 DUP2 PUSH2 0x127C ADD MSTORE DUP2 DUP2 PUSH2 0x1350 ADD MSTORE PUSH2 0x1997 ADD MSTORE PUSH1 0xA0 MLOAD DUP2 DUP2 DUP2 PUSH2 0x2BE ADD MSTORE DUP2 DUP2 PUSH2 0xE7F ADD MSTORE DUP2 DUP2 PUSH2 0x111E ADD MSTORE PUSH2 0x193C ADD MSTORE RETURN JUMPDEST DUP8 PUSH1 0x64 SWAP2 DUP9 MLOAD SWAP2 PUSH3 0x461BCD PUSH1 0xE5 SHL DUP4 MSTORE DUP3 ADD MSTORE PUSH1 0x11 PUSH1 0x24 DUP3 ADD MSTORE PUSH17 0x151C99585CDD5C9E481C995C5D5A5C9959 PUSH1 0x7A SHL PUSH1 0x44 DUP3 ADD MSTORE REVERT JUMPDEST DUP8 MLOAD PUSH3 0x461BCD PUSH1 0xE5 SHL DUP2 MSTORE DUP1 DUP11 ADD DUP8 SWAP1 MSTORE PUSH1 0x10 PUSH1 0x24 DUP3 ADD MSTORE PUSH16 0x119858DD1BDC9E481C995C5D5A5C9959 PUSH1 0x82 SHL PUSH1 0x44 DUP3 ADD MSTORE PUSH1 0x64 SWAP1 REVERT JUMPDEST DUP8 MLOAD PUSH3 0x461BCD PUSH1 0xE5 SHL DUP2 MSTORE DUP1 DUP11 ADD DUP8 SWAP1 MSTORE PUSH1 0xF PUSH1 0x24 DUP3 ADD MSTORE PUSH15 0x14185C985B5CC81C995C5D5A5C9959 PUSH1 0x8A SHL PUSH1 0x44 DUP3 ADD MSTORE PUSH1 0x64 SWAP1 REVERT JUMPDEST DUP9 MLOAD PUSH3 0x461BCD PUSH1 0xE5 SHL DUP2 MSTORE DUP1 DUP12 ADD DUP9 SWAP1 MSTORE PUSH1 0xE PUSH1 0x24 DUP3 ADD MSTORE PUSH14 0x151BDAD95B881C995C5D5A5C9959 PUSH1 0x92 SHL PUSH1 0x44 DUP3 ADD MSTORE PUSH1 0x64 SWAP1 REVERT JUMPDEST DUP10 MLOAD PUSH3 0x461BCD PUSH1 0xE5 SHL DUP2 MSTORE DUP1 DUP13 ADD DUP10 SWAP1 MSTORE PUSH1 0x11 PUSH1 0x24 DUP3 ADD MSTORE PUSH17 0x11DBDD995C9B9BDC881C995C5D5A5C9959 PUSH1 0x7A SHL PUSH1 0x44 DUP3 ADD MSTORE PUSH1 0x64 SWAP1 REVERT JUMPDEST PUSH1 0x0 DUP1 REVERT JUMPDEST PUSH4 0x4E487B71 PUSH1 0xE0 SHL PUSH1 0x0 MSTORE PUSH1 0x41 PUSH1 0x4 MSTORE PUSH1 0x24 PUSH1 0x0 REVERT JUMPDEST MLOAD SWAP1 PUSH1 0x1 PUSH1 0x1 PUSH1 0xA0 SHL SUB DUP3 AND DUP3 SUB PUSH3 0x271 JUMPI JUMP JUMPDEST PUSH1 0x1 PUSH1 0x1 PUSH1 0xA0 SHL SUB AND PUSH1 0x0 DUP2 DUP2 MSTORE PUSH32 0xAD3228B676F7D3CD4284A5443F17F1962B36E491B30A40B2405849E597BA5FB5 PUSH1 0x20 MSTORE PUSH1 0x40 DUP2 KECCAK256 SLOAD SWAP1 SWAP2 SWAP1 PUSH1 0xFF AND PUSH3 0x31D JUMPI DUP2 DUP1 MSTORE DUP2 PUSH1 0x20 MSTORE PUSH1 0x40 DUP3 KECCAK256 DUP2 DUP4 MSTORE PUSH1 0x20 MSTORE PUSH1 0x40 DUP3 KECCAK256 PUSH1 0x1 PUSH1 0xFF NOT DUP3 SLOAD AND OR SWAP1 SSTORE CALLER SWAP2 PUSH1 0x0 DUP1 MLOAD PUSH1 0x20 PUSH3 0x2554 DUP4 CODECOPY DUP2 MLOAD SWAP2 MSTORE DUP2 DUP1 LOG4 PUSH1 0x1 SWAP1 JUMP JUMPDEST POP SWAP1 JUMP JUMPDEST PUSH1 0x1 PUSH1 0x1 PUSH1 0xA0 SHL SUB AND PUSH1 0x0 DUP2 DUP2 MSTORE PUSH32 0x6F3B488CAA0DC03E5F3D9FD6A25FA8755AFCFD62CCFFB6E436C696BFA6B866DE PUSH1 0x20 MSTORE PUSH1 0x40 DUP2 KECCAK256 SLOAD SWAP1 SWAP2 SWAP1 PUSH32 0x7935BD0AE54BC31F548C14DBA4D37C5C64B3F8CA900CB468FB8ABD54D5894F55 SWAP1 PUSH1 0xFF AND PUSH3 0x3BE JUMPI DUP1 DUP4 MSTORE DUP3 PUSH1 0x20 MSTORE PUSH1 0x40 DUP4 KECCAK256 DUP3 DUP5 MSTORE PUSH1 0x20 MSTORE PUSH1 0x40 DUP4 KECCAK256 PUSH1 0x1 PUSH1 0xFF NOT DUP3 SLOAD AND OR SWAP1 SSTORE PUSH1 0x0 DUP1 MLOAD PUSH1 0x20 PUSH3 0x2554 DUP4 CODECOPY DUP2 MLOAD SWAP2 MSTORE CALLER SWAP4 DUP1 LOG4 PUSH1 0x1 SWAP1 JUMP JUMPDEST POP POP SWAP1 JUMP INVALID PUSH1 0x80 DUP1 PUSH1 0x40 MSTORE PUSH1 0x4 CALLDATASIZE LT ISZERO PUSH2 0x13 JUMPI PUSH1 0x0 DUP1 REVERT JUMPDEST PUSH1 0x0 SWAP1 DUP2 CALLDATALOAD PUSH1 0xE0 SHR SWAP1 DUP2 PUSH4 0x1FFC9A7 EQ PUSH2 0x1AE9 JUMPI POP DUP1 PUSH4 0xE29E5F0 EQ PUSH2 0x17AE JUMPI DUP1 PUSH4 0x172ECFC8 EQ PUSH2 0x1092 JUMPI DUP1 PUSH4 0x1AE3727B EQ PUSH2 0x1059 JUMPI DUP1 PUSH4 0x20CB58FC EQ PUSH2 0x102F JUMPI DUP1 PUSH4 0x248A9CA3 EQ PUSH2 0x1003 JUMPI DUP1 PUSH4 0x298CACCE EQ PUSH2 0xE69 JUMPI DUP1 PUSH4 0x2F2FF15D EQ PUSH2 0xFC6 JUMPI DUP1 PUSH4 0x36568ABE EQ PUSH2 0xF7E JUMPI DUP1 PUSH4 0x5BB47808 EQ PUSH2 0xED7 JUMPI DUP1 PUSH4 0x61D027B3 EQ PUSH2 0xEAE JUMPI DUP1 PUSH4 0x89035730 EQ PUSH2 0xE69 JUMPI DUP1 PUSH4 0x91D14854 EQ PUSH2 0xE1E JUMPI DUP1 PUSH4 0xA0021CF1 EQ PUSH2 0xE00 JUMPI DUP1 PUSH4 0xA217FDDF EQ PUSH2 0xDE4 JUMPI DUP1 PUSH4 0xA888C2CD EQ PUSH2 0xD35 JUMPI DUP1 PUSH4 0xC45A0155 EQ PUSH2 0xD0C JUMPI DUP1 PUSH4 0xC97FDDBD EQ PUSH2 0xC25 JUMPI DUP1 PUSH4 0xCCC57490 EQ PUSH2 0xBEA JUMPI DUP1 PUSH4 0xD547741F EQ PUSH2 0xBA9 JUMPI DUP1 PUSH4 0xE0184960 EQ PUSH2 0xB70 JUMPI DUP1 PUSH4 0xE026B13E EQ PUSH2 0x218 JUMPI DUP1 PUSH4 0xE27F3B34 EQ PUSH2 0x1D3 JUMPI PUSH4 0xF0F44260 EQ PUSH2 0x129 JUMPI PUSH1 0x0 DUP1 REVERT JUMPDEST CALLVALUE PUSH2 0x1D0 JUMPI PUSH1 0x20 CALLDATASIZE PUSH1 0x3 NOT ADD SLT PUSH2 0x1D0 JUMPI PUSH2 0x142 PUSH2 0x1B6B JUMP JUMPDEST PUSH2 0x14A PUSH2 0x1D3F JUMP JUMPDEST PUSH1 0x1 PUSH1 0x1 PUSH1 0xA0 SHL SUB AND DUP1 ISZERO PUSH2 0x19B JUMPI PUSH1 0x20 DUP2 PUSH32 0x7DAE230F18360D76A040C81F050AA14EB9D6DC7901B20FC5D855E2A20FE814D1 SWAP3 PUSH1 0x1 PUSH1 0x1 PUSH1 0x60 SHL SUB PUSH1 0xA0 SHL PUSH1 0x3 SLOAD AND OR PUSH1 0x3 SSTORE PUSH1 0x40 MLOAD SWAP1 DUP2 MSTORE LOG1 DUP1 RETURN JUMPDEST PUSH1 0x40 MLOAD PUSH3 0x461BCD PUSH1 0xE5 SHL DUP2 MSTORE PUSH1 0x20 PUSH1 0x4 DUP3 ADD MSTORE PUSH1 0xD PUSH1 0x24 DUP3 ADD MSTORE PUSH13 0x5A65726F207472656173757279 PUSH1 0x98 SHL PUSH1 0x44 DUP3 ADD MSTORE PUSH1 0x64 SWAP1 REVERT JUMPDEST DUP1 REVERT JUMPDEST POP CALLVALUE PUSH2 0x1D0 JUMPI DUP1 PUSH1 0x3 NOT CALLDATASIZE ADD SLT PUSH2 0x1D0 JUMPI PUSH1 0x40 MLOAD PUSH32 0x0 PUSH1 0x1 PUSH1 0x1 PUSH1 0xA0 SHL SUB AND DUP2 MSTORE PUSH1 0x20 SWAP1 RETURN JUMPDEST POP CALLVALUE PUSH2 0x1D0 JUMPI PUSH1 0x80 CALLDATASIZE PUSH1 0x3 NOT ADD SLT PUSH2 0x1D0 JUMPI PUSH1 0x4 CALLDATALOAD PUSH1 0x1 PUSH1 0x1 PUSH1 0x40 SHL SUB DUP2 GT PUSH2 0xB6C JUMPI PUSH2 0x249 SWAP1 CALLDATASIZE SWAP1 PUSH1 0x4 ADD PUSH2 0x1B3E JUMP JUMPDEST SWAP2 PUSH1 0x24 CALLDATALOAD PUSH1 0x1 PUSH1 0x1 PUSH1 0x40 SHL SUB DUP2 GT PUSH2 0xB6C JUMPI PUSH2 0x269 SWAP1 CALLDATASIZE SWAP1 PUSH1 0x4 ADD PUSH2 0x1B3E JUMP JUMPDEST SWAP1 PUSH1 0x44 CALLDATALOAD PUSH1 0x1 PUSH1 0x1 PUSH1 0x40 SHL SUB DUP2 GT PUSH2 0xB68 JUMPI PUSH2 0x289 SWAP1 CALLDATASIZE SWAP1 PUSH1 0x4 ADD PUSH2 0x1B3E JUMP JUMPDEST SWAP1 SWAP2 PUSH1 0x64 CALLDATALOAD SWAP4 PUSH1 0x1 PUSH1 0x1 PUSH1 0x40 SHL SUB DUP6 AND DUP6 SUB PUSH2 0xB63 JUMPI PUSH2 0x2A7 PUSH2 0x20E8 JUMP JUMPDEST PUSH1 0x40 MLOAD PUSH4 0x30FE4275 PUSH1 0xE2 SHL DUP2 MSTORE SWAP7 PUSH2 0x100 DUP9 PUSH1 0x4 DUP2 PUSH32 0x0 PUSH1 0x1 PUSH1 0x1 PUSH1 0xA0 SHL SUB AND GAS STATICCALL SWAP8 DUP9 ISZERO PUSH2 0xB58 JUMPI DUP8 SWAP9 PUSH2 0xB25 JUMPI JUMPDEST POP PUSH2 0x322 PUSH2 0x311 PUSH1 0x1 PUSH1 0x1 PUSH1 0x40 SHL SUB PUSH1 0x60 DUP12 ADD MLOAD AND TIMESTAMP PUSH2 0x1F8F JUMP JUMPDEST PUSH1 0x1 PUSH1 0x1 PUSH1 0x40 SHL SUB DUP9 AND LT ISZERO PUSH2 0x1FB2 JUMP JUMPDEST PUSH1 0x1 PUSH1 0x1 PUSH1 0x40 SHL SUB DUP10 GT PUSH2 0xB11 JUMPI PUSH1 0x40 MLOAD PUSH2 0x347 PUSH1 0x1F DUP12 ADD PUSH1 0x1F NOT AND PUSH1 0x20 ADD DUP3 PUSH2 0x1C15 JUMP JUMPDEST DUP10 DUP2 MSTORE CALLDATASIZE DUP11 DUP4 ADD GT PUSH2 0xB0D JUMPI PUSH1 0x20 DUP2 ADD SWAP1 DUP11 DUP4 DUP4 CALLDATACOPY DUP9 PUSH1 0x20 DUP13 DUP4 ADD ADD MSTORE MLOAD SWAP1 KECCAK256 SWAP9 DUP10 DUP9 MSTORE PUSH1 0x6 PUSH1 0x20 MSTORE PUSH1 0x40 DUP9 KECCAK256 SLOAD PUSH2 0xAD1 JUMPI PUSH1 0x4 SLOAD SWAP9 PUSH1 0x0 NOT DUP11 EQ PUSH2 0xABD JUMPI PUSH1 0x1 DUP11 ADD PUSH1 0x4 SSTORE DUP10 DUP10 MSTORE PUSH1 0x5 PUSH1 0x20 MSTORE PUSH1 0x40 DUP10 KECCAK256 DUP12 DUP2 SSTORE PUSH2 0x3A9 PUSH1 0x1 DUP3 ADD SLOAD PUSH2 0x1B97 JUMP JUMPDEST PUSH1 0x1F DUP2 GT PUSH2 0xA78 JUMPI JUMPDEST POP DUP3 DUP11 PUSH1 0x1F DUP3 GT PUSH1 0x1 EQ PUSH2 0xA0E JUMPI DUP12 SWAP2 PUSH2 0xA03 JUMPI JUMPDEST POP DUP4 PUSH1 0x1 SHL SWAP1 PUSH1 0x0 NOT DUP6 PUSH1 0x3 SHL SHR NOT AND OR PUSH1 0x1 DUP3 ADD SSTORE JUMPDEST PUSH1 0x1 PUSH1 0x1 PUSH1 0x40 SHL SUB DUP6 GT PUSH2 0x9EF JUMPI SWAP1 DUP2 PUSH2 0x3FC PUSH1 0x2 DUP13 SWAP5 ADD SLOAD PUSH2 0x1B97 JUMP JUMPDEST PUSH1 0x1F DUP2 GT PUSH2 0x99E JUMPI JUMPDEST POP DUP6 DUP4 PUSH1 0x1F DUP3 GT PUSH1 0x1 EQ PUSH2 0x931 JUMPI DUP5 SWAP2 PUSH2 0x926 JUMPI JUMPDEST POP DUP7 PUSH1 0x1 SHL SWAP1 PUSH1 0x0 NOT DUP9 PUSH1 0x3 SHL SHR NOT AND OR PUSH1 0x2 DUP3 ADD SSTORE JUMPDEST CALLER PUSH1 0x1 PUSH1 0x1 PUSH1 0x60 SHL SUB PUSH1 0xA0 SHL PUSH1 0x3 DUP4 ADD SLOAD AND OR PUSH1 0x3 DUP3 ADD SSTORE PUSH1 0x7 DUP3 MLOAD SWAP2 DUP3 PUSH1 0x4 DUP3 ADD SSTORE PUSH1 0x1 PUSH1 0x6 DUP3 ADD SSTORE PUSH1 0x1 PUSH1 0x5 DUP3 ADD SSTORE ADD PUSH1 0x1 PUSH1 0xFF NOT DUP3 SLOAD AND OR SWAP1 SSTORE DUP1 PUSH2 0x8F4 JUMPI JUMPDEST POP DUP12 DUP3 MSTORE PUSH1 0x6 PUSH1 0x20 SWAP1 DUP2 MSTORE PUSH1 0x40 DUP1 DUP5 KECCAK256 DUP14 SWAP1 SSTORE PUSH1 0x2 SLOAD SWAP1 MLOAD PUSH4 0x243D17B5 PUSH1 0xE1 SHL DUP2 MSTORE ADDRESS PUSH1 0x4 DUP3 ADD MSTORE SWAP12 DUP13 SWAP2 PUSH1 0x24 SWAP2 DUP4 SWAP2 PUSH1 0x1 PUSH1 0x1 PUSH1 0xA0 SHL SUB AND GAS CALL SWAP10 DUP11 ISZERO PUSH2 0x8B4 JUMPI DUP3 SWAP11 PUSH2 0x8C3 JUMPI JUMPDEST POP PUSH1 0x40 MLOAD PUSH2 0x4CA DUP2 PUSH2 0x1BD1 JUMP JUMPDEST DUP3 DUP2 MSTORE DUP3 PUSH1 0x20 DUP3 ADD MSTORE DUP3 PUSH1 0x40 DUP3 ADD MSTORE DUP3 PUSH1 0x60 DUP3 ADD MSTORE DUP3 PUSH1 0x80 DUP3 ADD MSTORE DUP11 PUSH1 0x1 DUP1 PUSH1 0xA0 SHL SUB PUSH1 0x3 SLOAD AND SWAP3 PUSH1 0x1 PUSH1 0x1 PUSH1 0x40 SHL SUB PUSH1 0x80 DUP3 ADD MLOAD AND PUSH1 0x1 PUSH1 0x1 PUSH1 0x40 SHL SUB PUSH1 0xA0 DUP4 ADD MLOAD AND SWAP1 PUSH2 0xFFFF PUSH1 0xC0 PUSH1 0x40 DUP6 ADD MLOAD SWAP5 ADD MLOAD AND SWAP4 PUSH1 0x1 DUP1 PUSH1 0xA0 SHL SUB AND EXTCODESIZE ISZERO PUSH2 0x8BF JUMPI DUP16 SWAP4 DUP16 SWAP1 DUP16 SWAP8 SWAP4 SWAP7 PUSH1 0x80 SWAP2 PUSH2 0x1E4 SWAP7 DUP12 SWAP10 DUP11 SWAP7 PUSH1 0x1 PUSH1 0x1 PUSH1 0x40 SHL SUB PUSH1 0x40 MLOAD SWAP14 DUP15 SWAP13 DUP14 SWAP12 PUSH4 0x54213EF PUSH1 0xE5 SHL DUP14 MSTORE DUP13 PUSH1 0x4 ADDRESS SWAP2 ADD MSTORE DUP13 PUSH1 0x24 PUSH1 0x1 DUP1 PUSH1 0xA0 SHL SUB PUSH32 0x0 AND SWAP2 ADD MSTORE PUSH1 0x44 DUP14 ADD MSTORE PUSH1 0x64 DUP13 ADD MSTORE PUSH1 0x1 PUSH1 0x84 DUP13 ADD MSTORE AND PUSH1 0xA4 DUP11 ADD MSTORE PUSH1 0xC4 DUP10 ADD MSTORE PUSH1 0xE4 DUP9 ADD MSTORE PUSH2 0x104 DUP8 ADD MSTORE PUSH2 0x124 DUP7 ADD MSTORE PUSH1 0x1 DUP1 PUSH1 0xA0 SHL SUB DUP2 MLOAD AND PUSH2 0x144 DUP7 ADD MSTORE PUSH1 0x20 DUP2 ADD MLOAD PUSH2 0x164 DUP7 ADD MSTORE PUSH1 0x40 DUP2 ADD MLOAD PUSH2 0x184 DUP7 ADD MSTORE PUSH1 0x60 DUP2 ADD MLOAD PUSH2 0x1A4 DUP7 ADD MSTORE ADD MLOAD ISZERO ISZERO PUSH2 0x1C4 DUP5 ADD MSTORE PUSH1 0x1 DUP1 PUSH1 0xA0 SHL SUB AND GAS CALL DUP1 ISZERO PUSH2 0x8B4 JUMPI SWAP1 DUP3 SWAP2 PUSH2 0x8A0 JUMPI JUMPDEST POP POP PUSH1 0x1 PUSH1 0x1 PUSH1 0xA0 SHL SUB DUP10 AND DUP1 DUP3 MSTORE PUSH1 0x8 PUSH1 0x20 SWAP1 DUP2 MSTORE PUSH1 0x40 DUP1 DUP5 KECCAK256 DUP14 SWAP1 SSTORE PUSH1 0x9 DUP3 MSTORE DUP1 DUP5 KECCAK256 PUSH1 0x1 SWAP1 DUP2 SWAP1 SSTORE DUP14 DUP6 MSTORE PUSH1 0x7 DUP4 MSTORE DUP2 DUP6 KECCAK256 DUP2 DUP7 MSTORE SWAP1 SWAP3 MSTORE DUP4 KECCAK256 DUP1 SLOAD PUSH1 0x1 PUSH1 0x1 PUSH1 0xA0 SHL SUB NOT AND SWAP1 SWAP3 OR DUP3 SSTORE DUP2 ADD DUP1 SLOAD PUSH8 0xFFFFFFFFFFFFFFFF PUSH1 0xA0 SHL NOT AND TIMESTAMP PUSH1 0xA0 SHL PUSH8 0xFFFFFFFFFFFFFFFF PUSH1 0xA0 SHL AND OR SWAP1 SSTORE SWAP1 PUSH1 0x1 PUSH1 0x1 PUSH1 0x40 SHL SUB DUP8 GT PUSH2 0x88C JUMPI PUSH2 0x69F PUSH1 0x9 DUP4 ADD SLOAD PUSH2 0x1B97 JUMP JUMPDEST PUSH1 0x1F DUP2 GT PUSH2 0x848 JUMPI JUMPDEST POP DUP1 PUSH1 0x1F DUP9 GT PUSH1 0x1 EQ PUSH2 0x79C JUMPI PUSH32 0xA9C0265AD3A3A7706FD7FD72A43525048B19F4CB7FB14379CF7965B30850B02 SWAP7 PUSH1 0x60 SWAP14 SWAP7 PUSH2 0x741 PUSH1 0x1 PUSH1 0x1 PUSH1 0x40 SHL SUB SWAP8 DUP16 SWAP12 SWAP6 SWAP8 PUSH1 0x2 PUSH1 0x1 SWAP15 SWAP9 DUP9 PUSH2 0x75D SWAP12 PUSH2 0x74F SWAP10 SWAP2 PUSH2 0x791 JUMPI JUMPDEST POP PUSH1 0x0 NOT PUSH1 0x3 DUP12 SWAP1 SHL SHR NOT AND PUSH1 0x1 DUP11 SWAP1 SHL OR PUSH1 0x9 DUP3 ADD SSTORE JUMPDEST ADD PUSH1 0xFF PUSH1 0x40 SHL NOT DUP2 SLOAD AND SWAP1 SSTORE PUSH1 0x40 MLOAD SWAP11 DUP12 MSTORE CALLER PUSH1 0x20 DUP13 ADD MSTORE PUSH1 0xC0 PUSH1 0x40 DUP13 ADD MSTORE PUSH1 0xC0 DUP12 ADD SWAP2 PUSH2 0x201D JUMP JUMPDEST SWAP2 DUP9 DUP4 SUB PUSH1 0x60 DUP11 ADD MSTORE PUSH2 0x201D JUMP JUMPDEST SWAP2 DUP6 DUP4 SUB PUSH1 0x80 DUP8 ADD MSTORE PUSH2 0x201D JUMP JUMPDEST SWAP6 AND PUSH1 0xA0 DUP3 ADD MSTORE DUP1 DUP5 DUP1 PUSH1 0xA0 SHL SUB DUP8 AND SWAP6 SUB SWAP1 LOG4 PUSH1 0x1 DUP1 SSTORE PUSH1 0x40 MLOAD SWAP2 DUP3 MSTORE PUSH1 0x1 PUSH1 0x20 DUP4 ADD MSTORE PUSH1 0x1 DUP1 PUSH1 0xA0 SHL SUB AND PUSH1 0x40 DUP3 ADD MSTORE RETURN JUMPDEST SWAP1 POP DUP11 ADD CALLDATALOAD CODESIZE PUSH2 0x700 JUMP JUMPDEST SWAP1 PUSH1 0x9 DUP4 ADD DUP3 MSTORE PUSH1 0x20 DUP3 KECCAK256 SWAP2 JUMPDEST PUSH1 0x1F NOT DUP10 AND DUP2 LT PUSH2 0x830 JUMPI POP PUSH32 0xA9C0265AD3A3A7706FD7FD72A43525048B19F4CB7FB14379CF7965B30850B02 SWAP7 PUSH1 0x60 SWAP14 SWAP7 PUSH2 0x741 PUSH1 0x1 PUSH1 0x1 PUSH1 0x40 SHL SUB SWAP8 DUP16 SWAP12 SWAP6 SWAP8 PUSH1 0x2 PUSH1 0x1 SWAP15 SWAP9 PUSH2 0x75D SWAP11 PUSH2 0x74F SWAP9 DUP11 PUSH1 0x1F NOT DUP2 AND LT PUSH2 0x816 JUMPI JUMPDEST POP POP DUP16 DUP10 DUP2 SHL ADD PUSH1 0x9 DUP3 ADD SSTORE PUSH2 0x718 JUMP JUMPDEST DUP12 ADD CALLDATALOAD PUSH1 0x0 NOT PUSH1 0x3 DUP13 SWAP1 SHL PUSH1 0xF8 AND SHR NOT AND SWAP1 SSTORE CODESIZE DUP1 PUSH2 0x805 JUMP JUMPDEST SWAP1 SWAP2 PUSH1 0x20 PUSH1 0x1 DUP2 SWAP3 DUP6 DUP14 ADD CALLDATALOAD DUP2 SSTORE ADD SWAP4 ADD SWAP2 ADD PUSH2 0x7A9 JUMP JUMPDEST PUSH1 0x9 DUP4 ADD DUP3 MSTORE PUSH1 0x20 DUP3 KECCAK256 PUSH1 0x1F DUP10 ADD PUSH1 0x5 SHR DUP2 ADD PUSH1 0x20 DUP11 LT PUSH2 0x885 JUMPI JUMPDEST PUSH1 0x1F DUP4 ADD PUSH1 0x5 SHR DUP3 ADD DUP2 LT PUSH2 0x87A JUMPI POP POP PUSH2 0x6A8 JUMP JUMPDEST DUP4 DUP2 SSTORE PUSH1 0x1 ADD PUSH2 0x864 JUMP JUMPDEST POP DUP1 PUSH2 0x864 JUMP JUMPDEST PUSH4 0x4E487B71 PUSH1 0xE0 SHL DUP2 MSTORE PUSH1 0x41 PUSH1 0x4 MSTORE PUSH1 0x24 SWAP1 REVERT JUMPDEST PUSH2 0x8A9 SWAP1 PUSH2 0x1C02 JUMP JUMPDEST PUSH2 0x1D0 JUMPI DUP1 CODESIZE PUSH2 0x60F JUMP JUMPDEST PUSH1 0x40 MLOAD RETURNDATASIZE DUP5 DUP3 RETURNDATACOPY RETURNDATASIZE SWAP1 REVERT JUMPDEST DUP7 DUP1 REVERT JUMPDEST PUSH2 0x8E6 SWAP2 SWAP11 POP PUSH1 0x20 RETURNDATASIZE PUSH1 0x20 GT PUSH2 0x8ED JUMPI JUMPDEST PUSH2 0x8DE DUP2 DUP4 PUSH2 0x1C15 JUMP JUMPDEST DUP2 ADD SWAP1 PUSH2 0x1FFE JUMP JUMPDEST SWAP9 CODESIZE PUSH2 0x4BD JUMP JUMPDEST POP RETURNDATASIZE PUSH2 0x8D4 JUMP JUMPDEST PUSH2 0x920 SWAP1 ADDRESS CALLER PUSH32 0x0 PUSH2 0x203E JUMP JUMPDEST CODESIZE PUSH2 0x474 JUMP JUMPDEST SWAP1 POP DUP8 ADD CALLDATALOAD CODESIZE PUSH2 0x41A JUMP JUMPDEST PUSH1 0x2 DUP4 ADD DUP6 MSTORE PUSH1 0x20 DUP6 KECCAK256 SWAP2 POP DUP5 JUMPDEST PUSH1 0x1F NOT DUP10 AND DUP2 LT PUSH2 0x983 JUMPI POP DUP8 PUSH1 0x1F NOT DUP2 AND LT PUSH2 0x969 JUMPI JUMPDEST POP POP PUSH1 0x1 DUP7 DUP2 SHL ADD PUSH1 0x2 DUP3 ADD SSTORE PUSH2 0x431 JUMP JUMPDEST DUP9 ADD CALLDATALOAD PUSH1 0x0 NOT PUSH1 0x3 DUP10 SWAP1 SHL PUSH1 0xF8 AND SHR NOT AND SWAP1 SSTORE CODESIZE DUP1 PUSH2 0x957 JUMP JUMPDEST DUP10 DUP3 ADD CALLDATALOAD DUP4 SSTORE DUP14 SWAP6 POP PUSH1 0x1 SWAP1 SWAP3 ADD SWAP2 PUSH1 0x20 SWAP2 DUP3 ADD SWAP2 ADD PUSH2 0x93F JUMP JUMPDEST SWAP1 SWAP2 SWAP3 POP PUSH1 0x2 DUP3 ADD DUP12 MSTORE PUSH1 0x20 DUP12 KECCAK256 PUSH1 0x1F DUP8 ADD PUSH1 0x5 SHR DUP2 ADD PUSH1 0x20 DUP9 LT PUSH2 0x9E8 JUMPI JUMPDEST SWAP1 DUP13 SWAP5 SWAP4 SWAP3 SWAP2 JUMPDEST PUSH1 0x1F DUP4 ADD PUSH1 0x5 SHR DUP3 ADD DUP2 LT PUSH2 0x9DB JUMPI POP POP PUSH2 0x405 JUMP JUMPDEST SWAP5 DUP6 SSTORE DUP13 SWAP5 PUSH1 0x1 ADD PUSH2 0x9C5 JUMP JUMPDEST POP DUP1 PUSH2 0x9BE JUMP JUMPDEST PUSH4 0x4E487B71 PUSH1 0xE0 SHL DUP11 MSTORE PUSH1 0x41 PUSH1 0x4 MSTORE PUSH1 0x24 DUP11 REVERT JUMPDEST SWAP1 POP DUP5 ADD CALLDATALOAD CODESIZE PUSH2 0x3C7 JUMP JUMPDEST PUSH1 0x1 DUP4 ADD DUP13 MSTORE PUSH1 0x20 DUP13 KECCAK256 SWAP2 POP DUP12 JUMPDEST PUSH1 0x1F NOT DUP7 AND DUP2 LT PUSH2 0xA60 JUMPI POP DUP5 PUSH1 0x1F NOT DUP2 AND LT PUSH2 0xA46 JUMPI JUMPDEST POP POP PUSH1 0x1 DUP4 DUP2 SHL ADD PUSH1 0x1 DUP3 ADD SSTORE PUSH2 0x3DE JUMP JUMPDEST DUP6 ADD CALLDATALOAD PUSH1 0x0 NOT PUSH1 0x3 DUP7 SWAP1 SHL PUSH1 0xF8 AND SHR NOT AND SWAP1 SSTORE CODESIZE DUP1 PUSH2 0xA34 JUMP JUMPDEST SWAP1 SWAP2 PUSH1 0x20 PUSH1 0x1 DUP2 SWAP3 DUP6 DUP11 ADD CALLDATALOAD DUP2 SSTORE ADD SWAP4 ADD SWAP2 ADD PUSH2 0xA1C JUMP JUMPDEST PUSH1 0x1 DUP3 ADD DUP12 MSTORE PUSH1 0x20 DUP12 KECCAK256 PUSH1 0x1F DUP6 ADD PUSH1 0x5 SHR DUP2 ADD PUSH1 0x20 DUP7 LT PUSH2 0xAB6 JUMPI JUMPDEST DUP13 PUSH1 0x1F DUP5 ADD PUSH1 0x5 SHR DUP4 ADD DUP3 LT PUSH2 0xAAC JUMPI POP POP POP PUSH2 0x3B2 JUMP JUMPDEST DUP2 SSTORE PUSH1 0x1 ADD PUSH2 0xA94 JUMP JUMPDEST POP DUP1 PUSH2 0xA94 JUMP JUMPDEST PUSH4 0x4E487B71 PUSH1 0xE0 SHL DUP10 MSTORE PUSH1 0x11 PUSH1 0x4 MSTORE PUSH1 0x24 DUP10 REVERT JUMPDEST PUSH1 0x40 MLOAD PUSH3 0x461BCD PUSH1 0xE5 SHL DUP2 MSTORE PUSH1 0x20 PUSH1 0x4 DUP3 ADD MSTORE PUSH1 0x14 PUSH1 0x24 DUP3 ADD MSTORE PUSH20 0x436C61696D20616C726561647920657869737473 PUSH1 0x60 SHL PUSH1 0x44 DUP3 ADD MSTORE PUSH1 0x64 SWAP1 REVERT JUMPDEST DUP8 DUP1 REVERT JUMPDEST PUSH4 0x4E487B71 PUSH1 0xE0 SHL DUP8 MSTORE PUSH1 0x41 PUSH1 0x4 MSTORE PUSH1 0x24 DUP8 REVERT JUMPDEST PUSH2 0xB4A SWAP2 SWAP9 POP PUSH2 0x100 RETURNDATASIZE PUSH2 0x100 GT PUSH2 0xB51 JUMPI JUMPDEST PUSH2 0xB42 DUP2 DUP4 PUSH2 0x1C15 JUMP JUMPDEST DUP2 ADD SWAP1 PUSH2 0x1EF5 JUMP JUMPDEST SWAP7 CODESIZE PUSH2 0x2F6 JUMP JUMPDEST POP RETURNDATASIZE PUSH2 0xB38 JUMP JUMPDEST PUSH1 0x40 MLOAD RETURNDATASIZE DUP10 DUP3 RETURNDATACOPY RETURNDATASIZE SWAP1 REVERT JUMPDEST PUSH1 0x0 DUP1 REVERT JUMPDEST DUP4 DUP1 REVERT JUMPDEST POP DUP1 REVERT JUMPDEST POP CALLVALUE PUSH2 0x1D0 JUMPI PUSH1 0x20 CALLDATASIZE PUSH1 0x3 NOT ADD SLT PUSH2 0x1D0 JUMPI PUSH1 0x20 SWAP1 PUSH1 0x40 SWAP1 PUSH1 0x1 PUSH1 0x1 PUSH1 0xA0 SHL SUB PUSH2 0xB98 PUSH2 0x1B6B JUMP JUMPDEST AND DUP2 MSTORE PUSH1 0x8 DUP4 MSTORE KECCAK256 SLOAD PUSH1 0x40 MLOAD SWAP1 DUP2 MSTORE RETURN JUMPDEST POP CALLVALUE PUSH2 0x1D0 JUMPI PUSH1 0x40 CALLDATASIZE PUSH1 0x3 NOT ADD SLT PUSH2 0x1D0 JUMPI PUSH2 0xBE6 PUSH1 0x4 CALLDATALOAD PUSH2 0xBC9 PUSH2 0x1B81 JUMP JUMPDEST SWAP1 DUP1 DUP5 MSTORE DUP4 PUSH1 0x20 MSTORE PUSH2 0xBE1 PUSH1 0x1 PUSH1 0x40 DUP7 KECCAK256 ADD SLOAD PUSH2 0x1DB9 JUMP JUMPDEST PUSH2 0x1E5D JUMP JUMPDEST POP DUP1 RETURN JUMPDEST POP CALLVALUE PUSH2 0x1D0 JUMPI DUP1 PUSH1 0x3 NOT CALLDATASIZE ADD SLT PUSH2 0x1D0 JUMPI PUSH1 0x20 PUSH1 0x40 MLOAD PUSH32 0x7935BD0AE54BC31F548C14DBA4D37C5C64B3F8CA900CB468FB8ABD54D5894F55 DUP2 MSTORE RETURN JUMPDEST POP CALLVALUE PUSH2 0x1D0 JUMPI PUSH1 0x40 CALLDATASIZE PUSH1 0x3 NOT ADD SLT PUSH2 0x1D0 JUMPI PUSH1 0x40 SWAP1 PUSH1 0x4 CALLDATALOAD DUP2 MSTORE PUSH1 0x7 PUSH1 0x20 MSTORE DUP2 DUP2 KECCAK256 PUSH1 0x24 CALLDATALOAD DUP3 MSTORE PUSH1 0x20 MSTORE KECCAK256 PUSH1 0x1 DUP1 PUSH1 0xA0 SHL SUB SWAP1 PUSH2 0xD08 DUP3 DUP3 SLOAD AND SWAP2 PUSH1 0x1 DUP2 ADD SLOAD SWAP1 PUSH1 0x2 DUP2 ADD SLOAD PUSH1 0x3 DUP3 ADD SLOAD PUSH1 0x4 DUP4 ADD SLOAD PUSH1 0x5 DUP5 ADD SLOAD SWAP1 PUSH1 0x6 DUP6 ADD SLOAD SWAP3 PUSH2 0xCD5 PUSH1 0x7 DUP8 ADD SLOAD SWAP6 PUSH2 0xC9B PUSH1 0x9 PUSH1 0x8 DUP11 ADD SLOAD SWAP10 ADD PUSH2 0x1C36 JUMP JUMPDEST SWAP9 PUSH1 0x40 MLOAD SWAP13 DUP14 SWAP13 DUP14 MSTORE DUP2 AND PUSH1 0x20 DUP14 ADD MSTORE PUSH1 0x1 PUSH1 0x1 PUSH1 0x40 SHL SUB DUP1 SWAP2 PUSH1 0xA0 SHR AND PUSH1 0x40 DUP14 ADD MSTORE DUP2 AND PUSH1 0x60 DUP13 ADD MSTORE PUSH1 0xFF PUSH1 0x80 DUP13 ADD SWAP2 PUSH1 0x40 SHR AND PUSH2 0x1D1C JUMP JUMPDEST PUSH1 0xA0 DUP10 ADD MSTORE PUSH1 0xC0 DUP9 ADD MSTORE PUSH1 0xE0 DUP8 ADD MSTORE PUSH2 0x100 DUP7 ADD MSTORE PUSH2 0x120 DUP6 ADD MSTORE PUSH2 0x140 DUP5 ADD MSTORE PUSH2 0x180 DUP1 PUSH2 0x160 DUP6 ADD MSTORE DUP4 ADD SWAP1 PUSH2 0x1CDC JUMP JUMPDEST SUB SWAP1 RETURN JUMPDEST POP CALLVALUE PUSH2 0x1D0 JUMPI DUP1 PUSH1 0x3 NOT CALLDATASIZE ADD SLT PUSH2 0x1D0 JUMPI PUSH1 0x2 SLOAD PUSH1 0x40 MLOAD PUSH1 0x1 PUSH1 0x1 PUSH1 0xA0 SHL SUB SWAP1 SWAP2 AND DUP2 MSTORE PUSH1 0x20 SWAP1 RETURN JUMPDEST POP CALLVALUE PUSH2 0x1D0 JUMPI PUSH1 0x20 CALLDATASIZE PUSH1 0x3 NOT ADD SLT PUSH2 0x1D0 JUMPI PUSH1 0x40 SWAP1 PUSH1 0x4 CALLDATALOAD DUP2 MSTORE PUSH1 0x5 PUSH1 0x20 MSTORE KECCAK256 DUP1 SLOAD PUSH2 0xD63 PUSH1 0x1 DUP4 ADD PUSH2 0x1C36 JUMP JUMPDEST SWAP2 PUSH2 0xD70 PUSH1 0x2 DUP3 ADD PUSH2 0x1C36 JUMP JUMPDEST PUSH1 0x1 DUP1 PUSH1 0xA0 SHL SUB PUSH1 0x3 DUP4 ADD SLOAD AND SWAP2 PUSH1 0x4 DUP2 ADD SLOAD PUSH1 0x5 DUP3 ADD SLOAD SWAP1 PUSH2 0xDC4 PUSH1 0xFF PUSH1 0x7 PUSH1 0x6 DUP7 ADD SLOAD SWAP6 ADD SLOAD AND SWAP5 PUSH2 0xDB6 PUSH1 0x40 MLOAD SWAP10 DUP11 SWAP10 DUP11 MSTORE PUSH2 0x100 DUP1 PUSH1 0x20 DUP13 ADD MSTORE DUP11 ADD SWAP1 PUSH2 0x1CDC JUMP JUMPDEST SWAP1 DUP9 DUP3 SUB PUSH1 0x40 DUP11 ADD MSTORE PUSH2 0x1CDC JUMP JUMPDEST SWAP5 PUSH1 0x60 DUP8 ADD MSTORE PUSH1 0x80 DUP7 ADD MSTORE PUSH1 0xA0 DUP6 ADD MSTORE PUSH1 0xC0 DUP5 ADD MSTORE ISZERO ISZERO PUSH1 0xE0 DUP4 ADD MSTORE SUB SWAP1 RETURN JUMPDEST POP CALLVALUE PUSH2 0x1D0 JUMPI DUP1 PUSH1 0x3 NOT CALLDATASIZE ADD SLT PUSH2 0x1D0 JUMPI PUSH1 0x20 SWAP1 PUSH1 0x40 MLOAD SWAP1 DUP2 MSTORE RETURN JUMPDEST POP CALLVALUE PUSH2 0x1D0 JUMPI DUP1 PUSH1 0x3 NOT CALLDATASIZE ADD SLT PUSH2 0x1D0 JUMPI PUSH1 0x20 PUSH1 0x4 SLOAD PUSH1 0x40 MLOAD SWAP1 DUP2 MSTORE RETURN JUMPDEST POP CALLVALUE PUSH2 0x1D0 JUMPI PUSH1 0x40 CALLDATASIZE PUSH1 0x3 NOT ADD SLT PUSH2 0x1D0 JUMPI PUSH1 0x40 PUSH2 0xE3A PUSH2 0x1B81 JUMP JUMPDEST SWAP2 PUSH1 0x4 CALLDATALOAD DUP2 MSTORE DUP1 PUSH1 0x20 MSTORE KECCAK256 SWAP1 PUSH1 0x1 DUP1 PUSH1 0xA0 SHL SUB AND PUSH1 0x0 MSTORE PUSH1 0x20 MSTORE PUSH1 0x20 PUSH1 0xFF PUSH1 0x40 PUSH1 0x0 KECCAK256 SLOAD AND PUSH1 0x40 MLOAD SWAP1 ISZERO ISZERO DUP2 MSTORE RETURN JUMPDEST POP CALLVALUE PUSH2 0x1D0 JUMPI DUP1 PUSH1 0x3 NOT CALLDATASIZE ADD SLT PUSH2 0x1D0 JUMPI PUSH1 0x40 MLOAD PUSH32 0x0 PUSH1 0x1 PUSH1 0x1 PUSH1 0xA0 SHL SUB AND DUP2 MSTORE PUSH1 0x20 SWAP1 RETURN JUMPDEST POP CALLVALUE PUSH2 0x1D0 JUMPI DUP1 PUSH1 0x3 NOT CALLDATASIZE ADD SLT PUSH2 0x1D0 JUMPI PUSH1 0x3 SLOAD PUSH1 0x40 MLOAD PUSH1 0x1 PUSH1 0x1 PUSH1 0xA0 SHL SUB SWAP1 SWAP2 AND DUP2 MSTORE PUSH1 0x20 SWAP1 RETURN JUMPDEST POP CALLVALUE PUSH2 0x1D0 JUMPI PUSH1 0x20 CALLDATASIZE PUSH1 0x3 NOT ADD SLT PUSH2 0x1D0 JUMPI PUSH2 0xEF1 PUSH2 0x1B6B JUMP JUMPDEST PUSH2 0xEF9 PUSH2 0x1D3F JUMP JUMPDEST PUSH1 0x1 PUSH1 0x1 PUSH1 0xA0 SHL SUB AND DUP1 ISZERO PUSH2 0xF4A JUMPI PUSH1 0x20 DUP2 PUSH32 0x24CD1310C8883CBEAF5B805AB13586CE018B79C022827158FF3E8DF14D344936 SWAP3 PUSH1 0x1 PUSH1 0x1 PUSH1 0x60 SHL SUB PUSH1 0xA0 SHL PUSH1 0x2 SLOAD AND OR PUSH1 0x2 SSTORE PUSH1 0x40 MLOAD SWAP1 DUP2 MSTORE LOG1 DUP1 RETURN JUMPDEST PUSH1 0x40 MLOAD PUSH3 0x461BCD PUSH1 0xE5 SHL DUP2 MSTORE PUSH1 0x20 PUSH1 0x4 DUP3 ADD MSTORE PUSH1 0xC PUSH1 0x24 DUP3 ADD MSTORE PUSH12 0x5A65726F20666163746F7279 PUSH1 0xA0 SHL PUSH1 0x44 DUP3 ADD MSTORE PUSH1 0x64 SWAP1 REVERT JUMPDEST POP CALLVALUE PUSH2 0x1D0 JUMPI PUSH1 0x40 CALLDATASIZE PUSH1 0x3 NOT ADD SLT PUSH2 0x1D0 JUMPI PUSH2 0xF98 PUSH2 0x1B81 JUMP JUMPDEST CALLER PUSH1 0x1 PUSH1 0x1 PUSH1 0xA0 SHL SUB DUP3 AND SUB PUSH2 0xFB4 JUMPI PUSH2 0xBE6 SWAP1 PUSH1 0x4 CALLDATALOAD PUSH2 0x1E5D JUMP JUMPDEST PUSH1 0x40 MLOAD PUSH4 0x334BD919 PUSH1 0xE1 SHL DUP2 MSTORE PUSH1 0x4 SWAP1 REVERT JUMPDEST POP CALLVALUE PUSH2 0x1D0 JUMPI PUSH1 0x40 CALLDATASIZE PUSH1 0x3 NOT ADD SLT PUSH2 0x1D0 JUMPI PUSH2 0xBE6 PUSH1 0x4 CALLDATALOAD PUSH2 0xFE6 PUSH2 0x1B81 JUMP JUMPDEST SWAP1 DUP1 DUP5 MSTORE DUP4 PUSH1 0x20 MSTORE PUSH2 0xFFE PUSH1 0x1 PUSH1 0x40 DUP7 KECCAK256 ADD SLOAD PUSH2 0x1DB9 JUMP JUMPDEST PUSH2 0x1DDF JUMP JUMPDEST POP CALLVALUE PUSH2 0x1D0 JUMPI PUSH1 0x20 CALLDATASIZE PUSH1 0x3 NOT ADD SLT PUSH2 0x1D0 JUMPI PUSH1 0x1 PUSH1 0x40 PUSH1 0x20 SWAP3 PUSH1 0x4 CALLDATALOAD DUP2 MSTORE DUP1 DUP5 MSTORE KECCAK256 ADD SLOAD PUSH1 0x40 MLOAD SWAP1 DUP2 MSTORE RETURN JUMPDEST POP CALLVALUE PUSH2 0x1D0 JUMPI PUSH1 0x20 CALLDATASIZE PUSH1 0x3 NOT ADD SLT PUSH2 0x1D0 JUMPI PUSH1 0x40 PUSH1 0x20 SWAP2 PUSH1 0x4 CALLDATALOAD DUP2 MSTORE PUSH1 0x6 DUP4 MSTORE KECCAK256 SLOAD PUSH1 0x40 MLOAD SWAP1 DUP2 MSTORE RETURN JUMPDEST POP CALLVALUE PUSH2 0x1D0 JUMPI PUSH1 0x20 CALLDATASIZE PUSH1 0x3 NOT ADD SLT PUSH2 0x1D0 JUMPI PUSH1 0x20 SWAP1 PUSH1 0x40 SWAP1 PUSH1 0x1 PUSH1 0x1 PUSH1 0xA0 SHL SUB PUSH2 0x1081 PUSH2 0x1B6B JUMP JUMPDEST AND DUP2 MSTORE PUSH1 0x9 DUP4 MSTORE KECCAK256 SLOAD PUSH1 0x40 MLOAD SWAP1 DUP2 MSTORE RETURN JUMPDEST POP CALLVALUE PUSH2 0x1D0 JUMPI PUSH1 0x60 CALLDATASIZE PUSH1 0x3 NOT ADD SLT PUSH2 0x1D0 JUMPI PUSH1 0x24 CALLDATALOAD PUSH1 0x1 PUSH1 0x1 PUSH1 0x40 SHL SUB DUP2 GT PUSH2 0xB6C JUMPI PUSH2 0x10C3 SWAP1 CALLDATASIZE SWAP1 PUSH1 0x4 ADD PUSH2 0x1B3E JUMP JUMPDEST PUSH1 0x44 CALLDATALOAD SWAP3 SWAP2 PUSH1 0x1 PUSH1 0x1 PUSH1 0x40 SHL SUB DUP5 AND DUP5 SUB PUSH2 0x17AA JUMPI PUSH2 0x10E0 PUSH2 0x20E8 JUMP JUMPDEST PUSH1 0x4 CALLDATALOAD DUP4 MSTORE PUSH1 0x5 PUSH1 0x20 MSTORE PUSH1 0x40 DUP4 KECCAK256 SWAP2 PUSH1 0xFF PUSH1 0x7 DUP5 ADD SLOAD AND ISZERO PUSH2 0x177A JUMPI PUSH1 0x5 DUP4 ADD SWAP5 DUP6 SLOAD PUSH2 0x1745 JUMPI PUSH1 0x40 MLOAD PUSH4 0x30FE4275 PUSH1 0xE2 SHL DUP2 MSTORE SWAP4 PUSH2 0x100 DUP6 PUSH1 0x4 DUP2 PUSH32 0x0 PUSH1 0x1 PUSH1 0x1 PUSH1 0xA0 SHL SUB AND GAS STATICCALL SWAP5 DUP6 ISZERO PUSH2 0x173A JUMPI DUP7 SWAP6 PUSH2 0x1714 JUMPI JUMPDEST POP PUSH1 0x6 SWAP1 PUSH2 0x1185 PUSH2 0x1174 PUSH1 0x1 PUSH1 0x1 PUSH1 0x40 SHL SUB PUSH1 0x60 DUP10 ADD MLOAD AND TIMESTAMP PUSH2 0x1F8F JUMP JUMPDEST PUSH1 0x1 PUSH1 0x1 PUSH1 0x40 SHL SUB DUP6 AND LT ISZERO PUSH2 0x1FB2 JUMP JUMPDEST ADD SWAP1 DUP2 SLOAD PUSH1 0x4 CALLDATALOAD DUP8 MSTORE PUSH1 0x7 PUSH1 0x20 MSTORE PUSH1 0x40 DUP8 KECCAK256 SWAP1 DUP8 MSTORE PUSH1 0x20 MSTORE PUSH1 0x40 DUP7 KECCAK256 SWAP2 PUSH1 0xFF PUSH1 0x2 DUP5 ADD SLOAD PUSH1 0x40 SHR AND PUSH1 0x4 DUP2 LT ISZERO PUSH2 0x1700 JUMPI ISZERO PUSH2 0x16C5 JUMPI PUSH1 0x4 DUP7 MLOAD SWAP4 ADD SLOAD SWAP8 PUSH2 0xFFFF PUSH1 0xE0 DUP9 ADD MLOAD AND SWAP9 DUP1 DUP11 DUP2 MUL DIV DUP11 EQ DUP2 ISZERO OR ISZERO PUSH2 0xABD JUMPI DUP9 SWAP10 PUSH2 0x2710 SWAP2 SWAP10 SWAP9 SWAP10 MUL DIV SWAP2 PUSH2 0x121C DUP4 DUP7 GT DUP5 DUP8 XOR MUL DUP5 XOR ADDRESS CALLER PUSH32 0x0 PUSH2 0x203E JUMP JUMPDEST PUSH1 0x2 SLOAD PUSH1 0x40 MLOAD PUSH4 0x243D17B5 PUSH1 0xE1 SHL DUP2 MSTORE ADDRESS PUSH1 0x4 DUP3 ADD MSTORE SWAP9 PUSH1 0x20 SWAP2 DUP11 SWAP2 PUSH1 0x24 SWAP2 DUP4 SWAP2 SWAP1 PUSH1 0x1 PUSH1 0x1 PUSH1 0xA0 SHL SUB AND GAS CALL SWAP8 DUP9 ISZERO PUSH2 0x16BA JUMPI DUP11 SWAP9 PUSH2 0x1699 JUMPI JUMPDEST POP DUP5 DUP4 XOR DUP4 DUP7 GT MUL DUP4 XOR PUSH1 0x1 DUP2 SWAP1 SHR DUP2 SUB GT PUSH2 0x1685 JUMPI PUSH2 0x12A0 DUP4 DUP7 GT DUP5 DUP8 XOR MUL DUP5 XOR DUP10 PUSH32 0x0 PUSH2 0x210B JUMP JUMPDEST PUSH1 0x40 MLOAD PUSH2 0x12AC DUP2 PUSH2 0x1BD1 JUMP JUMPDEST CALLER DUP2 MSTORE DUP6 DUP5 XOR DUP5 DUP8 GT MUL DUP5 XOR PUSH1 0x1 DUP2 DUP2 SHR PUSH1 0x20 DUP5 ADD DUP2 SWAP1 MSTORE SWAP1 SWAP2 SUB PUSH1 0x40 DUP4 ADD MSTORE PUSH1 0x60 DUP3 ADD DUP13 SWAP1 MSTORE PUSH1 0x80 DUP3 ADD DUP2 SWAP1 MSTORE DUP3 SLOAD SWAP1 DUP2 ADD SWAP11 SWAP1 DUP12 LT PUSH2 0x1671 JUMPI PUSH1 0x1 DUP1 PUSH1 0xA0 SHL SUB PUSH1 0x3 SLOAD AND SWAP2 PUSH1 0x1 PUSH1 0x1 PUSH1 0x40 SHL SUB PUSH1 0x80 DUP4 ADD MLOAD AND SWAP2 PUSH1 0x1 PUSH1 0x1 PUSH1 0x40 SHL SUB PUSH1 0xA0 DUP3 ADD MLOAD AND SWAP1 PUSH2 0xFFFF PUSH1 0xC0 PUSH1 0x40 DUP4 ADD MLOAD SWAP3 ADD MLOAD AND SWAP2 DUP14 PUSH1 0x1 DUP1 PUSH1 0xA0 SHL SUB AND EXTCODESIZE ISZERO PUSH2 0x166D JUMPI PUSH1 0x80 SWAP5 DUP16 PUSH1 0x40 MLOAD SWAP8 PUSH4 0x54213EF PUSH1 0xE5 SHL DUP10 MSTORE ADDRESS PUSH1 0x4 DUP11 ADD MSTORE PUSH1 0x1 DUP1 PUSH1 0xA0 SHL SUB PUSH32 0x0 AND PUSH1 0x24 DUP11 ADD MSTORE PUSH1 0x44 DUP10 ADD MSTORE PUSH1 0x4 CALLDATALOAD PUSH1 0x64 DUP10 ADD MSTORE PUSH1 0x84 DUP9 ADD MSTORE PUSH1 0x1 PUSH1 0x1 PUSH1 0x40 SHL SUB DUP12 AND PUSH1 0xA4 DUP9 ADD MSTORE PUSH1 0xC4 DUP8 ADD MSTORE PUSH1 0xE4 DUP7 ADD MSTORE PUSH2 0x104 DUP6 ADD MSTORE PUSH2 0x124 DUP5 ADD MSTORE PUSH1 0x1 DUP1 PUSH1 0xA0 SHL SUB DUP2 MLOAD AND PUSH2 0x144 DUP5 ADD MSTORE PUSH1 0x20 DUP2 ADD MLOAD PUSH2 0x164 DUP5 ADD MSTORE PUSH1 0x40 DUP2 ADD MLOAD PUSH2 0x184 DUP5 ADD MSTORE PUSH1 0x60 DUP2 ADD MLOAD PUSH2 0x1A4 DUP5 ADD MSTORE ADD MLOAD ISZERO ISZERO PUSH2 0x1C4 DUP3 ADD MSTORE DUP11 DUP2 PUSH2 0x1E4 DUP2 DUP4 DUP14 PUSH1 0x1 DUP1 PUSH1 0xA0 SHL SUB AND GAS CALL DUP1 ISZERO PUSH2 0x1662 JUMPI PUSH2 0x164B JUMPI JUMPDEST POP DUP9 SWAP1 SSTORE DUP8 SWAP1 SSTORE PUSH1 0x1 PUSH1 0x1 PUSH1 0xA0 SHL SUB DUP7 AND DUP1 DUP10 MSTORE PUSH1 0x8 PUSH1 0x20 SWAP1 DUP2 MSTORE PUSH1 0x40 DUP1 DUP12 KECCAK256 PUSH1 0x4 CALLDATALOAD SWAP1 DUP2 SWAP1 SSTORE PUSH1 0x9 DUP4 MSTORE DUP2 DUP13 KECCAK256 DUP12 SWAP1 SSTORE DUP12 MSTORE PUSH1 0x7 DUP3 MSTORE DUP1 DUP12 KECCAK256 DUP11 DUP13 MSTORE SWAP1 SWAP2 MSTORE DUP10 KECCAK256 DUP1 SLOAD PUSH1 0x1 PUSH1 0x1 PUSH1 0xA0 SHL SUB NOT AND SWAP1 SWAP2 OR DUP2 SSTORE PUSH1 0x1 DUP2 ADD DUP1 SLOAD PUSH8 0xFFFFFFFFFFFFFFFF PUSH1 0xA0 SHL NOT CALLER AND PUSH1 0x1 PUSH1 0x1 PUSH1 0xE0 SHL SUB NOT SWAP1 SWAP2 AND OR TIMESTAMP PUSH1 0xA0 SHL PUSH8 0xFFFFFFFFFFFFFFFF PUSH1 0xA0 SHL AND OR SWAP1 SSTORE PUSH1 0x9 DUP2 ADD PUSH1 0x1 PUSH1 0x1 PUSH1 0x40 SHL SUB DUP7 GT PUSH2 0x9EF JUMPI PUSH2 0x14A9 DUP2 SLOAD PUSH2 0x1B97 JUMP JUMPDEST PUSH1 0x1F DUP2 GT PUSH2 0x1606 JUMPI JUMPDEST POP DUP10 PUSH1 0x1F DUP8 GT PUSH1 0x1 EQ PUSH2 0x1570 JUMPI SWAP3 PUSH1 0x2 PUSH1 0x1 PUSH1 0x1 PUSH1 0x40 SHL SUB SWAP4 PUSH32 0xC630E6A272FC8D9CF04CD81D5F50A824155A8C1B5D2064E872F19896CEE2BA93 SWAP7 SWAP4 DUP10 PUSH1 0x40 SWAP15 DUP15 SWAP12 SWAP11 SWAP9 SWAP2 PUSH2 0x1565 JUMPI JUMPDEST POP DUP10 PUSH1 0x1 SHL SWAP1 PUSH1 0x0 NOT DUP12 PUSH1 0x3 SHL SHR NOT AND OR SWAP1 SSTORE JUMPDEST ADD PUSH1 0xFF PUSH1 0x40 SHL NOT DUP2 SLOAD AND SWAP1 SSTORE DUP11 MLOAD SWAP4 DUP2 DUP1 DUP3 GT SWAP2 XOR MUL XOR DUP4 MSTORE AND PUSH1 0x20 DUP3 ADD MSTORE PUSH1 0x60 DUP9 DUP3 ADD MSTORE DUP1 PUSH2 0x1549 CALLER SWAP7 PUSH1 0x4 CALLDATALOAD SWAP6 PUSH1 0x60 DUP5 ADD SWAP2 PUSH2 0x201D JUMP JUMPDEST SUB SWAP1 LOG4 PUSH1 0x1 DUP1 SSTORE DUP3 MLOAD SWAP2 DUP3 MSTORE PUSH1 0x1 PUSH1 0x1 PUSH1 0xA0 SHL SUB AND PUSH1 0x20 DUP3 ADD MSTORE RETURN JUMPDEST SWAP1 POP DUP12 ADD CALLDATALOAD CODESIZE PUSH2 0x14FC JUMP JUMPDEST SWAP10 PUSH1 0x1F NOT DUP8 AND DUP3 DUP13 MSTORE PUSH1 0x20 DUP13 KECCAK256 SWAP12 JUMPDEST DUP2 DUP2 LT PUSH2 0x15EE JUMPI POP PUSH1 0x1 PUSH1 0x1 PUSH1 0x40 SHL SUB SWAP4 PUSH32 0xC630E6A272FC8D9CF04CD81D5F50A824155A8C1B5D2064E872F19896CEE2BA93 SWAP7 SWAP4 PUSH1 0x40 SWAP14 DUP11 SWAP10 SWAP8 SWAP5 DUP15 SWAP12 PUSH1 0x2 SWAP6 LT PUSH2 0x15D4 JUMPI JUMPDEST POP POP PUSH1 0x1 DUP10 DUP2 SHL ADD SWAP1 SSTORE PUSH2 0x1510 JUMP JUMPDEST DUP13 ADD CALLDATALOAD PUSH1 0x0 NOT PUSH1 0x3 DUP13 SWAP1 SHL PUSH1 0xF8 AND SHR NOT AND SWAP1 SSTORE CODESIZE DUP1 PUSH2 0x15C5 JUMP JUMPDEST DUP10 DUP4 ADD CALLDATALOAD DUP14 SSTORE PUSH1 0x1 SWAP1 SWAP13 ADD SWAP12 PUSH1 0x20 SWAP3 DUP4 ADD SWAP3 ADD PUSH2 0x157F JUMP JUMPDEST DUP2 DUP12 MSTORE PUSH1 0x20 DUP12 KECCAK256 PUSH1 0x1F DUP9 ADD PUSH1 0x5 SHR DUP2 ADD SWAP2 PUSH1 0x20 DUP10 LT PUSH2 0x1641 JUMPI JUMPDEST PUSH1 0x1F ADD PUSH1 0x5 SHR ADD SWAP1 JUMPDEST DUP2 DUP2 LT PUSH2 0x1636 JUMPI POP PUSH2 0x14B2 JUMP JUMPDEST DUP12 DUP2 SSTORE PUSH1 0x1 ADD PUSH2 0x1629 JUMP JUMPDEST SWAP1 SWAP2 POP DUP2 SWAP1 PUSH2 0x1620 JUMP JUMPDEST DUP10 SWAP3 SWAP2 SWAP11 PUSH2 0x1659 DUP5 SWAP3 PUSH2 0x1C02 JUMP JUMPDEST SWAP11 SWAP2 SWAP3 POP PUSH2 0x1404 JUMP JUMPDEST PUSH1 0x40 MLOAD RETURNDATASIZE DUP14 DUP3 RETURNDATACOPY RETURNDATASIZE SWAP1 REVERT JUMPDEST DUP16 DUP1 REVERT JUMPDEST PUSH4 0x4E487B71 PUSH1 0xE0 SHL DUP13 MSTORE PUSH1 0x11 PUSH1 0x4 MSTORE PUSH1 0x24 DUP13 REVERT JUMPDEST PUSH4 0x4E487B71 PUSH1 0xE0 SHL DUP11 MSTORE PUSH1 0x11 PUSH1 0x4 MSTORE PUSH1 0x24 DUP11 REVERT JUMPDEST PUSH2 0x16B3 SWAP2 SWAP9 POP PUSH1 0x20 RETURNDATASIZE PUSH1 0x20 GT PUSH2 0x8ED JUMPI PUSH2 0x8DE DUP2 DUP4 PUSH2 0x1C15 JUMP JUMPDEST SWAP7 CODESIZE PUSH2 0x1257 JUMP JUMPDEST PUSH1 0x40 MLOAD RETURNDATASIZE DUP13 DUP3 RETURNDATACOPY RETURNDATASIZE SWAP1 REVERT JUMPDEST PUSH1 0x40 MLOAD PUSH3 0x461BCD PUSH1 0xE5 SHL DUP2 MSTORE PUSH1 0x20 PUSH1 0x4 DUP3 ADD MSTORE PUSH1 0x13 PUSH1 0x24 DUP3 ADD MSTORE PUSH19 0x141C995D9A5BDD5CC81D5B9C995CDBDB1D9959 PUSH1 0x6A SHL PUSH1 0x44 DUP3 ADD MSTORE PUSH1 0x64 SWAP1 REVERT JUMPDEST PUSH4 0x4E487B71 PUSH1 0xE0 SHL DUP9 MSTORE PUSH1 0x21 PUSH1 0x4 MSTORE PUSH1 0x24 DUP9 REVERT JUMPDEST PUSH1 0x6 SWAP2 SWAP6 POP PUSH2 0x1733 SWAP1 PUSH2 0x100 RETURNDATASIZE PUSH2 0x100 GT PUSH2 0xB51 JUMPI PUSH2 0xB42 DUP2 DUP4 PUSH2 0x1C15 JUMP JUMPDEST SWAP5 SWAP1 PUSH2 0x1156 JUMP JUMPDEST PUSH1 0x40 MLOAD RETURNDATASIZE DUP9 DUP3 RETURNDATACOPY RETURNDATASIZE SWAP1 REVERT JUMPDEST PUSH1 0x40 MLOAD PUSH3 0x461BCD PUSH1 0xE5 SHL DUP2 MSTORE PUSH1 0x20 PUSH1 0x4 DUP3 ADD MSTORE PUSH1 0xD PUSH1 0x24 DUP3 ADD MSTORE PUSH13 0x1058DD1A5D99481B585C9AD95D PUSH1 0x9A SHL PUSH1 0x44 DUP3 ADD MSTORE PUSH1 0x64 SWAP1 REVERT JUMPDEST PUSH1 0x40 MLOAD PUSH3 0x461BCD PUSH1 0xE5 SHL DUP2 MSTORE PUSH1 0x20 PUSH1 0x4 DUP3 ADD MSTORE PUSH1 0x8 PUSH1 0x24 DUP3 ADD MSTORE PUSH8 0x4E6F20636C61696D PUSH1 0xC0 SHL PUSH1 0x44 DUP3 ADD MSTORE PUSH1 0x64 SWAP1 REVERT JUMPDEST DUP3 DUP1 REVERT JUMPDEST POP CALLVALUE PUSH2 0x1D0 JUMPI PUSH2 0x120 CALLDATASIZE PUSH1 0x3 NOT ADD SLT PUSH2 0x1D0 JUMPI PUSH2 0x17C9 PUSH2 0x20E8 JUMP JUMPDEST CALLER DUP2 MSTORE PUSH1 0x20 SWAP1 PUSH1 0x8 DUP3 MSTORE PUSH1 0x40 DUP2 KECCAK256 SLOAD SWAP2 DUP3 ISZERO PUSH2 0x1AB4 JUMPI CALLER DUP3 MSTORE PUSH1 0x9 DUP2 MSTORE PUSH1 0x40 DUP3 KECCAK256 SLOAD SWAP3 PUSH1 0x24 CALLDATALOAD DUP5 SUB PUSH2 0x1A7C JUMPI DUP1 PUSH1 0x4 CALLDATALOAD SUB PUSH2 0x1A46 JUMPI DUP1 DUP4 MSTORE PUSH1 0x5 DUP3 MSTORE PUSH1 0x40 DUP4 KECCAK256 SWAP2 PUSH1 0x7 DUP2 MSTORE PUSH1 0x40 DUP5 KECCAK256 DUP6 DUP6 MSTORE DUP2 MSTORE PUSH1 0x40 DUP5 KECCAK256 SWAP2 PUSH1 0x2 DUP4 ADD SWAP1 DUP2 SLOAD SWAP7 PUSH1 0xFF DUP9 PUSH1 0x40 SHR AND PUSH1 0x4 DUP2 LT ISZERO PUSH2 0x1700 JUMPI PUSH2 0x1A13 JUMPI DUP7 SWAP8 PUSH1 0x44 CALLDATALOAD SWAP3 PUSH1 0x4 DUP5 LT ISZERO PUSH2 0x1A0F JUMPI PUSH32 0x7F83C888A7C5623CF8088F792B693EE3E867CF58724A3781AD9D045EB0446337 PUSH1 0xE0 PUSH1 0x1 SWAP6 PUSH1 0x8 DUP13 SWAP11 DUP13 SWAP10 DUP9 SWAP8 PUSH1 0x1 PUSH1 0x1 PUSH1 0x40 SHL SUB TIMESTAMP AND SWAP1 PUSH1 0xFF PUSH1 0x40 SHL DUP7 PUSH1 0x40 SHL AND SWAP1 PUSH9 0xFFFFFFFFFFFFFFFFFF NOT AND OR OR SWAP1 SSTORE PUSH1 0x64 CALLDATALOAD DUP1 PUSH1 0x3 DUP4 ADD SSTORE PUSH1 0x84 CALLDATALOAD SWAP1 DUP2 PUSH1 0x4 DUP5 ADD SSTORE PUSH1 0xA4 CALLDATALOAD SWAP14 DUP15 PUSH1 0x5 DUP6 ADD SSTORE PUSH1 0x5 PUSH1 0xC4 CALLDATALOAD SWAP14 DUP15 PUSH1 0x6 DUP8 ADD SSTORE PUSH1 0xE4 CALLDATALOAD SWAP6 DUP7 PUSH1 0x7 DUP3 ADD SSTORE PUSH2 0x104 CALLDATALOAD SWAP8 DUP9 SWAP2 ADD SSTORE ADD SSTORE PUSH2 0x18E6 PUSH1 0x40 MLOAD DUP1 SWAP7 PUSH2 0x1D1C JUMP JUMPDEST DUP13 DUP6 ADD MSTORE PUSH1 0x40 DUP5 ADD MSTORE DUP12 PUSH1 0x60 DUP5 ADD MSTORE DUP10 PUSH1 0x80 DUP5 ADD MSTORE PUSH1 0xA0 DUP4 ADD MSTORE PUSH1 0xC0 DUP3 ADD MSTORE LOG3 EQ DUP1 PUSH2 0x1A02 JUMPI JUMPDEST PUSH2 0x191A JUMPI JUMPDEST DUP5 PUSH1 0x1 DUP1 SSTORE DUP1 RETURN JUMPDEST PUSH1 0x40 MLOAD PUSH4 0x30FE4275 PUSH1 0xE2 SHL DUP2 MSTORE SWAP3 PUSH2 0x100 SWAP3 PUSH1 0x1 PUSH1 0x1 PUSH1 0xA0 SHL SUB SWAP3 DUP5 DUP7 PUSH1 0x4 DUP2 PUSH32 0x0 DUP9 AND GAS STATICCALL SWAP3 DUP4 ISZERO PUSH2 0x19F7 JUMPI PUSH2 0x19BB SWAP7 PUSH1 0x4 SWAP7 DUP11 SWAP6 PUSH2 0x19D0 JUMPI JUMPDEST POP POP SWAP1 PUSH2 0x1980 SWAP2 PUSH2 0x1F8F JUMP JUMPDEST SWAP2 ADD MLOAD GT PUSH2 0x19C6 JUMPI PUSH1 0x3 DUP5 ADD SLOAD AND SWAP3 JUMPDEST ADD SWAP2 DUP3 SLOAD SWAP1 PUSH32 0x0 PUSH2 0x210B JUMP JUMPDEST SSTORE DUP1 CODESIZE DUP1 DUP1 DUP1 PUSH2 0x1912 JUMP JUMPDEST PUSH1 0x3 SLOAD AND SWAP3 PUSH2 0x1990 JUMP JUMPDEST PUSH2 0x1980 SWAP4 SWAP3 SWAP6 POP SWAP1 DUP2 PUSH2 0x19EE SWAP3 SWAP1 RETURNDATASIZE LT PUSH2 0xB51 JUMPI PUSH2 0xB42 DUP2 DUP4 PUSH2 0x1C15 JUMP JUMPDEST SWAP4 SWAP1 SWAP2 CODESIZE PUSH2 0x1974 JUMP JUMPDEST PUSH1 0x40 MLOAD RETURNDATASIZE DUP11 DUP3 RETURNDATACOPY RETURNDATASIZE SWAP1 REVERT JUMPDEST POP PUSH1 0x4 DUP5 ADD SLOAD ISZERO ISZERO PUSH2 0x190D JUMP JUMPDEST DUP9 DUP1 REVERT JUMPDEST PUSH1 0x40 MLOAD PUSH3 0x461BCD PUSH1 0xE5 SHL DUP2 MSTORE PUSH1 0x4 DUP2 ADD DUP6 SWAP1 MSTORE PUSH1 0xB PUSH1 0x24 DUP3 ADD MSTORE PUSH11 0x105B1C9958591E481CD95D PUSH1 0xAA SHL PUSH1 0x44 DUP3 ADD MSTORE PUSH1 0x64 SWAP1 REVERT JUMPDEST PUSH1 0x40 MLOAD PUSH3 0x461BCD PUSH1 0xE5 SHL DUP2 MSTORE PUSH1 0x4 DUP2 ADD DUP4 SWAP1 MSTORE PUSH1 0xE PUSH1 0x24 DUP3 ADD MSTORE PUSH14 0x86D8C2D2DA40DAD2E6DAC2E8C6D PUSH1 0x93 SHL PUSH1 0x44 DUP3 ADD MSTORE PUSH1 0x64 SWAP1 REVERT JUMPDEST PUSH1 0x40 MLOAD PUSH3 0x461BCD PUSH1 0xE5 SHL DUP2 MSTORE PUSH1 0x4 DUP2 ADD DUP4 SWAP1 MSTORE PUSH1 0x10 PUSH1 0x24 DUP3 ADD MSTORE PUSH16 0xACCAE4E6D2DEDC40DAD2E6DAC2E8C6D PUSH1 0x83 SHL PUSH1 0x44 DUP3 ADD MSTORE PUSH1 0x64 SWAP1 REVERT JUMPDEST PUSH1 0x64 SWAP1 PUSH1 0x40 MLOAD SWAP1 PUSH3 0x461BCD PUSH1 0xE5 SHL DUP3 MSTORE PUSH1 0x4 DUP3 ADD MSTORE PUSH1 0xE PUSH1 0x24 DUP3 ADD MSTORE PUSH14 0x155B9ADB9BDDDB881B585C9AD95D PUSH1 0x92 SHL PUSH1 0x44 DUP3 ADD MSTORE REVERT JUMPDEST SWAP1 POP CALLVALUE PUSH2 0xB6C JUMPI PUSH1 0x20 CALLDATASIZE PUSH1 0x3 NOT ADD SLT PUSH2 0xB6C JUMPI PUSH1 0x4 CALLDATALOAD PUSH4 0xFFFFFFFF PUSH1 0xE0 SHL DUP2 AND DUP1 SWAP2 SUB PUSH2 0x17AA JUMPI PUSH1 0x20 SWAP3 POP PUSH4 0x7965DB0B PUSH1 0xE0 SHL DUP2 EQ SWAP1 DUP2 ISZERO PUSH2 0x1B2D JUMPI JUMPDEST POP ISZERO ISZERO DUP2 MSTORE RETURN JUMPDEST PUSH4 0x1FFC9A7 PUSH1 0xE0 SHL EQ SWAP1 POP CODESIZE PUSH2 0x1B26 JUMP JUMPDEST SWAP2 DUP2 PUSH1 0x1F DUP5 ADD SLT ISZERO PUSH2 0xB63 JUMPI DUP3 CALLDATALOAD SWAP2 PUSH1 0x1 PUSH1 0x1 PUSH1 0x40 SHL SUB DUP4 GT PUSH2 0xB63 JUMPI PUSH1 0x20 DUP4 DUP2 DUP7 ADD SWAP6 ADD ADD GT PUSH2 0xB63 JUMPI JUMP JUMPDEST PUSH1 0x4 CALLDATALOAD SWAP1 PUSH1 0x1 PUSH1 0x1 PUSH1 0xA0 SHL SUB DUP3 AND DUP3 SUB PUSH2 0xB63 JUMPI JUMP JUMPDEST PUSH1 0x24 CALLDATALOAD SWAP1 PUSH1 0x1 PUSH1 0x1 PUSH1 0xA0 SHL SUB DUP3 AND DUP3 SUB PUSH2 0xB63 JUMPI JUMP JUMPDEST SWAP1 PUSH1 0x1 DUP3 DUP2 SHR SWAP3 AND DUP1 ISZERO PUSH2 0x1BC7 JUMPI JUMPDEST PUSH1 0x20 DUP4 LT EQ PUSH2 0x1BB1 JUMPI JUMP JUMPDEST PUSH4 0x4E487B71 PUSH1 0xE0 SHL PUSH1 0x0 MSTORE PUSH1 0x22 PUSH1 0x4 MSTORE PUSH1 0x24 PUSH1 0x0 REVERT JUMPDEST SWAP2 PUSH1 0x7F AND SWAP2 PUSH2 0x1BA6 JUMP JUMPDEST PUSH1 0xA0 DUP2 ADD SWAP1 DUP2 LT PUSH1 0x1 PUSH1 0x1 PUSH1 0x40 SHL SUB DUP3 GT OR PUSH2 0x1BEC JUMPI PUSH1 0x40 MSTORE JUMP JUMPDEST PUSH4 0x4E487B71 PUSH1 0xE0 SHL PUSH1 0x0 MSTORE PUSH1 0x41 PUSH1 0x4 MSTORE PUSH1 0x24 PUSH1 0x0 REVERT JUMPDEST PUSH1 0x1 PUSH1 0x1 PUSH1 0x40 SHL SUB DUP2 GT PUSH2 0x1BEC JUMPI PUSH1 0x40 MSTORE JUMP JUMPDEST SWAP1 PUSH1 0x1F DUP1 NOT SWAP2 ADD AND DUP2 ADD SWAP1 DUP2 LT PUSH1 0x1 PUSH1 0x1 PUSH1 0x40 SHL SUB DUP3 GT OR PUSH2 0x1BEC JUMPI PUSH1 0x40 MSTORE JUMP JUMPDEST SWAP1 PUSH1 0x40 MLOAD SWAP2 DUP3 PUSH1 0x0 DUP3 SLOAD SWAP3 PUSH2 0x1C4A DUP5 PUSH2 0x1B97 JUMP JUMPDEST SWAP1 DUP2 DUP5 MSTORE PUSH1 0x1 SWAP5 DUP6 DUP2 AND SWAP1 DUP2 PUSH1 0x0 EQ PUSH2 0x1CB9 JUMPI POP PUSH1 0x1 EQ PUSH2 0x1C76 JUMPI JUMPDEST POP POP PUSH2 0x1C74 SWAP3 POP SUB DUP4 PUSH2 0x1C15 JUMP JUMPDEST JUMP JUMPDEST SWAP1 SWAP4 SWAP2 POP PUSH1 0x0 MSTORE PUSH1 0x20 SWAP1 DUP2 PUSH1 0x0 KECCAK256 SWAP4 PUSH1 0x0 SWAP2 JUMPDEST DUP2 DUP4 LT PUSH2 0x1CA1 JUMPI POP POP PUSH2 0x1C74 SWAP4 POP DUP3 ADD ADD CODESIZE DUP1 PUSH2 0x1C66 JUMP JUMPDEST DUP6 SLOAD DUP9 DUP5 ADD DUP6 ADD MSTORE SWAP5 DUP6 ADD SWAP5 DUP8 SWAP5 POP SWAP2 DUP4 ADD SWAP2 PUSH2 0x1C89 JUMP JUMPDEST SWAP2 POP POP PUSH2 0x1C74 SWAP5 POP PUSH1 0x20 SWAP3 POP PUSH1 0xFF NOT AND DUP3 DUP5 ADD MSTORE ISZERO ISZERO PUSH1 0x5 SHL DUP3 ADD ADD CODESIZE DUP1 PUSH2 0x1C66 JUMP JUMPDEST SWAP2 SWAP1 DUP3 MLOAD SWAP3 DUP4 DUP3 MSTORE PUSH1 0x0 JUMPDEST DUP5 DUP2 LT PUSH2 0x1D08 JUMPI POP POP DUP3 PUSH1 0x0 PUSH1 0x20 DUP1 SWAP5 SWAP6 DUP5 ADD ADD MSTORE PUSH1 0x1F DUP1 NOT SWAP2 ADD AND ADD ADD SWAP1 JUMP JUMPDEST PUSH1 0x20 DUP2 DUP4 ADD DUP2 ADD MLOAD DUP5 DUP4 ADD DUP3 ADD MSTORE ADD PUSH2 0x1CE7 JUMP JUMPDEST SWAP1 PUSH1 0x4 DUP3 LT ISZERO PUSH2 0x1D29 JUMPI MSTORE JUMP JUMPDEST PUSH4 0x4E487B71 PUSH1 0xE0 SHL PUSH1 0x0 MSTORE PUSH1 0x21 PUSH1 0x4 MSTORE PUSH1 0x24 PUSH1 0x0 REVERT JUMPDEST CALLER PUSH1 0x0 SWAP1 DUP2 MSTORE PUSH32 0x6F3B488CAA0DC03E5F3D9FD6A25FA8755AFCFD62CCFFB6E436C696BFA6B866DE PUSH1 0x20 MSTORE PUSH1 0x40 SWAP1 KECCAK256 SLOAD PUSH32 0x7935BD0AE54BC31F548C14DBA4D37C5C64B3F8CA900CB468FB8ABD54D5894F55 SWAP1 PUSH1 0xFF AND ISZERO PUSH2 0x1D9B JUMPI POP JUMP JUMPDEST PUSH1 0x44 SWAP1 PUSH1 0x40 MLOAD SWAP1 PUSH4 0xE2517D3F PUSH1 0xE0 SHL DUP3 MSTORE CALLER PUSH1 0x4 DUP4 ADD MSTORE PUSH1 0x24 DUP3 ADD MSTORE REVERT JUMPDEST DUP1 PUSH1 0x0 MSTORE PUSH1 0x0 PUSH1 0x20 MSTORE PUSH1 0x40 PUSH1 0x0 KECCAK256 CALLER PUSH1 0x0 MSTORE PUSH1 0x20 MSTORE PUSH1 0xFF PUSH1 0x40 PUSH1 0x0 KECCAK256 SLOAD AND ISZERO PUSH2 0x1D9B JUMPI POP JUMP JUMPDEST SWAP1 PUSH1 0x0 SWAP2 DUP1 DUP4 MSTORE DUP3 PUSH1 0x20 MSTORE PUSH1 0x40 DUP4 KECCAK256 SWAP2 PUSH1 0x1 DUP1 PUSH1 0xA0 SHL SUB AND SWAP2 DUP3 DUP5 MSTORE PUSH1 0x20 MSTORE PUSH1 0xFF PUSH1 0x40 DUP5 KECCAK256 SLOAD AND ISZERO PUSH1 0x0 EQ PUSH2 0x1E58 JUMPI DUP1 DUP4 MSTORE DUP3 PUSH1 0x20 MSTORE PUSH1 0x40 DUP4 KECCAK256 DUP3 DUP5 MSTORE PUSH1 0x20 MSTORE PUSH1 0x40 DUP4 KECCAK256 PUSH1 0x1 PUSH1 0xFF NOT DUP3 SLOAD AND OR SWAP1 SSTORE PUSH32 0x2F8788117E7EFF1D82E926EC794901D17C78024A50270940304540A733656F0D CALLER SWAP4 DUP1 LOG4 PUSH1 0x1 SWAP1 JUMP JUMPDEST POP POP SWAP1 JUMP JUMPDEST SWAP1 PUSH1 0x0 SWAP2 DUP1 DUP4 MSTORE DUP3 PUSH1 0x20 MSTORE PUSH1 0x40 DUP4 KECCAK256 SWAP2 PUSH1 0x1 DUP1 PUSH1 0xA0 SHL SUB AND SWAP2 DUP3 DUP5 MSTORE PUSH1 0x20 MSTORE PUSH1 0xFF PUSH1 0x40 DUP5 KECCAK256 SLOAD AND PUSH1 0x0 EQ PUSH2 0x1E58 JUMPI DUP1 DUP4 MSTORE DUP3 PUSH1 0x20 MSTORE PUSH1 0x40 DUP4 KECCAK256 DUP3 DUP5 MSTORE PUSH1 0x20 MSTORE PUSH1 0x40 DUP4 KECCAK256 PUSH1 0xFF NOT DUP2 SLOAD AND SWAP1 SSTORE PUSH32 0xF6391F5C32D9C69D2A47EA670B442974B53935D1EDC7FD64EB21E047A839171B CALLER SWAP4 DUP1 LOG4 PUSH1 0x1 SWAP1 JUMP JUMPDEST MLOAD SWAP1 PUSH1 0x1 PUSH1 0x1 PUSH1 0x40 SHL SUB DUP3 AND DUP3 SUB PUSH2 0xB63 JUMPI JUMP JUMPDEST MLOAD SWAP1 PUSH2 0xFFFF DUP3 AND DUP3 SUB PUSH2 0xB63 JUMPI JUMP JUMPDEST DUP1 SWAP2 PUSH2 0x100 SWAP3 DUP4 SWAP2 SUB SLT PUSH2 0xB63 JUMPI PUSH1 0x40 MLOAD SWAP2 DUP3 ADD DUP3 DUP2 LT PUSH1 0x1 PUSH1 0x1 PUSH1 0x40 SHL SUB DUP3 GT OR PUSH2 0x1BEC JUMPI PUSH2 0x1F87 SWAP2 PUSH1 0xE0 SWAP2 PUSH1 0x40 MSTORE DUP1 MLOAD DUP5 MSTORE PUSH1 0x20 DUP2 ADD MLOAD PUSH1 0x20 DUP6 ADD MSTORE PUSH1 0x40 DUP2 ADD MLOAD PUSH1 0x40 DUP6 ADD MSTORE PUSH2 0x1F49 PUSH1 0x60 DUP3 ADD PUSH2 0x1ED2 JUMP JUMPDEST PUSH1 0x60 DUP6 ADD MSTORE PUSH2 0x1F5A PUSH1 0x80 DUP3 ADD PUSH2 0x1ED2 JUMP JUMPDEST PUSH1 0x80 DUP6 ADD MSTORE PUSH2 0x1F6B PUSH1 0xA0 DUP3 ADD PUSH2 0x1ED2 JUMP JUMPDEST PUSH1 0xA0 DUP6 ADD MSTORE PUSH2 0x1F7C PUSH1 0xC0 DUP3 ADD PUSH2 0x1EE6 JUMP JUMPDEST PUSH1 0xC0 DUP6 ADD MSTORE ADD PUSH2 0x1EE6 JUMP JUMPDEST PUSH1 0xE0 DUP3 ADD MSTORE SWAP1 JUMP JUMPDEST SWAP2 SWAP1 DUP3 ADD DUP1 SWAP3 GT PUSH2 0x1F9C JUMPI JUMP JUMPDEST PUSH4 0x4E487B71 PUSH1 0xE0 SHL PUSH1 0x0 MSTORE PUSH1 0x11 PUSH1 0x4 MSTORE PUSH1 0x24 PUSH1 0x0 REVERT JUMPDEST ISZERO PUSH2 0x1FB9 JUMPI JUMP JUMPDEST PUSH1 0x40 MLOAD PUSH3 0x461BCD PUSH1 0xE5 SHL DUP2 MSTORE PUSH1 0x20 PUSH1 0x4 DUP3 ADD MSTORE PUSH1 0x18 PUSH1 0x24 DUP3 ADD MSTORE PUSH32 0x54726164696E672077696E646F7720746F6F2073686F72740000000000000000 PUSH1 0x44 DUP3 ADD MSTORE PUSH1 0x64 SWAP1 REVERT JUMPDEST SWAP1 DUP2 PUSH1 0x20 SWAP2 SUB SLT PUSH2 0xB63 JUMPI MLOAD PUSH1 0x1 PUSH1 0x1 PUSH1 0xA0 SHL SUB DUP2 AND DUP2 SUB PUSH2 0xB63 JUMPI SWAP1 JUMP JUMPDEST SWAP1 DUP1 PUSH1 0x20 SWAP4 SWAP3 DUP2 DUP5 MSTORE DUP5 DUP5 ADD CALLDATACOPY PUSH1 0x0 DUP3 DUP3 ADD DUP5 ADD MSTORE PUSH1 0x1F ADD PUSH1 0x1F NOT AND ADD ADD SWAP1 JUMP JUMPDEST PUSH1 0x40 MLOAD PUSH4 0x23B872DD PUSH1 0xE0 SHL PUSH1 0x20 DUP3 ADD MSTORE PUSH1 0x1 PUSH1 0x1 PUSH1 0xA0 SHL SUB SWAP3 DUP4 AND PUSH1 0x24 DUP3 ADD MSTORE SWAP3 SWAP1 SWAP2 AND PUSH1 0x44 DUP4 ADD MSTORE PUSH1 0x64 DUP1 DUP4 ADD SWAP4 SWAP1 SWAP4 MSTORE SWAP2 DUP2 MSTORE PUSH2 0x1C74 SWAP2 PUSH2 0x2080 DUP3 PUSH2 0x1BD1 JUMP JUMPDEST SWAP1 PUSH1 0x0 PUSH1 0x20 SWAP2 DUP3 DUP2 MLOAD SWAP2 ADD DUP3 DUP6 GAS CALL ISZERO PUSH2 0x20DC JUMPI PUSH1 0x0 MLOAD RETURNDATASIZE PUSH2 0x20D3 JUMPI POP PUSH1 0x1 PUSH1 0x1 PUSH1 0xA0 SHL SUB DUP2 AND EXTCODESIZE ISZERO JUMPDEST PUSH2 0x20B1 JUMPI POP JUMP JUMPDEST PUSH1 0x40 MLOAD PUSH4 0x5274AFE7 PUSH1 0xE0 SHL DUP2 MSTORE PUSH1 0x1 PUSH1 0x1 PUSH1 0xA0 SHL SUB SWAP1 SWAP2 AND PUSH1 0x4 DUP3 ADD MSTORE PUSH1 0x24 SWAP1 REVERT JUMPDEST PUSH1 0x1 EQ ISZERO PUSH2 0x20AA JUMP JUMPDEST PUSH1 0x40 MLOAD RETURNDATASIZE PUSH1 0x0 DUP3 RETURNDATACOPY RETURNDATASIZE SWAP1 REVERT JUMPDEST PUSH1 0x2 PUSH1 0x1 SLOAD EQ PUSH2 0x20F9 JUMPI PUSH1 0x2 PUSH1 0x1 SSTORE JUMP JUMPDEST PUSH1 0x40 MLOAD PUSH4 0x3EE5AEB5 PUSH1 0xE0 SHL DUP2 MSTORE PUSH1 0x4 SWAP1 REVERT JUMPDEST PUSH1 0x40 MLOAD PUSH4 0xA9059CBB PUSH1 0xE0 SHL PUSH1 0x20 DUP3 ADD MSTORE PUSH1 0x1 PUSH1 0x1 PUSH1 0xA0 SHL SUB SWAP1 SWAP3 AND PUSH1 0x24 DUP4 ADD MSTORE PUSH1 0x44 DUP1 DUP4 ADD SWAP4 SWAP1 SWAP4 MSTORE SWAP2 DUP2 MSTORE PUSH1 0x80 DUP2 ADD SWAP2 PUSH1 0x1 PUSH1 0x1 PUSH1 0x40 SHL SUB DUP4 GT DUP3 DUP5 LT OR PUSH2 0x1BEC JUMPI PUSH2 0x1C74 SWAP3 PUSH1 0x40 MSTORE PUSH2 0x2080 JUMP INVALID LOG2 PUSH5 0x6970667358 0x22 SLT KECCAK256 SWAP2 MLOAD SWAP4 0xE8 DUP11 CALLDATACOPY 0xD4 0x26 SLT 0xF7 STATICCALL CODESIZE GASLIMIT 0xA5 0x28 EXTCODECOPY NUMBER SHR 0xE 0xC0 0xB0 0xB5 DUP2 PUSH23 0x1872CD9E6CA0CC1664736F6C634300081400332F878811 PUSH31 0x7EFF1D82E926EC794901D17C78024A50270940304540A733656F0D00000000 "},"methodIdentifiers":{"DEFAULT_ADMIN_ROLE()":"a217fddf","GOVERNOR_ROLE()":"ccc57490","claimIdByHash(bytes32)":"20cb58fc","claims(uint256)":"a888c2cd","createClaim(string,string,string,uint64)":"e026b13e","factory()":"c45a0155","getRoleAdmin(bytes32)":"248a9ca3","grantRole(bytes32,address)":"2f2ff15d","hasRole(bytes32,address)":"91d14854","hlx()":"e27f3b34","marketToClaimId(address)":"e0184960","marketToVersion(address)":"1ae3727b","nextClaimId()":"a0021cf1","onMarketResolved((uint256,uint256,uint8,uint256,uint256,uint256,uint256,uint256,uint256))":"0e29e5f0","parameters()":"89035730","parametersContract()":"298cacce","renounceRole(bytes32,address)":"36568abe","reopenClaim(uint256,string,uint64)":"172ecfc8","revokeRole(bytes32,address)":"d547741f","setFactory(address)":"5bb47808","setTreasury(address)":"f0f44260","supportsInterface(bytes4)":"01ffc9a7","treasury()":"61d027b3","versions(uint256,uint256)":"c97fddbd"}}}}}