{"contracts/HelixMarket.sol":{"HelixMarket":{"abi":[{"inputs":[{"internalType":"address","name":"_token","type":"address"}],"stateMutability":"nonpayable","type":"constructor"},{"inputs":[],"name":"ReentrancyGuardReentrantCall","type":"error"},{"anonymous":false,"inputs":[{"indexed":true,"internalType":"uint256","name":"marketId","type":"uint256"},{"indexed":true,"internalType":"address","name":"user","type":"address"},{"indexed":false,"internalType":"bytes32","name":"commitHash","type":"bytes32"},{"indexed":false,"internalType":"uint256","name":"amount","type":"uint256"}],"name":"BetCommitted","type":"event"},{"anonymous":false,"inputs":[{"indexed":true,"internalType":"uint256","name":"marketId","type":"uint256"},{"indexed":true,"internalType":"address","name":"user","type":"address"},{"indexed":false,"internalType":"uint8","name":"choice","type":"uint8"},{"indexed":false,"internalType":"uint256","name":"amount","type":"uint256"}],"name":"BetRevealed","type":"event"},{"anonymous":false,"inputs":[{"indexed":true,"internalType":"uint256","name":"marketId","type":"uint256"},{"indexed":false,"internalType":"bool","name":"outcome","type":"bool"},{"indexed":false,"internalType":"bool","name":"tie","type":"bool"},{"indexed":false,"internalType":"uint256","name":"totalPool","type":"uint256"},{"indexed":false,"internalType":"uint256","name":"originatorFee","type":"uint256"}],"name":"MarketResolved","type":"event"},{"anonymous":false,"inputs":[{"indexed":true,"internalType":"uint256","name":"marketId","type":"uint256"},{"indexed":false,"internalType":"string","name":"ipfsCid","type":"string"},{"indexed":false,"internalType":"uint256","name":"commitEndTime","type":"uint256"},{"indexed":false,"internalType":"uint256","name":"revealEndTime","type":"uint256"},{"indexed":false,"internalType":"address","name":"originator","type":"address"}],"name":"StatementCreated","type":"event"},{"anonymous":false,"inputs":[{"indexed":true,"internalType":"uint256","name":"marketId","type":"uint256"},{"indexed":true,"internalType":"address","name":"user","type":"address"},{"indexed":false,"internalType":"uint256","name":"amountReturned","type":"uint256"},{"indexed":false,"internalType":"uint256","name":"penaltyBurned","type":"uint256"}],"name":"UnrevealedWithdrawn","type":"event"},{"inputs":[],"name":"MAX_CID_LENGTH","outputs":[{"internalType":"uint256","name":"","type":"uint256"}],"stateMutability":"view","type":"function"},{"inputs":[],"name":"MAX_DURATION","outputs":[{"internalType":"uint256","name":"","type":"uint256"}],"stateMutability":"view","type":"function"},{"inputs":[],"name":"MIN_BIDDING_DURATION","outputs":[{"internalType":"uint256","name":"","type":"uint256"}],"stateMutability":"view","type":"function"},{"inputs":[],"name":"MIN_REVEAL_DURATION","outputs":[{"internalType":"uint256","name":"","type":"uint256"}],"stateMutability":"view","type":"function"},{"inputs":[],"name":"ORIGINATOR_FEE_BPS","outputs":[{"internalType":"uint256","name":"","type":"uint256"}],"stateMutability":"view","type":"function"},{"inputs":[],"name":"STATEMENT_FEE","outputs":[{"internalType":"uint256","name":"","type":"uint256"}],"stateMutability":"view","type":"function"},{"inputs":[],"name":"UNREVEALED_PENALTY_BPS","outputs":[{"internalType":"uint256","name":"","type":"uint256"}],"stateMutability":"view","type":"function"},{"inputs":[{"internalType":"uint256","name":"","type":"uint256"},{"internalType":"address","name":"","type":"address"},{"internalType":"uint8","name":"","type":"uint8"}],"name":"bets","outputs":[{"internalType":"uint256","name":"","type":"uint256"}],"stateMutability":"view","type":"function"},{"inputs":[{"internalType":"uint256","name":"marketId","type":"uint256"}],"name":"claim","outputs":[],"stateMutability":"nonpayable","type":"function"},{"inputs":[{"internalType":"uint256","name":"marketId","type":"uint256"},{"internalType":"bytes32","name":"commitHash","type":"bytes32"},{"internalType":"uint256","name":"amount","type":"uint256"}],"name":"commitBet","outputs":[],"stateMutability":"nonpayable","type":"function"},{"inputs":[{"internalType":"uint256","name":"","type":"uint256"},{"internalType":"address","name":"","type":"address"}],"name":"commits","outputs":[{"internalType":"bytes32","name":"","type":"bytes32"}],"stateMutability":"view","type":"function"},{"inputs":[{"internalType":"uint256","name":"","type":"uint256"},{"internalType":"address","name":"","type":"address"}],"name":"committedAmount","outputs":[{"internalType":"uint256","name":"","type":"uint256"}],"stateMutability":"view","type":"function"},{"inputs":[{"internalType":"uint256","name":"","type":"uint256"},{"internalType":"address","name":"","type":"address"}],"name":"hasCommitted","outputs":[{"internalType":"bool","name":"","type":"bool"}],"stateMutability":"view","type":"function"},{"inputs":[],"name":"marketCount","outputs":[{"internalType":"uint256","name":"","type":"uint256"}],"stateMutability":"view","type":"function"},{"inputs":[{"internalType":"uint256","name":"","type":"uint256"}],"name":"markets","outputs":[{"internalType":"string","name":"ipfsCid","type":"string"},{"internalType":"uint256","name":"commitEndTime","type":"uint256"},{"internalType":"uint256","name":"revealEndTime","type":"uint256"},{"internalType":"uint256","name":"yesPool","type":"uint256"},{"internalType":"uint256","name":"noPool","type":"uint256"},{"internalType":"uint256","name":"unalignedPool","type":"uint256"},{"internalType":"bool","name":"resolved","type":"bool"},{"internalType":"bool","name":"outcome","type":"bool"},{"internalType":"bool","name":"tie","type":"bool"},{"internalType":"address","name":"originator","type":"address"}],"stateMutability":"view","type":"function"},{"inputs":[{"internalType":"uint256","name":"marketId","type":"uint256"}],"name":"resolve","outputs":[],"stateMutability":"nonpayable","type":"function"},{"inputs":[{"internalType":"uint256","name":"marketId","type":"uint256"},{"internalType":"uint8","name":"choice","type":"uint8"},{"internalType":"uint256","name":"salt","type":"uint256"}],"name":"revealBet","outputs":[],"stateMutability":"nonpayable","type":"function"},{"inputs":[{"internalType":"string","name":"ipfsCid","type":"string"},{"internalType":"uint256","name":"biddingDuration","type":"uint256"},{"internalType":"uint256","name":"revealDuration","type":"uint256"}],"name":"submitStatement","outputs":[],"stateMutability":"nonpayable","type":"function"},{"inputs":[],"name":"token","outputs":[{"internalType":"contract AlphaHelixToken","name":"","type":"address"}],"stateMutability":"view","type":"function"},{"inputs":[{"internalType":"uint256","name":"marketId","type":"uint256"}],"name":"withdrawUnrevealed","outputs":[],"stateMutability":"nonpayable","type":"function"}],"evm":{"bytecode":{"linkReferences":{},"object":"60a03461009b57601f611a7938819003918201601f19168301916001600160401b038311848410176100a05780849260209460405283398101031261009b57516001600160a01b0381169081900361009b5760016000556080526040516119c290816100b782396080518181816101c4015281816102cb015281816103ce01528181610b5601528181610dbf0152818161103701526112950152f35b600080fd5b634e487b7160e01b600052604160045260246000fdfe608060408181526004908136101561001657600080fd5b600092833560e01c9081631204078d146111b3575080631b88272a14610fb75780632e8f036a14610f93578063379607f514610c265780634f896d4f14610a1257806357cb0c11146109d05780635acd45be14610774578063875aff8a14610420578063885d68a81461098e5780638f99230e1461092e578063a82da60d14610912578063a99ef9f5146108cc578063b1283e7714610798578063b1724b4614610779578063b9e4238514610774578063cdbf958214610425578063d329db8f14610420578063ec97908214610401578063fc0c546a146103b95763fe838b021461010057600080fd5b346103b557602090816003193601126103b15782359161011e611897565b828552600281526101366002838720015442116118f8565b82855260068152818520338652815281852054908115610379578386526006815282862033875281528583812055838652600381528286203387528152858381205560648202828104606403610366576127106101959104809361193c565b94826102a9575b835163a9059cbb60e01b8152338282019081526020810188905283908290819060400103818b7f00000000000000000000000000000000000000000000000000000000000000006001600160a01b03165af190811561029f578891610272575b50156102385750825194855284015233927f8bb26e72aaf6e900094ea180bfbe84450e669b3c57d843fa18e33e40a46616f59190a36001815580f35b60649184519162461bcd60e51b835282015260166024820152751499599d5b99081d1c985b9cd9995c8819985a5b195960521b6044820152fd5b6102929150833d8511610298575b61028a8183611756565b81019061185c565b386101fc565b503d610280565b85513d8a823e3d90fd5b835163a9059cbb60e01b815261dead828201526024810184905282816044818b7f00000000000000000000000000000000000000000000000000000000000000006001600160a01b03165af190811561029f578891610349575b5061019c5760649184519162461bcd60e51b8352820152601760248201527f50656e616c7479207472616e73666572206661696c65640000000000000000006044820152fd5b6103609150833d85116102985761028a8183611756565b38610303565b634e487b7160e01b875260118652602487fd5b8460649184519162461bcd60e51b835282015260136024820152724e6f20756e72657665616c6564207374616b6560681b6044820152fd5b8380fd5b8280fd5b8382346103fd57816003193601126103fd57517f00000000000000000000000000000000000000000000000000000000000000006001600160a01b03168152602090f35b5080fd5b8382346103fd57816003193601126103fd576020906001549051908152f35b6117c5565b509190346103fd5760603660031901126103fd57803560249384359460ff86169384870361077057610455611897565b83865260209060028252838720976001890154421061072f5760028901544210156106fa578588526003835284882033895283528488205480156106c5578551908482019260ff60f81b9060f81b16835260443560218301523360601b604183015260358252606082019282841067ffffffffffffffff8511176106b357838852825190200361067d5750508487526006825283872033885282528387205492831561063d5785885260068352848820338952835287858120556002871161060c575085969760017f69cbe73b5f08f9347a0159dd589b5e7ea7f54d8b523f6bbe183c1a7c13b6dba7969714600014610595576003915001610558838254611874565b9055848752600581528287203388528152828720600188528152828720610580838254611874565b90555b82519586528501523393a36001815580f35b876105d457016105a6838254611874565b905584875260058152828720338852815282872087805281528287206105cd838254611874565b9055610583565b60059150016105e4838254611874565b90558487526005815282872033885281528287206002885281528287206105cd838254611874565b600e9060649386519362461bcd60e51b85528401528201526d496e76616c69642063686f69636560901b6044820152fd5b601d9060649386519362461bcd60e51b85528401528201527f416c72656164792072657665616c6564206f72206e6f20616d6f756e740000006044820152fd5b9072125b9d985b1a59081a185cda0bdc995d99585b606a1b60a46064938662461bcd60e51b855285820152601360848201520152fd5b634e487b7160e01b8b5260418552868bfd5b855162461bcd60e51b81528084018590526010818701526f139bc818995d0818dbdb5b5a5d1d195960821b6044820152606490fd5b50925162461bcd60e51b815292830152601190820152702932bb32b0b610383430b9b29037bb32b960791b6044820152606490fd5b50925162461bcd60e51b8152928301526017908201527f436f6d6d6974207068617365206e6f74206163746976650000000000000000006044820152606490fd5b8580fd5b6117a9565b8382346103fd57816003193601126103fd57602090516301dfe2008152f35b5090346103b557602090816003193601126103b1578035845260028252828420835193858254906107c8826117e2565b9081885260019283811690816000146108ae575060011461087a575b50506107f586610826980387611756565b8201549260028301546003840154918401549260066005860154950154958151998a99610140808c528b019061181c565b978901528701526060860152608085015260a084015260ff818116151560c0850152600882901c8116151560e0850152601082901c16151561010084015260181c6001600160a01b03166101208301520390f35b9097508381528581205b88821061089b57508601850196506107f5866107e4565b8054888301880152908601908201610884565b60ff1916888a01525050151560051b8601850196506107f5866107e4565b5090346103b557816003193601126103b5578160209360ff926108ed61178e565b813583529086528282206001600160a01b039091168252855220549151911615158152f35b8382346103fd57816003193601126103fd576020905160808152f35b5090346103b55760603660031901126103b55761094961178e565b6044359160ff831680930361098a57358452600560209081528385206001600160a01b03909216855290815282842091845290815291819020549051908152f35b8480fd5b5090346103b557816003193601126103b55760209282916109ad61178e565b90358252600385528282206001600160a01b039091168252845220549051908152f35b5090346103b557816003193601126103b55760209282916109ef61178e565b90358252600685528282206001600160a01b039091168252845220549051908152f35b5090346103b557602090816003193601126103b157803592610a32611897565b8385526002835280852090610a4c600283015442116118f8565b6006820180549260ff8416610bf057806005610aa46003610aad940154966001898501549162ff000061ff00610a82858d611964565b9290151560101b169262ffffff191691151560081b1617171797888755611874565b91015490611874565b9260ff8160101c16600014610be15787945b85610b1a575b505091608093917fcf0a48d2ad3f7480002e60b1eda352f90145d89af44eb49e792dad0233f533b19593549360ff825195818160081c161515875260101c161515908501528301526060820152a26001815580f35b835163a9059cbb60e01b815260189290921c6001600160a01b0390811691830191825260208201879052879183919082908c90829060400103927f0000000000000000000000000000000000000000000000000000000000000000165af18015610bd7579160809593917fcf0a48d2ad3f7480002e60b1eda352f90145d89af44eb49e792dad0233f533b1979593610bba575b5091939581939550610ac5565b610bd090863d88116102985761028a8183611756565b5038610bad565b83513d8a823e3d90fd5b610bea84611949565b94610abf565b825162461bcd60e51b8152808601879052601060248201526f105b1c9958591e481c995cdbdb1d995960821b6044820152606490fd5b5090346103b557602090816003193601126103b1578035610c45611897565b80855260028352838520600681019182549260ff841615610f61576003830154928581015492610c84610c788587611874565b60058094015490611874565b95888a8c60ff8460101c169889600014610f5057610ca3825b8c61193c565b988a15610ef757505091610cf0918386610d11955287835281812033825283528181208180528352878282205493888352528d82822090338352528d828220906001835252205490611874565b838d52848b528b8d20338e528b528b8d2060028e528b528b8d205490611874565b96955b8715610ec3579160ff93918a9897969593600014610e7c5750808c528188528a8c20338d5288528a8c208c805288528b8b812055808c528188528a8c20338d5288528a8c2060018d5288528b8b8120558b528652888a20338b528652888a2060028b52865289898120555b5460101c1615610e345750610dba9390505b855163a9059cbb60e01b8152339181019182526020820192909252909283918291604090910190565b0381877f00000000000000000000000000000000000000000000000000000000000000006001600160a01b03165af1918215610e2757610e0393508492610e0a575b50506118ba565b6001815580f35b610e209250803d106102985761028a8183611756565b3880610dfc565b50505051903d90823e3d90fd5b80919350820291820403610e69578115610e5657918391610dba930490610d91565b634e487b7160e01b865260128352602486fd5b634e487b7160e01b865260118352602486fd5b60081c841615610ea5578b528652888a20338b528652888a2060018b5286528989812055610d7f565b8b528652888a20338b528652888a208a805286528989812055610d7f565b8a5162461bcd60e51b8152808a018b9052600e60248201526d139bc81dda5b9b9a5b99c818995d60921b6044820152606490fd5b93509950505060ff8260081c16600014610f2e5750818b52828952898b20338c528952898b2060018c528952898b20549695610d14565b828c52838a528a8c20338d528a528a8c208c80528a528a8c2054975095610d14565b610ca3610f5c8c611949565b610c9d565b865162461bcd60e51b8152808601879052600c60248201526b139bdd081c995cdbdb1d995960a21b6044820152606490fd5b8382346103fd57816003193601126103fd576020905168056bc75e2d631000008152f35b50346103b55760603660031901126103b557813560243591604435610fda611897565b8286526020600281526001838820015442101561117d57811561114657838752858152828720338852815260ff83882054166111105782516323b872dd60e01b81523387820152306024820152604481018390529581876064818b7f00000000000000000000000000000000000000000000000000000000000000006001600160a01b03165af1968715611106577fc02f2358fe181cc846163d0ca2cd612408cef67a7acdbb92cd09045df0e2fd9a95969761109d918a916110e9575b506118ba565b858852600382528388203389528252868489205585885281528287203388528152828720600160ff19825416179055848752600681528287203388528152828720610580838254611874565b6111009150843d86116102985761028a8183611756565b38611097565b84513d8a823e3d90fd5b8560649184519162461bcd60e51b83528201526011602482015270105b1c9958591e4818dbdb5b5a5d1d1959607a1b6044820152fd5b8560649184519162461bcd60e51b835282015260126024820152710416d6f756e74206d757374206265203e20360741b6044820152fd5b8560649184519162461bcd60e51b8352820152601160248201527021b7b6b6b4ba10383430b9b29037bb32b960791b6044820152fd5b84939150346103b15760603660031901126103b15781359167ffffffffffffffff9081841161077057366023850112156107705783810135948286116117435760209287601f199661120c8689601f8c01160188611756565b888752602498368a82840101116103b557808a889301838a013787010152863560449182359261123a611897565b8751156117175760808851116116e857610e108084106116a7576301dfe200908185116116655785106116245784116115e45784516323b872dd60e01b81523387820152308b82015268056bc75e2d631000008282018190527f00000000000000000000000000000000000000000000000000000000000000006001600160a01b0316918d908a8160648185885af19182156115d957916115bc575b50156115845761dead83898f8f958d958c51978896879563a9059cbb60e01b87528601528401525af190811561157a578c9161155d575b5015611526575060019889549860001991828b14611515578b8b018c558a8d5260028952868d20978a519485116115045750508a9061134c88546117e2565b601f81116114b6575b508c8991601f861160011461142357509484806006957fb0f44ab77840631afd2f642daa49e5d268bce7babf6c72558f47c5d027413b989d9b99976113c3966113b7966114039f9d9b94611418575b501b9260031b1c19161787555b42611874565b92838c87015583611874565b60028501819055930180546301000000600160b81b0319163360181b6301000000600160b81b03161790558151608080825290968796909187019061181c565b938501528301523360608301520390a2815580f35b8e01519350386113a4565b859492919395168984528a8420935b81811061149f575094846113c3946113b7946114039d9b99947fb0f44ab77840631afd2f642daa49e5d268bce7babf6c72558f47c5d027413b989f9d9b999860069910611487575b505050811b0187556113b1565b8d01519060f88460031b161c1916905538808061147a565b8c83015185558e9690940193918b01918b01611432565b909150878d52888d20601f850160051c8101918a86106114fa575b8d9392918f91601f0160051c0191905b8282106114ef575050611355565b81558d93018e6114e1565b90915081906114d1565b634e487b7160e01b8e52604190528cfd5b634e487b7160e01b8d52601188528cfd5b8573109d5c9b881d1c985b9cd9995c8819985a5b195960621b60649260148d8b8a519562461bcd60e51b8752860152840152820152fd5b6115749150883d8a116102985761028a8183611756565b8c61130d565b86513d8e823e3d90fd5b50855162461bcd60e51b81528088018990526013818d015272119959481d1c985b9cd9995c8819985a5b1959606a1b81840152606490fd5b6115d391508a3d8c116102985761028a8183611756565b8e6112d6565b8951903d90823e3d90fd5b857f52657665616c206475726174696f6e20746f6f206c6f6e67000000000000000060649260188d8b8a519562461bcd60e51b8752860152840152820152fd5b855162461bcd60e51b81528088018990526019818d01527f52657665616c206475726174696f6e20746f6f2073686f72740000000000000081840152606490fd5b50855162461bcd60e51b81528088018990526019818d01527f42696464696e67206475726174696f6e20746f6f206c6f6e670000000000000081840152606490fd5b855162461bcd60e51b8152808801899052601a818d01527f42696464696e67206475726174696f6e20746f6f2073686f727400000000000081840152606490fd5b856b43494420746f6f206c6f6e6760a01b606492600c8d8b8a519562461bcd60e51b8752860152840152820152fd5b856843494420656d70747960b81b60649260098d8b8a519562461bcd60e51b8752860152840152820152fd5b634e487b7160e01b875260418252602487fd5b90601f8019910116810190811067ffffffffffffffff82111761177857604052565b634e487b7160e01b600052604160045260246000fd5b602435906001600160a01b03821682036117a457565b600080fd5b346117a45760003660031901126117a457602060405160648152f35b346117a45760003660031901126117a4576020604051610e108152f35b90600182811c92168015611812575b60208310146117fc57565b634e487b7160e01b600052602260045260246000fd5b91607f16916117f1565b919082519283825260005b848110611848575050826000602080949584010152601f8019910116010190565b602081830181015184830182015201611827565b908160209103126117a4575180151581036117a45790565b9190820180921161188157565b634e487b7160e01b600052601160045260246000fd5b6002600054146118a8576002600055565b604051633ee5aeb560e01b8152600490fd5b156118c157565b60405162461bcd60e51b815260206004820152600f60248201526e151c985b9cd9995c8819985a5b1959608a1b6044820152606490fd5b156118ff57565b60405162461bcd60e51b81526020600482015260156024820152742932bb32b0b610383430b9b2903737ba1037bb32b960591b6044820152606490fd5b9190820391821161188157565b60648102908082046064149015171561188157612710900490565b9080821115611977575050600090600190565b1161198457600190600090565b60009060009056fea2646970667358221220c5137495de31c2fe8914c4be58f7e3d30b9fed90af5531402c7d4de4f06ad67964736f6c63430008140033","opcodes":"PUSH1 0xA0 CALLVALUE PUSH2 0x9B JUMPI PUSH1 0x1F PUSH2 0x1A79 CODESIZE DUP2 SWAP1 SUB SWAP2 DUP3 ADD PUSH1 0x1F NOT AND DUP4 ADD SWAP2 PUSH1 0x1 PUSH1 0x1 PUSH1 0x40 SHL SUB DUP4 GT DUP5 DUP5 LT OR PUSH2 0xA0 JUMPI DUP1 DUP5 SWAP3 PUSH1 0x20 SWAP5 PUSH1 0x40 MSTORE DUP4 CODECOPY DUP2 ADD SUB SLT PUSH2 0x9B JUMPI MLOAD PUSH1 0x1 PUSH1 0x1 PUSH1 0xA0 SHL SUB DUP2 AND SWAP1 DUP2 SWAP1 SUB PUSH2 0x9B JUMPI PUSH1 0x1 PUSH1 0x0 SSTORE PUSH1 0x80 MSTORE PUSH1 0x40 MLOAD PUSH2 0x19C2 SWAP1 DUP2 PUSH2 0xB7 DUP3 CODECOPY PUSH1 0x80 MLOAD DUP2 DUP2 DUP2 PUSH2 0x1C4 ADD MSTORE DUP2 DUP2 PUSH2 0x2CB ADD MSTORE DUP2 DUP2 PUSH2 0x3CE ADD MSTORE DUP2 DUP2 PUSH2 0xB56 ADD MSTORE DUP2 DUP2 PUSH2 0xDBF ADD MSTORE DUP2 DUP2 PUSH2 0x1037 ADD MSTORE PUSH2 0x1295 ADD MSTORE RETURN JUMPDEST PUSH1 0x0 DUP1 REVERT JUMPDEST PUSH4 0x4E487B71 PUSH1 0xE0 SHL PUSH1 0x0 MSTORE PUSH1 0x41 PUSH1 0x4 MSTORE PUSH1 0x24 PUSH1 0x0 REVERT INVALID PUSH1 0x80 PUSH1 0x40 DUP2 DUP2 MSTORE PUSH1 0x4 SWAP1 DUP2 CALLDATASIZE LT ISZERO PUSH2 0x16 JUMPI PUSH1 0x0 DUP1 REVERT JUMPDEST PUSH1 0x0 SWAP3 DUP4 CALLDATALOAD PUSH1 0xE0 SHR SWAP1 DUP2 PUSH4 0x1204078D EQ PUSH2 0x11B3 JUMPI POP DUP1 PUSH4 0x1B88272A EQ PUSH2 0xFB7 JUMPI DUP1 PUSH4 0x2E8F036A EQ PUSH2 0xF93 JUMPI DUP1 PUSH4 0x379607F5 EQ PUSH2 0xC26 JUMPI DUP1 PUSH4 0x4F896D4F EQ PUSH2 0xA12 JUMPI DUP1 PUSH4 0x57CB0C11 EQ PUSH2 0x9D0 JUMPI DUP1 PUSH4 0x5ACD45BE EQ PUSH2 0x774 JUMPI DUP1 PUSH4 0x875AFF8A EQ PUSH2 0x420 JUMPI DUP1 PUSH4 0x885D68A8 EQ PUSH2 0x98E JUMPI DUP1 PUSH4 0x8F99230E EQ PUSH2 0x92E JUMPI DUP1 PUSH4 0xA82DA60D EQ PUSH2 0x912 JUMPI DUP1 PUSH4 0xA99EF9F5 EQ PUSH2 0x8CC JUMPI DUP1 PUSH4 0xB1283E77 EQ PUSH2 0x798 JUMPI DUP1 PUSH4 0xB1724B46 EQ PUSH2 0x779 JUMPI DUP1 PUSH4 0xB9E42385 EQ PUSH2 0x774 JUMPI DUP1 PUSH4 0xCDBF9582 EQ PUSH2 0x425 JUMPI DUP1 PUSH4 0xD329DB8F EQ PUSH2 0x420 JUMPI DUP1 PUSH4 0xEC979082 EQ PUSH2 0x401 JUMPI DUP1 PUSH4 0xFC0C546A EQ PUSH2 0x3B9 JUMPI PUSH4 0xFE838B02 EQ PUSH2 0x100 JUMPI PUSH1 0x0 DUP1 REVERT JUMPDEST CALLVALUE PUSH2 0x3B5 JUMPI PUSH1 0x20 SWAP1 DUP2 PUSH1 0x3 NOT CALLDATASIZE ADD SLT PUSH2 0x3B1 JUMPI DUP3 CALLDATALOAD SWAP2 PUSH2 0x11E PUSH2 0x1897 JUMP JUMPDEST DUP3 DUP6 MSTORE PUSH1 0x2 DUP2 MSTORE PUSH2 0x136 PUSH1 0x2 DUP4 DUP8 KECCAK256 ADD SLOAD TIMESTAMP GT PUSH2 0x18F8 JUMP JUMPDEST DUP3 DUP6 MSTORE PUSH1 0x6 DUP2 MSTORE DUP2 DUP6 KECCAK256 CALLER DUP7 MSTORE DUP2 MSTORE DUP2 DUP6 KECCAK256 SLOAD SWAP1 DUP2 ISZERO PUSH2 0x379 JUMPI DUP4 DUP7 MSTORE PUSH1 0x6 DUP2 MSTORE DUP3 DUP7 KECCAK256 CALLER DUP8 MSTORE DUP2 MSTORE DUP6 DUP4 DUP2 KECCAK256 SSTORE DUP4 DUP7 MSTORE PUSH1 0x3 DUP2 MSTORE DUP3 DUP7 KECCAK256 CALLER DUP8 MSTORE DUP2 MSTORE DUP6 DUP4 DUP2 KECCAK256 SSTORE PUSH1 0x64 DUP3 MUL DUP3 DUP2 DIV PUSH1 0x64 SUB PUSH2 0x366 JUMPI PUSH2 0x2710 PUSH2 0x195 SWAP2 DIV DUP1 SWAP4 PUSH2 0x193C JUMP JUMPDEST SWAP5 DUP3 PUSH2 0x2A9 JUMPI JUMPDEST DUP4 MLOAD PUSH4 0xA9059CBB PUSH1 0xE0 SHL DUP2 MSTORE CALLER DUP3 DUP3 ADD SWAP1 DUP2 MSTORE PUSH1 0x20 DUP2 ADD DUP9 SWAP1 MSTORE DUP4 SWAP1 DUP3 SWAP1 DUP2 SWAP1 PUSH1 0x40 ADD SUB DUP2 DUP12 PUSH32 0x0 PUSH1 0x1 PUSH1 0x1 PUSH1 0xA0 SHL SUB AND GAS CALL SWAP1 DUP2 ISZERO PUSH2 0x29F JUMPI DUP9 SWAP2 PUSH2 0x272 JUMPI JUMPDEST POP ISZERO PUSH2 0x238 JUMPI POP DUP3 MLOAD SWAP5 DUP6 MSTORE DUP5 ADD MSTORE CALLER SWAP3 PUSH32 0x8BB26E72AAF6E900094EA180BFBE84450E669B3C57D843FA18E33E40A46616F5 SWAP2 SWAP1 LOG3 PUSH1 0x1 DUP2 SSTORE DUP1 RETURN JUMPDEST PUSH1 0x64 SWAP2 DUP5 MLOAD SWAP2 PUSH3 0x461BCD PUSH1 0xE5 SHL DUP4 MSTORE DUP3 ADD MSTORE PUSH1 0x16 PUSH1 0x24 DUP3 ADD MSTORE PUSH22 0x1499599D5B99081D1C985B9CD9995C8819985A5B1959 PUSH1 0x52 SHL PUSH1 0x44 DUP3 ADD MSTORE REVERT JUMPDEST PUSH2 0x292 SWAP2 POP DUP4 RETURNDATASIZE DUP6 GT PUSH2 0x298 JUMPI JUMPDEST PUSH2 0x28A DUP2 DUP4 PUSH2 0x1756 JUMP JUMPDEST DUP2 ADD SWAP1 PUSH2 0x185C JUMP JUMPDEST CODESIZE PUSH2 0x1FC JUMP JUMPDEST POP RETURNDATASIZE PUSH2 0x280 JUMP JUMPDEST DUP6 MLOAD RETURNDATASIZE DUP11 DUP3 RETURNDATACOPY RETURNDATASIZE SWAP1 REVERT JUMPDEST DUP4 MLOAD PUSH4 0xA9059CBB PUSH1 0xE0 SHL DUP2 MSTORE PUSH2 0xDEAD DUP3 DUP3 ADD MSTORE PUSH1 0x24 DUP2 ADD DUP5 SWAP1 MSTORE DUP3 DUP2 PUSH1 0x44 DUP2 DUP12 PUSH32 0x0 PUSH1 0x1 PUSH1 0x1 PUSH1 0xA0 SHL SUB AND GAS CALL SWAP1 DUP2 ISZERO PUSH2 0x29F JUMPI DUP9 SWAP2 PUSH2 0x349 JUMPI JUMPDEST POP PUSH2 0x19C JUMPI PUSH1 0x64 SWAP2 DUP5 MLOAD SWAP2 PUSH3 0x461BCD PUSH1 0xE5 SHL DUP4 MSTORE DUP3 ADD MSTORE PUSH1 0x17 PUSH1 0x24 DUP3 ADD MSTORE PUSH32 0x50656E616C7479207472616E73666572206661696C6564000000000000000000 PUSH1 0x44 DUP3 ADD MSTORE REVERT JUMPDEST PUSH2 0x360 SWAP2 POP DUP4 RETURNDATASIZE DUP6 GT PUSH2 0x298 JUMPI PUSH2 0x28A DUP2 DUP4 PUSH2 0x1756 JUMP JUMPDEST CODESIZE PUSH2 0x303 JUMP JUMPDEST PUSH4 0x4E487B71 PUSH1 0xE0 SHL DUP8 MSTORE PUSH1 0x11 DUP7 MSTORE PUSH1 0x24 DUP8 REVERT JUMPDEST DUP5 PUSH1 0x64 SWAP2 DUP5 MLOAD SWAP2 PUSH3 0x461BCD PUSH1 0xE5 SHL DUP4 MSTORE DUP3 ADD MSTORE PUSH1 0x13 PUSH1 0x24 DUP3 ADD MSTORE PUSH19 0x4E6F20756E72657665616C6564207374616B65 PUSH1 0x68 SHL PUSH1 0x44 DUP3 ADD MSTORE REVERT JUMPDEST DUP4 DUP1 REVERT JUMPDEST DUP3 DUP1 REVERT JUMPDEST DUP4 DUP3 CALLVALUE PUSH2 0x3FD JUMPI DUP2 PUSH1 0x3 NOT CALLDATASIZE ADD SLT PUSH2 0x3FD JUMPI MLOAD PUSH32 0x0 PUSH1 0x1 PUSH1 0x1 PUSH1 0xA0 SHL SUB AND DUP2 MSTORE PUSH1 0x20 SWAP1 RETURN JUMPDEST POP DUP1 REVERT JUMPDEST DUP4 DUP3 CALLVALUE PUSH2 0x3FD JUMPI DUP2 PUSH1 0x3 NOT CALLDATASIZE ADD SLT PUSH2 0x3FD JUMPI PUSH1 0x20 SWAP1 PUSH1 0x1 SLOAD SWAP1 MLOAD SWAP1 DUP2 MSTORE RETURN JUMPDEST PUSH2 0x17C5 JUMP JUMPDEST POP SWAP2 SWAP1 CALLVALUE PUSH2 0x3FD JUMPI PUSH1 0x60 CALLDATASIZE PUSH1 0x3 NOT ADD SLT PUSH2 0x3FD JUMPI DUP1 CALLDATALOAD PUSH1 0x24 SWAP4 DUP5 CALLDATALOAD SWAP5 PUSH1 0xFF DUP7 AND SWAP4 DUP5 DUP8 SUB PUSH2 0x770 JUMPI PUSH2 0x455 PUSH2 0x1897 JUMP JUMPDEST DUP4 DUP7 MSTORE PUSH1 0x20 SWAP1 PUSH1 0x2 DUP3 MSTORE DUP4 DUP8 KECCAK256 SWAP8 PUSH1 0x1 DUP10 ADD SLOAD TIMESTAMP LT PUSH2 0x72F JUMPI PUSH1 0x2 DUP10 ADD SLOAD TIMESTAMP LT ISZERO PUSH2 0x6FA JUMPI DUP6 DUP9 MSTORE PUSH1 0x3 DUP4 MSTORE DUP5 DUP9 KECCAK256 CALLER DUP10 MSTORE DUP4 MSTORE DUP5 DUP9 KECCAK256 SLOAD DUP1 ISZERO PUSH2 0x6C5 JUMPI DUP6 MLOAD SWAP1 DUP5 DUP3 ADD SWAP3 PUSH1 0xFF PUSH1 0xF8 SHL SWAP1 PUSH1 0xF8 SHL AND DUP4 MSTORE PUSH1 0x44 CALLDATALOAD PUSH1 0x21 DUP4 ADD MSTORE CALLER PUSH1 0x60 SHL PUSH1 0x41 DUP4 ADD MSTORE PUSH1 0x35 DUP3 MSTORE PUSH1 0x60 DUP3 ADD SWAP3 DUP3 DUP5 LT PUSH8 0xFFFFFFFFFFFFFFFF DUP6 GT OR PUSH2 0x6B3 JUMPI DUP4 DUP9 MSTORE DUP3 MLOAD SWAP1 KECCAK256 SUB PUSH2 0x67D JUMPI POP POP DUP5 DUP8 MSTORE PUSH1 0x6 DUP3 MSTORE DUP4 DUP8 KECCAK256 CALLER DUP9 MSTORE DUP3 MSTORE DUP4 DUP8 KECCAK256 SLOAD SWAP3 DUP4 ISZERO PUSH2 0x63D JUMPI DUP6 DUP9 MSTORE PUSH1 0x6 DUP4 MSTORE DUP5 DUP9 KECCAK256 CALLER DUP10 MSTORE DUP4 MSTORE DUP8 DUP6 DUP2 KECCAK256 SSTORE PUSH1 0x2 DUP8 GT PUSH2 0x60C JUMPI POP DUP6 SWAP7 SWAP8 PUSH1 0x1 PUSH32 0x69CBE73B5F08F9347A0159DD589B5E7EA7F54D8B523F6BBE183C1A7C13B6DBA7 SWAP7 SWAP8 EQ PUSH1 0x0 EQ PUSH2 0x595 JUMPI PUSH1 0x3 SWAP2 POP ADD PUSH2 0x558 DUP4 DUP3 SLOAD PUSH2 0x1874 JUMP JUMPDEST SWAP1 SSTORE DUP5 DUP8 MSTORE PUSH1 0x5 DUP2 MSTORE DUP3 DUP8 KECCAK256 CALLER DUP9 MSTORE DUP2 MSTORE DUP3 DUP8 KECCAK256 PUSH1 0x1 DUP9 MSTORE DUP2 MSTORE DUP3 DUP8 KECCAK256 PUSH2 0x580 DUP4 DUP3 SLOAD PUSH2 0x1874 JUMP JUMPDEST SWAP1 SSTORE JUMPDEST DUP3 MLOAD SWAP6 DUP7 MSTORE DUP6 ADD MSTORE CALLER SWAP4 LOG3 PUSH1 0x1 DUP2 SSTORE DUP1 RETURN JUMPDEST DUP8 PUSH2 0x5D4 JUMPI ADD PUSH2 0x5A6 DUP4 DUP3 SLOAD PUSH2 0x1874 JUMP JUMPDEST SWAP1 SSTORE DUP5 DUP8 MSTORE PUSH1 0x5 DUP2 MSTORE DUP3 DUP8 KECCAK256 CALLER DUP9 MSTORE DUP2 MSTORE DUP3 DUP8 KECCAK256 DUP8 DUP1 MSTORE DUP2 MSTORE DUP3 DUP8 KECCAK256 PUSH2 0x5CD DUP4 DUP3 SLOAD PUSH2 0x1874 JUMP JUMPDEST SWAP1 SSTORE PUSH2 0x583 JUMP JUMPDEST PUSH1 0x5 SWAP2 POP ADD PUSH2 0x5E4 DUP4 DUP3 SLOAD PUSH2 0x1874 JUMP JUMPDEST SWAP1 SSTORE DUP5 DUP8 MSTORE PUSH1 0x5 DUP2 MSTORE DUP3 DUP8 KECCAK256 CALLER DUP9 MSTORE DUP2 MSTORE DUP3 DUP8 KECCAK256 PUSH1 0x2 DUP9 MSTORE DUP2 MSTORE DUP3 DUP8 KECCAK256 PUSH2 0x5CD DUP4 DUP3 SLOAD PUSH2 0x1874 JUMP JUMPDEST PUSH1 0xE SWAP1 PUSH1 0x64 SWAP4 DUP7 MLOAD SWAP4 PUSH3 0x461BCD PUSH1 0xE5 SHL DUP6 MSTORE DUP5 ADD MSTORE DUP3 ADD MSTORE PUSH14 0x496E76616C69642063686F696365 PUSH1 0x90 SHL PUSH1 0x44 DUP3 ADD MSTORE REVERT JUMPDEST PUSH1 0x1D SWAP1 PUSH1 0x64 SWAP4 DUP7 MLOAD SWAP4 PUSH3 0x461BCD PUSH1 0xE5 SHL DUP6 MSTORE DUP5 ADD MSTORE DUP3 ADD MSTORE PUSH32 0x416C72656164792072657665616C6564206F72206E6F20616D6F756E74000000 PUSH1 0x44 DUP3 ADD MSTORE REVERT JUMPDEST SWAP1 PUSH19 0x125B9D985B1A59081A185CDA0BDC995D99585B PUSH1 0x6A SHL PUSH1 0xA4 PUSH1 0x64 SWAP4 DUP7 PUSH3 0x461BCD PUSH1 0xE5 SHL DUP6 MSTORE DUP6 DUP3 ADD MSTORE PUSH1 0x13 PUSH1 0x84 DUP3 ADD MSTORE ADD MSTORE REVERT JUMPDEST PUSH4 0x4E487B71 PUSH1 0xE0 SHL DUP12 MSTORE PUSH1 0x41 DUP6 MSTORE DUP7 DUP12 REVERT JUMPDEST DUP6 MLOAD PUSH3 0x461BCD PUSH1 0xE5 SHL DUP2 MSTORE DUP1 DUP5 ADD DUP6 SWAP1 MSTORE PUSH1 0x10 DUP2 DUP8 ADD MSTORE PUSH16 0x139BC818995D0818DBDB5B5A5D1D1959 PUSH1 0x82 SHL PUSH1 0x44 DUP3 ADD MSTORE PUSH1 0x64 SWAP1 REVERT JUMPDEST POP SWAP3 MLOAD PUSH3 0x461BCD PUSH1 0xE5 SHL DUP2 MSTORE SWAP3 DUP4 ADD MSTORE PUSH1 0x11 SWAP1 DUP3 ADD MSTORE PUSH17 0x2932BB32B0B610383430B9B29037BB32B9 PUSH1 0x79 SHL PUSH1 0x44 DUP3 ADD MSTORE PUSH1 0x64 SWAP1 REVERT JUMPDEST POP SWAP3 MLOAD PUSH3 0x461BCD PUSH1 0xE5 SHL DUP2 MSTORE SWAP3 DUP4 ADD MSTORE PUSH1 0x17 SWAP1 DUP3 ADD MSTORE PUSH32 0x436F6D6D6974207068617365206E6F7420616374697665000000000000000000 PUSH1 0x44 DUP3 ADD MSTORE PUSH1 0x64 SWAP1 REVERT JUMPDEST DUP6 DUP1 REVERT JUMPDEST PUSH2 0x17A9 JUMP JUMPDEST DUP4 DUP3 CALLVALUE PUSH2 0x3FD JUMPI DUP2 PUSH1 0x3 NOT CALLDATASIZE ADD SLT PUSH2 0x3FD JUMPI PUSH1 0x20 SWAP1 MLOAD PUSH4 0x1DFE200 DUP2 MSTORE RETURN JUMPDEST POP SWAP1 CALLVALUE PUSH2 0x3B5 JUMPI PUSH1 0x20 SWAP1 DUP2 PUSH1 0x3 NOT CALLDATASIZE ADD SLT PUSH2 0x3B1 JUMPI DUP1 CALLDATALOAD DUP5 MSTORE PUSH1 0x2 DUP3 MSTORE DUP3 DUP5 KECCAK256 DUP4 MLOAD SWAP4 DUP6 DUP3 SLOAD SWAP1 PUSH2 0x7C8 DUP3 PUSH2 0x17E2 JUMP JUMPDEST SWAP1 DUP2 DUP9 MSTORE PUSH1 0x1 SWAP3 DUP4 DUP2 AND SWAP1 DUP2 PUSH1 0x0 EQ PUSH2 0x8AE JUMPI POP PUSH1 0x1 EQ PUSH2 0x87A JUMPI JUMPDEST POP POP PUSH2 0x7F5 DUP7 PUSH2 0x826 SWAP9 SUB DUP8 PUSH2 0x1756 JUMP JUMPDEST DUP3 ADD SLOAD SWAP3 PUSH1 0x2 DUP4 ADD SLOAD PUSH1 0x3 DUP5 ADD SLOAD SWAP2 DUP5 ADD SLOAD SWAP3 PUSH1 0x6 PUSH1 0x5 DUP7 ADD SLOAD SWAP6 ADD SLOAD SWAP6 DUP2 MLOAD SWAP10 DUP11 SWAP10 PUSH2 0x140 DUP1 DUP13 MSTORE DUP12 ADD SWAP1 PUSH2 0x181C JUMP JUMPDEST SWAP8 DUP10 ADD MSTORE DUP8 ADD MSTORE PUSH1 0x60 DUP7 ADD MSTORE PUSH1 0x80 DUP6 ADD MSTORE PUSH1 0xA0 DUP5 ADD MSTORE PUSH1 0xFF DUP2 DUP2 AND ISZERO ISZERO PUSH1 0xC0 DUP6 ADD MSTORE PUSH1 0x8 DUP3 SWAP1 SHR DUP2 AND ISZERO ISZERO PUSH1 0xE0 DUP6 ADD MSTORE PUSH1 0x10 DUP3 SWAP1 SHR AND ISZERO ISZERO PUSH2 0x100 DUP5 ADD MSTORE PUSH1 0x18 SHR PUSH1 0x1 PUSH1 0x1 PUSH1 0xA0 SHL SUB AND PUSH2 0x120 DUP4 ADD MSTORE SUB SWAP1 RETURN JUMPDEST SWAP1 SWAP8 POP DUP4 DUP2 MSTORE DUP6 DUP2 KECCAK256 JUMPDEST DUP9 DUP3 LT PUSH2 0x89B JUMPI POP DUP7 ADD DUP6 ADD SWAP7 POP PUSH2 0x7F5 DUP7 PUSH2 0x7E4 JUMP JUMPDEST DUP1 SLOAD DUP9 DUP4 ADD DUP9 ADD MSTORE SWAP1 DUP7 ADD SWAP1 DUP3 ADD PUSH2 0x884 JUMP JUMPDEST PUSH1 0xFF NOT AND DUP9 DUP11 ADD MSTORE POP POP ISZERO ISZERO PUSH1 0x5 SHL DUP7 ADD DUP6 ADD SWAP7 POP PUSH2 0x7F5 DUP7 PUSH2 0x7E4 JUMP JUMPDEST POP SWAP1 CALLVALUE PUSH2 0x3B5 JUMPI DUP2 PUSH1 0x3 NOT CALLDATASIZE ADD SLT PUSH2 0x3B5 JUMPI DUP2 PUSH1 0x20 SWAP4 PUSH1 0xFF SWAP3 PUSH2 0x8ED PUSH2 0x178E JUMP JUMPDEST DUP2 CALLDATALOAD DUP4 MSTORE SWAP1 DUP7 MSTORE DUP3 DUP3 KECCAK256 PUSH1 0x1 PUSH1 0x1 PUSH1 0xA0 SHL SUB SWAP1 SWAP2 AND DUP3 MSTORE DUP6 MSTORE KECCAK256 SLOAD SWAP2 MLOAD SWAP2 AND ISZERO ISZERO DUP2 MSTORE RETURN JUMPDEST DUP4 DUP3 CALLVALUE PUSH2 0x3FD JUMPI DUP2 PUSH1 0x3 NOT CALLDATASIZE ADD SLT PUSH2 0x3FD JUMPI PUSH1 0x20 SWAP1 MLOAD PUSH1 0x80 DUP2 MSTORE RETURN JUMPDEST POP SWAP1 CALLVALUE PUSH2 0x3B5 JUMPI PUSH1 0x60 CALLDATASIZE PUSH1 0x3 NOT ADD SLT PUSH2 0x3B5 JUMPI PUSH2 0x949 PUSH2 0x178E JUMP JUMPDEST PUSH1 0x44 CALLDATALOAD SWAP2 PUSH1 0xFF DUP4 AND DUP1 SWAP4 SUB PUSH2 0x98A JUMPI CALLDATALOAD DUP5 MSTORE PUSH1 0x5 PUSH1 0x20 SWAP1 DUP2 MSTORE DUP4 DUP6 KECCAK256 PUSH1 0x1 PUSH1 0x1 PUSH1 0xA0 SHL SUB SWAP1 SWAP3 AND DUP6 MSTORE SWAP1 DUP2 MSTORE DUP3 DUP5 KECCAK256 SWAP2 DUP5 MSTORE SWAP1 DUP2 MSTORE SWAP2 DUP2 SWAP1 KECCAK256 SLOAD SWAP1 MLOAD SWAP1 DUP2 MSTORE RETURN JUMPDEST DUP5 DUP1 REVERT JUMPDEST POP SWAP1 CALLVALUE PUSH2 0x3B5 JUMPI DUP2 PUSH1 0x3 NOT CALLDATASIZE ADD SLT PUSH2 0x3B5 JUMPI PUSH1 0x20 SWAP3 DUP3 SWAP2 PUSH2 0x9AD PUSH2 0x178E JUMP JUMPDEST SWAP1 CALLDATALOAD DUP3 MSTORE PUSH1 0x3 DUP6 MSTORE DUP3 DUP3 KECCAK256 PUSH1 0x1 PUSH1 0x1 PUSH1 0xA0 SHL SUB SWAP1 SWAP2 AND DUP3 MSTORE DUP5 MSTORE KECCAK256 SLOAD SWAP1 MLOAD SWAP1 DUP2 MSTORE RETURN JUMPDEST POP SWAP1 CALLVALUE PUSH2 0x3B5 JUMPI DUP2 PUSH1 0x3 NOT CALLDATASIZE ADD SLT PUSH2 0x3B5 JUMPI PUSH1 0x20 SWAP3 DUP3 SWAP2 PUSH2 0x9EF PUSH2 0x178E JUMP JUMPDEST SWAP1 CALLDATALOAD DUP3 MSTORE PUSH1 0x6 DUP6 MSTORE DUP3 DUP3 KECCAK256 PUSH1 0x1 PUSH1 0x1 PUSH1 0xA0 SHL SUB SWAP1 SWAP2 AND DUP3 MSTORE DUP5 MSTORE KECCAK256 SLOAD SWAP1 MLOAD SWAP1 DUP2 MSTORE RETURN JUMPDEST POP SWAP1 CALLVALUE PUSH2 0x3B5 JUMPI PUSH1 0x20 SWAP1 DUP2 PUSH1 0x3 NOT CALLDATASIZE ADD SLT PUSH2 0x3B1 JUMPI DUP1 CALLDATALOAD SWAP3 PUSH2 0xA32 PUSH2 0x1897 JUMP JUMPDEST DUP4 DUP6 MSTORE PUSH1 0x2 DUP4 MSTORE DUP1 DUP6 KECCAK256 SWAP1 PUSH2 0xA4C PUSH1 0x2 DUP4 ADD SLOAD TIMESTAMP GT PUSH2 0x18F8 JUMP JUMPDEST PUSH1 0x6 DUP3 ADD DUP1 SLOAD SWAP3 PUSH1 0xFF DUP5 AND PUSH2 0xBF0 JUMPI DUP1 PUSH1 0x5 PUSH2 0xAA4 PUSH1 0x3 PUSH2 0xAAD SWAP5 ADD SLOAD SWAP7 PUSH1 0x1 DUP10 DUP6 ADD SLOAD SWAP2 PUSH3 0xFF0000 PUSH2 0xFF00 PUSH2 0xA82 DUP6 DUP14 PUSH2 0x1964 JUMP JUMPDEST SWAP3 SWAP1 ISZERO ISZERO PUSH1 0x10 SHL AND SWAP3 PUSH3 0xFFFFFF NOT AND SWAP2 ISZERO ISZERO PUSH1 0x8 SHL AND OR OR OR SWAP8 DUP9 DUP8 SSTORE PUSH2 0x1874 JUMP JUMPDEST SWAP2 ADD SLOAD SWAP1 PUSH2 0x1874 JUMP JUMPDEST SWAP3 PUSH1 0xFF DUP2 PUSH1 0x10 SHR AND PUSH1 0x0 EQ PUSH2 0xBE1 JUMPI DUP8 SWAP5 JUMPDEST DUP6 PUSH2 0xB1A JUMPI JUMPDEST POP POP SWAP2 PUSH1 0x80 SWAP4 SWAP2 PUSH32 0xCF0A48D2AD3F7480002E60B1EDA352F90145D89AF44EB49E792DAD0233F533B1 SWAP6 SWAP4 SLOAD SWAP4 PUSH1 0xFF DUP3 MLOAD SWAP6 DUP2 DUP2 PUSH1 0x8 SHR AND ISZERO ISZERO DUP8 MSTORE PUSH1 0x10 SHR AND ISZERO ISZERO SWAP1 DUP6 ADD MSTORE DUP4 ADD MSTORE PUSH1 0x60 DUP3 ADD MSTORE LOG2 PUSH1 0x1 DUP2 SSTORE DUP1 RETURN JUMPDEST DUP4 MLOAD PUSH4 0xA9059CBB PUSH1 0xE0 SHL DUP2 MSTORE PUSH1 0x18 SWAP3 SWAP1 SWAP3 SHR PUSH1 0x1 PUSH1 0x1 PUSH1 0xA0 SHL SUB SWAP1 DUP2 AND SWAP2 DUP4 ADD SWAP2 DUP3 MSTORE PUSH1 0x20 DUP3 ADD DUP8 SWAP1 MSTORE DUP8 SWAP2 DUP4 SWAP2 SWAP1 DUP3 SWAP1 DUP13 SWAP1 DUP3 SWAP1 PUSH1 0x40 ADD SUB SWAP3 PUSH32 0x0 AND GAS CALL DUP1 ISZERO PUSH2 0xBD7 JUMPI SWAP2 PUSH1 0x80 SWAP6 SWAP4 SWAP2 PUSH32 0xCF0A48D2AD3F7480002E60B1EDA352F90145D89AF44EB49E792DAD0233F533B1 SWAP8 SWAP6 SWAP4 PUSH2 0xBBA JUMPI JUMPDEST POP SWAP2 SWAP4 SWAP6 DUP2 SWAP4 SWAP6 POP PUSH2 0xAC5 JUMP JUMPDEST PUSH2 0xBD0 SWAP1 DUP7 RETURNDATASIZE DUP9 GT PUSH2 0x298 JUMPI PUSH2 0x28A DUP2 DUP4 PUSH2 0x1756 JUMP JUMPDEST POP CODESIZE PUSH2 0xBAD JUMP JUMPDEST DUP4 MLOAD RETURNDATASIZE DUP11 DUP3 RETURNDATACOPY RETURNDATASIZE SWAP1 REVERT JUMPDEST PUSH2 0xBEA DUP5 PUSH2 0x1949 JUMP JUMPDEST SWAP5 PUSH2 0xABF JUMP JUMPDEST DUP3 MLOAD PUSH3 0x461BCD PUSH1 0xE5 SHL DUP2 MSTORE DUP1 DUP7 ADD DUP8 SWAP1 MSTORE PUSH1 0x10 PUSH1 0x24 DUP3 ADD MSTORE PUSH16 0x105B1C9958591E481C995CDBDB1D9959 PUSH1 0x82 SHL PUSH1 0x44 DUP3 ADD MSTORE PUSH1 0x64 SWAP1 REVERT JUMPDEST POP SWAP1 CALLVALUE PUSH2 0x3B5 JUMPI PUSH1 0x20 SWAP1 DUP2 PUSH1 0x3 NOT CALLDATASIZE ADD SLT PUSH2 0x3B1 JUMPI DUP1 CALLDATALOAD PUSH2 0xC45 PUSH2 0x1897 JUMP JUMPDEST DUP1 DUP6 MSTORE PUSH1 0x2 DUP4 MSTORE DUP4 DUP6 KECCAK256 PUSH1 0x6 DUP2 ADD SWAP2 DUP3 SLOAD SWAP3 PUSH1 0xFF DUP5 AND ISZERO PUSH2 0xF61 JUMPI PUSH1 0x3 DUP4 ADD SLOAD SWAP3 DUP6 DUP2 ADD SLOAD SWAP3 PUSH2 0xC84 PUSH2 0xC78 DUP6 DUP8 PUSH2 0x1874 JUMP JUMPDEST PUSH1 0x5 DUP1 SWAP5 ADD SLOAD SWAP1 PUSH2 0x1874 JUMP JUMPDEST SWAP6 DUP9 DUP11 DUP13 PUSH1 0xFF DUP5 PUSH1 0x10 SHR AND SWAP9 DUP10 PUSH1 0x0 EQ PUSH2 0xF50 JUMPI PUSH2 0xCA3 DUP3 JUMPDEST DUP13 PUSH2 0x193C JUMP JUMPDEST SWAP9 DUP11 ISZERO PUSH2 0xEF7 JUMPI POP POP SWAP2 PUSH2 0xCF0 SWAP2 DUP4 DUP7 PUSH2 0xD11 SWAP6 MSTORE DUP8 DUP4 MSTORE DUP2 DUP2 KECCAK256 CALLER DUP3 MSTORE DUP4 MSTORE DUP2 DUP2 KECCAK256 DUP2 DUP1 MSTORE DUP4 MSTORE DUP8 DUP3 DUP3 KECCAK256 SLOAD SWAP4 DUP9 DUP4 MSTORE MSTORE DUP14 DUP3 DUP3 KECCAK256 SWAP1 CALLER DUP4 MSTORE MSTORE DUP14 DUP3 DUP3 KECCAK256 SWAP1 PUSH1 0x1 DUP4 MSTORE MSTORE KECCAK256 SLOAD SWAP1 PUSH2 0x1874 JUMP JUMPDEST DUP4 DUP14 MSTORE DUP5 DUP12 MSTORE DUP12 DUP14 KECCAK256 CALLER DUP15 MSTORE DUP12 MSTORE DUP12 DUP14 KECCAK256 PUSH1 0x2 DUP15 MSTORE DUP12 MSTORE DUP12 DUP14 KECCAK256 SLOAD SWAP1 PUSH2 0x1874 JUMP JUMPDEST SWAP7 SWAP6 JUMPDEST DUP8 ISZERO PUSH2 0xEC3 JUMPI SWAP2 PUSH1 0xFF SWAP4 SWAP2 DUP11 SWAP9 SWAP8 SWAP7 SWAP6 SWAP4 PUSH1 0x0 EQ PUSH2 0xE7C JUMPI POP DUP1 DUP13 MSTORE DUP2 DUP9 MSTORE DUP11 DUP13 KECCAK256 CALLER DUP14 MSTORE DUP9 MSTORE DUP11 DUP13 KECCAK256 DUP13 DUP1 MSTORE DUP9 MSTORE DUP12 DUP12 DUP2 KECCAK256 SSTORE DUP1 DUP13 MSTORE DUP2 DUP9 MSTORE DUP11 DUP13 KECCAK256 CALLER DUP14 MSTORE DUP9 MSTORE DUP11 DUP13 KECCAK256 PUSH1 0x1 DUP14 MSTORE DUP9 MSTORE DUP12 DUP12 DUP2 KECCAK256 SSTORE DUP12 MSTORE DUP7 MSTORE DUP9 DUP11 KECCAK256 CALLER DUP12 MSTORE DUP7 MSTORE DUP9 DUP11 KECCAK256 PUSH1 0x2 DUP12 MSTORE DUP7 MSTORE DUP10 DUP10 DUP2 KECCAK256 SSTORE JUMPDEST SLOAD PUSH1 0x10 SHR AND ISZERO PUSH2 0xE34 JUMPI POP PUSH2 0xDBA SWAP4 SWAP1 POP JUMPDEST DUP6 MLOAD PUSH4 0xA9059CBB PUSH1 0xE0 SHL DUP2 MSTORE CALLER SWAP2 DUP2 ADD SWAP2 DUP3 MSTORE PUSH1 0x20 DUP3 ADD SWAP3 SWAP1 SWAP3 MSTORE SWAP1 SWAP3 DUP4 SWAP2 DUP3 SWAP2 PUSH1 0x40 SWAP1 SWAP2 ADD SWAP1 JUMP JUMPDEST SUB DUP2 DUP8 PUSH32 0x0 PUSH1 0x1 PUSH1 0x1 PUSH1 0xA0 SHL SUB AND GAS CALL SWAP2 DUP3 ISZERO PUSH2 0xE27 JUMPI PUSH2 0xE03 SWAP4 POP DUP5 SWAP3 PUSH2 0xE0A JUMPI JUMPDEST POP POP PUSH2 0x18BA JUMP JUMPDEST PUSH1 0x1 DUP2 SSTORE DUP1 RETURN JUMPDEST PUSH2 0xE20 SWAP3 POP DUP1 RETURNDATASIZE LT PUSH2 0x298 JUMPI PUSH2 0x28A DUP2 DUP4 PUSH2 0x1756 JUMP JUMPDEST CODESIZE DUP1 PUSH2 0xDFC JUMP JUMPDEST POP POP POP MLOAD SWAP1 RETURNDATASIZE SWAP1 DUP3 RETURNDATACOPY RETURNDATASIZE SWAP1 REVERT JUMPDEST DUP1 SWAP2 SWAP4 POP DUP3 MUL SWAP2 DUP3 DIV SUB PUSH2 0xE69 JUMPI DUP2 ISZERO PUSH2 0xE56 JUMPI SWAP2 DUP4 SWAP2 PUSH2 0xDBA SWAP4 DIV SWAP1 PUSH2 0xD91 JUMP JUMPDEST PUSH4 0x4E487B71 PUSH1 0xE0 SHL DUP7 MSTORE PUSH1 0x12 DUP4 MSTORE PUSH1 0x24 DUP7 REVERT JUMPDEST PUSH4 0x4E487B71 PUSH1 0xE0 SHL DUP7 MSTORE PUSH1 0x11 DUP4 MSTORE PUSH1 0x24 DUP7 REVERT JUMPDEST PUSH1 0x8 SHR DUP5 AND ISZERO PUSH2 0xEA5 JUMPI DUP12 MSTORE DUP7 MSTORE DUP9 DUP11 KECCAK256 CALLER DUP12 MSTORE DUP7 MSTORE DUP9 DUP11 KECCAK256 PUSH1 0x1 DUP12 MSTORE DUP7 MSTORE DUP10 DUP10 DUP2 KECCAK256 SSTORE PUSH2 0xD7F JUMP JUMPDEST DUP12 MSTORE DUP7 MSTORE DUP9 DUP11 KECCAK256 CALLER DUP12 MSTORE DUP7 MSTORE DUP9 DUP11 KECCAK256 DUP11 DUP1 MSTORE DUP7 MSTORE DUP10 DUP10 DUP2 KECCAK256 SSTORE PUSH2 0xD7F JUMP JUMPDEST DUP11 MLOAD PUSH3 0x461BCD PUSH1 0xE5 SHL DUP2 MSTORE DUP1 DUP11 ADD DUP12 SWAP1 MSTORE PUSH1 0xE PUSH1 0x24 DUP3 ADD MSTORE PUSH14 0x139BC81DDA5B9B9A5B99C818995D PUSH1 0x92 SHL PUSH1 0x44 DUP3 ADD MSTORE PUSH1 0x64 SWAP1 REVERT JUMPDEST SWAP4 POP SWAP10 POP POP POP PUSH1 0xFF DUP3 PUSH1 0x8 SHR AND PUSH1 0x0 EQ PUSH2 0xF2E JUMPI POP DUP2 DUP12 MSTORE DUP3 DUP10 MSTORE DUP10 DUP12 KECCAK256 CALLER DUP13 MSTORE DUP10 MSTORE DUP10 DUP12 KECCAK256 PUSH1 0x1 DUP13 MSTORE DUP10 MSTORE DUP10 DUP12 KECCAK256 SLOAD SWAP7 SWAP6 PUSH2 0xD14 JUMP JUMPDEST DUP3 DUP13 MSTORE DUP4 DUP11 MSTORE DUP11 DUP13 KECCAK256 CALLER DUP14 MSTORE DUP11 MSTORE DUP11 DUP13 KECCAK256 DUP13 DUP1 MSTORE DUP11 MSTORE DUP11 DUP13 KECCAK256 SLOAD SWAP8 POP SWAP6 PUSH2 0xD14 JUMP JUMPDEST PUSH2 0xCA3 PUSH2 0xF5C DUP13 PUSH2 0x1949 JUMP JUMPDEST PUSH2 0xC9D JUMP JUMPDEST DUP7 MLOAD PUSH3 0x461BCD PUSH1 0xE5 SHL DUP2 MSTORE DUP1 DUP7 ADD DUP8 SWAP1 MSTORE PUSH1 0xC PUSH1 0x24 DUP3 ADD MSTORE PUSH12 0x139BDD081C995CDBDB1D9959 PUSH1 0xA2 SHL PUSH1 0x44 DUP3 ADD MSTORE PUSH1 0x64 SWAP1 REVERT JUMPDEST DUP4 DUP3 CALLVALUE PUSH2 0x3FD JUMPI DUP2 PUSH1 0x3 NOT CALLDATASIZE ADD SLT PUSH2 0x3FD JUMPI PUSH1 0x20 SWAP1 MLOAD PUSH9 0x56BC75E2D63100000 DUP2 MSTORE RETURN JUMPDEST POP CALLVALUE PUSH2 0x3B5 JUMPI PUSH1 0x60 CALLDATASIZE PUSH1 0x3 NOT ADD SLT PUSH2 0x3B5 JUMPI DUP2 CALLDATALOAD PUSH1 0x24 CALLDATALOAD SWAP2 PUSH1 0x44 CALLDATALOAD PUSH2 0xFDA PUSH2 0x1897 JUMP JUMPDEST DUP3 DUP7 MSTORE PUSH1 0x20 PUSH1 0x2 DUP2 MSTORE PUSH1 0x1 DUP4 DUP9 KECCAK256 ADD SLOAD TIMESTAMP LT ISZERO PUSH2 0x117D JUMPI DUP2 ISZERO PUSH2 0x1146 JUMPI DUP4 DUP8 MSTORE DUP6 DUP2 MSTORE DUP3 DUP8 KECCAK256 CALLER DUP9 MSTORE DUP2 MSTORE PUSH1 0xFF DUP4 DUP9 KECCAK256 SLOAD AND PUSH2 0x1110 JUMPI DUP3 MLOAD PUSH4 0x23B872DD PUSH1 0xE0 SHL DUP2 MSTORE CALLER DUP8 DUP3 ADD MSTORE ADDRESS PUSH1 0x24 DUP3 ADD MSTORE PUSH1 0x44 DUP2 ADD DUP4 SWAP1 MSTORE SWAP6 DUP2 DUP8 PUSH1 0x64 DUP2 DUP12 PUSH32 0x0 PUSH1 0x1 PUSH1 0x1 PUSH1 0xA0 SHL SUB AND GAS CALL SWAP7 DUP8 ISZERO PUSH2 0x1106 JUMPI PUSH32 0xC02F2358FE181CC846163D0CA2CD612408CEF67A7ACDBB92CD09045DF0E2FD9A SWAP6 SWAP7 SWAP8 PUSH2 0x109D SWAP2 DUP11 SWAP2 PUSH2 0x10E9 JUMPI JUMPDEST POP PUSH2 0x18BA JUMP JUMPDEST DUP6 DUP9 MSTORE PUSH1 0x3 DUP3 MSTORE DUP4 DUP9 KECCAK256 CALLER DUP10 MSTORE DUP3 MSTORE DUP7 DUP5 DUP10 KECCAK256 SSTORE DUP6 DUP9 MSTORE DUP2 MSTORE DUP3 DUP8 KECCAK256 CALLER DUP9 MSTORE DUP2 MSTORE DUP3 DUP8 KECCAK256 PUSH1 0x1 PUSH1 0xFF NOT DUP3 SLOAD AND OR SWAP1 SSTORE DUP5 DUP8 MSTORE PUSH1 0x6 DUP2 MSTORE DUP3 DUP8 KECCAK256 CALLER DUP9 MSTORE DUP2 MSTORE DUP3 DUP8 KECCAK256 PUSH2 0x580 DUP4 DUP3 SLOAD PUSH2 0x1874 JUMP JUMPDEST PUSH2 0x1100 SWAP2 POP DUP5 RETURNDATASIZE DUP7 GT PUSH2 0x298 JUMPI PUSH2 0x28A DUP2 DUP4 PUSH2 0x1756 JUMP JUMPDEST CODESIZE PUSH2 0x1097 JUMP JUMPDEST DUP5 MLOAD RETURNDATASIZE DUP11 DUP3 RETURNDATACOPY RETURNDATASIZE SWAP1 REVERT JUMPDEST DUP6 PUSH1 0x64 SWAP2 DUP5 MLOAD SWAP2 PUSH3 0x461BCD PUSH1 0xE5 SHL DUP4 MSTORE DUP3 ADD MSTORE PUSH1 0x11 PUSH1 0x24 DUP3 ADD MSTORE PUSH17 0x105B1C9958591E4818DBDB5B5A5D1D1959 PUSH1 0x7A SHL PUSH1 0x44 DUP3 ADD MSTORE REVERT JUMPDEST DUP6 PUSH1 0x64 SWAP2 DUP5 MLOAD SWAP2 PUSH3 0x461BCD PUSH1 0xE5 SHL DUP4 MSTORE DUP3 ADD MSTORE PUSH1 0x12 PUSH1 0x24 DUP3 ADD MSTORE PUSH18 0x416D6F756E74206D757374206265203E203 PUSH1 0x74 SHL PUSH1 0x44 DUP3 ADD MSTORE REVERT JUMPDEST DUP6 PUSH1 0x64 SWAP2 DUP5 MLOAD SWAP2 PUSH3 0x461BCD PUSH1 0xE5 SHL DUP4 MSTORE DUP3 ADD MSTORE PUSH1 0x11 PUSH1 0x24 DUP3 ADD MSTORE PUSH17 0x21B7B6B6B4BA10383430B9B29037BB32B9 PUSH1 0x79 SHL PUSH1 0x44 DUP3 ADD MSTORE REVERT JUMPDEST DUP5 SWAP4 SWAP2 POP CALLVALUE PUSH2 0x3B1 JUMPI PUSH1 0x60 CALLDATASIZE PUSH1 0x3 NOT ADD SLT PUSH2 0x3B1 JUMPI DUP2 CALLDATALOAD SWAP2 PUSH8 0xFFFFFFFFFFFFFFFF SWAP1 DUP2 DUP5 GT PUSH2 0x770 JUMPI CALLDATASIZE PUSH1 0x23 DUP6 ADD SLT ISZERO PUSH2 0x770 JUMPI DUP4 DUP2 ADD CALLDATALOAD SWAP5 DUP3 DUP7 GT PUSH2 0x1743 JUMPI PUSH1 0x20 SWAP3 DUP8 PUSH1 0x1F NOT SWAP7 PUSH2 0x120C DUP7 DUP10 PUSH1 0x1F DUP13 ADD AND ADD DUP9 PUSH2 0x1756 JUMP JUMPDEST DUP9 DUP8 MSTORE PUSH1 0x24 SWAP9 CALLDATASIZE DUP11 DUP3 DUP5 ADD ADD GT PUSH2 0x3B5 JUMPI DUP1 DUP11 DUP9 SWAP4 ADD DUP4 DUP11 ADD CALLDATACOPY DUP8 ADD ADD MSTORE DUP7 CALLDATALOAD PUSH1 0x44 SWAP2 DUP3 CALLDATALOAD SWAP3 PUSH2 0x123A PUSH2 0x1897 JUMP JUMPDEST DUP8 MLOAD ISZERO PUSH2 0x1717 JUMPI PUSH1 0x80 DUP9 MLOAD GT PUSH2 0x16E8 JUMPI PUSH2 0xE10 DUP1 DUP5 LT PUSH2 0x16A7 JUMPI PUSH4 0x1DFE200 SWAP1 DUP2 DUP6 GT PUSH2 0x1665 JUMPI DUP6 LT PUSH2 0x1624 JUMPI DUP5 GT PUSH2 0x15E4 JUMPI DUP5 MLOAD PUSH4 0x23B872DD PUSH1 0xE0 SHL DUP2 MSTORE CALLER DUP8 DUP3 ADD MSTORE ADDRESS DUP12 DUP3 ADD MSTORE PUSH9 0x56BC75E2D63100000 DUP3 DUP3 ADD DUP2 SWAP1 MSTORE PUSH32 0x0 PUSH1 0x1 PUSH1 0x1 PUSH1 0xA0 SHL SUB AND SWAP2 DUP14 SWAP1 DUP11 DUP2 PUSH1 0x64 DUP2 DUP6 DUP9 GAS CALL SWAP2 DUP3 ISZERO PUSH2 0x15D9 JUMPI SWAP2 PUSH2 0x15BC JUMPI JUMPDEST POP ISZERO PUSH2 0x1584 JUMPI PUSH2 0xDEAD DUP4 DUP10 DUP16 DUP16 SWAP6 DUP14 SWAP6 DUP13 MLOAD SWAP8 DUP9 SWAP7 DUP8 SWAP6 PUSH4 0xA9059CBB PUSH1 0xE0 SHL DUP8 MSTORE DUP7 ADD MSTORE DUP5 ADD MSTORE GAS CALL SWAP1 DUP2 ISZERO PUSH2 0x157A JUMPI DUP13 SWAP2 PUSH2 0x155D JUMPI JUMPDEST POP ISZERO PUSH2 0x1526 JUMPI POP PUSH1 0x1 SWAP9 DUP10 SLOAD SWAP9 PUSH1 0x0 NOT SWAP2 DUP3 DUP12 EQ PUSH2 0x1515 JUMPI DUP12 DUP12 ADD DUP13 SSTORE DUP11 DUP14 MSTORE PUSH1 0x2 DUP10 MSTORE DUP7 DUP14 KECCAK256 SWAP8 DUP11 MLOAD SWAP5 DUP6 GT PUSH2 0x1504 JUMPI POP POP DUP11 SWAP1 PUSH2 0x134C DUP9 SLOAD PUSH2 0x17E2 JUMP JUMPDEST PUSH1 0x1F DUP2 GT PUSH2 0x14B6 JUMPI JUMPDEST POP DUP13 DUP10 SWAP2 PUSH1 0x1F DUP7 GT PUSH1 0x1 EQ PUSH2 0x1423 JUMPI POP SWAP5 DUP5 DUP1 PUSH1 0x6 SWAP6 PUSH32 0xB0F44AB77840631AFD2F642DAA49E5D268BCE7BABF6C72558F47C5D027413B98 SWAP14 SWAP12 SWAP10 SWAP8 PUSH2 0x13C3 SWAP7 PUSH2 0x13B7 SWAP7 PUSH2 0x1403 SWAP16 SWAP14 SWAP12 SWAP5 PUSH2 0x1418 JUMPI JUMPDEST POP SHL SWAP3 PUSH1 0x3 SHL SHR NOT AND OR DUP8 SSTORE JUMPDEST TIMESTAMP PUSH2 0x1874 JUMP JUMPDEST SWAP3 DUP4 DUP13 DUP8 ADD SSTORE DUP4 PUSH2 0x1874 JUMP JUMPDEST PUSH1 0x2 DUP6 ADD DUP2 SWAP1 SSTORE SWAP4 ADD DUP1 SLOAD PUSH4 0x1000000 PUSH1 0x1 PUSH1 0xB8 SHL SUB NOT AND CALLER PUSH1 0x18 SHL PUSH4 0x1000000 PUSH1 0x1 PUSH1 0xB8 SHL SUB AND OR SWAP1 SSTORE DUP2 MLOAD PUSH1 0x80 DUP1 DUP3 MSTORE SWAP1 SWAP7 DUP8 SWAP7 SWAP1 SWAP2 DUP8 ADD SWAP1 PUSH2 0x181C JUMP JUMPDEST SWAP4 DUP6 ADD MSTORE DUP4 ADD MSTORE CALLER PUSH1 0x60 DUP4 ADD MSTORE SUB SWAP1 LOG2 DUP2 SSTORE DUP1 RETURN JUMPDEST DUP15 ADD MLOAD SWAP4 POP CODESIZE PUSH2 0x13A4 JUMP JUMPDEST DUP6 SWAP5 SWAP3 SWAP2 SWAP4 SWAP6 AND DUP10 DUP5 MSTORE DUP11 DUP5 KECCAK256 SWAP4 JUMPDEST DUP2 DUP2 LT PUSH2 0x149F JUMPI POP SWAP5 DUP5 PUSH2 0x13C3 SWAP5 PUSH2 0x13B7 SWAP5 PUSH2 0x1403 SWAP14 SWAP12 SWAP10 SWAP5 PUSH32 0xB0F44AB77840631AFD2F642DAA49E5D268BCE7BABF6C72558F47C5D027413B98 SWAP16 SWAP14 SWAP12 SWAP10 SWAP9 PUSH1 0x6 SWAP10 LT PUSH2 0x1487 JUMPI JUMPDEST POP POP POP DUP2 SHL ADD DUP8 SSTORE PUSH2 0x13B1 JUMP JUMPDEST DUP14 ADD MLOAD SWAP1 PUSH1 0xF8 DUP5 PUSH1 0x3 SHL AND SHR NOT AND SWAP1 SSTORE CODESIZE DUP1 DUP1 PUSH2 0x147A JUMP JUMPDEST DUP13 DUP4 ADD MLOAD DUP6 SSTORE DUP15 SWAP7 SWAP1 SWAP5 ADD SWAP4 SWAP2 DUP12 ADD SWAP2 DUP12 ADD PUSH2 0x1432 JUMP JUMPDEST SWAP1 SWAP2 POP DUP8 DUP14 MSTORE DUP9 DUP14 KECCAK256 PUSH1 0x1F DUP6 ADD PUSH1 0x5 SHR DUP2 ADD SWAP2 DUP11 DUP7 LT PUSH2 0x14FA JUMPI JUMPDEST DUP14 SWAP4 SWAP3 SWAP2 DUP16 SWAP2 PUSH1 0x1F ADD PUSH1 0x5 SHR ADD SWAP2 SWAP1 JUMPDEST DUP3 DUP3 LT PUSH2 0x14EF JUMPI POP POP PUSH2 0x1355 JUMP JUMPDEST DUP2 SSTORE DUP14 SWAP4 ADD DUP15 PUSH2 0x14E1 JUMP JUMPDEST SWAP1 SWAP2 POP DUP2 SWAP1 PUSH2 0x14D1 JUMP JUMPDEST PUSH4 0x4E487B71 PUSH1 0xE0 SHL DUP15 MSTORE PUSH1 0x41 SWAP1 MSTORE DUP13 REVERT JUMPDEST PUSH4 0x4E487B71 PUSH1 0xE0 SHL DUP14 MSTORE PUSH1 0x11 DUP9 MSTORE DUP13 REVERT JUMPDEST DUP6 PUSH20 0x109D5C9B881D1C985B9CD9995C8819985A5B1959 PUSH1 0x62 SHL PUSH1 0x64 SWAP3 PUSH1 0x14 DUP14 DUP12 DUP11 MLOAD SWAP6 PUSH3 0x461BCD PUSH1 0xE5 SHL DUP8 MSTORE DUP7 ADD MSTORE DUP5 ADD MSTORE DUP3 ADD MSTORE REVERT JUMPDEST PUSH2 0x1574 SWAP2 POP DUP9 RETURNDATASIZE DUP11 GT PUSH2 0x298 JUMPI PUSH2 0x28A DUP2 DUP4 PUSH2 0x1756 JUMP JUMPDEST DUP13 PUSH2 0x130D JUMP JUMPDEST DUP7 MLOAD RETURNDATASIZE DUP15 DUP3 RETURNDATACOPY RETURNDATASIZE SWAP1 REVERT JUMPDEST POP DUP6 MLOAD PUSH3 0x461BCD PUSH1 0xE5 SHL DUP2 MSTORE DUP1 DUP9 ADD DUP10 SWAP1 MSTORE PUSH1 0x13 DUP2 DUP14 ADD MSTORE PUSH19 0x119959481D1C985B9CD9995C8819985A5B1959 PUSH1 0x6A SHL DUP2 DUP5 ADD MSTORE PUSH1 0x64 SWAP1 REVERT JUMPDEST PUSH2 0x15D3 SWAP2 POP DUP11 RETURNDATASIZE DUP13 GT PUSH2 0x298 JUMPI PUSH2 0x28A DUP2 DUP4 PUSH2 0x1756 JUMP JUMPDEST DUP15 PUSH2 0x12D6 JUMP JUMPDEST DUP10 MLOAD SWAP1 RETURNDATASIZE SWAP1 DUP3 RETURNDATACOPY RETURNDATASIZE SWAP1 REVERT JUMPDEST DUP6 PUSH32 0x52657665616C206475726174696F6E20746F6F206C6F6E670000000000000000 PUSH1 0x64 SWAP3 PUSH1 0x18 DUP14 DUP12 DUP11 MLOAD SWAP6 PUSH3 0x461BCD PUSH1 0xE5 SHL DUP8 MSTORE DUP7 ADD MSTORE DUP5 ADD MSTORE DUP3 ADD MSTORE REVERT JUMPDEST DUP6 MLOAD PUSH3 0x461BCD PUSH1 0xE5 SHL DUP2 MSTORE DUP1 DUP9 ADD DUP10 SWAP1 MSTORE PUSH1 0x19 DUP2 DUP14 ADD MSTORE PUSH32 0x52657665616C206475726174696F6E20746F6F2073686F727400000000000000 DUP2 DUP5 ADD MSTORE PUSH1 0x64 SWAP1 REVERT JUMPDEST POP DUP6 MLOAD PUSH3 0x461BCD PUSH1 0xE5 SHL DUP2 MSTORE DUP1 DUP9 ADD DUP10 SWAP1 MSTORE PUSH1 0x19 DUP2 DUP14 ADD MSTORE PUSH32 0x42696464696E67206475726174696F6E20746F6F206C6F6E6700000000000000 DUP2 DUP5 ADD MSTORE PUSH1 0x64 SWAP1 REVERT JUMPDEST DUP6 MLOAD PUSH3 0x461BCD PUSH1 0xE5 SHL DUP2 MSTORE DUP1 DUP9 ADD DUP10 SWAP1 MSTORE PUSH1 0x1A DUP2 DUP14 ADD MSTORE PUSH32 0x42696464696E67206475726174696F6E20746F6F2073686F7274000000000000 DUP2 DUP5 ADD MSTORE PUSH1 0x64 SWAP1 REVERT JUMPDEST DUP6 PUSH12 0x43494420746F6F206C6F6E67 PUSH1 0xA0 SHL PUSH1 0x64 SWAP3 PUSH1 0xC DUP14 DUP12 DUP11 MLOAD SWAP6 PUSH3 0x461BCD PUSH1 0xE5 SHL DUP8 MSTORE DUP7 ADD MSTORE DUP5 ADD MSTORE DUP3 ADD MSTORE REVERT JUMPDEST DUP6 PUSH9 0x43494420656D707479 PUSH1 0xB8 SHL PUSH1 0x64 SWAP3 PUSH1 0x9 DUP14 DUP12 DUP11 MLOAD SWAP6 PUSH3 0x461BCD PUSH1 0xE5 SHL DUP8 MSTORE DUP7 ADD MSTORE DUP5 ADD MSTORE DUP3 ADD MSTORE REVERT JUMPDEST PUSH4 0x4E487B71 PUSH1 0xE0 SHL DUP8 MSTORE PUSH1 0x41 DUP3 MSTORE PUSH1 0x24 DUP8 REVERT JUMPDEST SWAP1 PUSH1 0x1F DUP1 NOT SWAP2 ADD AND DUP2 ADD SWAP1 DUP2 LT PUSH8 0xFFFFFFFFFFFFFFFF DUP3 GT OR PUSH2 0x1778 JUMPI PUSH1 0x40 MSTORE JUMP JUMPDEST PUSH4 0x4E487B71 PUSH1 0xE0 SHL PUSH1 0x0 MSTORE PUSH1 0x41 PUSH1 0x4 MSTORE PUSH1 0x24 PUSH1 0x0 REVERT JUMPDEST PUSH1 0x24 CALLDATALOAD SWAP1 PUSH1 0x1 PUSH1 0x1 PUSH1 0xA0 SHL SUB DUP3 AND DUP3 SUB PUSH2 0x17A4 JUMPI JUMP JUMPDEST PUSH1 0x0 DUP1 REVERT JUMPDEST CALLVALUE PUSH2 0x17A4 JUMPI PUSH1 0x0 CALLDATASIZE PUSH1 0x3 NOT ADD SLT PUSH2 0x17A4 JUMPI PUSH1 0x20 PUSH1 0x40 MLOAD PUSH1 0x64 DUP2 MSTORE RETURN JUMPDEST CALLVALUE PUSH2 0x17A4 JUMPI PUSH1 0x0 CALLDATASIZE PUSH1 0x3 NOT ADD SLT PUSH2 0x17A4 JUMPI PUSH1 0x20 PUSH1 0x40 MLOAD PUSH2 0xE10 DUP2 MSTORE RETURN JUMPDEST SWAP1 PUSH1 0x1 DUP3 DUP2 SHR SWAP3 AND DUP1 ISZERO PUSH2 0x1812 JUMPI JUMPDEST PUSH1 0x20 DUP4 LT EQ PUSH2 0x17FC JUMPI JUMP JUMPDEST PUSH4 0x4E487B71 PUSH1 0xE0 SHL PUSH1 0x0 MSTORE PUSH1 0x22 PUSH1 0x4 MSTORE PUSH1 0x24 PUSH1 0x0 REVERT JUMPDEST SWAP2 PUSH1 0x7F AND SWAP2 PUSH2 0x17F1 JUMP JUMPDEST SWAP2 SWAP1 DUP3 MLOAD SWAP3 DUP4 DUP3 MSTORE PUSH1 0x0 JUMPDEST DUP5 DUP2 LT PUSH2 0x1848 JUMPI POP POP DUP3 PUSH1 0x0 PUSH1 0x20 DUP1 SWAP5 SWAP6 DUP5 ADD ADD MSTORE PUSH1 0x1F DUP1 NOT SWAP2 ADD AND ADD ADD SWAP1 JUMP JUMPDEST PUSH1 0x20 DUP2 DUP4 ADD DUP2 ADD MLOAD DUP5 DUP4 ADD DUP3 ADD MSTORE ADD PUSH2 0x1827 JUMP JUMPDEST SWAP1 DUP2 PUSH1 0x20 SWAP2 SUB SLT PUSH2 0x17A4 JUMPI MLOAD DUP1 ISZERO ISZERO DUP2 SUB PUSH2 0x17A4 JUMPI SWAP1 JUMP JUMPDEST SWAP2 SWAP1 DUP3 ADD DUP1 SWAP3 GT PUSH2 0x1881 JUMPI JUMP JUMPDEST PUSH4 0x4E487B71 PUSH1 0xE0 SHL PUSH1 0x0 MSTORE PUSH1 0x11 PUSH1 0x4 MSTORE PUSH1 0x24 PUSH1 0x0 REVERT JUMPDEST PUSH1 0x2 PUSH1 0x0 SLOAD EQ PUSH2 0x18A8 JUMPI PUSH1 0x2 PUSH1 0x0 SSTORE JUMP JUMPDEST PUSH1 0x40 MLOAD PUSH4 0x3EE5AEB5 PUSH1 0xE0 SHL DUP2 MSTORE PUSH1 0x4 SWAP1 REVERT JUMPDEST ISZERO PUSH2 0x18C1 JUMPI JUMP JUMPDEST PUSH1 0x40 MLOAD PUSH3 0x461BCD PUSH1 0xE5 SHL DUP2 MSTORE PUSH1 0x20 PUSH1 0x4 DUP3 ADD MSTORE PUSH1 0xF PUSH1 0x24 DUP3 ADD MSTORE PUSH15 0x151C985B9CD9995C8819985A5B1959 PUSH1 0x8A SHL PUSH1 0x44 DUP3 ADD MSTORE PUSH1 0x64 SWAP1 REVERT JUMPDEST ISZERO PUSH2 0x18FF JUMPI JUMP JUMPDEST PUSH1 0x40 MLOAD PUSH3 0x461BCD PUSH1 0xE5 SHL DUP2 MSTORE PUSH1 0x20 PUSH1 0x4 DUP3 ADD MSTORE PUSH1 0x15 PUSH1 0x24 DUP3 ADD MSTORE PUSH21 0x2932BB32B0B610383430B9B2903737BA1037BB32B9 PUSH1 0x59 SHL PUSH1 0x44 DUP3 ADD MSTORE PUSH1 0x64 SWAP1 REVERT JUMPDEST SWAP2 SWAP1 DUP3 SUB SWAP2 DUP3 GT PUSH2 0x1881 JUMPI JUMP JUMPDEST PUSH1 0x64 DUP2 MUL SWAP1 DUP1 DUP3 DIV PUSH1 0x64 EQ SWAP1 ISZERO OR ISZERO PUSH2 0x1881 JUMPI PUSH2 0x2710 SWAP1 DIV SWAP1 JUMP JUMPDEST SWAP1 DUP1 DUP3 GT ISZERO PUSH2 0x1977 JUMPI POP POP PUSH1 0x0 SWAP1 PUSH1 0x1 SWAP1 JUMP JUMPDEST GT PUSH2 0x1984 JUMPI PUSH1 0x1 SWAP1 PUSH1 0x0 SWAP1 JUMP JUMPDEST PUSH1 0x0 SWAP1 PUSH1 0x0 SWAP1 JUMP INVALID LOG2 PUSH5 0x6970667358 0x22 SLT KECCAK256 0xC5 SGT PUSH21 0x95DE31C2FE8914C4BE58F7E3D30B9FED90AF553140 0x2C PUSH30 0x4DE4F06AD67964736F6C6343000814003300000000000000000000000000 "},"methodIdentifiers":{"MAX_CID_LENGTH()":"a82da60d","MAX_DURATION()":"b1724b46","MIN_BIDDING_DURATION()":"875aff8a","MIN_REVEAL_DURATION()":"d329db8f","ORIGINATOR_FEE_BPS()":"5acd45be","STATEMENT_FEE()":"2e8f036a","UNREVEALED_PENALTY_BPS()":"b9e42385","bets(uint256,address,uint8)":"8f99230e","claim(uint256)":"379607f5","commitBet(uint256,bytes32,uint256)":"1b88272a","commits(uint256,address)":"885d68a8","committedAmount(uint256,address)":"57cb0c11","hasCommitted(uint256,address)":"a99ef9f5","marketCount()":"ec979082","markets(uint256)":"b1283e77","resolve(uint256)":"4f896d4f","revealBet(uint256,uint8,uint256)":"cdbf9582","submitStatement(string,uint256,uint256)":"1204078d","token()":"fc0c546a","withdrawUnrevealed(uint256)":"fe838b02"}}}}}