{"contracts/TruthMarket.sol":{"TruthMarket":{"abi":[{"inputs":[],"name":"AlreadyPaid","type":"error"},{"inputs":[],"name":"InvalidInitialization","type":"error"},{"inputs":[],"name":"MarketClosed","type":"error"},{"inputs":[],"name":"MarketNotResolved","type":"error"},{"inputs":[],"name":"MinimumStakeNotMet","type":"error"},{"inputs":[],"name":"NotInitializing","type":"error"},{"inputs":[],"name":"ReentrancyGuardReentrantCall","type":"error"},{"inputs":[{"internalType":"address","name":"token","type":"address"}],"name":"SafeERC20FailedOperation","type":"error"},{"inputs":[],"name":"WithdrawalNotAllowed","type":"error"},{"anonymous":false,"inputs":[{"indexed":false,"internalType":"uint64","name":"version","type":"uint64"}],"name":"Initialized","type":"event"},{"anonymous":false,"inputs":[{"indexed":false,"internalType":"enum ITruthMarket.Resolution","name":"outcome","type":"uint8"},{"indexed":false,"internalType":"uint256","name":"confidenceBps","type":"uint256"},{"indexed":false,"internalType":"uint256","name":"trueStake","type":"uint256"},{"indexed":false,"internalType":"uint256","name":"falseStake","type":"uint256"},{"indexed":false,"internalType":"uint256","name":"unalignedStake","type":"uint256"},{"indexed":false,"internalType":"uint256","name":"protocolFee","type":"uint256"}],"name":"MarketResolved","type":"event"},{"anonymous":false,"inputs":[{"indexed":true,"internalType":"address","name":"bettor","type":"address"},{"indexed":false,"internalType":"uint256","name":"payout","type":"uint256"}],"name":"PayoutClaimed","type":"event"},{"anonymous":false,"inputs":[{"indexed":true,"internalType":"address","name":"bettor","type":"address"},{"indexed":true,"internalType":"enum ITruthMarket.Side","name":"side","type":"uint8"},{"indexed":false,"internalType":"uint256","name":"amount","type":"uint256"}],"name":"StakePlaced","type":"event"},{"anonymous":false,"inputs":[{"indexed":true,"internalType":"address","name":"bettor","type":"address"},{"indexed":true,"internalType":"enum ITruthMarket.Side","name":"side","type":"uint8"},{"indexed":false,"internalType":"uint256","name":"amount","type":"uint256"}],"name":"StakeWithdrawn","type":"event"},{"inputs":[],"name":"appealWindowSeconds","outputs":[{"internalType":"uint64","name":"","type":"uint64"}],"stateMutability":"view","type":"function"},{"inputs":[],"name":"claimId","outputs":[{"internalType":"uint256","name":"","type":"uint256"}],"stateMutability":"view","type":"function"},{"inputs":[],"name":"claimPayout","outputs":[],"stateMutability":"nonpayable","type":"function"},{"inputs":[],"name":"confidenceBps","outputs":[{"internalType":"uint256","name":"","type":"uint256"}],"stateMutability":"view","type":"function"},{"inputs":[],"name":"feeBps","outputs":[{"internalType":"uint16","name":"","type":"uint16"}],"stateMutability":"view","type":"function"},{"inputs":[],"name":"getMarketState","outputs":[{"internalType":"enum TruthMarket.MarketState","name":"","type":"uint8"}],"stateMutability":"view","type":"function"},{"inputs":[],"name":"hlx","outputs":[{"internalType":"contract IERC20","name":"","type":"address"}],"stateMutability":"view","type":"function"},{"inputs":[{"internalType":"address","name":"registry_","type":"address"},{"internalType":"address","name":"hlxToken_","type":"address"},{"internalType":"address","name":"treasury_","type":"address"},{"internalType":"uint256","name":"claimId_","type":"uint256"},{"internalType":"uint256","name":"version_","type":"uint256"},{"internalType":"uint64","name":"tradingClosesAt_","type":"uint64"},{"internalType":"uint64","name":"resolutionDelaySeconds_","type":"uint64"},{"internalType":"uint64","name":"appealWindowSeconds_","type":"uint64"},{"internalType":"uint256","name":"minStake_","type":"uint256"},{"internalType":"uint16","name":"feeBps_","type":"uint16"},{"components":[{"internalType":"address","name":"seeder","type":"address"},{"internalType":"uint256","name":"trueStake","type":"uint256"},{"internalType":"uint256","name":"falseStake","type":"uint256"},{"internalType":"uint256","name":"unalignedStake","type":"uint256"},{"internalType":"bool","name":"lockSeeder","type":"bool"}],"internalType":"struct TruthMarket.SeedConfig","name":"seed","type":"tuple"}],"name":"initialize","outputs":[],"stateMutability":"nonpayable","type":"function"},{"inputs":[],"name":"minStake","outputs":[{"internalType":"uint256","name":"","type":"uint256"}],"stateMutability":"view","type":"function"},{"inputs":[{"internalType":"enum ITruthMarket.Side","name":"side","type":"uint8"},{"internalType":"uint256","name":"amount","type":"uint256"}],"name":"placeBet","outputs":[],"stateMutability":"nonpayable","type":"function"},{"inputs":[{"internalType":"address","name":"account","type":"address"}],"name":"position","outputs":[{"components":[{"internalType":"uint256","name":"trueStake","type":"uint256"},{"internalType":"uint256","name":"falseStake","type":"uint256"},{"internalType":"uint256","name":"unalignedStake","type":"uint256"},{"internalType":"bool","name":"paidOut","type":"bool"},{"internalType":"bool","name":"locked","type":"bool"}],"internalType":"struct ITruthMarket.Position","name":"","type":"tuple"}],"stateMutability":"view","type":"function"},{"inputs":[],"name":"protocolFee","outputs":[{"internalType":"uint256","name":"","type":"uint256"}],"stateMutability":"view","type":"function"},{"inputs":[],"name":"registry","outputs":[{"internalType":"contract IAlphaHelixRegistry","name":"","type":"address"}],"stateMutability":"view","type":"function"},{"inputs":[],"name":"resolutionDelaySeconds","outputs":[{"internalType":"uint64","name":"","type":"uint64"}],"stateMutability":"view","type":"function"},{"inputs":[],"name":"resolve","outputs":[],"stateMutability":"nonpayable","type":"function"},{"inputs":[],"name":"resolvedAt","outputs":[{"internalType":"uint64","name":"","type":"uint64"}],"stateMutability":"view","type":"function"},{"inputs":[],"name":"state","outputs":[{"internalType":"enum TruthMarket.MarketState","name":"","type":"uint8"}],"stateMutability":"view","type":"function"},{"inputs":[],"name":"totals","outputs":[{"components":[{"internalType":"uint256","name":"trueStake","type":"uint256"},{"internalType":"uint256","name":"falseStake","type":"uint256"},{"internalType":"uint256","name":"unalignedStake","type":"uint256"}],"internalType":"struct ITruthMarket.Totals","name":"aggregate","type":"tuple"},{"internalType":"uint256","name":"totalStake","type":"uint256"}],"stateMutability":"view","type":"function"},{"inputs":[],"name":"tradingClosesAt","outputs":[{"internalType":"uint64","name":"","type":"uint64"}],"stateMutability":"view","type":"function"},{"inputs":[],"name":"treasury","outputs":[{"internalType":"address","name":"","type":"address"}],"stateMutability":"view","type":"function"},{"inputs":[],"name":"version","outputs":[{"internalType":"uint256","name":"","type":"uint256"}],"stateMutability":"view","type":"function"},{"inputs":[],"name":"winnerPayoutPool","outputs":[{"internalType":"uint256","name":"","type":"uint256"}],"stateMutability":"view","type":"function"},{"inputs":[],"name":"winnerStake","outputs":[{"internalType":"uint256","name":"","type":"uint256"}],"stateMutability":"view","type":"function"},{"inputs":[],"name":"winningOutcome","outputs":[{"internalType":"enum ITruthMarket.Resolution","name":"","type":"uint8"}],"stateMutability":"view","type":"function"},{"inputs":[{"internalType":"enum ITruthMarket.Side","name":"side","type":"uint8"},{"internalType":"uint256","name":"amount","type":"uint256"}],"name":"withdraw","outputs":[],"stateMutability":"nonpayable","type":"function"}],"evm":{"bytecode":{"linkReferences":{},"object":"6080806040523461001b5760016000556116a590816100218239f35b600080fdfe6080604081815260048036101561001557600080fd5b600092833560e01c9081630556f114146112a95750806319effeb41461128757806324a9d853146112645780632810e1d614610e885780632efcb9ca14610e5c578063375b3c0a14610e3d5780633a6a983114610e1e5780633f48991414610cd157806340125b2c14610ca757806354fd4d5014610c885780635c25fd1314610c6b57806361d027b314610c425780637b10399914610c195780637b45606714610bf05780639b34ae0314610bc4578063a8427de014610688578063b0e21e8a14610669578063b7648fb914610587578063c038a38e14610517578063c19d93fb146104cd578063cd1b4079146104f8578063d8165743146104cd578063dcb3b30e14610344578063e27f3b34146103175763e88499a91461013657600080fd5b3461031357826003193601126103135761014e61145a565b60095460ff81169260028410156103005760018094036102f15733855260116020528085206003810180549460ff86166102e35760ff889560081c1690808210156102d0575087929190878103610256575086825480610214575b506002939495965b60ff191617905582815582868201550155816101f7575b519081527fec68461f5d4cc45c89e914cb8826a966c73dd35e5f97815ece0a01ffa4a025a660203392a2815580f35b825461020f90839033906001600160a01b03166114cb565b6101c8565b80965095600b5480610227575b506101a9565b6002959697509061024761023e61024d9383611541565b600c5490611554565b90611330565b95949338610221565b6002036102a757868083015480610274575b506002939495966101b1565b80965095600b5480610287575b50610268565b6002959697509061024761023e61029e9383611541565b95949338610281565b600292939450866102ca6102c084548386015490611330565b8585015490611330565b966101b1565b634e487b7160e01b895260219052602488fd5b8351630d70a0e360e41b8152fd5b5163174b639360e11b81529050fd5b634e487b7160e01b855260218352602485fd5b8280fd5b50503461034057816003193601126103405760015490516001600160a01b039091168152602090f35b5080fd5b50903461031357610354366112c5565b91909261035f61145a565b67ffffffffffffffff600654164210156104c05760085483106104b2576103878315156113b8565b60015482516323b872dd60e01b6020820152336024820152306044820152606480820186905281526103ca916001600160a01b03166103c58261136a565b6113f2565b33855260116020528185206003851015908161049f578561044b576103f0858254611330565b90556103fe84600e54611330565b600e555b6104385750519081527ff215ef04c159252edc72992d9f8410d9fe9c19508d547bb8d038f5a036954c5460203392a36001815580f35b634e487b7160e01b855260219052602484fd5b600091506001860361047b57600101610465858254611330565b905561047384600f54611330565b600f55610402565b600201610489858254611330565b905561049784601054611330565b601055610402565b634e487b7160e01b875260218352602487fd5b90516305dbe23b60e51b8152fd5b905162b5f6bf60e41b8152fd5b5050346103405781600319360112610340576104f49060ff6009541690519182918261131d565b0390f35b505034610340578160031936011261034057602090600b549051908152f35b5050346103405781600319360112610340576080918180516105388161139c565b828152826020820152015261054b61151d565b9081519061055f6020840192835190611330565b61056e82850191825190611330565b9282519451855251602085015251908301526060820152f35b5050346103405760209081600319360112610313578060809160a0946105ab611307565b818584516105b88161136a565b828152828982015282868201528260608201520152600180881b031681526011855220908051916105e88361136a565b805494858452600182015480828601526003600284015493848688015201549460ff80871615159687606084015260081c16151596879101526080845161062e8161136a565b888152838101928352858101948552606081019687520195865283519687525190860152519084015251151560608301525115156080820152f35b505034610340578160031936011261034057602090600d549051908152f35b5034610313576101e0366003190112610313576106a3611307565b6001600160a01b036024803582811690819003610bbf5760443594838616809603610bbf5760a4359367ffffffffffffffff90818616809603610bbf5760c4358281168103610bbf5760e4358381168103610bbf57610124359161ffff8316809303610bbb5760a036610143190112610bbb578b987ff0c57e16840df040f15088dc2f81fe391c3923bec73e23a9662efc9c229c6a009b8c549b8c9b888d169d8e159182610bac575b50506001809e149081610ba2575b159081610b99575b50610b895767ffffffffffffffff198c168d178e558b8f1c60ff16159b8791908f908e610b69575b5050168015610b33578915610b00578115610aca5742831115610a9857906fffffffffffffffff000000000000000092916bffffffffffffffffffffffff60a01b908160025416176002558d8b82825416179055600354161760035560643588556084356005556006549367ffffffffffffffff60801b9060801b169367ffffffffffffffff60c01b1617918d1b1617176006556101043560085561ffff1990816007541617600755600954166009556101843592610164359561084e8588611330565b9561085d6101a4358098611330565b90816108b6575b505050505050505050610875578380f35b7fc7f505b2f371ae2175ee4913f4499e1f2633a7b5936321eed1cdaeb6115181d29260209268ff000000000000000019815416905551908152a13880808380f35b846108bf611353565b1615610a65578c516370a0823160e01b815230858201526020968f9288908390879082905afa928315610a5a5792610a03575b5050106109ca57505090601191610907611353565b168a525286882092806109a8575b5080610983575b508061095d575b506101c435801515810361095957610943575b8080808080808080610864565b600301805461ff00191661010017905538610936565b8680fd5b61097a9060028301610970828254611330565b9055601054611330565b60105538610923565b61099f90858401610995828254611330565b9055600f54611330565b600f553861091c565b806109b76109c1928654611330565b8555600e54611330565b600e5538610915565b8a5162461bcd60e51b815291820184905260149082015273536565642062616c616e6365206d697373696e6760601b6044820152606490fd5b90915086903d8811610a52575b601f8201601f1916830190811183821017610a3e578e5281018190038613610a3a575138806108f2565b8d80fd5b84604187634e487b7160e01b600052526000fd5b3d9150610a10565b8f51903d90823e3d90fd5b8c5162461bcd60e51b8152602081860152600e818501526d536565646572206d697373696e6760901b6044820152606490fd5b8e5162461bcd60e51b81526020818b0152600d818d01526c10db1bdcd9481a5b881c185cdd609a1b6044820152606490fd5b8e5162461bcd60e51b81526020818b01526011818d015270151c99585cdd5c9e481c995c5d5a5c9959607a1b6044820152606490fd5b8e5162461bcd60e51b81526020818b0152600e818d01526d151bdad95b881c995c5d5a5c995960921b6044820152606490fd5b8e5162461bcd60e51b81526020818b01526011818d015270149959da5cdd1c9e481c995c5d5a5c9959607a1b6044820152606490fd5b68ffffffffffffffffff1916680100000000000000011790558e3861078a565b8e5163f92ee8a960e01b81528990fd5b90501538610762565b303b15915061075a565b60ff92501c16158f8d9061074c565b8c80fd5b600080fd5b505034610340578160031936011261034057602090610bee60ff60095460081c16915180926112e4565bf35b50503461034057816003193601126103405760209067ffffffffffffffff600654169051908152f35b50503461034057816003193601126103405760025490516001600160a01b039091168152602090f35b50503461034057816003193601126103405760035490516001600160a01b039091168152602090f35b503461031357826003193601126103135760209250549051908152f35b5050346103405781600319360112610340576020906005549051908152f35b5050346103405781600319360112610340576006548151911c67ffffffffffffffff168152602090f35b50903461031357610ce1366112c5565b919092610cec61145a565b67ffffffffffffffff600654164210156104c057610d0b8315156113b8565b338552601160205281852060ff600382015460081c16610e0f576003851015908161049f5785610dad57610d4c858254610d478282101561147d565b6114be565b9055610d5a84600e546114be565b600e555b600154610d7790859033906001600160a01b03166114cb565b6104385750519081527fb2b0c01dad6a2067fabbca7212261c363c9a7b141055c7c0732617f9659805ba60203392a36001815580f35b6000915060018603610de457600101610dce858254610d478282101561147d565b9055610ddc84600f546114be565b600f55610d5e565b600201610df9858254610d478282101561147d565b9055610e07846010546114be565b601055610d5e565b50905163209a769d60e11b8152fd5b505034610340578160031936011261034057602090600c549051908152f35b5050346103405781600319360112610340576020906008549051908152f35b50503461034057816003193601126103405760209067ffffffffffffffff60065460801c169051908152f35b50829034610340578160031936011261034057610ea361145a565b6009549260ff8416600281101561125157611245576006549167ffffffffffffffff8084841c168185160181811161123257811642106111fc57610ee561151d565b93845190610ef96020870192835190611330565b610f0886880191825190611330565b928891899389518015806111f3575b156111be575060039b5b888d10156111ab5761ffff191660088d901b61ff00161760019081176009556001600160c01b039091164260c01b6001600160c01b031916176006558a948594918d14801561119e575b61110e575b5050610f7b89611574565b9182600a557f5528b7e06f48a519cf814c4e5293ee2737c3f5c28d93e30cca112ac649fdd23560c08d8b8d51855190875192610fb9815180966112e4565b896020860152840152606083015260808201528660a0820152a18754956005549a5191519251938a519761012089018981108b8211176110fb578c528852602088019b8c528a8801966110e8578c9d879d999a9b9c9d52606088019081526080880191825260a0880192835260c0880193845260e08801948552610100880195865260018060a01b036002541696873b156110e4578c519d8e9962e29e5f60e41b8b52518d8b01525160248a01525160448901611075916112e4565b5160648801525160848701525160a48601525160c48501525160e48401525161010483015281835a9261012493f180156110da576110b6575b846001815580f35b83116110c7575052818080806110ae565b634e487b7160e01b845260419052602483fd5b83513d87823e3d90fd5b8980fd5b634e487b7160e01b8d5260218a5260248dfd5b634e487b7160e01b8f5260418c5260248ffd5b825161111991611330565b8015158061118f575b611143575b84611131916114be565b90600c55600b5582600d558b80610f70565b935061113161271061115b61ffff6007541687611541565b0480958161116c575b915050611127565b60015460035461118a9184916001600160a01b0390811691166114cb565b611164565b5061ffff600754161515611122565b508b955060028d14610f6b565b634e487b7160e01b8c526021895260248cfd5b83518181036111d157505060039b610f21565b94509b9450838c116000146111ea5760019b9394610f21565b60029b94610f21565b50835115610f17565b506020606492519162461bcd60e51b8352820152601060248201526f5265736f6c7574696f6e2064656c617960801b6044820152fd5b634e487b7160e01b865260118352602486fd5b5162b5f6bf60e41b8152fd5b634e487b7160e01b845260218352602484fd5b50503461034057816003193601126103405760209061ffff600754169051908152f35b50503461034057816003193601126103405760209060065460c01c9051908152f35b849034610340578160031936011261034057602090600a548152f35b6040906003190112610bbf576004356003811015610bbf579060243590565b9060048210156112f15752565b634e487b7160e01b600052602160045260246000fd5b600435906001600160a01b0382168203610bbf57565b9190602083019260028210156112f15752565b9190820180921161133d57565b634e487b7160e01b600052601160045260246000fd5b610144356001600160a01b0381168103610bbf5790565b60a0810190811067ffffffffffffffff82111761138657604052565b634e487b7160e01b600052604160045260246000fd5b6060810190811067ffffffffffffffff82111761138657604052565b156113bf57565b60405162461bcd60e51b815260206004820152600b60248201526a16995c9bc8185b5bdd5b9d60aa1b6044820152606490fd5b906000602091828151910182855af11561144e576000513d61144557506001600160a01b0381163b155b6114235750565b604051635274afe760e01b81526001600160a01b039091166004820152602490fd5b6001141561141c565b6040513d6000823e3d90fd5b60026000541461146b576002600055565b604051633ee5aeb560e01b8152600490fd5b1561148457565b60405162461bcd60e51b8152602060048201526012602482015271496e73756666696369656e74207374616b6560701b6044820152606490fd5b9190820391821161133d57565b60405163a9059cbb60e01b60208201526001600160a01b039092166024830152604480830193909352918152608081019167ffffffffffffffff8311828410176113865761151b926040526113f2565b565b6040519061152a8261139c565b600e548252600f5460208301526010546040830152565b8181029291811591840414171561133d57565b811561155e570490565b634e487b7160e01b600052601260045260246000fd5b8051906115936040602083015192015161158e8385611330565b611330565b9081156115c8578083146115c8576115bc92818111156115bf57906115b7916114be565b6115d0565b90565b6115b7916114be565b505050600090565b6127109160001983830992808302928380861095039480860395146116625784831115611649579082910981600003821680920460028082600302188083028203028083028203028083028203028083028203028083028203028092029003029360018380600003040190848311900302920304170290565b82634e487b71600052156003026011186020526024601cfd5b5050906115bc925061155456fea264697066735822122078d4c27d69adf279abf58124e0e9d71dc72e13cd341f8d32f60be38725e7bceb64736f6c63430008140033","opcodes":"PUSH1 0x80 DUP1 PUSH1 0x40 MSTORE CALLVALUE PUSH2 0x1B JUMPI PUSH1 0x1 PUSH1 0x0 SSTORE PUSH2 0x16A5 SWAP1 DUP2 PUSH2 0x21 DUP3 CODECOPY RETURN JUMPDEST PUSH1 0x0 DUP1 REVERT INVALID PUSH1 0x80 PUSH1 0x40 DUP2 DUP2 MSTORE PUSH1 0x4 DUP1 CALLDATASIZE LT ISZERO PUSH2 0x15 JUMPI PUSH1 0x0 DUP1 REVERT JUMPDEST PUSH1 0x0 SWAP3 DUP4 CALLDATALOAD PUSH1 0xE0 SHR SWAP1 DUP2 PUSH4 0x556F114 EQ PUSH2 0x12A9 JUMPI POP DUP1 PUSH4 0x19EFFEB4 EQ PUSH2 0x1287 JUMPI DUP1 PUSH4 0x24A9D853 EQ PUSH2 0x1264 JUMPI DUP1 PUSH4 0x2810E1D6 EQ PUSH2 0xE88 JUMPI DUP1 PUSH4 0x2EFCB9CA EQ PUSH2 0xE5C JUMPI DUP1 PUSH4 0x375B3C0A EQ PUSH2 0xE3D JUMPI DUP1 PUSH4 0x3A6A9831 EQ PUSH2 0xE1E JUMPI DUP1 PUSH4 0x3F489914 EQ PUSH2 0xCD1 JUMPI DUP1 PUSH4 0x40125B2C EQ PUSH2 0xCA7 JUMPI DUP1 PUSH4 0x54FD4D50 EQ PUSH2 0xC88 JUMPI DUP1 PUSH4 0x5C25FD13 EQ PUSH2 0xC6B JUMPI DUP1 PUSH4 0x61D027B3 EQ PUSH2 0xC42 JUMPI DUP1 PUSH4 0x7B103999 EQ PUSH2 0xC19 JUMPI DUP1 PUSH4 0x7B456067 EQ PUSH2 0xBF0 JUMPI DUP1 PUSH4 0x9B34AE03 EQ PUSH2 0xBC4 JUMPI DUP1 PUSH4 0xA8427DE0 EQ PUSH2 0x688 JUMPI DUP1 PUSH4 0xB0E21E8A EQ PUSH2 0x669 JUMPI DUP1 PUSH4 0xB7648FB9 EQ PUSH2 0x587 JUMPI DUP1 PUSH4 0xC038A38E EQ PUSH2 0x517 JUMPI DUP1 PUSH4 0xC19D93FB EQ PUSH2 0x4CD JUMPI DUP1 PUSH4 0xCD1B4079 EQ PUSH2 0x4F8 JUMPI DUP1 PUSH4 0xD8165743 EQ PUSH2 0x4CD JUMPI DUP1 PUSH4 0xDCB3B30E EQ PUSH2 0x344 JUMPI DUP1 PUSH4 0xE27F3B34 EQ PUSH2 0x317 JUMPI PUSH4 0xE88499A9 EQ PUSH2 0x136 JUMPI PUSH1 0x0 DUP1 REVERT JUMPDEST CALLVALUE PUSH2 0x313 JUMPI DUP3 PUSH1 0x3 NOT CALLDATASIZE ADD SLT PUSH2 0x313 JUMPI PUSH2 0x14E PUSH2 0x145A JUMP JUMPDEST PUSH1 0x9 SLOAD PUSH1 0xFF DUP2 AND SWAP3 PUSH1 0x2 DUP5 LT ISZERO PUSH2 0x300 JUMPI PUSH1 0x1 DUP1 SWAP5 SUB PUSH2 0x2F1 JUMPI CALLER DUP6 MSTORE PUSH1 0x11 PUSH1 0x20 MSTORE DUP1 DUP6 KECCAK256 PUSH1 0x3 DUP2 ADD DUP1 SLOAD SWAP5 PUSH1 0xFF DUP7 AND PUSH2 0x2E3 JUMPI PUSH1 0xFF DUP9 SWAP6 PUSH1 0x8 SHR AND SWAP1 DUP1 DUP3 LT ISZERO PUSH2 0x2D0 JUMPI POP DUP8 SWAP3 SWAP2 SWAP1 DUP8 DUP2 SUB PUSH2 0x256 JUMPI POP DUP7 DUP3 SLOAD DUP1 PUSH2 0x214 JUMPI JUMPDEST POP PUSH1 0x2 SWAP4 SWAP5 SWAP6 SWAP7 JUMPDEST PUSH1 0xFF NOT AND OR SWAP1 SSTORE DUP3 DUP2 SSTORE DUP3 DUP7 DUP3 ADD SSTORE ADD SSTORE DUP2 PUSH2 0x1F7 JUMPI JUMPDEST MLOAD SWAP1 DUP2 MSTORE PUSH32 0xEC68461F5D4CC45C89E914CB8826A966C73DD35E5F97815ECE0A01FFA4A025A6 PUSH1 0x20 CALLER SWAP3 LOG2 DUP2 SSTORE DUP1 RETURN JUMPDEST DUP3 SLOAD PUSH2 0x20F SWAP1 DUP4 SWAP1 CALLER SWAP1 PUSH1 0x1 PUSH1 0x1 PUSH1 0xA0 SHL SUB AND PUSH2 0x14CB JUMP JUMPDEST PUSH2 0x1C8 JUMP JUMPDEST DUP1 SWAP7 POP SWAP6 PUSH1 0xB SLOAD DUP1 PUSH2 0x227 JUMPI JUMPDEST POP PUSH2 0x1A9 JUMP JUMPDEST PUSH1 0x2 SWAP6 SWAP7 SWAP8 POP SWAP1 PUSH2 0x247 PUSH2 0x23E PUSH2 0x24D SWAP4 DUP4 PUSH2 0x1541 JUMP JUMPDEST PUSH1 0xC SLOAD SWAP1 PUSH2 0x1554 JUMP JUMPDEST SWAP1 PUSH2 0x1330 JUMP JUMPDEST SWAP6 SWAP5 SWAP4 CODESIZE PUSH2 0x221 JUMP JUMPDEST PUSH1 0x2 SUB PUSH2 0x2A7 JUMPI DUP7 DUP1 DUP4 ADD SLOAD DUP1 PUSH2 0x274 JUMPI JUMPDEST POP PUSH1 0x2 SWAP4 SWAP5 SWAP6 SWAP7 PUSH2 0x1B1 JUMP JUMPDEST DUP1 SWAP7 POP SWAP6 PUSH1 0xB SLOAD DUP1 PUSH2 0x287 JUMPI JUMPDEST POP PUSH2 0x268 JUMP JUMPDEST PUSH1 0x2 SWAP6 SWAP7 SWAP8 POP SWAP1 PUSH2 0x247 PUSH2 0x23E PUSH2 0x29E SWAP4 DUP4 PUSH2 0x1541 JUMP JUMPDEST SWAP6 SWAP5 SWAP4 CODESIZE PUSH2 0x281 JUMP JUMPDEST PUSH1 0x2 SWAP3 SWAP4 SWAP5 POP DUP7 PUSH2 0x2CA PUSH2 0x2C0 DUP5 SLOAD DUP4 DUP7 ADD SLOAD SWAP1 PUSH2 0x1330 JUMP JUMPDEST DUP6 DUP6 ADD SLOAD SWAP1 PUSH2 0x1330 JUMP JUMPDEST SWAP7 PUSH2 0x1B1 JUMP JUMPDEST PUSH4 0x4E487B71 PUSH1 0xE0 SHL DUP10 MSTORE PUSH1 0x21 SWAP1 MSTORE PUSH1 0x24 DUP9 REVERT JUMPDEST DUP4 MLOAD PUSH4 0xD70A0E3 PUSH1 0xE4 SHL DUP2 MSTORE REVERT JUMPDEST MLOAD PUSH4 0x174B6393 PUSH1 0xE1 SHL DUP2 MSTORE SWAP1 POP REVERT JUMPDEST PUSH4 0x4E487B71 PUSH1 0xE0 SHL DUP6 MSTORE PUSH1 0x21 DUP4 MSTORE PUSH1 0x24 DUP6 REVERT JUMPDEST DUP3 DUP1 REVERT JUMPDEST POP POP CALLVALUE PUSH2 0x340 JUMPI DUP2 PUSH1 0x3 NOT CALLDATASIZE ADD SLT PUSH2 0x340 JUMPI PUSH1 0x1 SLOAD SWAP1 MLOAD PUSH1 0x1 PUSH1 0x1 PUSH1 0xA0 SHL SUB SWAP1 SWAP2 AND DUP2 MSTORE PUSH1 0x20 SWAP1 RETURN JUMPDEST POP DUP1 REVERT JUMPDEST POP SWAP1 CALLVALUE PUSH2 0x313 JUMPI PUSH2 0x354 CALLDATASIZE PUSH2 0x12C5 JUMP JUMPDEST SWAP2 SWAP1 SWAP3 PUSH2 0x35F PUSH2 0x145A JUMP JUMPDEST PUSH8 0xFFFFFFFFFFFFFFFF PUSH1 0x6 SLOAD AND TIMESTAMP LT ISZERO PUSH2 0x4C0 JUMPI PUSH1 0x8 SLOAD DUP4 LT PUSH2 0x4B2 JUMPI PUSH2 0x387 DUP4 ISZERO ISZERO PUSH2 0x13B8 JUMP JUMPDEST PUSH1 0x1 SLOAD DUP3 MLOAD PUSH4 0x23B872DD PUSH1 0xE0 SHL PUSH1 0x20 DUP3 ADD MSTORE CALLER PUSH1 0x24 DUP3 ADD MSTORE ADDRESS PUSH1 0x44 DUP3 ADD MSTORE PUSH1 0x64 DUP1 DUP3 ADD DUP7 SWAP1 MSTORE DUP2 MSTORE PUSH2 0x3CA SWAP2 PUSH1 0x1 PUSH1 0x1 PUSH1 0xA0 SHL SUB AND PUSH2 0x3C5 DUP3 PUSH2 0x136A JUMP JUMPDEST PUSH2 0x13F2 JUMP JUMPDEST CALLER DUP6 MSTORE PUSH1 0x11 PUSH1 0x20 MSTORE DUP2 DUP6 KECCAK256 PUSH1 0x3 DUP6 LT ISZERO SWAP1 DUP2 PUSH2 0x49F JUMPI DUP6 PUSH2 0x44B JUMPI PUSH2 0x3F0 DUP6 DUP3 SLOAD PUSH2 0x1330 JUMP JUMPDEST SWAP1 SSTORE PUSH2 0x3FE DUP5 PUSH1 0xE SLOAD PUSH2 0x1330 JUMP JUMPDEST PUSH1 0xE SSTORE JUMPDEST PUSH2 0x438 JUMPI POP MLOAD SWAP1 DUP2 MSTORE PUSH32 0xF215EF04C159252EDC72992D9F8410D9FE9C19508D547BB8D038F5A036954C54 PUSH1 0x20 CALLER SWAP3 LOG3 PUSH1 0x1 DUP2 SSTORE DUP1 RETURN JUMPDEST PUSH4 0x4E487B71 PUSH1 0xE0 SHL DUP6 MSTORE PUSH1 0x21 SWAP1 MSTORE PUSH1 0x24 DUP5 REVERT JUMPDEST PUSH1 0x0 SWAP2 POP PUSH1 0x1 DUP7 SUB PUSH2 0x47B JUMPI PUSH1 0x1 ADD PUSH2 0x465 DUP6 DUP3 SLOAD PUSH2 0x1330 JUMP JUMPDEST SWAP1 SSTORE PUSH2 0x473 DUP5 PUSH1 0xF SLOAD PUSH2 0x1330 JUMP JUMPDEST PUSH1 0xF SSTORE PUSH2 0x402 JUMP JUMPDEST PUSH1 0x2 ADD PUSH2 0x489 DUP6 DUP3 SLOAD PUSH2 0x1330 JUMP JUMPDEST SWAP1 SSTORE PUSH2 0x497 DUP5 PUSH1 0x10 SLOAD PUSH2 0x1330 JUMP JUMPDEST PUSH1 0x10 SSTORE PUSH2 0x402 JUMP JUMPDEST PUSH4 0x4E487B71 PUSH1 0xE0 SHL DUP8 MSTORE PUSH1 0x21 DUP4 MSTORE PUSH1 0x24 DUP8 REVERT JUMPDEST SWAP1 MLOAD PUSH4 0x5DBE23B PUSH1 0xE5 SHL DUP2 MSTORE REVERT JUMPDEST SWAP1 MLOAD PUSH3 0xB5F6BF PUSH1 0xE4 SHL DUP2 MSTORE REVERT JUMPDEST POP POP CALLVALUE PUSH2 0x340 JUMPI DUP2 PUSH1 0x3 NOT CALLDATASIZE ADD SLT PUSH2 0x340 JUMPI PUSH2 0x4F4 SWAP1 PUSH1 0xFF PUSH1 0x9 SLOAD AND SWAP1 MLOAD SWAP2 DUP3 SWAP2 DUP3 PUSH2 0x131D JUMP JUMPDEST SUB SWAP1 RETURN JUMPDEST POP POP CALLVALUE PUSH2 0x340 JUMPI DUP2 PUSH1 0x3 NOT CALLDATASIZE ADD SLT PUSH2 0x340 JUMPI PUSH1 0x20 SWAP1 PUSH1 0xB SLOAD SWAP1 MLOAD SWAP1 DUP2 MSTORE RETURN JUMPDEST POP POP CALLVALUE PUSH2 0x340 JUMPI DUP2 PUSH1 0x3 NOT CALLDATASIZE ADD SLT PUSH2 0x340 JUMPI PUSH1 0x80 SWAP2 DUP2 DUP1 MLOAD PUSH2 0x538 DUP2 PUSH2 0x139C JUMP JUMPDEST DUP3 DUP2 MSTORE DUP3 PUSH1 0x20 DUP3 ADD MSTORE ADD MSTORE PUSH2 0x54B PUSH2 0x151D JUMP JUMPDEST SWAP1 DUP2 MLOAD SWAP1 PUSH2 0x55F PUSH1 0x20 DUP5 ADD SWAP3 DUP4 MLOAD SWAP1 PUSH2 0x1330 JUMP JUMPDEST PUSH2 0x56E DUP3 DUP6 ADD SWAP2 DUP3 MLOAD SWAP1 PUSH2 0x1330 JUMP JUMPDEST SWAP3 DUP3 MLOAD SWAP5 MLOAD DUP6 MSTORE MLOAD PUSH1 0x20 DUP6 ADD MSTORE MLOAD SWAP1 DUP4 ADD MSTORE PUSH1 0x60 DUP3 ADD MSTORE RETURN JUMPDEST POP POP CALLVALUE PUSH2 0x340 JUMPI PUSH1 0x20 SWAP1 DUP2 PUSH1 0x3 NOT CALLDATASIZE ADD SLT PUSH2 0x313 JUMPI DUP1 PUSH1 0x80 SWAP2 PUSH1 0xA0 SWAP5 PUSH2 0x5AB PUSH2 0x1307 JUMP JUMPDEST DUP2 DUP6 DUP5 MLOAD PUSH2 0x5B8 DUP2 PUSH2 0x136A JUMP JUMPDEST DUP3 DUP2 MSTORE DUP3 DUP10 DUP3 ADD MSTORE DUP3 DUP7 DUP3 ADD MSTORE DUP3 PUSH1 0x60 DUP3 ADD MSTORE ADD MSTORE PUSH1 0x1 DUP1 DUP9 SHL SUB AND DUP2 MSTORE PUSH1 0x11 DUP6 MSTORE KECCAK256 SWAP1 DUP1 MLOAD SWAP2 PUSH2 0x5E8 DUP4 PUSH2 0x136A JUMP JUMPDEST DUP1 SLOAD SWAP5 DUP6 DUP5 MSTORE PUSH1 0x1 DUP3 ADD SLOAD DUP1 DUP3 DUP7 ADD MSTORE PUSH1 0x3 PUSH1 0x2 DUP5 ADD SLOAD SWAP4 DUP5 DUP7 DUP9 ADD MSTORE ADD SLOAD SWAP5 PUSH1 0xFF DUP1 DUP8 AND ISZERO ISZERO SWAP7 DUP8 PUSH1 0x60 DUP5 ADD MSTORE PUSH1 0x8 SHR AND ISZERO ISZERO SWAP7 DUP8 SWAP2 ADD MSTORE PUSH1 0x80 DUP5 MLOAD PUSH2 0x62E DUP2 PUSH2 0x136A JUMP JUMPDEST DUP9 DUP2 MSTORE DUP4 DUP2 ADD SWAP3 DUP4 MSTORE DUP6 DUP2 ADD SWAP5 DUP6 MSTORE PUSH1 0x60 DUP2 ADD SWAP7 DUP8 MSTORE ADD SWAP6 DUP7 MSTORE DUP4 MLOAD SWAP7 DUP8 MSTORE MLOAD SWAP1 DUP7 ADD MSTORE MLOAD SWAP1 DUP5 ADD MSTORE MLOAD ISZERO ISZERO PUSH1 0x60 DUP4 ADD MSTORE MLOAD ISZERO ISZERO PUSH1 0x80 DUP3 ADD MSTORE RETURN JUMPDEST POP POP CALLVALUE PUSH2 0x340 JUMPI DUP2 PUSH1 0x3 NOT CALLDATASIZE ADD SLT PUSH2 0x340 JUMPI PUSH1 0x20 SWAP1 PUSH1 0xD SLOAD SWAP1 MLOAD SWAP1 DUP2 MSTORE RETURN JUMPDEST POP CALLVALUE PUSH2 0x313 JUMPI PUSH2 0x1E0 CALLDATASIZE PUSH1 0x3 NOT ADD SLT PUSH2 0x313 JUMPI PUSH2 0x6A3 PUSH2 0x1307 JUMP JUMPDEST PUSH1 0x1 PUSH1 0x1 PUSH1 0xA0 SHL SUB PUSH1 0x24 DUP1 CALLDATALOAD DUP3 DUP2 AND SWAP1 DUP2 SWAP1 SUB PUSH2 0xBBF JUMPI PUSH1 0x44 CALLDATALOAD SWAP5 DUP4 DUP7 AND DUP1 SWAP7 SUB PUSH2 0xBBF JUMPI PUSH1 0xA4 CALLDATALOAD SWAP4 PUSH8 0xFFFFFFFFFFFFFFFF SWAP1 DUP2 DUP7 AND DUP1 SWAP7 SUB PUSH2 0xBBF JUMPI PUSH1 0xC4 CALLDATALOAD DUP3 DUP2 AND DUP2 SUB PUSH2 0xBBF JUMPI PUSH1 0xE4 CALLDATALOAD DUP4 DUP2 AND DUP2 SUB PUSH2 0xBBF JUMPI PUSH2 0x124 CALLDATALOAD SWAP2 PUSH2 0xFFFF DUP4 AND DUP1 SWAP4 SUB PUSH2 0xBBB JUMPI PUSH1 0xA0 CALLDATASIZE PUSH2 0x143 NOT ADD SLT PUSH2 0xBBB JUMPI DUP12 SWAP9 PUSH32 0xF0C57E16840DF040F15088DC2F81FE391C3923BEC73E23A9662EFC9C229C6A00 SWAP12 DUP13 SLOAD SWAP12 DUP13 SWAP12 DUP9 DUP14 AND SWAP14 DUP15 ISZERO SWAP2 DUP3 PUSH2 0xBAC JUMPI JUMPDEST POP POP PUSH1 0x1 DUP1 SWAP15 EQ SWAP1 DUP2 PUSH2 0xBA2 JUMPI JUMPDEST ISZERO SWAP1 DUP2 PUSH2 0xB99 JUMPI JUMPDEST POP PUSH2 0xB89 JUMPI PUSH8 0xFFFFFFFFFFFFFFFF NOT DUP13 AND DUP14 OR DUP15 SSTORE DUP12 DUP16 SHR PUSH1 0xFF AND ISZERO SWAP12 DUP8 SWAP2 SWAP1 DUP16 SWAP1 DUP15 PUSH2 0xB69 JUMPI JUMPDEST POP POP AND DUP1 ISZERO PUSH2 0xB33 JUMPI DUP10 ISZERO PUSH2 0xB00 JUMPI DUP2 ISZERO PUSH2 0xACA JUMPI TIMESTAMP DUP4 GT ISZERO PUSH2 0xA98 JUMPI SWAP1 PUSH16 0xFFFFFFFFFFFFFFFF0000000000000000 SWAP3 SWAP2 PUSH12 0xFFFFFFFFFFFFFFFFFFFFFFFF PUSH1 0xA0 SHL SWAP1 DUP2 PUSH1 0x2 SLOAD AND OR PUSH1 0x2 SSTORE DUP14 DUP12 DUP3 DUP3 SLOAD AND OR SWAP1 SSTORE PUSH1 0x3 SLOAD AND OR PUSH1 0x3 SSTORE PUSH1 0x64 CALLDATALOAD DUP9 SSTORE PUSH1 0x84 CALLDATALOAD PUSH1 0x5 SSTORE PUSH1 0x6 SLOAD SWAP4 PUSH8 0xFFFFFFFFFFFFFFFF PUSH1 0x80 SHL SWAP1 PUSH1 0x80 SHL AND SWAP4 PUSH8 0xFFFFFFFFFFFFFFFF PUSH1 0xC0 SHL AND OR SWAP2 DUP14 SHL AND OR OR PUSH1 0x6 SSTORE PUSH2 0x104 CALLDATALOAD PUSH1 0x8 SSTORE PUSH2 0xFFFF NOT SWAP1 DUP2 PUSH1 0x7 SLOAD AND OR PUSH1 0x7 SSTORE PUSH1 0x9 SLOAD AND PUSH1 0x9 SSTORE PUSH2 0x184 CALLDATALOAD SWAP3 PUSH2 0x164 CALLDATALOAD SWAP6 PUSH2 0x84E DUP6 DUP9 PUSH2 0x1330 JUMP JUMPDEST SWAP6 PUSH2 0x85D PUSH2 0x1A4 CALLDATALOAD DUP1 SWAP9 PUSH2 0x1330 JUMP JUMPDEST SWAP1 DUP2 PUSH2 0x8B6 JUMPI JUMPDEST POP POP POP POP POP POP POP POP POP PUSH2 0x875 JUMPI DUP4 DUP1 RETURN JUMPDEST PUSH32 0xC7F505B2F371AE2175EE4913F4499E1F2633A7B5936321EED1CDAEB6115181D2 SWAP3 PUSH1 0x20 SWAP3 PUSH9 0xFF0000000000000000 NOT DUP2 SLOAD AND SWAP1 SSTORE MLOAD SWAP1 DUP2 MSTORE LOG1 CODESIZE DUP1 DUP1 DUP4 DUP1 RETURN JUMPDEST DUP5 PUSH2 0x8BF PUSH2 0x1353 JUMP JUMPDEST AND ISZERO PUSH2 0xA65 JUMPI DUP13 MLOAD PUSH4 0x70A08231 PUSH1 0xE0 SHL DUP2 MSTORE ADDRESS DUP6 DUP3 ADD MSTORE PUSH1 0x20 SWAP7 DUP16 SWAP3 DUP9 SWAP1 DUP4 SWAP1 DUP8 SWAP1 DUP3 SWAP1 GAS STATICCALL SWAP3 DUP4 ISZERO PUSH2 0xA5A JUMPI SWAP3 PUSH2 0xA03 JUMPI JUMPDEST POP POP LT PUSH2 0x9CA JUMPI POP POP SWAP1 PUSH1 0x11 SWAP2 PUSH2 0x907 PUSH2 0x1353 JUMP JUMPDEST AND DUP11 MSTORE MSTORE DUP7 DUP9 KECCAK256 SWAP3 DUP1 PUSH2 0x9A8 JUMPI JUMPDEST POP DUP1 PUSH2 0x983 JUMPI JUMPDEST POP DUP1 PUSH2 0x95D JUMPI JUMPDEST POP PUSH2 0x1C4 CALLDATALOAD DUP1 ISZERO ISZERO DUP2 SUB PUSH2 0x959 JUMPI PUSH2 0x943 JUMPI JUMPDEST DUP1 DUP1 DUP1 DUP1 DUP1 DUP1 DUP1 DUP1 PUSH2 0x864 JUMP JUMPDEST PUSH1 0x3 ADD DUP1 SLOAD PUSH2 0xFF00 NOT AND PUSH2 0x100 OR SWAP1 SSTORE CODESIZE PUSH2 0x936 JUMP JUMPDEST DUP7 DUP1 REVERT JUMPDEST PUSH2 0x97A SWAP1 PUSH1 0x2 DUP4 ADD PUSH2 0x970 DUP3 DUP3 SLOAD PUSH2 0x1330 JUMP JUMPDEST SWAP1 SSTORE PUSH1 0x10 SLOAD PUSH2 0x1330 JUMP JUMPDEST PUSH1 0x10 SSTORE CODESIZE PUSH2 0x923 JUMP JUMPDEST PUSH2 0x99F SWAP1 DUP6 DUP5 ADD PUSH2 0x995 DUP3 DUP3 SLOAD PUSH2 0x1330 JUMP JUMPDEST SWAP1 SSTORE PUSH1 0xF SLOAD PUSH2 0x1330 JUMP JUMPDEST PUSH1 0xF SSTORE CODESIZE PUSH2 0x91C JUMP JUMPDEST DUP1 PUSH2 0x9B7 PUSH2 0x9C1 SWAP3 DUP7 SLOAD PUSH2 0x1330 JUMP JUMPDEST DUP6 SSTORE PUSH1 0xE SLOAD PUSH2 0x1330 JUMP JUMPDEST PUSH1 0xE SSTORE CODESIZE PUSH2 0x915 JUMP JUMPDEST DUP11 MLOAD PUSH3 0x461BCD PUSH1 0xE5 SHL DUP2 MSTORE SWAP2 DUP3 ADD DUP5 SWAP1 MSTORE PUSH1 0x14 SWAP1 DUP3 ADD MSTORE PUSH20 0x536565642062616C616E6365206D697373696E67 PUSH1 0x60 SHL PUSH1 0x44 DUP3 ADD MSTORE PUSH1 0x64 SWAP1 REVERT JUMPDEST SWAP1 SWAP2 POP DUP7 SWAP1 RETURNDATASIZE DUP9 GT PUSH2 0xA52 JUMPI JUMPDEST PUSH1 0x1F DUP3 ADD PUSH1 0x1F NOT AND DUP4 ADD SWAP1 DUP2 GT DUP4 DUP3 LT OR PUSH2 0xA3E JUMPI DUP15 MSTORE DUP2 ADD DUP2 SWAP1 SUB DUP7 SGT PUSH2 0xA3A JUMPI MLOAD CODESIZE DUP1 PUSH2 0x8F2 JUMP JUMPDEST DUP14 DUP1 REVERT JUMPDEST DUP5 PUSH1 0x41 DUP8 PUSH4 0x4E487B71 PUSH1 0xE0 SHL PUSH1 0x0 MSTORE MSTORE PUSH1 0x0 REVERT JUMPDEST RETURNDATASIZE SWAP2 POP PUSH2 0xA10 JUMP JUMPDEST DUP16 MLOAD SWAP1 RETURNDATASIZE SWAP1 DUP3 RETURNDATACOPY RETURNDATASIZE SWAP1 REVERT JUMPDEST DUP13 MLOAD PUSH3 0x461BCD PUSH1 0xE5 SHL DUP2 MSTORE PUSH1 0x20 DUP2 DUP7 ADD MSTORE PUSH1 0xE DUP2 DUP6 ADD MSTORE PUSH14 0x536565646572206D697373696E67 PUSH1 0x90 SHL PUSH1 0x44 DUP3 ADD MSTORE PUSH1 0x64 SWAP1 REVERT JUMPDEST DUP15 MLOAD PUSH3 0x461BCD PUSH1 0xE5 SHL DUP2 MSTORE PUSH1 0x20 DUP2 DUP12 ADD MSTORE PUSH1 0xD DUP2 DUP14 ADD MSTORE PUSH13 0x10DB1BDCD9481A5B881C185CDD PUSH1 0x9A SHL PUSH1 0x44 DUP3 ADD MSTORE PUSH1 0x64 SWAP1 REVERT JUMPDEST DUP15 MLOAD PUSH3 0x461BCD PUSH1 0xE5 SHL DUP2 MSTORE PUSH1 0x20 DUP2 DUP12 ADD MSTORE PUSH1 0x11 DUP2 DUP14 ADD MSTORE PUSH17 0x151C99585CDD5C9E481C995C5D5A5C9959 PUSH1 0x7A SHL PUSH1 0x44 DUP3 ADD MSTORE PUSH1 0x64 SWAP1 REVERT JUMPDEST DUP15 MLOAD PUSH3 0x461BCD PUSH1 0xE5 SHL DUP2 MSTORE PUSH1 0x20 DUP2 DUP12 ADD MSTORE PUSH1 0xE DUP2 DUP14 ADD MSTORE PUSH14 0x151BDAD95B881C995C5D5A5C9959 PUSH1 0x92 SHL PUSH1 0x44 DUP3 ADD MSTORE PUSH1 0x64 SWAP1 REVERT JUMPDEST DUP15 MLOAD PUSH3 0x461BCD PUSH1 0xE5 SHL DUP2 MSTORE PUSH1 0x20 DUP2 DUP12 ADD MSTORE PUSH1 0x11 DUP2 DUP14 ADD MSTORE PUSH17 0x149959DA5CDD1C9E481C995C5D5A5C9959 PUSH1 0x7A SHL PUSH1 0x44 DUP3 ADD MSTORE PUSH1 0x64 SWAP1 REVERT JUMPDEST PUSH9 0xFFFFFFFFFFFFFFFFFF NOT AND PUSH9 0x10000000000000001 OR SWAP1 SSTORE DUP15 CODESIZE PUSH2 0x78A JUMP JUMPDEST DUP15 MLOAD PUSH4 0xF92EE8A9 PUSH1 0xE0 SHL DUP2 MSTORE DUP10 SWAP1 REVERT JUMPDEST SWAP1 POP ISZERO CODESIZE PUSH2 0x762 JUMP JUMPDEST ADDRESS EXTCODESIZE ISZERO SWAP2 POP PUSH2 0x75A JUMP JUMPDEST PUSH1 0xFF SWAP3 POP SHR AND ISZERO DUP16 DUP14 SWAP1 PUSH2 0x74C JUMP JUMPDEST DUP13 DUP1 REVERT JUMPDEST PUSH1 0x0 DUP1 REVERT JUMPDEST POP POP CALLVALUE PUSH2 0x340 JUMPI DUP2 PUSH1 0x3 NOT CALLDATASIZE ADD SLT PUSH2 0x340 JUMPI PUSH1 0x20 SWAP1 PUSH2 0xBEE PUSH1 0xFF PUSH1 0x9 SLOAD PUSH1 0x8 SHR AND SWAP2 MLOAD DUP1 SWAP3 PUSH2 0x12E4 JUMP JUMPDEST RETURN JUMPDEST POP POP CALLVALUE PUSH2 0x340 JUMPI DUP2 PUSH1 0x3 NOT CALLDATASIZE ADD SLT PUSH2 0x340 JUMPI PUSH1 0x20 SWAP1 PUSH8 0xFFFFFFFFFFFFFFFF PUSH1 0x6 SLOAD AND SWAP1 MLOAD SWAP1 DUP2 MSTORE RETURN JUMPDEST POP POP CALLVALUE PUSH2 0x340 JUMPI DUP2 PUSH1 0x3 NOT CALLDATASIZE ADD SLT PUSH2 0x340 JUMPI PUSH1 0x2 SLOAD SWAP1 MLOAD PUSH1 0x1 PUSH1 0x1 PUSH1 0xA0 SHL SUB SWAP1 SWAP2 AND DUP2 MSTORE PUSH1 0x20 SWAP1 RETURN JUMPDEST POP POP CALLVALUE PUSH2 0x340 JUMPI DUP2 PUSH1 0x3 NOT CALLDATASIZE ADD SLT PUSH2 0x340 JUMPI PUSH1 0x3 SLOAD SWAP1 MLOAD PUSH1 0x1 PUSH1 0x1 PUSH1 0xA0 SHL SUB SWAP1 SWAP2 AND DUP2 MSTORE PUSH1 0x20 SWAP1 RETURN JUMPDEST POP CALLVALUE PUSH2 0x313 JUMPI DUP3 PUSH1 0x3 NOT CALLDATASIZE ADD SLT PUSH2 0x313 JUMPI PUSH1 0x20 SWAP3 POP SLOAD SWAP1 MLOAD SWAP1 DUP2 MSTORE RETURN JUMPDEST POP POP CALLVALUE PUSH2 0x340 JUMPI DUP2 PUSH1 0x3 NOT CALLDATASIZE ADD SLT PUSH2 0x340 JUMPI PUSH1 0x20 SWAP1 PUSH1 0x5 SLOAD SWAP1 MLOAD SWAP1 DUP2 MSTORE RETURN JUMPDEST POP POP CALLVALUE PUSH2 0x340 JUMPI DUP2 PUSH1 0x3 NOT CALLDATASIZE ADD SLT PUSH2 0x340 JUMPI PUSH1 0x6 SLOAD DUP2 MLOAD SWAP2 SHR PUSH8 0xFFFFFFFFFFFFFFFF AND DUP2 MSTORE PUSH1 0x20 SWAP1 RETURN JUMPDEST POP SWAP1 CALLVALUE PUSH2 0x313 JUMPI PUSH2 0xCE1 CALLDATASIZE PUSH2 0x12C5 JUMP JUMPDEST SWAP2 SWAP1 SWAP3 PUSH2 0xCEC PUSH2 0x145A JUMP JUMPDEST PUSH8 0xFFFFFFFFFFFFFFFF PUSH1 0x6 SLOAD AND TIMESTAMP LT ISZERO PUSH2 0x4C0 JUMPI PUSH2 0xD0B DUP4 ISZERO ISZERO PUSH2 0x13B8 JUMP JUMPDEST CALLER DUP6 MSTORE PUSH1 0x11 PUSH1 0x20 MSTORE DUP2 DUP6 KECCAK256 PUSH1 0xFF PUSH1 0x3 DUP3 ADD SLOAD PUSH1 0x8 SHR AND PUSH2 0xE0F JUMPI PUSH1 0x3 DUP6 LT ISZERO SWAP1 DUP2 PUSH2 0x49F JUMPI DUP6 PUSH2 0xDAD JUMPI PUSH2 0xD4C DUP6 DUP3 SLOAD PUSH2 0xD47 DUP3 DUP3 LT ISZERO PUSH2 0x147D JUMP JUMPDEST PUSH2 0x14BE JUMP JUMPDEST SWAP1 SSTORE PUSH2 0xD5A DUP5 PUSH1 0xE SLOAD PUSH2 0x14BE JUMP JUMPDEST PUSH1 0xE SSTORE JUMPDEST PUSH1 0x1 SLOAD PUSH2 0xD77 SWAP1 DUP6 SWAP1 CALLER SWAP1 PUSH1 0x1 PUSH1 0x1 PUSH1 0xA0 SHL SUB AND PUSH2 0x14CB JUMP JUMPDEST PUSH2 0x438 JUMPI POP MLOAD SWAP1 DUP2 MSTORE PUSH32 0xB2B0C01DAD6A2067FABBCA7212261C363C9A7B141055C7C0732617F9659805BA PUSH1 0x20 CALLER SWAP3 LOG3 PUSH1 0x1 DUP2 SSTORE DUP1 RETURN JUMPDEST PUSH1 0x0 SWAP2 POP PUSH1 0x1 DUP7 SUB PUSH2 0xDE4 JUMPI PUSH1 0x1 ADD PUSH2 0xDCE DUP6 DUP3 SLOAD PUSH2 0xD47 DUP3 DUP3 LT ISZERO PUSH2 0x147D JUMP JUMPDEST SWAP1 SSTORE PUSH2 0xDDC DUP5 PUSH1 0xF SLOAD PUSH2 0x14BE JUMP JUMPDEST PUSH1 0xF SSTORE PUSH2 0xD5E JUMP JUMPDEST PUSH1 0x2 ADD PUSH2 0xDF9 DUP6 DUP3 SLOAD PUSH2 0xD47 DUP3 DUP3 LT ISZERO PUSH2 0x147D JUMP JUMPDEST SWAP1 SSTORE PUSH2 0xE07 DUP5 PUSH1 0x10 SLOAD PUSH2 0x14BE JUMP JUMPDEST PUSH1 0x10 SSTORE PUSH2 0xD5E JUMP JUMPDEST POP SWAP1 MLOAD PUSH4 0x209A769D PUSH1 0xE1 SHL DUP2 MSTORE REVERT JUMPDEST POP POP CALLVALUE PUSH2 0x340 JUMPI DUP2 PUSH1 0x3 NOT CALLDATASIZE ADD SLT PUSH2 0x340 JUMPI PUSH1 0x20 SWAP1 PUSH1 0xC SLOAD SWAP1 MLOAD SWAP1 DUP2 MSTORE RETURN JUMPDEST POP POP CALLVALUE PUSH2 0x340 JUMPI DUP2 PUSH1 0x3 NOT CALLDATASIZE ADD SLT PUSH2 0x340 JUMPI PUSH1 0x20 SWAP1 PUSH1 0x8 SLOAD SWAP1 MLOAD SWAP1 DUP2 MSTORE RETURN JUMPDEST POP POP CALLVALUE PUSH2 0x340 JUMPI DUP2 PUSH1 0x3 NOT CALLDATASIZE ADD SLT PUSH2 0x340 JUMPI PUSH1 0x20 SWAP1 PUSH8 0xFFFFFFFFFFFFFFFF PUSH1 0x6 SLOAD PUSH1 0x80 SHR AND SWAP1 MLOAD SWAP1 DUP2 MSTORE RETURN JUMPDEST POP DUP3 SWAP1 CALLVALUE PUSH2 0x340 JUMPI DUP2 PUSH1 0x3 NOT CALLDATASIZE ADD SLT PUSH2 0x340 JUMPI PUSH2 0xEA3 PUSH2 0x145A JUMP JUMPDEST PUSH1 0x9 SLOAD SWAP3 PUSH1 0xFF DUP5 AND PUSH1 0x2 DUP2 LT ISZERO PUSH2 0x1251 JUMPI PUSH2 0x1245 JUMPI PUSH1 0x6 SLOAD SWAP2 PUSH8 0xFFFFFFFFFFFFFFFF DUP1 DUP5 DUP5 SHR AND DUP2 DUP6 AND ADD DUP2 DUP2 GT PUSH2 0x1232 JUMPI DUP2 AND TIMESTAMP LT PUSH2 0x11FC JUMPI PUSH2 0xEE5 PUSH2 0x151D JUMP JUMPDEST SWAP4 DUP5 MLOAD SWAP1 PUSH2 0xEF9 PUSH1 0x20 DUP8 ADD SWAP3 DUP4 MLOAD SWAP1 PUSH2 0x1330 JUMP JUMPDEST PUSH2 0xF08 DUP7 DUP9 ADD SWAP2 DUP3 MLOAD SWAP1 PUSH2 0x1330 JUMP JUMPDEST SWAP3 DUP9 SWAP2 DUP10 SWAP4 DUP10 MLOAD DUP1 ISZERO DUP1 PUSH2 0x11F3 JUMPI JUMPDEST ISZERO PUSH2 0x11BE JUMPI POP PUSH1 0x3 SWAP12 JUMPDEST DUP9 DUP14 LT ISZERO PUSH2 0x11AB JUMPI PUSH2 0xFFFF NOT AND PUSH1 0x8 DUP14 SWAP1 SHL PUSH2 0xFF00 AND OR PUSH1 0x1 SWAP1 DUP2 OR PUSH1 0x9 SSTORE PUSH1 0x1 PUSH1 0x1 PUSH1 0xC0 SHL SUB SWAP1 SWAP2 AND TIMESTAMP PUSH1 0xC0 SHL PUSH1 0x1 PUSH1 0x1 PUSH1 0xC0 SHL SUB NOT AND OR PUSH1 0x6 SSTORE DUP11 SWAP5 DUP6 SWAP5 SWAP2 DUP14 EQ DUP1 ISZERO PUSH2 0x119E JUMPI JUMPDEST PUSH2 0x110E JUMPI JUMPDEST POP POP PUSH2 0xF7B DUP10 PUSH2 0x1574 JUMP JUMPDEST SWAP2 DUP3 PUSH1 0xA SSTORE PUSH32 0x5528B7E06F48A519CF814C4E5293EE2737C3F5C28D93E30CCA112AC649FDD235 PUSH1 0xC0 DUP14 DUP12 DUP14 MLOAD DUP6 MLOAD SWAP1 DUP8 MLOAD SWAP3 PUSH2 0xFB9 DUP2 MLOAD DUP1 SWAP7 PUSH2 0x12E4 JUMP JUMPDEST DUP10 PUSH1 0x20 DUP7 ADD MSTORE DUP5 ADD MSTORE PUSH1 0x60 DUP4 ADD MSTORE PUSH1 0x80 DUP3 ADD MSTORE DUP7 PUSH1 0xA0 DUP3 ADD MSTORE LOG1 DUP8 SLOAD SWAP6 PUSH1 0x5 SLOAD SWAP11 MLOAD SWAP2 MLOAD SWAP3 MLOAD SWAP4 DUP11 MLOAD SWAP8 PUSH2 0x120 DUP10 ADD DUP10 DUP2 LT DUP12 DUP3 GT OR PUSH2 0x10FB JUMPI DUP13 MSTORE DUP9 MSTORE PUSH1 0x20 DUP9 ADD SWAP12 DUP13 MSTORE DUP11 DUP9 ADD SWAP7 PUSH2 0x10E8 JUMPI DUP13 SWAP14 DUP8 SWAP14 SWAP10 SWAP11 SWAP12 SWAP13 SWAP14 MSTORE PUSH1 0x60 DUP9 ADD SWAP1 DUP2 MSTORE PUSH1 0x80 DUP9 ADD SWAP2 DUP3 MSTORE PUSH1 0xA0 DUP9 ADD SWAP3 DUP4 MSTORE PUSH1 0xC0 DUP9 ADD SWAP4 DUP5 MSTORE PUSH1 0xE0 DUP9 ADD SWAP5 DUP6 MSTORE PUSH2 0x100 DUP9 ADD SWAP6 DUP7 MSTORE PUSH1 0x1 DUP1 PUSH1 0xA0 SHL SUB PUSH1 0x2 SLOAD AND SWAP7 DUP8 EXTCODESIZE ISZERO PUSH2 0x10E4 JUMPI DUP13 MLOAD SWAP14 DUP15 SWAP10 PUSH3 0xE29E5F PUSH1 0xE4 SHL DUP12 MSTORE MLOAD DUP14 DUP12 ADD MSTORE MLOAD PUSH1 0x24 DUP11 ADD MSTORE MLOAD PUSH1 0x44 DUP10 ADD PUSH2 0x1075 SWAP2 PUSH2 0x12E4 JUMP JUMPDEST MLOAD PUSH1 0x64 DUP9 ADD MSTORE MLOAD PUSH1 0x84 DUP8 ADD MSTORE MLOAD PUSH1 0xA4 DUP7 ADD MSTORE MLOAD PUSH1 0xC4 DUP6 ADD MSTORE MLOAD PUSH1 0xE4 DUP5 ADD MSTORE MLOAD PUSH2 0x104 DUP4 ADD MSTORE DUP2 DUP4 GAS SWAP3 PUSH2 0x124 SWAP4 CALL DUP1 ISZERO PUSH2 0x10DA JUMPI PUSH2 0x10B6 JUMPI JUMPDEST DUP5 PUSH1 0x1 DUP2 SSTORE DUP1 RETURN JUMPDEST DUP4 GT PUSH2 0x10C7 JUMPI POP MSTORE DUP2 DUP1 DUP1 DUP1 PUSH2 0x10AE JUMP JUMPDEST PUSH4 0x4E487B71 PUSH1 0xE0 SHL DUP5 MSTORE PUSH1 0x41 SWAP1 MSTORE PUSH1 0x24 DUP4 REVERT JUMPDEST DUP4 MLOAD RETURNDATASIZE DUP8 DUP3 RETURNDATACOPY RETURNDATASIZE SWAP1 REVERT JUMPDEST DUP10 DUP1 REVERT JUMPDEST PUSH4 0x4E487B71 PUSH1 0xE0 SHL DUP14 MSTORE PUSH1 0x21 DUP11 MSTORE PUSH1 0x24 DUP14 REVERT JUMPDEST PUSH4 0x4E487B71 PUSH1 0xE0 SHL DUP16 MSTORE PUSH1 0x41 DUP13 MSTORE PUSH1 0x24 DUP16 REVERT JUMPDEST DUP3 MLOAD PUSH2 0x1119 SWAP2 PUSH2 0x1330 JUMP JUMPDEST DUP1 ISZERO ISZERO DUP1 PUSH2 0x118F JUMPI JUMPDEST PUSH2 0x1143 JUMPI JUMPDEST DUP5 PUSH2 0x1131 SWAP2 PUSH2 0x14BE JUMP JUMPDEST SWAP1 PUSH1 0xC SSTORE PUSH1 0xB SSTORE DUP3 PUSH1 0xD SSTORE DUP12 DUP1 PUSH2 0xF70 JUMP JUMPDEST SWAP4 POP PUSH2 0x1131 PUSH2 0x2710 PUSH2 0x115B PUSH2 0xFFFF PUSH1 0x7 SLOAD AND DUP8 PUSH2 0x1541 JUMP JUMPDEST DIV DUP1 SWAP6 DUP2 PUSH2 0x116C JUMPI JUMPDEST SWAP2 POP POP PUSH2 0x1127 JUMP JUMPDEST PUSH1 0x1 SLOAD PUSH1 0x3 SLOAD PUSH2 0x118A SWAP2 DUP5 SWAP2 PUSH1 0x1 PUSH1 0x1 PUSH1 0xA0 SHL SUB SWAP1 DUP2 AND SWAP2 AND PUSH2 0x14CB JUMP JUMPDEST PUSH2 0x1164 JUMP JUMPDEST POP PUSH2 0xFFFF PUSH1 0x7 SLOAD AND ISZERO ISZERO PUSH2 0x1122 JUMP JUMPDEST POP DUP12 SWAP6 POP PUSH1 0x2 DUP14 EQ PUSH2 0xF6B JUMP JUMPDEST PUSH4 0x4E487B71 PUSH1 0xE0 SHL DUP13 MSTORE PUSH1 0x21 DUP10 MSTORE PUSH1 0x24 DUP13 REVERT JUMPDEST DUP4 MLOAD DUP2 DUP2 SUB PUSH2 0x11D1 JUMPI POP POP PUSH1 0x3 SWAP12 PUSH2 0xF21 JUMP JUMPDEST SWAP5 POP SWAP12 SWAP5 POP DUP4 DUP13 GT PUSH1 0x0 EQ PUSH2 0x11EA JUMPI PUSH1 0x1 SWAP12 SWAP4 SWAP5 PUSH2 0xF21 JUMP JUMPDEST PUSH1 0x2 SWAP12 SWAP5 PUSH2 0xF21 JUMP JUMPDEST POP DUP4 MLOAD ISZERO PUSH2 0xF17 JUMP JUMPDEST POP PUSH1 0x20 PUSH1 0x64 SWAP3 MLOAD SWAP2 PUSH3 0x461BCD PUSH1 0xE5 SHL DUP4 MSTORE DUP3 ADD MSTORE PUSH1 0x10 PUSH1 0x24 DUP3 ADD MSTORE PUSH16 0x5265736F6C7574696F6E2064656C6179 PUSH1 0x80 SHL PUSH1 0x44 DUP3 ADD MSTORE REVERT JUMPDEST PUSH4 0x4E487B71 PUSH1 0xE0 SHL DUP7 MSTORE PUSH1 0x11 DUP4 MSTORE PUSH1 0x24 DUP7 REVERT JUMPDEST MLOAD PUSH3 0xB5F6BF PUSH1 0xE4 SHL DUP2 MSTORE REVERT JUMPDEST PUSH4 0x4E487B71 PUSH1 0xE0 SHL DUP5 MSTORE PUSH1 0x21 DUP4 MSTORE PUSH1 0x24 DUP5 REVERT JUMPDEST POP POP CALLVALUE PUSH2 0x340 JUMPI DUP2 PUSH1 0x3 NOT CALLDATASIZE ADD SLT PUSH2 0x340 JUMPI PUSH1 0x20 SWAP1 PUSH2 0xFFFF PUSH1 0x7 SLOAD AND SWAP1 MLOAD SWAP1 DUP2 MSTORE RETURN JUMPDEST POP POP CALLVALUE PUSH2 0x340 JUMPI DUP2 PUSH1 0x3 NOT CALLDATASIZE ADD SLT PUSH2 0x340 JUMPI PUSH1 0x20 SWAP1 PUSH1 0x6 SLOAD PUSH1 0xC0 SHR SWAP1 MLOAD SWAP1 DUP2 MSTORE RETURN JUMPDEST DUP5 SWAP1 CALLVALUE PUSH2 0x340 JUMPI DUP2 PUSH1 0x3 NOT CALLDATASIZE ADD SLT PUSH2 0x340 JUMPI PUSH1 0x20 SWAP1 PUSH1 0xA SLOAD DUP2 MSTORE RETURN JUMPDEST PUSH1 0x40 SWAP1 PUSH1 0x3 NOT ADD SLT PUSH2 0xBBF JUMPI PUSH1 0x4 CALLDATALOAD PUSH1 0x3 DUP2 LT ISZERO PUSH2 0xBBF JUMPI SWAP1 PUSH1 0x24 CALLDATALOAD SWAP1 JUMP JUMPDEST SWAP1 PUSH1 0x4 DUP3 LT ISZERO PUSH2 0x12F1 JUMPI MSTORE JUMP JUMPDEST PUSH4 0x4E487B71 PUSH1 0xE0 SHL PUSH1 0x0 MSTORE PUSH1 0x21 PUSH1 0x4 MSTORE PUSH1 0x24 PUSH1 0x0 REVERT JUMPDEST PUSH1 0x4 CALLDATALOAD SWAP1 PUSH1 0x1 PUSH1 0x1 PUSH1 0xA0 SHL SUB DUP3 AND DUP3 SUB PUSH2 0xBBF JUMPI JUMP JUMPDEST SWAP2 SWAP1 PUSH1 0x20 DUP4 ADD SWAP3 PUSH1 0x2 DUP3 LT ISZERO PUSH2 0x12F1 JUMPI MSTORE JUMP JUMPDEST SWAP2 SWAP1 DUP3 ADD DUP1 SWAP3 GT PUSH2 0x133D JUMPI JUMP JUMPDEST PUSH4 0x4E487B71 PUSH1 0xE0 SHL PUSH1 0x0 MSTORE PUSH1 0x11 PUSH1 0x4 MSTORE PUSH1 0x24 PUSH1 0x0 REVERT JUMPDEST PUSH2 0x144 CALLDATALOAD PUSH1 0x1 PUSH1 0x1 PUSH1 0xA0 SHL SUB DUP2 AND DUP2 SUB PUSH2 0xBBF JUMPI SWAP1 JUMP JUMPDEST PUSH1 0xA0 DUP2 ADD SWAP1 DUP2 LT PUSH8 0xFFFFFFFFFFFFFFFF DUP3 GT OR PUSH2 0x1386 JUMPI PUSH1 0x40 MSTORE JUMP JUMPDEST PUSH4 0x4E487B71 PUSH1 0xE0 SHL PUSH1 0x0 MSTORE PUSH1 0x41 PUSH1 0x4 MSTORE PUSH1 0x24 PUSH1 0x0 REVERT JUMPDEST PUSH1 0x60 DUP2 ADD SWAP1 DUP2 LT PUSH8 0xFFFFFFFFFFFFFFFF DUP3 GT OR PUSH2 0x1386 JUMPI PUSH1 0x40 MSTORE JUMP JUMPDEST ISZERO PUSH2 0x13BF JUMPI JUMP JUMPDEST PUSH1 0x40 MLOAD PUSH3 0x461BCD PUSH1 0xE5 SHL DUP2 MSTORE PUSH1 0x20 PUSH1 0x4 DUP3 ADD MSTORE PUSH1 0xB PUSH1 0x24 DUP3 ADD MSTORE PUSH11 0x16995C9BC8185B5BDD5B9D PUSH1 0xAA SHL PUSH1 0x44 DUP3 ADD MSTORE PUSH1 0x64 SWAP1 REVERT JUMPDEST SWAP1 PUSH1 0x0 PUSH1 0x20 SWAP2 DUP3 DUP2 MLOAD SWAP2 ADD DUP3 DUP6 GAS CALL ISZERO PUSH2 0x144E JUMPI PUSH1 0x0 MLOAD RETURNDATASIZE PUSH2 0x1445 JUMPI POP PUSH1 0x1 PUSH1 0x1 PUSH1 0xA0 SHL SUB DUP2 AND EXTCODESIZE ISZERO JUMPDEST PUSH2 0x1423 JUMPI POP JUMP JUMPDEST PUSH1 0x40 MLOAD PUSH4 0x5274AFE7 PUSH1 0xE0 SHL DUP2 MSTORE PUSH1 0x1 PUSH1 0x1 PUSH1 0xA0 SHL SUB SWAP1 SWAP2 AND PUSH1 0x4 DUP3 ADD MSTORE PUSH1 0x24 SWAP1 REVERT JUMPDEST PUSH1 0x1 EQ ISZERO PUSH2 0x141C JUMP JUMPDEST PUSH1 0x40 MLOAD RETURNDATASIZE PUSH1 0x0 DUP3 RETURNDATACOPY RETURNDATASIZE SWAP1 REVERT JUMPDEST PUSH1 0x2 PUSH1 0x0 SLOAD EQ PUSH2 0x146B JUMPI PUSH1 0x2 PUSH1 0x0 SSTORE JUMP JUMPDEST PUSH1 0x40 MLOAD PUSH4 0x3EE5AEB5 PUSH1 0xE0 SHL DUP2 MSTORE PUSH1 0x4 SWAP1 REVERT JUMPDEST ISZERO PUSH2 0x1484 JUMPI JUMP JUMPDEST PUSH1 0x40 MLOAD PUSH3 0x461BCD PUSH1 0xE5 SHL DUP2 MSTORE PUSH1 0x20 PUSH1 0x4 DUP3 ADD MSTORE PUSH1 0x12 PUSH1 0x24 DUP3 ADD MSTORE PUSH18 0x496E73756666696369656E74207374616B65 PUSH1 0x70 SHL PUSH1 0x44 DUP3 ADD MSTORE PUSH1 0x64 SWAP1 REVERT JUMPDEST SWAP2 SWAP1 DUP3 SUB SWAP2 DUP3 GT PUSH2 0x133D JUMPI JUMP JUMPDEST PUSH1 0x40 MLOAD PUSH4 0xA9059CBB PUSH1 0xE0 SHL PUSH1 0x20 DUP3 ADD MSTORE PUSH1 0x1 PUSH1 0x1 PUSH1 0xA0 SHL SUB SWAP1 SWAP3 AND PUSH1 0x24 DUP4 ADD MSTORE PUSH1 0x44 DUP1 DUP4 ADD SWAP4 SWAP1 SWAP4 MSTORE SWAP2 DUP2 MSTORE PUSH1 0x80 DUP2 ADD SWAP2 PUSH8 0xFFFFFFFFFFFFFFFF DUP4 GT DUP3 DUP5 LT OR PUSH2 0x1386 JUMPI PUSH2 0x151B SWAP3 PUSH1 0x40 MSTORE PUSH2 0x13F2 JUMP JUMPDEST JUMP JUMPDEST PUSH1 0x40 MLOAD SWAP1 PUSH2 0x152A DUP3 PUSH2 0x139C JUMP JUMPDEST PUSH1 0xE SLOAD DUP3 MSTORE PUSH1 0xF SLOAD PUSH1 0x20 DUP4 ADD MSTORE PUSH1 0x10 SLOAD PUSH1 0x40 DUP4 ADD MSTORE JUMP JUMPDEST DUP2 DUP2 MUL SWAP3 SWAP2 DUP2 ISZERO SWAP2 DUP5 DIV EQ OR ISZERO PUSH2 0x133D JUMPI JUMP JUMPDEST DUP2 ISZERO PUSH2 0x155E JUMPI DIV SWAP1 JUMP JUMPDEST PUSH4 0x4E487B71 PUSH1 0xE0 SHL PUSH1 0x0 MSTORE PUSH1 0x12 PUSH1 0x4 MSTORE PUSH1 0x24 PUSH1 0x0 REVERT JUMPDEST DUP1 MLOAD SWAP1 PUSH2 0x1593 PUSH1 0x40 PUSH1 0x20 DUP4 ADD MLOAD SWAP3 ADD MLOAD PUSH2 0x158E DUP4 DUP6 PUSH2 0x1330 JUMP JUMPDEST PUSH2 0x1330 JUMP JUMPDEST SWAP1 DUP2 ISZERO PUSH2 0x15C8 JUMPI DUP1 DUP4 EQ PUSH2 0x15C8 JUMPI PUSH2 0x15BC SWAP3 DUP2 DUP2 GT ISZERO PUSH2 0x15BF JUMPI SWAP1 PUSH2 0x15B7 SWAP2 PUSH2 0x14BE JUMP JUMPDEST PUSH2 0x15D0 JUMP JUMPDEST SWAP1 JUMP JUMPDEST PUSH2 0x15B7 SWAP2 PUSH2 0x14BE JUMP JUMPDEST POP POP POP PUSH1 0x0 SWAP1 JUMP JUMPDEST PUSH2 0x2710 SWAP2 PUSH1 0x0 NOT DUP4 DUP4 MULMOD SWAP3 DUP1 DUP4 MUL SWAP3 DUP4 DUP1 DUP7 LT SWAP6 SUB SWAP5 DUP1 DUP7 SUB SWAP6 EQ PUSH2 0x1662 JUMPI DUP5 DUP4 GT ISZERO PUSH2 0x1649 JUMPI SWAP1 DUP3 SWAP2 MULMOD DUP2 PUSH1 0x0 SUB DUP3 AND DUP1 SWAP3 DIV PUSH1 0x2 DUP1 DUP3 PUSH1 0x3 MUL XOR DUP1 DUP4 MUL DUP3 SUB MUL DUP1 DUP4 MUL DUP3 SUB MUL DUP1 DUP4 MUL DUP3 SUB MUL DUP1 DUP4 MUL DUP3 SUB MUL DUP1 DUP4 MUL DUP3 SUB MUL DUP1 SWAP3 MUL SWAP1 SUB MUL SWAP4 PUSH1 0x1 DUP4 DUP1 PUSH1 0x0 SUB DIV ADD SWAP1 DUP5 DUP4 GT SWAP1 SUB MUL SWAP3 SUB DIV OR MUL SWAP1 JUMP JUMPDEST DUP3 PUSH4 0x4E487B71 PUSH1 0x0 MSTORE ISZERO PUSH1 0x3 MUL PUSH1 0x11 XOR PUSH1 0x20 MSTORE PUSH1 0x24 PUSH1 0x1C REVERT JUMPDEST POP POP SWAP1 PUSH2 0x15BC SWAP3 POP PUSH2 0x1554 JUMP INVALID LOG2 PUSH5 0x6970667358 0x22 SLT KECCAK256 PUSH25 0xD4C27D69ADF279ABF58124E0E9D71DC72E13CD341F8D32F60B 0xE3 DUP8 0x25 0xE7 0xBC 0xEB PUSH5 0x736F6C6343 STOP ADDMOD EQ STOP CALLER "},"methodIdentifiers":{"appealWindowSeconds()":"2efcb9ca","claimId()":"5c25fd13","claimPayout()":"e88499a9","confidenceBps()":"0556f114","feeBps()":"24a9d853","getMarketState()":"d8165743","hlx()":"e27f3b34","initialize(address,address,address,uint256,uint256,uint64,uint64,uint64,uint256,uint16,(address,uint256,uint256,uint256,bool))":"a8427de0","minStake()":"375b3c0a","placeBet(uint8,uint256)":"dcb3b30e","position(address)":"b7648fb9","protocolFee()":"b0e21e8a","registry()":"7b103999","resolutionDelaySeconds()":"40125b2c","resolve()":"2810e1d6","resolvedAt()":"19effeb4","state()":"c19d93fb","totals()":"c038a38e","tradingClosesAt()":"7b456067","treasury()":"61d027b3","version()":"54fd4d50","winnerPayoutPool()":"cd1b4079","winnerStake()":"3a6a9831","winningOutcome()":"9b34ae03","withdraw(uint8,uint256)":"3f489914"}}}}}