{"contracts/AlphaHelixParameters.sol":{"AlphaHelixParameters":{"abi":[{"inputs":[{"internalType":"address","name":"governor","type":"address"},{"components":[{"internalType":"uint256","name":"creationBond","type":"uint256"},{"internalType":"uint256","name":"minimumEngagement","type":"uint256"},{"internalType":"uint256","name":"minStake","type":"uint256"},{"internalType":"uint64","name":"minimumTradingSeconds","type":"uint64"},{"internalType":"uint64","name":"resolutionDelaySeconds","type":"uint64"},{"internalType":"uint64","name":"appealWindowSeconds","type":"uint64"},{"internalType":"uint16","name":"feeBps","type":"uint16"},{"internalType":"uint16","name":"challengeBondBps","type":"uint16"}],"internalType":"struct AlphaHelixParameters.Config","name":"initialConfig","type":"tuple"}],"stateMutability":"nonpayable","type":"constructor"},{"inputs":[],"name":"AccessControlBadConfirmation","type":"error"},{"inputs":[{"internalType":"address","name":"account","type":"address"},{"internalType":"bytes32","name":"neededRole","type":"bytes32"}],"name":"AccessControlUnauthorizedAccount","type":"error"},{"anonymous":false,"inputs":[{"components":[{"internalType":"uint256","name":"creationBond","type":"uint256"},{"internalType":"uint256","name":"minimumEngagement","type":"uint256"},{"internalType":"uint256","name":"minStake","type":"uint256"},{"internalType":"uint64","name":"minimumTradingSeconds","type":"uint64"},{"internalType":"uint64","name":"resolutionDelaySeconds","type":"uint64"},{"internalType":"uint64","name":"appealWindowSeconds","type":"uint64"},{"internalType":"uint16","name":"feeBps","type":"uint16"},{"internalType":"uint16","name":"challengeBondBps","type":"uint16"}],"indexed":false,"internalType":"struct AlphaHelixParameters.Config","name":"config","type":"tuple"}],"name":"ConfigUpdated","type":"event"},{"anonymous":false,"inputs":[{"indexed":true,"internalType":"bytes32","name":"role","type":"bytes32"},{"indexed":true,"internalType":"bytes32","name":"previousAdminRole","type":"bytes32"},{"indexed":true,"internalType":"bytes32","name":"newAdminRole","type":"bytes32"}],"name":"RoleAdminChanged","type":"event"},{"anonymous":false,"inputs":[{"indexed":true,"internalType":"bytes32","name":"role","type":"bytes32"},{"indexed":true,"internalType":"address","name":"account","type":"address"},{"indexed":true,"internalType":"address","name":"sender","type":"address"}],"name":"RoleGranted","type":"event"},{"anonymous":false,"inputs":[{"indexed":true,"internalType":"bytes32","name":"role","type":"bytes32"},{"indexed":true,"internalType":"address","name":"account","type":"address"},{"indexed":true,"internalType":"address","name":"sender","type":"address"}],"name":"RoleRevoked","type":"event"},{"inputs":[],"name":"DEFAULT_ADMIN_ROLE","outputs":[{"internalType":"bytes32","name":"","type":"bytes32"}],"stateMutability":"view","type":"function"},{"inputs":[],"name":"GOVERNOR_ROLE","outputs":[{"internalType":"bytes32","name":"","type":"bytes32"}],"stateMutability":"view","type":"function"},{"inputs":[],"name":"appealWindowSeconds","outputs":[{"internalType":"uint64","name":"","type":"uint64"}],"stateMutability":"view","type":"function"},{"inputs":[],"name":"challengeBondBps","outputs":[{"internalType":"uint16","name":"","type":"uint16"}],"stateMutability":"view","type":"function"},{"inputs":[],"name":"creationBond","outputs":[{"internalType":"uint256","name":"","type":"uint256"}],"stateMutability":"view","type":"function"},{"inputs":[],"name":"feeBps","outputs":[{"internalType":"uint16","name":"","type":"uint16"}],"stateMutability":"view","type":"function"},{"inputs":[],"name":"getConfig","outputs":[{"components":[{"internalType":"uint256","name":"creationBond","type":"uint256"},{"internalType":"uint256","name":"minimumEngagement","type":"uint256"},{"internalType":"uint256","name":"minStake","type":"uint256"},{"internalType":"uint64","name":"minimumTradingSeconds","type":"uint64"},{"internalType":"uint64","name":"resolutionDelaySeconds","type":"uint64"},{"internalType":"uint64","name":"appealWindowSeconds","type":"uint64"},{"internalType":"uint16","name":"feeBps","type":"uint16"},{"internalType":"uint16","name":"challengeBondBps","type":"uint16"}],"internalType":"struct AlphaHelixParameters.Config","name":"","type":"tuple"}],"stateMutability":"view","type":"function"},{"inputs":[{"internalType":"bytes32","name":"role","type":"bytes32"}],"name":"getRoleAdmin","outputs":[{"internalType":"bytes32","name":"","type":"bytes32"}],"stateMutability":"view","type":"function"},{"inputs":[{"internalType":"bytes32","name":"role","type":"bytes32"},{"internalType":"address","name":"account","type":"address"}],"name":"grantRole","outputs":[],"stateMutability":"nonpayable","type":"function"},{"inputs":[{"internalType":"bytes32","name":"role","type":"bytes32"},{"internalType":"address","name":"account","type":"address"}],"name":"hasRole","outputs":[{"internalType":"bool","name":"","type":"bool"}],"stateMutability":"view","type":"function"},{"inputs":[],"name":"minStake","outputs":[{"internalType":"uint256","name":"","type":"uint256"}],"stateMutability":"view","type":"function"},{"inputs":[],"name":"minimumEngagement","outputs":[{"internalType":"uint256","name":"","type":"uint256"}],"stateMutability":"view","type":"function"},{"inputs":[],"name":"minimumTradingSeconds","outputs":[{"internalType":"uint64","name":"","type":"uint64"}],"stateMutability":"view","type":"function"},{"inputs":[{"internalType":"bytes32","name":"role","type":"bytes32"},{"internalType":"address","name":"callerConfirmation","type":"address"}],"name":"renounceRole","outputs":[],"stateMutability":"nonpayable","type":"function"},{"inputs":[],"name":"resolutionDelaySeconds","outputs":[{"internalType":"uint64","name":"","type":"uint64"}],"stateMutability":"view","type":"function"},{"inputs":[{"internalType":"bytes32","name":"role","type":"bytes32"},{"internalType":"address","name":"account","type":"address"}],"name":"revokeRole","outputs":[],"stateMutability":"nonpayable","type":"function"},{"inputs":[{"internalType":"bytes4","name":"interfaceId","type":"bytes4"}],"name":"supportsInterface","outputs":[{"internalType":"bool","name":"","type":"bool"}],"stateMutability":"view","type":"function"},{"inputs":[{"components":[{"internalType":"uint256","name":"creationBond","type":"uint256"},{"internalType":"uint256","name":"minimumEngagement","type":"uint256"},{"internalType":"uint256","name":"minStake","type":"uint256"},{"internalType":"uint64","name":"minimumTradingSeconds","type":"uint64"},{"internalType":"uint64","name":"resolutionDelaySeconds","type":"uint64"},{"internalType":"uint64","name":"appealWindowSeconds","type":"uint64"},{"internalType":"uint16","name":"feeBps","type":"uint16"},{"internalType":"uint16","name":"challengeBondBps","type":"uint16"}],"internalType":"struct AlphaHelixParameters.Config","name":"newConfig","type":"tuple"}],"name":"updateConfig","outputs":[],"stateMutability":"nonpayable","type":"function"}],"evm":{"bytecode":{"linkReferences":{},"object":"60803462000302576001600160401b0390601f1962000d4c38819003601f81018316840192919084841086851117620002ec578085926040958652833981010393610120851262000302578351946001600160a01b0386169081870362000302576101009384910112620003025783519183830183811082821117620002ec5785528560209384820151815286820151948082019586526060830151888301908152620000af6080850162000307565b9160608401928352620000c560a0860162000307565b9360808101948552620001048a620000f560e0620000e660c08b0162000307565b9960a086019a8b52016200031c565b9d60c084019e8f52016200031c565b9760e0820198895215620002b4576200012f8d620001288e9f9e9b9c9d9e6200032c565b50620003ac565b506103e861ffff809a511611620002705761271089895116106200022c57958b9c95937f4ff5492af87bcc65f2f7c3e593f1f6fe59ad1c035c75ae9123ad5d0540300a8b9c829693948c84968d9b519182600155516002558251600355858551168d8c6004549268010000000000000000600160801b038b51891b16908d600160801b600160c01b03905160801b169261ffff60c01b905160c01b169361ffff60d01b905160d01b169463ffffffff60e01b16171717171760045583519e8f9283525191015251908c0152511660608a015251166080880152511660a0860152511660c0840152511660e0820152a1516108dd90816200044f8239f35b8b5162461bcd60e51b815260048101839052601360248201527f4368616c6c656e676520626f6e64203c203178000000000000000000000000006044820152606490fd5b8b5162461bcd60e51b815260048101839052601560248201527f4665652063616e6e6f74206578636565642031302500000000000000000000006044820152606490fd5b8a5162461bcd60e51b815260048101839052601160248201527011dbdd995c9b9bdc881c995c5d5a5c9959607a1b6044820152606490fd5b634e487b7160e01b600052604160045260246000fd5b600080fd5b51906001600160401b03821682036200030257565b519061ffff821682036200030257565b6001600160a01b031660008181527fad3228b676f7d3cd4284a5443f17f1962b36e491b30a40b2405849e597ba5fb5602052604081205490919060ff16620003a857818052816020526040822081835260205260408220600160ff19825416179055339160008051602062000d2c8339815191528180a4600190565b5090565b6001600160a01b031660008181527f6f3b488caa0dc03e5f3d9fd6a25fa8755afcfd62ccffb6e436c696bfa6b866de60205260408120549091907f7935bd0ae54bc31f548c14dba4d37c5c64b3f8ca900cb468fb8abd54d5894f559060ff166200044957808352826020526040832082845260205260408320600160ff1982541617905560008051602062000d2c833981519152339380a4600190565b50509056fe608060408181526004908136101561001657600080fd5b600092833560e01c90816301ffc9a71461065257508063248a9ca31461062857806324a9d853146106035780632efcb9ca146105d85780632f2ff15d146105ba57806334c8fc021461059257806336568abe14610556578063375b3c0a1461053757806340125b2c1461050d57806391d14854146104d3578063a217fddf146104b8578063ab650e6014610499578063c3f909d4146103e9578063ccc57490146103ae578063d547741f14610379578063d7e2c68014610351578063e0abf86f1461032e5763feb71559146100ea57600080fd5b3461032a5761010036600319011261032a577f7935bd0ae54bc31f548c14dba4d37c5c64b3f8ca900cb468fb8abd54d5894f558084528360205281842033855260205260ff82852054161561030e5750610142610870565b91803583526020830160243581528284019060443582526064359167ffffffffffffffff92838116810361030a5760608701908152608435938085168503610306576080880194855260a4359181831683036103025760a0890192835260c4359361ffff95868616968787036102fe5760c08c0196875260e4359781891689036102fa576103e89060e08e01998a52116102bf576127109088511610610286578a51600155516002555160035551865495519251935194516001600160e01b031990961691161790861b6fffffffffffffffff0000000000000000161760809190911b67ffffffffffffffff60801b161760c09190911b61ffff60c01b161760d09190911b61ffff60d01b16179055517f4ff5492af87bcc65f2f7c3e593f1f6fe59ad1c035c75ae9123ad5d0540300a8b91819061028090826106d1565b0390a180f35b895162461bcd60e51b81526020818b01526013602482015272086d0c2d8d8cadcceca40c4dedcc840784062f606b1b6044820152606490fd5b8a5162461bcd60e51b81526020818c015260156024820152744665652063616e6e6f74206578636565642031302560581b6044820152606490fd5b8d80fd5b8c80fd5b8980fd5b8880fd5b8780fd5b60449291519163e2517d3f60e01b835233908301526024820152fd5b8280fd5b83823461034d578160031936011261034d576020906001549051908152f35b5080fd5b5082346103765780600319360112610376575061ffff6020925460d01c169051908152f35b80fd5b83823461034d5760016103aa916103a5610392366106a6565b9390928387528660205286200154610739565b6107fb565b5080f35b83823461034d578160031936011261034d57602090517f7935bd0ae54bc31f548c14dba4d37c5c64b3f8ca900cb468fb8abd54d5894f558152f35b503461032a578260031936011261032a576104959260e0610408610870565b82815282602082015282848201528260608201528260808201528260a08201528260c08201520152610438610870565b9160015483526002546020840152600354828401525467ffffffffffffffff80821660608501528082841c1660808501528160801c1660a084015261ffff90818160c01c1660c085015260d01c1660e083015251918291826106d1565b0390f35b83823461034d578160031936011261034d576020906002549051908152f35b83823461034d578160031936011261034d5751908152602090f35b83823461034d5760ff816020936104e9366106a6565b9082528186528282206001600160a01b039091168252855220549151911615158152f35b5082346103765780600319360112610376575067ffffffffffffffff60209254821c169051908152f35b83823461034d578160031936011261034d576020906003549051908152f35b5082903461034d57610567366106a6565b91336001600160a01b038416036105835750906103aa916107fb565b5163334bd91960e11b81528490fd5b5082346103765780600319360112610376575067ffffffffffffffff60209254169051908152f35b83823461034d5760016103aa916105d3610392366106a6565b61077d565b5082346103765780600319360112610376575067ffffffffffffffff6020925460801c169051908152f35b5082346103765780600319360112610376575061ffff6020925460c01c169051908152f35b50903461032a57602036600319011261032a57816020936001923581528085522001549051908152f35b8490843461032a57602036600319011261032a573563ffffffff60e01b811680910361032a5760209250637965db0b60e01b8114908115610695575b5015158152f35b6301ffc9a760e01b1490508361068e565b60409060031901126106cc57600435906024356001600160a01b03811681036106cc5790565b600080fd5b91909160e061010082019380518352602081015160208401526040810151604084015267ffffffffffffffff80606083015116606085015280608083015116608085015260a08201511660a08401528161ffff918260c08201511660c0860152015116910152565b80600052600060205260406000203360005260205260ff604060002054161561075f5750565b6044906040519063e2517d3f60e01b82523360048301526024820152fd5b9060009180835282602052604083209160018060a01b03169182845260205260ff604084205416156000146107f657808352826020526040832082845260205260408320600160ff198254161790557f2f8788117e7eff1d82e926ec794901d17c78024a50270940304540a733656f0d339380a4600190565b505090565b9060009180835282602052604083209160018060a01b03169182845260205260ff6040842054166000146107f65780835282602052604083208284526020526040832060ff1981541690557ff6391f5c32d9c69d2a47ea670b442974b53935d1edc7fd64eb21e047a839171b339380a4600190565b60405190610100820182811067ffffffffffffffff82111761089157604052565b634e487b7160e01b600052604160045260246000fdfea2646970667358221220b196c71477e0edfb2b38e648e73c1f1431d6ae99523f29aaa4dcd9f13af9c54564736f6c634300081400332f8788117e7eff1d82e926ec794901d17c78024a50270940304540a733656f0d","opcodes":"PUSH1 0x80 CALLVALUE PUSH3 0x302 JUMPI PUSH1 0x1 PUSH1 0x1 PUSH1 0x40 SHL SUB SWAP1 PUSH1 0x1F NOT PUSH3 0xD4C CODESIZE DUP2 SWAP1 SUB PUSH1 0x1F DUP2 ADD DUP4 AND DUP5 ADD SWAP3 SWAP2 SWAP1 DUP5 DUP5 LT DUP7 DUP6 GT OR PUSH3 0x2EC JUMPI DUP1 DUP6 SWAP3 PUSH1 0x40 SWAP6 DUP7 MSTORE DUP4 CODECOPY DUP2 ADD SUB SWAP4 PUSH2 0x120 DUP6 SLT PUSH3 0x302 JUMPI DUP4 MLOAD SWAP5 PUSH1 0x1 PUSH1 0x1 PUSH1 0xA0 SHL SUB DUP7 AND SWAP1 DUP2 DUP8 SUB PUSH3 0x302 JUMPI PUSH2 0x100 SWAP4 DUP5 SWAP2 ADD SLT PUSH3 0x302 JUMPI DUP4 MLOAD SWAP2 DUP4 DUP4 ADD DUP4 DUP2 LT DUP3 DUP3 GT OR PUSH3 0x2EC JUMPI DUP6 MSTORE DUP6 PUSH1 0x20 SWAP4 DUP5 DUP3 ADD MLOAD DUP2 MSTORE DUP7 DUP3 ADD MLOAD SWAP5 DUP1 DUP3 ADD SWAP6 DUP7 MSTORE PUSH1 0x60 DUP4 ADD MLOAD DUP9 DUP4 ADD SWAP1 DUP2 MSTORE PUSH3 0xAF PUSH1 0x80 DUP6 ADD PUSH3 0x307 JUMP JUMPDEST SWAP2 PUSH1 0x60 DUP5 ADD SWAP3 DUP4 MSTORE PUSH3 0xC5 PUSH1 0xA0 DUP7 ADD PUSH3 0x307 JUMP JUMPDEST SWAP4 PUSH1 0x80 DUP2 ADD SWAP5 DUP6 MSTORE PUSH3 0x104 DUP11 PUSH3 0xF5 PUSH1 0xE0 PUSH3 0xE6 PUSH1 0xC0 DUP12 ADD PUSH3 0x307 JUMP JUMPDEST SWAP10 PUSH1 0xA0 DUP7 ADD SWAP11 DUP12 MSTORE ADD PUSH3 0x31C JUMP JUMPDEST SWAP14 PUSH1 0xC0 DUP5 ADD SWAP15 DUP16 MSTORE ADD PUSH3 0x31C JUMP JUMPDEST SWAP8 PUSH1 0xE0 DUP3 ADD SWAP9 DUP10 MSTORE ISZERO PUSH3 0x2B4 JUMPI PUSH3 0x12F DUP14 PUSH3 0x128 DUP15 SWAP16 SWAP15 SWAP12 SWAP13 SWAP14 SWAP15 PUSH3 0x32C JUMP JUMPDEST POP PUSH3 0x3AC JUMP JUMPDEST POP PUSH2 0x3E8 PUSH2 0xFFFF DUP1 SWAP11 MLOAD AND GT PUSH3 0x270 JUMPI PUSH2 0x2710 DUP10 DUP10 MLOAD AND LT PUSH3 0x22C JUMPI SWAP6 DUP12 SWAP13 SWAP6 SWAP4 PUSH32 0x4FF5492AF87BCC65F2F7C3E593F1F6FE59AD1C035C75AE9123AD5D0540300A8B SWAP13 DUP3 SWAP7 SWAP4 SWAP5 DUP13 DUP5 SWAP7 DUP14 SWAP12 MLOAD SWAP2 DUP3 PUSH1 0x1 SSTORE MLOAD PUSH1 0x2 SSTORE DUP3 MLOAD PUSH1 0x3 SSTORE DUP6 DUP6 MLOAD AND DUP14 DUP13 PUSH1 0x4 SLOAD SWAP3 PUSH9 0x10000000000000000 PUSH1 0x1 PUSH1 0x80 SHL SUB DUP12 MLOAD DUP10 SHL AND SWAP1 DUP14 PUSH1 0x1 PUSH1 0x80 SHL PUSH1 0x1 PUSH1 0xC0 SHL SUB SWAP1 MLOAD PUSH1 0x80 SHL AND SWAP3 PUSH2 0xFFFF PUSH1 0xC0 SHL SWAP1 MLOAD PUSH1 0xC0 SHL AND SWAP4 PUSH2 0xFFFF PUSH1 0xD0 SHL SWAP1 MLOAD PUSH1 0xD0 SHL AND SWAP5 PUSH4 0xFFFFFFFF PUSH1 0xE0 SHL AND OR OR OR OR OR PUSH1 0x4 SSTORE DUP4 MLOAD SWAP15 DUP16 SWAP3 DUP4 MSTORE MLOAD SWAP2 ADD MSTORE MLOAD SWAP1 DUP13 ADD MSTORE MLOAD AND PUSH1 0x60 DUP11 ADD MSTORE MLOAD AND PUSH1 0x80 DUP9 ADD MSTORE MLOAD AND PUSH1 0xA0 DUP7 ADD MSTORE MLOAD AND PUSH1 0xC0 DUP5 ADD MSTORE MLOAD AND PUSH1 0xE0 DUP3 ADD MSTORE LOG1 MLOAD PUSH2 0x8DD SWAP1 DUP2 PUSH3 0x44F DUP3 CODECOPY RETURN JUMPDEST DUP12 MLOAD PUSH3 0x461BCD PUSH1 0xE5 SHL DUP2 MSTORE PUSH1 0x4 DUP2 ADD DUP4 SWAP1 MSTORE PUSH1 0x13 PUSH1 0x24 DUP3 ADD MSTORE PUSH32 0x4368616C6C656E676520626F6E64203C20317800000000000000000000000000 PUSH1 0x44 DUP3 ADD MSTORE PUSH1 0x64 SWAP1 REVERT JUMPDEST DUP12 MLOAD PUSH3 0x461BCD PUSH1 0xE5 SHL DUP2 MSTORE PUSH1 0x4 DUP2 ADD DUP4 SWAP1 MSTORE PUSH1 0x15 PUSH1 0x24 DUP3 ADD MSTORE PUSH32 0x4665652063616E6E6F7420657863656564203130250000000000000000000000 PUSH1 0x44 DUP3 ADD MSTORE PUSH1 0x64 SWAP1 REVERT JUMPDEST DUP11 MLOAD PUSH3 0x461BCD PUSH1 0xE5 SHL DUP2 MSTORE PUSH1 0x4 DUP2 ADD DUP4 SWAP1 MSTORE PUSH1 0x11 PUSH1 0x24 DUP3 ADD MSTORE PUSH17 0x11DBDD995C9B9BDC881C995C5D5A5C9959 PUSH1 0x7A SHL PUSH1 0x44 DUP3 ADD MSTORE PUSH1 0x64 SWAP1 REVERT JUMPDEST PUSH4 0x4E487B71 PUSH1 0xE0 SHL PUSH1 0x0 MSTORE PUSH1 0x41 PUSH1 0x4 MSTORE PUSH1 0x24 PUSH1 0x0 REVERT JUMPDEST PUSH1 0x0 DUP1 REVERT JUMPDEST MLOAD SWAP1 PUSH1 0x1 PUSH1 0x1 PUSH1 0x40 SHL SUB DUP3 AND DUP3 SUB PUSH3 0x302 JUMPI JUMP JUMPDEST MLOAD SWAP1 PUSH2 0xFFFF DUP3 AND DUP3 SUB PUSH3 0x302 JUMPI JUMP JUMPDEST PUSH1 0x1 PUSH1 0x1 PUSH1 0xA0 SHL SUB AND PUSH1 0x0 DUP2 DUP2 MSTORE PUSH32 0xAD3228B676F7D3CD4284A5443F17F1962B36E491B30A40B2405849E597BA5FB5 PUSH1 0x20 MSTORE PUSH1 0x40 DUP2 KECCAK256 SLOAD SWAP1 SWAP2 SWAP1 PUSH1 0xFF AND PUSH3 0x3A8 JUMPI DUP2 DUP1 MSTORE DUP2 PUSH1 0x20 MSTORE PUSH1 0x40 DUP3 KECCAK256 DUP2 DUP4 MSTORE PUSH1 0x20 MSTORE PUSH1 0x40 DUP3 KECCAK256 PUSH1 0x1 PUSH1 0xFF NOT DUP3 SLOAD AND OR SWAP1 SSTORE CALLER SWAP2 PUSH1 0x0 DUP1 MLOAD PUSH1 0x20 PUSH3 0xD2C DUP4 CODECOPY DUP2 MLOAD SWAP2 MSTORE DUP2 DUP1 LOG4 PUSH1 0x1 SWAP1 JUMP JUMPDEST POP SWAP1 JUMP JUMPDEST PUSH1 0x1 PUSH1 0x1 PUSH1 0xA0 SHL SUB AND PUSH1 0x0 DUP2 DUP2 MSTORE PUSH32 0x6F3B488CAA0DC03E5F3D9FD6A25FA8755AFCFD62CCFFB6E436C696BFA6B866DE PUSH1 0x20 MSTORE PUSH1 0x40 DUP2 KECCAK256 SLOAD SWAP1 SWAP2 SWAP1 PUSH32 0x7935BD0AE54BC31F548C14DBA4D37C5C64B3F8CA900CB468FB8ABD54D5894F55 SWAP1 PUSH1 0xFF AND PUSH3 0x449 JUMPI DUP1 DUP4 MSTORE DUP3 PUSH1 0x20 MSTORE PUSH1 0x40 DUP4 KECCAK256 DUP3 DUP5 MSTORE PUSH1 0x20 MSTORE PUSH1 0x40 DUP4 KECCAK256 PUSH1 0x1 PUSH1 0xFF NOT DUP3 SLOAD AND OR SWAP1 SSTORE PUSH1 0x0 DUP1 MLOAD PUSH1 0x20 PUSH3 0xD2C DUP4 CODECOPY DUP2 MLOAD SWAP2 MSTORE CALLER SWAP4 DUP1 LOG4 PUSH1 0x1 SWAP1 JUMP JUMPDEST POP POP SWAP1 JUMP INVALID PUSH1 0x80 PUSH1 0x40 DUP2 DUP2 MSTORE PUSH1 0x4 SWAP1 DUP2 CALLDATASIZE LT ISZERO PUSH2 0x16 JUMPI PUSH1 0x0 DUP1 REVERT JUMPDEST PUSH1 0x0 SWAP3 DUP4 CALLDATALOAD PUSH1 0xE0 SHR SWAP1 DUP2 PUSH4 0x1FFC9A7 EQ PUSH2 0x652 JUMPI POP DUP1 PUSH4 0x248A9CA3 EQ PUSH2 0x628 JUMPI DUP1 PUSH4 0x24A9D853 EQ PUSH2 0x603 JUMPI DUP1 PUSH4 0x2EFCB9CA EQ PUSH2 0x5D8 JUMPI DUP1 PUSH4 0x2F2FF15D EQ PUSH2 0x5BA JUMPI DUP1 PUSH4 0x34C8FC02 EQ PUSH2 0x592 JUMPI DUP1 PUSH4 0x36568ABE EQ PUSH2 0x556 JUMPI DUP1 PUSH4 0x375B3C0A EQ PUSH2 0x537 JUMPI DUP1 PUSH4 0x40125B2C EQ PUSH2 0x50D JUMPI DUP1 PUSH4 0x91D14854 EQ PUSH2 0x4D3 JUMPI DUP1 PUSH4 0xA217FDDF EQ PUSH2 0x4B8 JUMPI DUP1 PUSH4 0xAB650E60 EQ PUSH2 0x499 JUMPI DUP1 PUSH4 0xC3F909D4 EQ PUSH2 0x3E9 JUMPI DUP1 PUSH4 0xCCC57490 EQ PUSH2 0x3AE JUMPI DUP1 PUSH4 0xD547741F EQ PUSH2 0x379 JUMPI DUP1 PUSH4 0xD7E2C680 EQ PUSH2 0x351 JUMPI DUP1 PUSH4 0xE0ABF86F EQ PUSH2 0x32E JUMPI PUSH4 0xFEB71559 EQ PUSH2 0xEA JUMPI PUSH1 0x0 DUP1 REVERT JUMPDEST CALLVALUE PUSH2 0x32A JUMPI PUSH2 0x100 CALLDATASIZE PUSH1 0x3 NOT ADD SLT PUSH2 0x32A JUMPI PUSH32 0x7935BD0AE54BC31F548C14DBA4D37C5C64B3F8CA900CB468FB8ABD54D5894F55 DUP1 DUP5 MSTORE DUP4 PUSH1 0x20 MSTORE DUP2 DUP5 KECCAK256 CALLER DUP6 MSTORE PUSH1 0x20 MSTORE PUSH1 0xFF DUP3 DUP6 KECCAK256 SLOAD AND ISZERO PUSH2 0x30E JUMPI POP PUSH2 0x142 PUSH2 0x870 JUMP JUMPDEST SWAP2 DUP1 CALLDATALOAD DUP4 MSTORE PUSH1 0x20 DUP4 ADD PUSH1 0x24 CALLDATALOAD DUP2 MSTORE DUP3 DUP5 ADD SWAP1 PUSH1 0x44 CALLDATALOAD DUP3 MSTORE PUSH1 0x64 CALLDATALOAD SWAP2 PUSH8 0xFFFFFFFFFFFFFFFF SWAP3 DUP4 DUP2 AND DUP2 SUB PUSH2 0x30A JUMPI PUSH1 0x60 DUP8 ADD SWAP1 DUP2 MSTORE PUSH1 0x84 CALLDATALOAD SWAP4 DUP1 DUP6 AND DUP6 SUB PUSH2 0x306 JUMPI PUSH1 0x80 DUP9 ADD SWAP5 DUP6 MSTORE PUSH1 0xA4 CALLDATALOAD SWAP2 DUP2 DUP4 AND DUP4 SUB PUSH2 0x302 JUMPI PUSH1 0xA0 DUP10 ADD SWAP3 DUP4 MSTORE PUSH1 0xC4 CALLDATALOAD SWAP4 PUSH2 0xFFFF SWAP6 DUP7 DUP7 AND SWAP7 DUP8 DUP8 SUB PUSH2 0x2FE JUMPI PUSH1 0xC0 DUP13 ADD SWAP7 DUP8 MSTORE PUSH1 0xE4 CALLDATALOAD SWAP8 DUP2 DUP10 AND DUP10 SUB PUSH2 0x2FA JUMPI PUSH2 0x3E8 SWAP1 PUSH1 0xE0 DUP15 ADD SWAP10 DUP11 MSTORE GT PUSH2 0x2BF JUMPI PUSH2 0x2710 SWAP1 DUP9 MLOAD AND LT PUSH2 0x286 JUMPI DUP11 MLOAD PUSH1 0x1 SSTORE MLOAD PUSH1 0x2 SSTORE MLOAD PUSH1 0x3 SSTORE MLOAD DUP7 SLOAD SWAP6 MLOAD SWAP3 MLOAD SWAP4 MLOAD SWAP5 MLOAD PUSH1 0x1 PUSH1 0x1 PUSH1 0xE0 SHL SUB NOT SWAP1 SWAP7 AND SWAP2 AND OR SWAP1 DUP7 SHL PUSH16 0xFFFFFFFFFFFFFFFF0000000000000000 AND OR PUSH1 0x80 SWAP2 SWAP1 SWAP2 SHL PUSH8 0xFFFFFFFFFFFFFFFF PUSH1 0x80 SHL AND OR PUSH1 0xC0 SWAP2 SWAP1 SWAP2 SHL PUSH2 0xFFFF PUSH1 0xC0 SHL AND OR PUSH1 0xD0 SWAP2 SWAP1 SWAP2 SHL PUSH2 0xFFFF PUSH1 0xD0 SHL AND OR SWAP1 SSTORE MLOAD PUSH32 0x4FF5492AF87BCC65F2F7C3E593F1F6FE59AD1C035C75AE9123AD5D0540300A8B SWAP2 DUP2 SWAP1 PUSH2 0x280 SWAP1 DUP3 PUSH2 0x6D1 JUMP JUMPDEST SUB SWAP1 LOG1 DUP1 RETURN JUMPDEST DUP10 MLOAD PUSH3 0x461BCD PUSH1 0xE5 SHL DUP2 MSTORE PUSH1 0x20 DUP2 DUP12 ADD MSTORE PUSH1 0x13 PUSH1 0x24 DUP3 ADD MSTORE PUSH19 0x86D0C2D8D8CADCCECA40C4DEDCC840784062F PUSH1 0x6B SHL PUSH1 0x44 DUP3 ADD MSTORE PUSH1 0x64 SWAP1 REVERT JUMPDEST DUP11 MLOAD PUSH3 0x461BCD PUSH1 0xE5 SHL DUP2 MSTORE PUSH1 0x20 DUP2 DUP13 ADD MSTORE PUSH1 0x15 PUSH1 0x24 DUP3 ADD MSTORE PUSH21 0x4665652063616E6E6F742065786365656420313025 PUSH1 0x58 SHL PUSH1 0x44 DUP3 ADD MSTORE PUSH1 0x64 SWAP1 REVERT JUMPDEST DUP14 DUP1 REVERT JUMPDEST DUP13 DUP1 REVERT JUMPDEST DUP10 DUP1 REVERT JUMPDEST DUP9 DUP1 REVERT JUMPDEST DUP8 DUP1 REVERT JUMPDEST PUSH1 0x44 SWAP3 SWAP2 MLOAD SWAP2 PUSH4 0xE2517D3F PUSH1 0xE0 SHL DUP4 MSTORE CALLER SWAP1 DUP4 ADD MSTORE PUSH1 0x24 DUP3 ADD MSTORE REVERT JUMPDEST DUP3 DUP1 REVERT JUMPDEST DUP4 DUP3 CALLVALUE PUSH2 0x34D JUMPI DUP2 PUSH1 0x3 NOT CALLDATASIZE ADD SLT PUSH2 0x34D JUMPI PUSH1 0x20 SWAP1 PUSH1 0x1 SLOAD SWAP1 MLOAD SWAP1 DUP2 MSTORE RETURN JUMPDEST POP DUP1 REVERT JUMPDEST POP DUP3 CALLVALUE PUSH2 0x376 JUMPI DUP1 PUSH1 0x3 NOT CALLDATASIZE ADD SLT PUSH2 0x376 JUMPI POP PUSH2 0xFFFF PUSH1 0x20 SWAP3 SLOAD PUSH1 0xD0 SHR AND SWAP1 MLOAD SWAP1 DUP2 MSTORE RETURN JUMPDEST DUP1 REVERT JUMPDEST DUP4 DUP3 CALLVALUE PUSH2 0x34D JUMPI PUSH1 0x1 PUSH2 0x3AA SWAP2 PUSH2 0x3A5 PUSH2 0x392 CALLDATASIZE PUSH2 0x6A6 JUMP JUMPDEST SWAP4 SWAP1 SWAP3 DUP4 DUP8 MSTORE DUP7 PUSH1 0x20 MSTORE DUP7 KECCAK256 ADD SLOAD PUSH2 0x739 JUMP JUMPDEST PUSH2 0x7FB JUMP JUMPDEST POP DUP1 RETURN JUMPDEST DUP4 DUP3 CALLVALUE PUSH2 0x34D JUMPI DUP2 PUSH1 0x3 NOT CALLDATASIZE ADD SLT PUSH2 0x34D JUMPI PUSH1 0x20 SWAP1 MLOAD PUSH32 0x7935BD0AE54BC31F548C14DBA4D37C5C64B3F8CA900CB468FB8ABD54D5894F55 DUP2 MSTORE RETURN JUMPDEST POP CALLVALUE PUSH2 0x32A JUMPI DUP3 PUSH1 0x3 NOT CALLDATASIZE ADD SLT PUSH2 0x32A JUMPI PUSH2 0x495 SWAP3 PUSH1 0xE0 PUSH2 0x408 PUSH2 0x870 JUMP JUMPDEST DUP3 DUP2 MSTORE DUP3 PUSH1 0x20 DUP3 ADD MSTORE DUP3 DUP5 DUP3 ADD MSTORE DUP3 PUSH1 0x60 DUP3 ADD MSTORE DUP3 PUSH1 0x80 DUP3 ADD MSTORE DUP3 PUSH1 0xA0 DUP3 ADD MSTORE DUP3 PUSH1 0xC0 DUP3 ADD MSTORE ADD MSTORE PUSH2 0x438 PUSH2 0x870 JUMP JUMPDEST SWAP2 PUSH1 0x1 SLOAD DUP4 MSTORE PUSH1 0x2 SLOAD PUSH1 0x20 DUP5 ADD MSTORE PUSH1 0x3 SLOAD DUP3 DUP5 ADD MSTORE SLOAD PUSH8 0xFFFFFFFFFFFFFFFF DUP1 DUP3 AND PUSH1 0x60 DUP6 ADD MSTORE DUP1 DUP3 DUP5 SHR AND PUSH1 0x80 DUP6 ADD MSTORE DUP2 PUSH1 0x80 SHR AND PUSH1 0xA0 DUP5 ADD MSTORE PUSH2 0xFFFF SWAP1 DUP2 DUP2 PUSH1 0xC0 SHR AND PUSH1 0xC0 DUP6 ADD MSTORE PUSH1 0xD0 SHR AND PUSH1 0xE0 DUP4 ADD MSTORE MLOAD SWAP2 DUP3 SWAP2 DUP3 PUSH2 0x6D1 JUMP JUMPDEST SUB SWAP1 RETURN JUMPDEST DUP4 DUP3 CALLVALUE PUSH2 0x34D JUMPI DUP2 PUSH1 0x3 NOT CALLDATASIZE ADD SLT PUSH2 0x34D JUMPI PUSH1 0x20 SWAP1 PUSH1 0x2 SLOAD SWAP1 MLOAD SWAP1 DUP2 MSTORE RETURN JUMPDEST DUP4 DUP3 CALLVALUE PUSH2 0x34D JUMPI DUP2 PUSH1 0x3 NOT CALLDATASIZE ADD SLT PUSH2 0x34D JUMPI MLOAD SWAP1 DUP2 MSTORE PUSH1 0x20 SWAP1 RETURN JUMPDEST DUP4 DUP3 CALLVALUE PUSH2 0x34D JUMPI PUSH1 0xFF DUP2 PUSH1 0x20 SWAP4 PUSH2 0x4E9 CALLDATASIZE PUSH2 0x6A6 JUMP JUMPDEST SWAP1 DUP3 MSTORE DUP2 DUP7 MSTORE DUP3 DUP3 KECCAK256 PUSH1 0x1 PUSH1 0x1 PUSH1 0xA0 SHL SUB SWAP1 SWAP2 AND DUP3 MSTORE DUP6 MSTORE KECCAK256 SLOAD SWAP2 MLOAD SWAP2 AND ISZERO ISZERO DUP2 MSTORE RETURN JUMPDEST POP DUP3 CALLVALUE PUSH2 0x376 JUMPI DUP1 PUSH1 0x3 NOT CALLDATASIZE ADD SLT PUSH2 0x376 JUMPI POP PUSH8 0xFFFFFFFFFFFFFFFF PUSH1 0x20 SWAP3 SLOAD DUP3 SHR AND SWAP1 MLOAD SWAP1 DUP2 MSTORE RETURN JUMPDEST DUP4 DUP3 CALLVALUE PUSH2 0x34D JUMPI DUP2 PUSH1 0x3 NOT CALLDATASIZE ADD SLT PUSH2 0x34D JUMPI PUSH1 0x20 SWAP1 PUSH1 0x3 SLOAD SWAP1 MLOAD SWAP1 DUP2 MSTORE RETURN JUMPDEST POP DUP3 SWAP1 CALLVALUE PUSH2 0x34D JUMPI PUSH2 0x567 CALLDATASIZE PUSH2 0x6A6 JUMP JUMPDEST SWAP2 CALLER PUSH1 0x1 PUSH1 0x1 PUSH1 0xA0 SHL SUB DUP5 AND SUB PUSH2 0x583 JUMPI POP SWAP1 PUSH2 0x3AA SWAP2 PUSH2 0x7FB JUMP JUMPDEST MLOAD PUSH4 0x334BD919 PUSH1 0xE1 SHL DUP2 MSTORE DUP5 SWAP1 REVERT JUMPDEST POP DUP3 CALLVALUE PUSH2 0x376 JUMPI DUP1 PUSH1 0x3 NOT CALLDATASIZE ADD SLT PUSH2 0x376 JUMPI POP PUSH8 0xFFFFFFFFFFFFFFFF PUSH1 0x20 SWAP3 SLOAD AND SWAP1 MLOAD SWAP1 DUP2 MSTORE RETURN JUMPDEST DUP4 DUP3 CALLVALUE PUSH2 0x34D JUMPI PUSH1 0x1 PUSH2 0x3AA SWAP2 PUSH2 0x5D3 PUSH2 0x392 CALLDATASIZE PUSH2 0x6A6 JUMP JUMPDEST PUSH2 0x77D JUMP JUMPDEST POP DUP3 CALLVALUE PUSH2 0x376 JUMPI DUP1 PUSH1 0x3 NOT CALLDATASIZE ADD SLT PUSH2 0x376 JUMPI POP PUSH8 0xFFFFFFFFFFFFFFFF PUSH1 0x20 SWAP3 SLOAD PUSH1 0x80 SHR AND SWAP1 MLOAD SWAP1 DUP2 MSTORE RETURN JUMPDEST POP DUP3 CALLVALUE PUSH2 0x376 JUMPI DUP1 PUSH1 0x3 NOT CALLDATASIZE ADD SLT PUSH2 0x376 JUMPI POP PUSH2 0xFFFF PUSH1 0x20 SWAP3 SLOAD PUSH1 0xC0 SHR AND SWAP1 MLOAD SWAP1 DUP2 MSTORE RETURN JUMPDEST POP SWAP1 CALLVALUE PUSH2 0x32A JUMPI PUSH1 0x20 CALLDATASIZE PUSH1 0x3 NOT ADD SLT PUSH2 0x32A JUMPI DUP2 PUSH1 0x20 SWAP4 PUSH1 0x1 SWAP3 CALLDATALOAD DUP2 MSTORE DUP1 DUP6 MSTORE KECCAK256 ADD SLOAD SWAP1 MLOAD SWAP1 DUP2 MSTORE RETURN JUMPDEST DUP5 SWAP1 DUP5 CALLVALUE PUSH2 0x32A JUMPI PUSH1 0x20 CALLDATASIZE PUSH1 0x3 NOT ADD SLT PUSH2 0x32A JUMPI CALLDATALOAD PUSH4 0xFFFFFFFF PUSH1 0xE0 SHL DUP2 AND DUP1 SWAP2 SUB PUSH2 0x32A JUMPI PUSH1 0x20 SWAP3 POP PUSH4 0x7965DB0B PUSH1 0xE0 SHL DUP2 EQ SWAP1 DUP2 ISZERO PUSH2 0x695 JUMPI JUMPDEST POP ISZERO ISZERO DUP2 MSTORE RETURN JUMPDEST PUSH4 0x1FFC9A7 PUSH1 0xE0 SHL EQ SWAP1 POP DUP4 PUSH2 0x68E JUMP JUMPDEST PUSH1 0x40 SWAP1 PUSH1 0x3 NOT ADD SLT PUSH2 0x6CC JUMPI PUSH1 0x4 CALLDATALOAD SWAP1 PUSH1 0x24 CALLDATALOAD PUSH1 0x1 PUSH1 0x1 PUSH1 0xA0 SHL SUB DUP2 AND DUP2 SUB PUSH2 0x6CC JUMPI SWAP1 JUMP JUMPDEST PUSH1 0x0 DUP1 REVERT JUMPDEST SWAP2 SWAP1 SWAP2 PUSH1 0xE0 PUSH2 0x100 DUP3 ADD SWAP4 DUP1 MLOAD DUP4 MSTORE PUSH1 0x20 DUP2 ADD MLOAD PUSH1 0x20 DUP5 ADD MSTORE PUSH1 0x40 DUP2 ADD MLOAD PUSH1 0x40 DUP5 ADD MSTORE PUSH8 0xFFFFFFFFFFFFFFFF DUP1 PUSH1 0x60 DUP4 ADD MLOAD AND PUSH1 0x60 DUP6 ADD MSTORE DUP1 PUSH1 0x80 DUP4 ADD MLOAD AND PUSH1 0x80 DUP6 ADD MSTORE PUSH1 0xA0 DUP3 ADD MLOAD AND PUSH1 0xA0 DUP5 ADD MSTORE DUP2 PUSH2 0xFFFF SWAP2 DUP3 PUSH1 0xC0 DUP3 ADD MLOAD AND PUSH1 0xC0 DUP7 ADD MSTORE ADD MLOAD AND SWAP2 ADD MSTORE JUMP JUMPDEST DUP1 PUSH1 0x0 MSTORE PUSH1 0x0 PUSH1 0x20 MSTORE PUSH1 0x40 PUSH1 0x0 KECCAK256 CALLER PUSH1 0x0 MSTORE PUSH1 0x20 MSTORE PUSH1 0xFF PUSH1 0x40 PUSH1 0x0 KECCAK256 SLOAD AND ISZERO PUSH2 0x75F JUMPI POP JUMP JUMPDEST PUSH1 0x44 SWAP1 PUSH1 0x40 MLOAD SWAP1 PUSH4 0xE2517D3F PUSH1 0xE0 SHL DUP3 MSTORE CALLER PUSH1 0x4 DUP4 ADD MSTORE PUSH1 0x24 DUP3 ADD MSTORE REVERT JUMPDEST SWAP1 PUSH1 0x0 SWAP2 DUP1 DUP4 MSTORE DUP3 PUSH1 0x20 MSTORE PUSH1 0x40 DUP4 KECCAK256 SWAP2 PUSH1 0x1 DUP1 PUSH1 0xA0 SHL SUB AND SWAP2 DUP3 DUP5 MSTORE PUSH1 0x20 MSTORE PUSH1 0xFF PUSH1 0x40 DUP5 KECCAK256 SLOAD AND ISZERO PUSH1 0x0 EQ PUSH2 0x7F6 JUMPI DUP1 DUP4 MSTORE DUP3 PUSH1 0x20 MSTORE PUSH1 0x40 DUP4 KECCAK256 DUP3 DUP5 MSTORE PUSH1 0x20 MSTORE PUSH1 0x40 DUP4 KECCAK256 PUSH1 0x1 PUSH1 0xFF NOT DUP3 SLOAD AND OR SWAP1 SSTORE PUSH32 0x2F8788117E7EFF1D82E926EC794901D17C78024A50270940304540A733656F0D CALLER SWAP4 DUP1 LOG4 PUSH1 0x1 SWAP1 JUMP JUMPDEST POP POP SWAP1 JUMP JUMPDEST SWAP1 PUSH1 0x0 SWAP2 DUP1 DUP4 MSTORE DUP3 PUSH1 0x20 MSTORE PUSH1 0x40 DUP4 KECCAK256 SWAP2 PUSH1 0x1 DUP1 PUSH1 0xA0 SHL SUB AND SWAP2 DUP3 DUP5 MSTORE PUSH1 0x20 MSTORE PUSH1 0xFF PUSH1 0x40 DUP5 KECCAK256 SLOAD AND PUSH1 0x0 EQ PUSH2 0x7F6 JUMPI DUP1 DUP4 MSTORE DUP3 PUSH1 0x20 MSTORE PUSH1 0x40 DUP4 KECCAK256 DUP3 DUP5 MSTORE PUSH1 0x20 MSTORE PUSH1 0x40 DUP4 KECCAK256 PUSH1 0xFF NOT DUP2 SLOAD AND SWAP1 SSTORE PUSH32 0xF6391F5C32D9C69D2A47EA670B442974B53935D1EDC7FD64EB21E047A839171B CALLER SWAP4 DUP1 LOG4 PUSH1 0x1 SWAP1 JUMP JUMPDEST PUSH1 0x40 MLOAD SWAP1 PUSH2 0x100 DUP3 ADD DUP3 DUP2 LT PUSH8 0xFFFFFFFFFFFFFFFF DUP3 GT OR PUSH2 0x891 JUMPI PUSH1 0x40 MSTORE JUMP JUMPDEST PUSH4 0x4E487B71 PUSH1 0xE0 SHL PUSH1 0x0 MSTORE PUSH1 0x41 PUSH1 0x4 MSTORE PUSH1 0x24 PUSH1 0x0 REVERT INVALID LOG2 PUSH5 0x6970667358 0x22 SLT KECCAK256 0xB1 SWAP7 0xC7 EQ PUSH24 0xE0EDFB2B38E648E73C1F1431D6AE99523F29AAA4DCD9F13A 0xF9 0xC5 GASLIMIT PUSH5 0x736F6C6343 STOP ADDMOD EQ STOP CALLER 0x2F DUP8 DUP9 GT PUSH31 0x7EFF1D82E926EC794901D17C78024A50270940304540A733656F0D00000000 "},"methodIdentifiers":{"DEFAULT_ADMIN_ROLE()":"a217fddf","GOVERNOR_ROLE()":"ccc57490","appealWindowSeconds()":"2efcb9ca","challengeBondBps()":"d7e2c680","creationBond()":"e0abf86f","feeBps()":"24a9d853","getConfig()":"c3f909d4","getRoleAdmin(bytes32)":"248a9ca3","grantRole(bytes32,address)":"2f2ff15d","hasRole(bytes32,address)":"91d14854","minStake()":"375b3c0a","minimumEngagement()":"ab650e60","minimumTradingSeconds()":"34c8fc02","renounceRole(bytes32,address)":"36568abe","resolutionDelaySeconds()":"40125b2c","revokeRole(bytes32,address)":"d547741f","supportsInterface(bytes4)":"01ffc9a7","updateConfig((uint256,uint256,uint256,uint64,uint64,uint64,uint16,uint16))":"feb71559"}}}}}