{"contracts/HelixReserve.sol":{"HelixReserve":{"abi":[{"inputs":[{"internalType":"address","name":"tokenAddress","type":"address"}],"stateMutability":"nonpayable","type":"constructor"},{"inputs":[{"internalType":"address","name":"owner","type":"address"}],"name":"OwnableInvalidOwner","type":"error"},{"inputs":[{"internalType":"address","name":"account","type":"address"}],"name":"OwnableUnauthorizedAccount","type":"error"},{"inputs":[],"name":"ReentrancyGuardReentrantCall","type":"error"},{"anonymous":false,"inputs":[{"indexed":true,"internalType":"address","name":"buyer","type":"address"},{"indexed":false,"internalType":"uint256","name":"ethIn","type":"uint256"},{"indexed":false,"internalType":"uint256","name":"hlxOut","type":"uint256"}],"name":"Bought","type":"event"},{"anonymous":false,"inputs":[{"indexed":true,"internalType":"address","name":"marketAMM","type":"address"},{"indexed":false,"internalType":"uint256","name":"hlxAmount","type":"uint256"}],"name":"MarketSeeded","type":"event"},{"anonymous":false,"inputs":[{"indexed":true,"internalType":"address","name":"previousOwner","type":"address"},{"indexed":true,"internalType":"address","name":"newOwner","type":"address"}],"name":"OwnershipTransferStarted","type":"event"},{"anonymous":false,"inputs":[{"indexed":true,"internalType":"address","name":"previousOwner","type":"address"},{"indexed":true,"internalType":"address","name":"newOwner","type":"address"}],"name":"OwnershipTransferred","type":"event"},{"anonymous":false,"inputs":[{"indexed":true,"internalType":"address","name":"seller","type":"address"},{"indexed":false,"internalType":"uint256","name":"hlxIn","type":"uint256"},{"indexed":false,"internalType":"uint256","name":"ethOut","type":"uint256"}],"name":"Sold","type":"event"},{"inputs":[],"name":"RATE","outputs":[{"internalType":"uint256","name":"","type":"uint256"}],"stateMutability":"view","type":"function"},{"inputs":[],"name":"acceptOwnership","outputs":[],"stateMutability":"nonpayable","type":"function"},{"inputs":[],"name":"buy","outputs":[],"stateMutability":"payable","type":"function"},{"inputs":[],"name":"owner","outputs":[{"internalType":"address","name":"","type":"address"}],"stateMutability":"view","type":"function"},{"inputs":[],"name":"pendingOwner","outputs":[{"internalType":"address","name":"","type":"address"}],"stateMutability":"view","type":"function"},{"inputs":[],"name":"renounceOwnership","outputs":[],"stateMutability":"nonpayable","type":"function"},{"inputs":[{"internalType":"address","name":"marketAMM","type":"address"},{"internalType":"uint256","name":"hlxAmount","type":"uint256"}],"name":"seedMarket","outputs":[],"stateMutability":"nonpayable","type":"function"},{"inputs":[{"internalType":"uint256","name":"hlxAmount","type":"uint256"}],"name":"sell","outputs":[],"stateMutability":"nonpayable","type":"function"},{"inputs":[],"name":"token","outputs":[{"internalType":"contract AlphaHelixToken","name":"","type":"address"}],"stateMutability":"view","type":"function"},{"inputs":[{"internalType":"address","name":"newOwner","type":"address"}],"name":"transferOwnership","outputs":[],"stateMutability":"nonpayable","type":"function"},{"stateMutability":"payable","type":"receive"}],"evm":{"bytecode":{"linkReferences":{},"object":"60a03461013657601f610c6938819003918201601f19168301916001600160401b0383118484101761013b5780849260209460405283398101031261013657516001600160a01b0380821691829003610136576001600055331561011d5760018060a01b03198060025416600255600154903390821617600155604051913391167f8be0079c531659141344cd1fd0a4f28419497f9722a3daafe3b4186f6b6457e0600080a381156100db5750608052604051610b179081610152823960805181818160c8015281816101c00152818161055101526109e50152f35b62461bcd60e51b815260206004820152601c60248201527f546f6b656e20616464726573732063616e6e6f74206265207a65726f000000006044820152606490fd5b604051631e4fbdf760e01b815260006004820152602490fd5b600080fd5b634e487b7160e01b600052604160045260246000fdfe6080604081815260049182361015610037575b505050361561002057600080fd5b6100286109ab565b6100306109ce565b6001600055005b600092833560e01c918263664e9704146108e957508163715018a61461088257816379ba5097146107f45781638da5cb5b146107cb578163a6f2ae3a146107a8578163da5cc7e61461050b578163e30c3978146104e2578163e4849b321461016c57508063f2fde38b146100fb5763fc0c546a146100b55780610012565b346100f757816003193601126100f757517f00000000000000000000000000000000000000000000000000000000000000006001600160a01b03168152602090f35b5080fd5b823461016957602036600319011261016957610115610905565b61011d61091b565b600280546001600160a01b0319166001600160a01b039283169081179091556001549091167f38d16b8cac22d99fc7c124b9cd0de2d3fa1faef420bfe791d8c362d765e227008380a380f35b80fd5b839150346100f757602092836003193601126104de5781359161018d6109ab565b82156104a8576103e880840661045a57830490814710610417578251636eb1769f60e11b815233828201523060248201527f00000000000000000000000000000000000000000000000000000000000000006001600160a01b0316908781604481855afa90811561039b5790869188916103e1575b50106103a55783516323b872dd60e01b815233838201523060248201526044810186905287816064818a865af1801561039b5761036e575b50803b1561036a578351632770a7eb60e21b815230838201908152602081018790529091879183919082908490829060400103925af1801561036057908691610348575b5080808085335af13d15610343573d67ffffffffffffffff8111610330578451906102b2601f8201601f19168a0183610971565b815286883d92013e5b156102f757507fbac9694ac0daa55169abd117086fe32c89401d9a3b15dd1d34e55e0aa4e47a9d92939482519485528401523392a26001815580f35b825162461bcd60e51b81529081018690526013602482015272115512081d1c985b9cd9995c8819985a5b1959606a1b6044820152606490fd5b634e487b7160e01b875260418352602487fd5b6102bb565b61035190610947565b61035c57848761027e565b8480fd5b84513d88823e3d90fd5b8580fd5b61038d90883d8a11610394575b6103858183610971565b810190610993565b508761023a565b503d61037b565b85513d89823e3d90fd5b835162461bcd60e51b81528083018890526016602482015275496e73756666696369656e7420616c6c6f77616e636560501b6044820152606490fd5b809250898092503d8311610410575b6103fa8183610971565b8101031261040b5785905189610202565b600080fd5b503d6103f0565b825162461bcd60e51b8152908101869052601b60248201527f496e73756666696369656e742045544820696e207265736572766500000000006044820152606490fd5b5084608492519162461bcd60e51b83528201526024808201527f484c5820616d6f756e74206d75737420636f6e7665727420746f2077686f6c656044820152632077656960e01b6064820152fd5b84606492519162461bcd60e51b83528201526012602482015271484c5820616d6f756e74206973207a65726f60701b6044820152fd5b8280fd5b5050346100f757816003193601126100f75760025490516001600160a01b039091168152602090f35b839150346100f757826003193601126100f757610526610905565b60249182359061053461091b565b61053c6109ab565b6001600160a01b0383811694908515610766577f0000000000000000000000000000000000000000000000000000000000000000168751946370a0823160e01b8652308487015260209586818581865afa90811561075c579086918a91610727575b50106106e557885163095ea7b360e01b81526001600160a01b03909116848201908152602081018690529091869183919082908b90829060400103925af19081156106db5787916106be575b501561068b57843b1561036a57865163140e25ad60e31b8152918201839052859082908183885af180156106815761064e575b507fba8aa5840f5167bbc6733953899c93f85400c9147684c18a556f8342255ee0d692939451908152a26001815580f35b9361067a7fba8aa5840f5167bbc6733953899c93f85400c9147684c18a556f8342255ee0d69495610947565b939261061d565b86513d87823e3d90fd5b865162461bcd60e51b8152918201849052600e908201526d105c1c1c9bdd994819985a5b195960921b6044820152606490fd5b6106d59150853d8711610394576103858183610971565b886105ea565b88513d89823e3d90fd5b885162461bcd60e51b81528085018790526018818501527f496e73756666696369656e7420484c58207265736572766500000000000000006044820152606490fd5b809250888092503d8311610755575b6107408183610971565b81010312610751578590518b61059e565b8880fd5b503d610736565b8a513d8b823e3d90fd5b875162461bcd60e51b81526020818501526019818401527f4d61726b657420414d4d2063616e6e6f74206265207a65726f000000000000006044820152606490fd5b8380600319360112610169576107bc6109ab565b6107c46109ce565b6001815580f35b5050346100f757816003193601126100f75760015490516001600160a01b039091168152602090f35b919050346104de57826003193601126104de57600254916001600160a01b0391338385160361086b5750506bffffffffffffffffffffffff60a01b8092166002556001549133908316176001553391167f8be0079c531659141344cd1fd0a4f28419497f9722a3daafe3b4186f6b6457e08380a380f35b60249250519063118cdaa760e01b82523390820152fd5b833461016957806003193601126101695761089b61091b565b600280546001600160a01b031990811690915560018054918216905581906001600160a01b03167f8be0079c531659141344cd1fd0a4f28419497f9722a3daafe3b4186f6b6457e08280a380f35b8490346100f757816003193601126100f757806103e860209252f35b600435906001600160a01b038216820361040b57565b6001546001600160a01b0316330361092f57565b60405163118cdaa760e01b8152336004820152602490fd5b67ffffffffffffffff811161095b57604052565b634e487b7160e01b600052604160045260246000fd5b90601f8019910116810190811067ffffffffffffffff82111761095b57604052565b9081602091031261040b5751801515810361040b5790565b6002600054146109bc576002600055565b604051633ee5aeb560e01b8152600490fd5b3415610aae576103e88034029034820403610a98577f00000000000000000000000000000000000000000000000000000000000000006001600160a01b0316803b1561040b576040516340c10f1960e01b815233600482015260248101839052906000908290604490829084905af18015610a8c57610a7d575b506040519034825260208201527fa9a40dec7a304e5915d11358b968c1e8d365992abf20f82285d1df1b30c8e24c60403392a2565b610a8690610947565b38610a48565b6040513d6000823e3d90fd5b634e487b7160e01b600052601160045260246000fd5b60405162461bcd60e51b815260206004820152600b60248201526a139bc8115512081cd95b9d60aa1b6044820152606490fdfea26469706673582212205287c942ab971bd8be36facfffedefe4277e22f61230b2d9266e86521805702464736f6c63430008140033","opcodes":"PUSH1 0xA0 CALLVALUE PUSH2 0x136 JUMPI PUSH1 0x1F PUSH2 0xC69 CODESIZE DUP2 SWAP1 SUB SWAP2 DUP3 ADD PUSH1 0x1F NOT AND DUP4 ADD SWAP2 PUSH1 0x1 PUSH1 0x1 PUSH1 0x40 SHL SUB DUP4 GT DUP5 DUP5 LT OR PUSH2 0x13B JUMPI DUP1 DUP5 SWAP3 PUSH1 0x20 SWAP5 PUSH1 0x40 MSTORE DUP4 CODECOPY DUP2 ADD SUB SLT PUSH2 0x136 JUMPI MLOAD PUSH1 0x1 PUSH1 0x1 PUSH1 0xA0 SHL SUB DUP1 DUP3 AND SWAP2 DUP3 SWAP1 SUB PUSH2 0x136 JUMPI PUSH1 0x1 PUSH1 0x0 SSTORE CALLER ISZERO PUSH2 0x11D JUMPI PUSH1 0x1 DUP1 PUSH1 0xA0 SHL SUB NOT DUP1 PUSH1 0x2 SLOAD AND PUSH1 0x2 SSTORE PUSH1 0x1 SLOAD SWAP1 CALLER SWAP1 DUP3 AND OR PUSH1 0x1 SSTORE PUSH1 0x40 MLOAD SWAP2 CALLER SWAP2 AND PUSH32 0x8BE0079C531659141344CD1FD0A4F28419497F9722A3DAAFE3B4186F6B6457E0 PUSH1 0x0 DUP1 LOG3 DUP2 ISZERO PUSH2 0xDB JUMPI POP PUSH1 0x80 MSTORE PUSH1 0x40 MLOAD PUSH2 0xB17 SWAP1 DUP2 PUSH2 0x152 DUP3 CODECOPY PUSH1 0x80 MLOAD DUP2 DUP2 DUP2 PUSH1 0xC8 ADD MSTORE DUP2 DUP2 PUSH2 0x1C0 ADD MSTORE DUP2 DUP2 PUSH2 0x551 ADD MSTORE PUSH2 0x9E5 ADD MSTORE RETURN JUMPDEST PUSH3 0x461BCD PUSH1 0xE5 SHL DUP2 MSTORE PUSH1 0x20 PUSH1 0x4 DUP3 ADD MSTORE PUSH1 0x1C PUSH1 0x24 DUP3 ADD MSTORE PUSH32 0x546F6B656E20616464726573732063616E6E6F74206265207A65726F00000000 PUSH1 0x44 DUP3 ADD MSTORE PUSH1 0x64 SWAP1 REVERT JUMPDEST PUSH1 0x40 MLOAD PUSH4 0x1E4FBDF7 PUSH1 0xE0 SHL DUP2 MSTORE PUSH1 0x0 PUSH1 0x4 DUP3 ADD MSTORE PUSH1 0x24 SWAP1 REVERT JUMPDEST PUSH1 0x0 DUP1 REVERT JUMPDEST PUSH4 0x4E487B71 PUSH1 0xE0 SHL PUSH1 0x0 MSTORE PUSH1 0x41 PUSH1 0x4 MSTORE PUSH1 0x24 PUSH1 0x0 REVERT INVALID PUSH1 0x80 PUSH1 0x40 DUP2 DUP2 MSTORE PUSH1 0x4 SWAP2 DUP3 CALLDATASIZE LT ISZERO PUSH2 0x37 JUMPI JUMPDEST POP POP POP CALLDATASIZE ISZERO PUSH2 0x20 JUMPI PUSH1 0x0 DUP1 REVERT JUMPDEST PUSH2 0x28 PUSH2 0x9AB JUMP JUMPDEST PUSH2 0x30 PUSH2 0x9CE JUMP JUMPDEST PUSH1 0x1 PUSH1 0x0 SSTORE STOP JUMPDEST PUSH1 0x0 SWAP3 DUP4 CALLDATALOAD PUSH1 0xE0 SHR SWAP2 DUP3 PUSH4 0x664E9704 EQ PUSH2 0x8E9 JUMPI POP DUP2 PUSH4 0x715018A6 EQ PUSH2 0x882 JUMPI DUP2 PUSH4 0x79BA5097 EQ PUSH2 0x7F4 JUMPI DUP2 PUSH4 0x8DA5CB5B EQ PUSH2 0x7CB JUMPI DUP2 PUSH4 0xA6F2AE3A EQ PUSH2 0x7A8 JUMPI DUP2 PUSH4 0xDA5CC7E6 EQ PUSH2 0x50B JUMPI DUP2 PUSH4 0xE30C3978 EQ PUSH2 0x4E2 JUMPI DUP2 PUSH4 0xE4849B32 EQ PUSH2 0x16C JUMPI POP DUP1 PUSH4 0xF2FDE38B EQ PUSH2 0xFB JUMPI PUSH4 0xFC0C546A EQ PUSH2 0xB5 JUMPI DUP1 PUSH2 0x12 JUMP JUMPDEST CALLVALUE PUSH2 0xF7 JUMPI DUP2 PUSH1 0x3 NOT CALLDATASIZE ADD SLT PUSH2 0xF7 JUMPI MLOAD PUSH32 0x0 PUSH1 0x1 PUSH1 0x1 PUSH1 0xA0 SHL SUB AND DUP2 MSTORE PUSH1 0x20 SWAP1 RETURN JUMPDEST POP DUP1 REVERT JUMPDEST DUP3 CALLVALUE PUSH2 0x169 JUMPI PUSH1 0x20 CALLDATASIZE PUSH1 0x3 NOT ADD SLT PUSH2 0x169 JUMPI PUSH2 0x115 PUSH2 0x905 JUMP JUMPDEST PUSH2 0x11D PUSH2 0x91B JUMP JUMPDEST PUSH1 0x2 DUP1 SLOAD PUSH1 0x1 PUSH1 0x1 PUSH1 0xA0 SHL SUB NOT AND PUSH1 0x1 PUSH1 0x1 PUSH1 0xA0 SHL SUB SWAP3 DUP4 AND SWAP1 DUP2 OR SWAP1 SWAP2 SSTORE PUSH1 0x1 SLOAD SWAP1 SWAP2 AND PUSH32 0x38D16B8CAC22D99FC7C124B9CD0DE2D3FA1FAEF420BFE791D8C362D765E22700 DUP4 DUP1 LOG3 DUP1 RETURN JUMPDEST DUP1 REVERT JUMPDEST DUP4 SWAP2 POP CALLVALUE PUSH2 0xF7 JUMPI PUSH1 0x20 SWAP3 DUP4 PUSH1 0x3 NOT CALLDATASIZE ADD SLT PUSH2 0x4DE JUMPI DUP2 CALLDATALOAD SWAP2 PUSH2 0x18D PUSH2 0x9AB JUMP JUMPDEST DUP3 ISZERO PUSH2 0x4A8 JUMPI PUSH2 0x3E8 DUP1 DUP5 MOD PUSH2 0x45A JUMPI DUP4 DIV SWAP1 DUP2 SELFBALANCE LT PUSH2 0x417 JUMPI DUP3 MLOAD PUSH4 0x6EB1769F PUSH1 0xE1 SHL DUP2 MSTORE CALLER DUP3 DUP3 ADD MSTORE ADDRESS PUSH1 0x24 DUP3 ADD MSTORE PUSH32 0x0 PUSH1 0x1 PUSH1 0x1 PUSH1 0xA0 SHL SUB AND SWAP1 DUP8 DUP2 PUSH1 0x44 DUP2 DUP6 GAS STATICCALL SWAP1 DUP2 ISZERO PUSH2 0x39B JUMPI SWAP1 DUP7 SWAP2 DUP9 SWAP2 PUSH2 0x3E1 JUMPI JUMPDEST POP LT PUSH2 0x3A5 JUMPI DUP4 MLOAD PUSH4 0x23B872DD PUSH1 0xE0 SHL DUP2 MSTORE CALLER DUP4 DUP3 ADD MSTORE ADDRESS PUSH1 0x24 DUP3 ADD MSTORE PUSH1 0x44 DUP2 ADD DUP7 SWAP1 MSTORE DUP8 DUP2 PUSH1 0x64 DUP2 DUP11 DUP7 GAS CALL DUP1 ISZERO PUSH2 0x39B JUMPI PUSH2 0x36E JUMPI JUMPDEST POP DUP1 EXTCODESIZE ISZERO PUSH2 0x36A JUMPI DUP4 MLOAD PUSH4 0x2770A7EB PUSH1 0xE2 SHL DUP2 MSTORE ADDRESS DUP4 DUP3 ADD SWAP1 DUP2 MSTORE PUSH1 0x20 DUP2 ADD DUP8 SWAP1 MSTORE SWAP1 SWAP2 DUP8 SWAP2 DUP4 SWAP2 SWAP1 DUP3 SWAP1 DUP5 SWAP1 DUP3 SWAP1 PUSH1 0x40 ADD SUB SWAP3 GAS CALL DUP1 ISZERO PUSH2 0x360 JUMPI SWAP1 DUP7 SWAP2 PUSH2 0x348 JUMPI JUMPDEST POP DUP1 DUP1 DUP1 DUP6 CALLER GAS CALL RETURNDATASIZE ISZERO PUSH2 0x343 JUMPI RETURNDATASIZE PUSH8 0xFFFFFFFFFFFFFFFF DUP2 GT PUSH2 0x330 JUMPI DUP5 MLOAD SWAP1 PUSH2 0x2B2 PUSH1 0x1F DUP3 ADD PUSH1 0x1F NOT AND DUP11 ADD DUP4 PUSH2 0x971 JUMP JUMPDEST DUP2 MSTORE DUP7 DUP9 RETURNDATASIZE SWAP3 ADD RETURNDATACOPY JUMPDEST ISZERO PUSH2 0x2F7 JUMPI POP PUSH32 0xBAC9694AC0DAA55169ABD117086FE32C89401D9A3B15DD1D34E55E0AA4E47A9D SWAP3 SWAP4 SWAP5 DUP3 MLOAD SWAP5 DUP6 MSTORE DUP5 ADD MSTORE CALLER SWAP3 LOG2 PUSH1 0x1 DUP2 SSTORE DUP1 RETURN JUMPDEST DUP3 MLOAD PUSH3 0x461BCD PUSH1 0xE5 SHL DUP2 MSTORE SWAP1 DUP2 ADD DUP7 SWAP1 MSTORE PUSH1 0x13 PUSH1 0x24 DUP3 ADD MSTORE PUSH19 0x115512081D1C985B9CD9995C8819985A5B1959 PUSH1 0x6A SHL PUSH1 0x44 DUP3 ADD MSTORE PUSH1 0x64 SWAP1 REVERT JUMPDEST PUSH4 0x4E487B71 PUSH1 0xE0 SHL DUP8 MSTORE PUSH1 0x41 DUP4 MSTORE PUSH1 0x24 DUP8 REVERT JUMPDEST PUSH2 0x2BB JUMP JUMPDEST PUSH2 0x351 SWAP1 PUSH2 0x947 JUMP JUMPDEST PUSH2 0x35C JUMPI DUP5 DUP8 PUSH2 0x27E JUMP JUMPDEST DUP5 DUP1 REVERT JUMPDEST DUP5 MLOAD RETURNDATASIZE DUP9 DUP3 RETURNDATACOPY RETURNDATASIZE SWAP1 REVERT JUMPDEST DUP6 DUP1 REVERT JUMPDEST PUSH2 0x38D SWAP1 DUP9 RETURNDATASIZE DUP11 GT PUSH2 0x394 JUMPI JUMPDEST PUSH2 0x385 DUP2 DUP4 PUSH2 0x971 JUMP JUMPDEST DUP2 ADD SWAP1 PUSH2 0x993 JUMP JUMPDEST POP DUP8 PUSH2 0x23A JUMP JUMPDEST POP RETURNDATASIZE PUSH2 0x37B JUMP JUMPDEST DUP6 MLOAD RETURNDATASIZE DUP10 DUP3 RETURNDATACOPY RETURNDATASIZE SWAP1 REVERT JUMPDEST DUP4 MLOAD PUSH3 0x461BCD PUSH1 0xE5 SHL DUP2 MSTORE DUP1 DUP4 ADD DUP9 SWAP1 MSTORE PUSH1 0x16 PUSH1 0x24 DUP3 ADD MSTORE PUSH22 0x496E73756666696369656E7420616C6C6F77616E6365 PUSH1 0x50 SHL PUSH1 0x44 DUP3 ADD MSTORE PUSH1 0x64 SWAP1 REVERT JUMPDEST DUP1 SWAP3 POP DUP10 DUP1 SWAP3 POP RETURNDATASIZE DUP4 GT PUSH2 0x410 JUMPI JUMPDEST PUSH2 0x3FA DUP2 DUP4 PUSH2 0x971 JUMP JUMPDEST DUP2 ADD SUB SLT PUSH2 0x40B JUMPI DUP6 SWAP1 MLOAD DUP10 PUSH2 0x202 JUMP JUMPDEST PUSH1 0x0 DUP1 REVERT JUMPDEST POP RETURNDATASIZE PUSH2 0x3F0 JUMP JUMPDEST DUP3 MLOAD PUSH3 0x461BCD PUSH1 0xE5 SHL DUP2 MSTORE SWAP1 DUP2 ADD DUP7 SWAP1 MSTORE PUSH1 0x1B PUSH1 0x24 DUP3 ADD MSTORE PUSH32 0x496E73756666696369656E742045544820696E20726573657276650000000000 PUSH1 0x44 DUP3 ADD MSTORE PUSH1 0x64 SWAP1 REVERT JUMPDEST POP DUP5 PUSH1 0x84 SWAP3 MLOAD SWAP2 PUSH3 0x461BCD PUSH1 0xE5 SHL DUP4 MSTORE DUP3 ADD MSTORE PUSH1 0x24 DUP1 DUP3 ADD MSTORE PUSH32 0x484C5820616D6F756E74206D75737420636F6E7665727420746F2077686F6C65 PUSH1 0x44 DUP3 ADD MSTORE PUSH4 0x20776569 PUSH1 0xE0 SHL PUSH1 0x64 DUP3 ADD MSTORE REVERT JUMPDEST DUP5 PUSH1 0x64 SWAP3 MLOAD SWAP2 PUSH3 0x461BCD PUSH1 0xE5 SHL DUP4 MSTORE DUP3 ADD MSTORE PUSH1 0x12 PUSH1 0x24 DUP3 ADD MSTORE PUSH18 0x484C5820616D6F756E74206973207A65726F PUSH1 0x70 SHL PUSH1 0x44 DUP3 ADD MSTORE REVERT JUMPDEST DUP3 DUP1 REVERT JUMPDEST POP POP CALLVALUE PUSH2 0xF7 JUMPI DUP2 PUSH1 0x3 NOT CALLDATASIZE ADD SLT PUSH2 0xF7 JUMPI PUSH1 0x2 SLOAD SWAP1 MLOAD PUSH1 0x1 PUSH1 0x1 PUSH1 0xA0 SHL SUB SWAP1 SWAP2 AND DUP2 MSTORE PUSH1 0x20 SWAP1 RETURN JUMPDEST DUP4 SWAP2 POP CALLVALUE PUSH2 0xF7 JUMPI DUP3 PUSH1 0x3 NOT CALLDATASIZE ADD SLT PUSH2 0xF7 JUMPI PUSH2 0x526 PUSH2 0x905 JUMP JUMPDEST PUSH1 0x24 SWAP2 DUP3 CALLDATALOAD SWAP1 PUSH2 0x534 PUSH2 0x91B JUMP JUMPDEST PUSH2 0x53C PUSH2 0x9AB JUMP JUMPDEST PUSH1 0x1 PUSH1 0x1 PUSH1 0xA0 SHL SUB DUP4 DUP2 AND SWAP5 SWAP1 DUP6 ISZERO PUSH2 0x766 JUMPI PUSH32 0x0 AND DUP8 MLOAD SWAP5 PUSH4 0x70A08231 PUSH1 0xE0 SHL DUP7 MSTORE ADDRESS DUP5 DUP8 ADD MSTORE PUSH1 0x20 SWAP6 DUP7 DUP2 DUP6 DUP2 DUP7 GAS STATICCALL SWAP1 DUP2 ISZERO PUSH2 0x75C JUMPI SWAP1 DUP7 SWAP2 DUP11 SWAP2 PUSH2 0x727 JUMPI JUMPDEST POP LT PUSH2 0x6E5 JUMPI DUP9 MLOAD PUSH4 0x95EA7B3 PUSH1 0xE0 SHL DUP2 MSTORE PUSH1 0x1 PUSH1 0x1 PUSH1 0xA0 SHL SUB SWAP1 SWAP2 AND DUP5 DUP3 ADD SWAP1 DUP2 MSTORE PUSH1 0x20 DUP2 ADD DUP7 SWAP1 MSTORE SWAP1 SWAP2 DUP7 SWAP2 DUP4 SWAP2 SWAP1 DUP3 SWAP1 DUP12 SWAP1 DUP3 SWAP1 PUSH1 0x40 ADD SUB SWAP3 GAS CALL SWAP1 DUP2 ISZERO PUSH2 0x6DB JUMPI DUP8 SWAP2 PUSH2 0x6BE JUMPI JUMPDEST POP ISZERO PUSH2 0x68B JUMPI DUP5 EXTCODESIZE ISZERO PUSH2 0x36A JUMPI DUP7 MLOAD PUSH4 0x140E25AD PUSH1 0xE3 SHL DUP2 MSTORE SWAP2 DUP3 ADD DUP4 SWAP1 MSTORE DUP6 SWAP1 DUP3 SWAP1 DUP2 DUP4 DUP9 GAS CALL DUP1 ISZERO PUSH2 0x681 JUMPI PUSH2 0x64E JUMPI JUMPDEST POP PUSH32 0xBA8AA5840F5167BBC6733953899C93F85400C9147684C18A556F8342255EE0D6 SWAP3 SWAP4 SWAP5 MLOAD SWAP1 DUP2 MSTORE LOG2 PUSH1 0x1 DUP2 SSTORE DUP1 RETURN JUMPDEST SWAP4 PUSH2 0x67A PUSH32 0xBA8AA5840F5167BBC6733953899C93F85400C9147684C18A556F8342255EE0D6 SWAP5 SWAP6 PUSH2 0x947 JUMP JUMPDEST SWAP4 SWAP3 PUSH2 0x61D JUMP JUMPDEST DUP7 MLOAD RETURNDATASIZE DUP8 DUP3 RETURNDATACOPY RETURNDATASIZE SWAP1 REVERT JUMPDEST DUP7 MLOAD PUSH3 0x461BCD PUSH1 0xE5 SHL DUP2 MSTORE SWAP2 DUP3 ADD DUP5 SWAP1 MSTORE PUSH1 0xE SWAP1 DUP3 ADD MSTORE PUSH14 0x105C1C1C9BDD994819985A5B1959 PUSH1 0x92 SHL PUSH1 0x44 DUP3 ADD MSTORE PUSH1 0x64 SWAP1 REVERT JUMPDEST PUSH2 0x6D5 SWAP2 POP DUP6 RETURNDATASIZE DUP8 GT PUSH2 0x394 JUMPI PUSH2 0x385 DUP2 DUP4 PUSH2 0x971 JUMP JUMPDEST DUP9 PUSH2 0x5EA JUMP JUMPDEST DUP9 MLOAD RETURNDATASIZE DUP10 DUP3 RETURNDATACOPY RETURNDATASIZE SWAP1 REVERT JUMPDEST DUP9 MLOAD PUSH3 0x461BCD PUSH1 0xE5 SHL DUP2 MSTORE DUP1 DUP6 ADD DUP8 SWAP1 MSTORE PUSH1 0x18 DUP2 DUP6 ADD MSTORE PUSH32 0x496E73756666696369656E7420484C5820726573657276650000000000000000 PUSH1 0x44 DUP3 ADD MSTORE PUSH1 0x64 SWAP1 REVERT JUMPDEST DUP1 SWAP3 POP DUP9 DUP1 SWAP3 POP RETURNDATASIZE DUP4 GT PUSH2 0x755 JUMPI JUMPDEST PUSH2 0x740 DUP2 DUP4 PUSH2 0x971 JUMP JUMPDEST DUP2 ADD SUB SLT PUSH2 0x751 JUMPI DUP6 SWAP1 MLOAD DUP12 PUSH2 0x59E JUMP JUMPDEST DUP9 DUP1 REVERT JUMPDEST POP RETURNDATASIZE PUSH2 0x736 JUMP JUMPDEST DUP11 MLOAD RETURNDATASIZE DUP12 DUP3 RETURNDATACOPY RETURNDATASIZE SWAP1 REVERT JUMPDEST DUP8 MLOAD PUSH3 0x461BCD PUSH1 0xE5 SHL DUP2 MSTORE PUSH1 0x20 DUP2 DUP6 ADD MSTORE PUSH1 0x19 DUP2 DUP5 ADD MSTORE PUSH32 0x4D61726B657420414D4D2063616E6E6F74206265207A65726F00000000000000 PUSH1 0x44 DUP3 ADD MSTORE PUSH1 0x64 SWAP1 REVERT JUMPDEST DUP4 DUP1 PUSH1 0x3 NOT CALLDATASIZE ADD SLT PUSH2 0x169 JUMPI PUSH2 0x7BC PUSH2 0x9AB JUMP JUMPDEST PUSH2 0x7C4 PUSH2 0x9CE JUMP JUMPDEST PUSH1 0x1 DUP2 SSTORE DUP1 RETURN JUMPDEST POP POP CALLVALUE PUSH2 0xF7 JUMPI DUP2 PUSH1 0x3 NOT CALLDATASIZE ADD SLT PUSH2 0xF7 JUMPI PUSH1 0x1 SLOAD SWAP1 MLOAD PUSH1 0x1 PUSH1 0x1 PUSH1 0xA0 SHL SUB SWAP1 SWAP2 AND DUP2 MSTORE PUSH1 0x20 SWAP1 RETURN JUMPDEST SWAP2 SWAP1 POP CALLVALUE PUSH2 0x4DE JUMPI DUP3 PUSH1 0x3 NOT CALLDATASIZE ADD SLT PUSH2 0x4DE JUMPI PUSH1 0x2 SLOAD SWAP2 PUSH1 0x1 PUSH1 0x1 PUSH1 0xA0 SHL SUB SWAP2 CALLER DUP4 DUP6 AND SUB PUSH2 0x86B JUMPI POP POP PUSH12 0xFFFFFFFFFFFFFFFFFFFFFFFF PUSH1 0xA0 SHL DUP1 SWAP3 AND PUSH1 0x2 SSTORE PUSH1 0x1 SLOAD SWAP2 CALLER SWAP1 DUP4 AND OR PUSH1 0x1 SSTORE CALLER SWAP2 AND PUSH32 0x8BE0079C531659141344CD1FD0A4F28419497F9722A3DAAFE3B4186F6B6457E0 DUP4 DUP1 LOG3 DUP1 RETURN JUMPDEST PUSH1 0x24 SWAP3 POP MLOAD SWAP1 PUSH4 0x118CDAA7 PUSH1 0xE0 SHL DUP3 MSTORE CALLER SWAP1 DUP3 ADD MSTORE REVERT JUMPDEST DUP4 CALLVALUE PUSH2 0x169 JUMPI DUP1 PUSH1 0x3 NOT CALLDATASIZE ADD SLT PUSH2 0x169 JUMPI PUSH2 0x89B PUSH2 0x91B JUMP JUMPDEST PUSH1 0x2 DUP1 SLOAD PUSH1 0x1 PUSH1 0x1 PUSH1 0xA0 SHL SUB NOT SWAP1 DUP2 AND SWAP1 SWAP2 SSTORE PUSH1 0x1 DUP1 SLOAD SWAP2 DUP3 AND SWAP1 SSTORE DUP2 SWAP1 PUSH1 0x1 PUSH1 0x1 PUSH1 0xA0 SHL SUB AND PUSH32 0x8BE0079C531659141344CD1FD0A4F28419497F9722A3DAAFE3B4186F6B6457E0 DUP3 DUP1 LOG3 DUP1 RETURN JUMPDEST DUP5 SWAP1 CALLVALUE PUSH2 0xF7 JUMPI DUP2 PUSH1 0x3 NOT CALLDATASIZE ADD SLT PUSH2 0xF7 JUMPI DUP1 PUSH2 0x3E8 PUSH1 0x20 SWAP3 MSTORE RETURN JUMPDEST PUSH1 0x4 CALLDATALOAD SWAP1 PUSH1 0x1 PUSH1 0x1 PUSH1 0xA0 SHL SUB DUP3 AND DUP3 SUB PUSH2 0x40B JUMPI JUMP JUMPDEST PUSH1 0x1 SLOAD PUSH1 0x1 PUSH1 0x1 PUSH1 0xA0 SHL SUB AND CALLER SUB PUSH2 0x92F JUMPI JUMP JUMPDEST PUSH1 0x40 MLOAD PUSH4 0x118CDAA7 PUSH1 0xE0 SHL DUP2 MSTORE CALLER PUSH1 0x4 DUP3 ADD MSTORE PUSH1 0x24 SWAP1 REVERT JUMPDEST PUSH8 0xFFFFFFFFFFFFFFFF DUP2 GT PUSH2 0x95B JUMPI PUSH1 0x40 MSTORE JUMP JUMPDEST PUSH4 0x4E487B71 PUSH1 0xE0 SHL PUSH1 0x0 MSTORE PUSH1 0x41 PUSH1 0x4 MSTORE PUSH1 0x24 PUSH1 0x0 REVERT JUMPDEST SWAP1 PUSH1 0x1F DUP1 NOT SWAP2 ADD AND DUP2 ADD SWAP1 DUP2 LT PUSH8 0xFFFFFFFFFFFFFFFF DUP3 GT OR PUSH2 0x95B JUMPI PUSH1 0x40 MSTORE JUMP JUMPDEST SWAP1 DUP2 PUSH1 0x20 SWAP2 SUB SLT PUSH2 0x40B JUMPI MLOAD DUP1 ISZERO ISZERO DUP2 SUB PUSH2 0x40B JUMPI SWAP1 JUMP JUMPDEST PUSH1 0x2 PUSH1 0x0 SLOAD EQ PUSH2 0x9BC JUMPI PUSH1 0x2 PUSH1 0x0 SSTORE JUMP JUMPDEST PUSH1 0x40 MLOAD PUSH4 0x3EE5AEB5 PUSH1 0xE0 SHL DUP2 MSTORE PUSH1 0x4 SWAP1 REVERT JUMPDEST CALLVALUE ISZERO PUSH2 0xAAE JUMPI PUSH2 0x3E8 DUP1 CALLVALUE MUL SWAP1 CALLVALUE DUP3 DIV SUB PUSH2 0xA98 JUMPI PUSH32 0x0 PUSH1 0x1 PUSH1 0x1 PUSH1 0xA0 SHL SUB AND DUP1 EXTCODESIZE ISZERO PUSH2 0x40B JUMPI PUSH1 0x40 MLOAD PUSH4 0x40C10F19 PUSH1 0xE0 SHL DUP2 MSTORE CALLER PUSH1 0x4 DUP3 ADD MSTORE PUSH1 0x24 DUP2 ADD DUP4 SWAP1 MSTORE SWAP1 PUSH1 0x0 SWAP1 DUP3 SWAP1 PUSH1 0x44 SWAP1 DUP3 SWAP1 DUP5 SWAP1 GAS CALL DUP1 ISZERO PUSH2 0xA8C JUMPI PUSH2 0xA7D JUMPI JUMPDEST POP PUSH1 0x40 MLOAD SWAP1 CALLVALUE DUP3 MSTORE PUSH1 0x20 DUP3 ADD MSTORE PUSH32 0xA9A40DEC7A304E5915D11358B968C1E8D365992ABF20F82285D1DF1B30C8E24C PUSH1 0x40 CALLER SWAP3 LOG2 JUMP JUMPDEST PUSH2 0xA86 SWAP1 PUSH2 0x947 JUMP JUMPDEST CODESIZE PUSH2 0xA48 JUMP JUMPDEST PUSH1 0x40 MLOAD RETURNDATASIZE PUSH1 0x0 DUP3 RETURNDATACOPY RETURNDATASIZE SWAP1 REVERT JUMPDEST PUSH4 0x4E487B71 PUSH1 0xE0 SHL PUSH1 0x0 MSTORE PUSH1 0x11 PUSH1 0x4 MSTORE PUSH1 0x24 PUSH1 0x0 REVERT JUMPDEST PUSH1 0x40 MLOAD PUSH3 0x461BCD PUSH1 0xE5 SHL DUP2 MSTORE PUSH1 0x20 PUSH1 0x4 DUP3 ADD MSTORE PUSH1 0xB PUSH1 0x24 DUP3 ADD MSTORE PUSH11 0x139BC8115512081CD95B9D PUSH1 0xAA SHL PUSH1 0x44 DUP3 ADD MSTORE PUSH1 0x64 SWAP1 REVERT INVALID LOG2 PUSH5 0x6970667358 0x22 SLT KECCAK256 MSTORE DUP8 0xC9 TIMESTAMP 0xAB SWAP8 SHL 0xD8 0xBE CALLDATASIZE STATICCALL 0xCF SELFDESTRUCT 0xED 0xEF 0xE4 0x27 PUSH31 0x22F61230B2D9266E86521805702464736F6C63430008140033000000000000 "},"methodIdentifiers":{"RATE()":"664e9704","acceptOwnership()":"79ba5097","buy()":"a6f2ae3a","owner()":"8da5cb5b","pendingOwner()":"e30c3978","renounceOwnership()":"715018a6","seedMarket(address,uint256)":"da5cc7e6","sell(uint256)":"e4849b32","token()":"fc0c546a","transferOwnership(address)":"f2fde38b"}}}}}