{
  "_format": "hh-sol-artifact-1",
  "contractName": "TruthMarket",
  "sourceName": "contracts/TruthMarket.sol",
  "abi": [
    {
      "inputs": [],
      "name": "AlreadyPaid",
      "type": "error"
    },
    {
      "inputs": [],
      "name": "InvalidInitialization",
      "type": "error"
    },
    {
      "inputs": [],
      "name": "MarketClosed",
      "type": "error"
    },
    {
      "inputs": [],
      "name": "MarketNotResolved",
      "type": "error"
    },
    {
      "inputs": [],
      "name": "MinimumStakeNotMet",
      "type": "error"
    },
    {
      "inputs": [],
      "name": "NotInitializing",
      "type": "error"
    },
    {
      "inputs": [],
      "name": "ReentrancyGuardReentrantCall",
      "type": "error"
    },
    {
      "inputs": [
        {
          "internalType": "address",
          "name": "token",
          "type": "address"
        }
      ],
      "name": "SafeERC20FailedOperation",
      "type": "error"
    },
    {
      "inputs": [],
      "name": "WithdrawalNotAllowed",
      "type": "error"
    },
    {
      "anonymous": false,
      "inputs": [
        {
          "indexed": false,
          "internalType": "uint64",
          "name": "version",
          "type": "uint64"
        }
      ],
      "name": "Initialized",
      "type": "event"
    },
    {
      "anonymous": false,
      "inputs": [
        {
          "indexed": false,
          "internalType": "enum ITruthMarket.Resolution",
          "name": "outcome",
          "type": "uint8"
        },
        {
          "indexed": false,
          "internalType": "uint256",
          "name": "confidenceBps",
          "type": "uint256"
        },
        {
          "indexed": false,
          "internalType": "uint256",
          "name": "trueStake",
          "type": "uint256"
        },
        {
          "indexed": false,
          "internalType": "uint256",
          "name": "falseStake",
          "type": "uint256"
        },
        {
          "indexed": false,
          "internalType": "uint256",
          "name": "unalignedStake",
          "type": "uint256"
        },
        {
          "indexed": false,
          "internalType": "uint256",
          "name": "protocolFee",
          "type": "uint256"
        }
      ],
      "name": "MarketResolved",
      "type": "event"
    },
    {
      "anonymous": false,
      "inputs": [
        {
          "indexed": true,
          "internalType": "address",
          "name": "bettor",
          "type": "address"
        },
        {
          "indexed": false,
          "internalType": "uint256",
          "name": "payout",
          "type": "uint256"
        }
      ],
      "name": "PayoutClaimed",
      "type": "event"
    },
    {
      "anonymous": false,
      "inputs": [
        {
          "indexed": true,
          "internalType": "address",
          "name": "bettor",
          "type": "address"
        },
        {
          "indexed": true,
          "internalType": "enum ITruthMarket.Side",
          "name": "side",
          "type": "uint8"
        },
        {
          "indexed": false,
          "internalType": "uint256",
          "name": "amount",
          "type": "uint256"
        }
      ],
      "name": "StakePlaced",
      "type": "event"
    },
    {
      "anonymous": false,
      "inputs": [
        {
          "indexed": true,
          "internalType": "address",
          "name": "bettor",
          "type": "address"
        },
        {
          "indexed": true,
          "internalType": "enum ITruthMarket.Side",
          "name": "side",
          "type": "uint8"
        },
        {
          "indexed": false,
          "internalType": "uint256",
          "name": "amount",
          "type": "uint256"
        }
      ],
      "name": "StakeWithdrawn",
      "type": "event"
    },
    {
      "inputs": [],
      "name": "appealWindowSeconds",
      "outputs": [
        {
          "internalType": "uint64",
          "name": "",
          "type": "uint64"
        }
      ],
      "stateMutability": "view",
      "type": "function"
    },
    {
      "inputs": [],
      "name": "claimId",
      "outputs": [
        {
          "internalType": "uint256",
          "name": "",
          "type": "uint256"
        }
      ],
      "stateMutability": "view",
      "type": "function"
    },
    {
      "inputs": [],
      "name": "claimPayout",
      "outputs": [],
      "stateMutability": "nonpayable",
      "type": "function"
    },
    {
      "inputs": [],
      "name": "confidenceBps",
      "outputs": [
        {
          "internalType": "uint256",
          "name": "",
          "type": "uint256"
        }
      ],
      "stateMutability": "view",
      "type": "function"
    },
    {
      "inputs": [],
      "name": "feeBps",
      "outputs": [
        {
          "internalType": "uint16",
          "name": "",
          "type": "uint16"
        }
      ],
      "stateMutability": "view",
      "type": "function"
    },
    {
      "inputs": [],
      "name": "getMarketState",
      "outputs": [
        {
          "internalType": "enum TruthMarket.MarketState",
          "name": "",
          "type": "uint8"
        }
      ],
      "stateMutability": "view",
      "type": "function"
    },
    {
      "inputs": [],
      "name": "hlx",
      "outputs": [
        {
          "internalType": "contract IERC20",
          "name": "",
          "type": "address"
        }
      ],
      "stateMutability": "view",
      "type": "function"
    },
    {
      "inputs": [
        {
          "internalType": "address",
          "name": "registry_",
          "type": "address"
        },
        {
          "internalType": "address",
          "name": "hlxToken_",
          "type": "address"
        },
        {
          "internalType": "address",
          "name": "treasury_",
          "type": "address"
        },
        {
          "internalType": "uint256",
          "name": "claimId_",
          "type": "uint256"
        },
        {
          "internalType": "uint256",
          "name": "version_",
          "type": "uint256"
        },
        {
          "internalType": "uint64",
          "name": "tradingClosesAt_",
          "type": "uint64"
        },
        {
          "internalType": "uint64",
          "name": "resolutionDelaySeconds_",
          "type": "uint64"
        },
        {
          "internalType": "uint64",
          "name": "appealWindowSeconds_",
          "type": "uint64"
        },
        {
          "internalType": "uint256",
          "name": "minStake_",
          "type": "uint256"
        },
        {
          "internalType": "uint16",
          "name": "feeBps_",
          "type": "uint16"
        },
        {
          "components": [
            {
              "internalType": "address",
              "name": "seeder",
              "type": "address"
            },
            {
              "internalType": "uint256",
              "name": "trueStake",
              "type": "uint256"
            },
            {
              "internalType": "uint256",
              "name": "falseStake",
              "type": "uint256"
            },
            {
              "internalType": "uint256",
              "name": "unalignedStake",
              "type": "uint256"
            },
            {
              "internalType": "bool",
              "name": "lockSeeder",
              "type": "bool"
            }
          ],
          "internalType": "struct TruthMarket.SeedConfig",
          "name": "seed",
          "type": "tuple"
        }
      ],
      "name": "initialize",
      "outputs": [],
      "stateMutability": "nonpayable",
      "type": "function"
    },
    {
      "inputs": [],
      "name": "minStake",
      "outputs": [
        {
          "internalType": "uint256",
          "name": "",
          "type": "uint256"
        }
      ],
      "stateMutability": "view",
      "type": "function"
    },
    {
      "inputs": [
        {
          "internalType": "enum ITruthMarket.Side",
          "name": "side",
          "type": "uint8"
        },
        {
          "internalType": "uint256",
          "name": "amount",
          "type": "uint256"
        }
      ],
      "name": "placeBet",
      "outputs": [],
      "stateMutability": "nonpayable",
      "type": "function"
    },
    {
      "inputs": [
        {
          "internalType": "address",
          "name": "account",
          "type": "address"
        }
      ],
      "name": "position",
      "outputs": [
        {
          "components": [
            {
              "internalType": "uint256",
              "name": "trueStake",
              "type": "uint256"
            },
            {
              "internalType": "uint256",
              "name": "falseStake",
              "type": "uint256"
            },
            {
              "internalType": "uint256",
              "name": "unalignedStake",
              "type": "uint256"
            },
            {
              "internalType": "bool",
              "name": "paidOut",
              "type": "bool"
            },
            {
              "internalType": "bool",
              "name": "locked",
              "type": "bool"
            }
          ],
          "internalType": "struct ITruthMarket.Position",
          "name": "",
          "type": "tuple"
        }
      ],
      "stateMutability": "view",
      "type": "function"
    },
    {
      "inputs": [],
      "name": "protocolFee",
      "outputs": [
        {
          "internalType": "uint256",
          "name": "",
          "type": "uint256"
        }
      ],
      "stateMutability": "view",
      "type": "function"
    },
    {
      "inputs": [],
      "name": "registry",
      "outputs": [
        {
          "internalType": "contract IAlphaHelixRegistry",
          "name": "",
          "type": "address"
        }
      ],
      "stateMutability": "view",
      "type": "function"
    },
    {
      "inputs": [],
      "name": "resolutionDelaySeconds",
      "outputs": [
        {
          "internalType": "uint64",
          "name": "",
          "type": "uint64"
        }
      ],
      "stateMutability": "view",
      "type": "function"
    },
    {
      "inputs": [],
      "name": "resolve",
      "outputs": [],
      "stateMutability": "nonpayable",
      "type": "function"
    },
    {
      "inputs": [],
      "name": "resolvedAt",
      "outputs": [
        {
          "internalType": "uint64",
          "name": "",
          "type": "uint64"
        }
      ],
      "stateMutability": "view",
      "type": "function"
    },
    {
      "inputs": [],
      "name": "state",
      "outputs": [
        {
          "internalType": "enum TruthMarket.MarketState",
          "name": "",
          "type": "uint8"
        }
      ],
      "stateMutability": "view",
      "type": "function"
    },
    {
      "inputs": [],
      "name": "totals",
      "outputs": [
        {
          "components": [
            {
              "internalType": "uint256",
              "name": "trueStake",
              "type": "uint256"
            },
            {
              "internalType": "uint256",
              "name": "falseStake",
              "type": "uint256"
            },
            {
              "internalType": "uint256",
              "name": "unalignedStake",
              "type": "uint256"
            }
          ],
          "internalType": "struct ITruthMarket.Totals",
          "name": "aggregate",
          "type": "tuple"
        },
        {
          "internalType": "uint256",
          "name": "totalStake",
          "type": "uint256"
        }
      ],
      "stateMutability": "view",
      "type": "function"
    },
    {
      "inputs": [],
      "name": "tradingClosesAt",
      "outputs": [
        {
          "internalType": "uint64",
          "name": "",
          "type": "uint64"
        }
      ],
      "stateMutability": "view",
      "type": "function"
    },
    {
      "inputs": [],
      "name": "treasury",
      "outputs": [
        {
          "internalType": "address",
          "name": "",
          "type": "address"
        }
      ],
      "stateMutability": "view",
      "type": "function"
    },
    {
      "inputs": [],
      "name": "version",
      "outputs": [
        {
          "internalType": "uint256",
          "name": "",
          "type": "uint256"
        }
      ],
      "stateMutability": "view",
      "type": "function"
    },
    {
      "inputs": [],
      "name": "winnerPayoutPool",
      "outputs": [
        {
          "internalType": "uint256",
          "name": "",
          "type": "uint256"
        }
      ],
      "stateMutability": "view",
      "type": "function"
    },
    {
      "inputs": [],
      "name": "winnerStake",
      "outputs": [
        {
          "internalType": "uint256",
          "name": "",
          "type": "uint256"
        }
      ],
      "stateMutability": "view",
      "type": "function"
    },
    {
      "inputs": [],
      "name": "winningOutcome",
      "outputs": [
        {
          "internalType": "enum ITruthMarket.Resolution",
          "name": "",
          "type": "uint8"
        }
      ],
      "stateMutability": "view",
      "type": "function"
    },
    {
      "inputs": [
        {
          "internalType": "enum ITruthMarket.Side",
          "name": "side",
          "type": "uint8"
        },
        {
          "internalType": "uint256",
          "name": "amount",
          "type": "uint256"
        }
      ],
      "name": "withdraw",
      "outputs": [],
      "stateMutability": "nonpayable",
      "type": "function"
    }
  ],
  "bytecode": "0x6080806040523461001b5760016000556116a590816100218239f35b600080fdfe6080604081815260048036101561001557600080fd5b600092833560e01c9081630556f114146112a95750806319effeb41461128757806324a9d853146112645780632810e1d614610e885780632efcb9ca14610e5c578063375b3c0a14610e3d5780633a6a983114610e1e5780633f48991414610cd157806340125b2c14610ca757806354fd4d5014610c885780635c25fd1314610c6b57806361d027b314610c425780637b10399914610c195780637b45606714610bf05780639b34ae0314610bc4578063a8427de014610688578063b0e21e8a14610669578063b7648fb914610587578063c038a38e14610517578063c19d93fb146104cd578063cd1b4079146104f8578063d8165743146104cd578063dcb3b30e14610344578063e27f3b34146103175763e88499a91461013657600080fd5b3461031357826003193601126103135761014e61145a565b60095460ff81169260028410156103005760018094036102f15733855260116020528085206003810180549460ff86166102e35760ff889560081c1690808210156102d0575087929190878103610256575086825480610214575b506002939495965b60ff191617905582815582868201550155816101f7575b519081527fec68461f5d4cc45c89e914cb8826a966c73dd35e5f97815ece0a01ffa4a025a660203392a2815580f35b825461020f90839033906001600160a01b03166114cb565b6101c8565b80965095600b5480610227575b506101a9565b6002959697509061024761023e61024d9383611541565b600c5490611554565b90611330565b95949338610221565b6002036102a757868083015480610274575b506002939495966101b1565b80965095600b5480610287575b50610268565b6002959697509061024761023e61029e9383611541565b95949338610281565b600292939450866102ca6102c084548386015490611330565b8585015490611330565b966101b1565b634e487b7160e01b895260219052602488fd5b8351630d70a0e360e41b8152fd5b5163174b639360e11b81529050fd5b634e487b7160e01b855260218352602485fd5b8280fd5b50503461034057816003193601126103405760015490516001600160a01b039091168152602090f35b5080fd5b50903461031357610354366112c5565b91909261035f61145a565b67ffffffffffffffff600654164210156104c05760085483106104b2576103878315156113b8565b60015482516323b872dd60e01b6020820152336024820152306044820152606480820186905281526103ca916001600160a01b03166103c58261136a565b6113f2565b33855260116020528185206003851015908161049f578561044b576103f0858254611330565b90556103fe84600e54611330565b600e555b6104385750519081527ff215ef04c159252edc72992d9f8410d9fe9c19508d547bb8d038f5a036954c5460203392a36001815580f35b634e487b7160e01b855260219052602484fd5b600091506001860361047b57600101610465858254611330565b905561047384600f54611330565b600f55610402565b600201610489858254611330565b905561049784601054611330565b601055610402565b634e487b7160e01b875260218352602487fd5b90516305dbe23b60e51b8152fd5b905162b5f6bf60e41b8152fd5b5050346103405781600319360112610340576104f49060ff6009541690519182918261131d565b0390f35b505034610340578160031936011261034057602090600b549051908152f35b5050346103405781600319360112610340576080918180516105388161139c565b828152826020820152015261054b61151d565b9081519061055f6020840192835190611330565b61056e82850191825190611330565b9282519451855251602085015251908301526060820152f35b5050346103405760209081600319360112610313578060809160a0946105ab611307565b818584516105b88161136a565b828152828982015282868201528260608201520152600180881b031681526011855220908051916105e88361136a565b805494858452600182015480828601526003600284015493848688015201549460ff80871615159687606084015260081c16151596879101526080845161062e8161136a565b888152838101928352858101948552606081019687520195865283519687525190860152519084015251151560608301525115156080820152f35b505034610340578160031936011261034057602090600d549051908152f35b5034610313576101e0366003190112610313576106a3611307565b6001600160a01b036024803582811690819003610bbf5760443594838616809603610bbf5760a4359367ffffffffffffffff90818616809603610bbf5760c4358281168103610bbf5760e4358381168103610bbf57610124359161ffff8316809303610bbb5760a036610143190112610bbb578b987ff0c57e16840df040f15088dc2f81fe391c3923bec73e23a9662efc9c229c6a009b8c549b8c9b888d169d8e159182610bac575b50506001809e149081610ba2575b159081610b99575b50610b895767ffffffffffffffff198c168d178e558b8f1c60ff16159b8791908f908e610b69575b5050168015610b33578915610b00578115610aca5742831115610a9857906fffffffffffffffff000000000000000092916bffffffffffffffffffffffff60a01b908160025416176002558d8b82825416179055600354161760035560643588556084356005556006549367ffffffffffffffff60801b9060801b169367ffffffffffffffff60c01b1617918d1b1617176006556101043560085561ffff1990816007541617600755600954166009556101843592610164359561084e8588611330565b9561085d6101a4358098611330565b90816108b6575b505050505050505050610875578380f35b7fc7f505b2f371ae2175ee4913f4499e1f2633a7b5936321eed1cdaeb6115181d29260209268ff000000000000000019815416905551908152a13880808380f35b846108bf611353565b1615610a65578c516370a0823160e01b815230858201526020968f9288908390879082905afa928315610a5a5792610a03575b5050106109ca57505090601191610907611353565b168a525286882092806109a8575b5080610983575b508061095d575b506101c435801515810361095957610943575b8080808080808080610864565b600301805461ff00191661010017905538610936565b8680fd5b61097a9060028301610970828254611330565b9055601054611330565b60105538610923565b61099f90858401610995828254611330565b9055600f54611330565b600f553861091c565b806109b76109c1928654611330565b8555600e54611330565b600e5538610915565b8a5162461bcd60e51b815291820184905260149082015273536565642062616c616e6365206d697373696e6760601b6044820152606490fd5b90915086903d8811610a52575b601f8201601f1916830190811183821017610a3e578e5281018190038613610a3a575138806108f2565b8d80fd5b84604187634e487b7160e01b600052526000fd5b3d9150610a10565b8f51903d90823e3d90fd5b8c5162461bcd60e51b8152602081860152600e818501526d536565646572206d697373696e6760901b6044820152606490fd5b8e5162461bcd60e51b81526020818b0152600d818d01526c10db1bdcd9481a5b881c185cdd609a1b6044820152606490fd5b8e5162461bcd60e51b81526020818b01526011818d015270151c99585cdd5c9e481c995c5d5a5c9959607a1b6044820152606490fd5b8e5162461bcd60e51b81526020818b0152600e818d01526d151bdad95b881c995c5d5a5c995960921b6044820152606490fd5b8e5162461bcd60e51b81526020818b01526011818d015270149959da5cdd1c9e481c995c5d5a5c9959607a1b6044820152606490fd5b68ffffffffffffffffff1916680100000000000000011790558e3861078a565b8e5163f92ee8a960e01b81528990fd5b90501538610762565b303b15915061075a565b60ff92501c16158f8d9061074c565b8c80fd5b600080fd5b505034610340578160031936011261034057602090610bee60ff60095460081c16915180926112e4565bf35b50503461034057816003193601126103405760209067ffffffffffffffff600654169051908152f35b50503461034057816003193601126103405760025490516001600160a01b039091168152602090f35b50503461034057816003193601126103405760035490516001600160a01b039091168152602090f35b503461031357826003193601126103135760209250549051908152f35b5050346103405781600319360112610340576020906005549051908152f35b5050346103405781600319360112610340576006548151911c67ffffffffffffffff168152602090f35b50903461031357610ce1366112c5565b919092610cec61145a565b67ffffffffffffffff600654164210156104c057610d0b8315156113b8565b338552601160205281852060ff600382015460081c16610e0f576003851015908161049f5785610dad57610d4c858254610d478282101561147d565b6114be565b9055610d5a84600e546114be565b600e555b600154610d7790859033906001600160a01b03166114cb565b6104385750519081527fb2b0c01dad6a2067fabbca7212261c363c9a7b141055c7c0732617f9659805ba60203392a36001815580f35b6000915060018603610de457600101610dce858254610d478282101561147d565b9055610ddc84600f546114be565b600f55610d5e565b600201610df9858254610d478282101561147d565b9055610e07846010546114be565b601055610d5e565b50905163209a769d60e11b8152fd5b505034610340578160031936011261034057602090600c549051908152f35b5050346103405781600319360112610340576020906008549051908152f35b50503461034057816003193601126103405760209067ffffffffffffffff60065460801c169051908152f35b50829034610340578160031936011261034057610ea361145a565b6009549260ff8416600281101561125157611245576006549167ffffffffffffffff8084841c168185160181811161123257811642106111fc57610ee561151d565b93845190610ef96020870192835190611330565b610f0886880191825190611330565b928891899389518015806111f3575b156111be575060039b5b888d10156111ab5761ffff191660088d901b61ff00161760019081176009556001600160c01b039091164260c01b6001600160c01b031916176006558a948594918d14801561119e575b61110e575b5050610f7b89611574565b9182600a557f5528b7e06f48a519cf814c4e5293ee2737c3f5c28d93e30cca112ac649fdd23560c08d8b8d51855190875192610fb9815180966112e4565b896020860152840152606083015260808201528660a0820152a18754956005549a5191519251938a519761012089018981108b8211176110fb578c528852602088019b8c528a8801966110e8578c9d879d999a9b9c9d52606088019081526080880191825260a0880192835260c0880193845260e08801948552610100880195865260018060a01b036002541696873b156110e4578c519d8e9962e29e5f60e41b8b52518d8b01525160248a01525160448901611075916112e4565b5160648801525160848701525160a48601525160c48501525160e48401525161010483015281835a9261012493f180156110da576110b6575b846001815580f35b83116110c7575052818080806110ae565b634e487b7160e01b845260419052602483fd5b83513d87823e3d90fd5b8980fd5b634e487b7160e01b8d5260218a5260248dfd5b634e487b7160e01b8f5260418c5260248ffd5b825161111991611330565b8015158061118f575b611143575b84611131916114be565b90600c55600b5582600d558b80610f70565b935061113161271061115b61ffff6007541687611541565b0480958161116c575b915050611127565b60015460035461118a9184916001600160a01b0390811691166114cb565b611164565b5061ffff600754161515611122565b508b955060028d14610f6b565b634e487b7160e01b8c526021895260248cfd5b83518181036111d157505060039b610f21565b94509b9450838c116000146111ea5760019b9394610f21565b60029b94610f21565b50835115610f17565b506020606492519162461bcd60e51b8352820152601060248201526f5265736f6c7574696f6e2064656c617960801b6044820152fd5b634e487b7160e01b865260118352602486fd5b5162b5f6bf60e41b8152fd5b634e487b7160e01b845260218352602484fd5b50503461034057816003193601126103405760209061ffff600754169051908152f35b50503461034057816003193601126103405760209060065460c01c9051908152f35b849034610340578160031936011261034057602090600a548152f35b6040906003190112610bbf576004356003811015610bbf579060243590565b9060048210156112f15752565b634e487b7160e01b600052602160045260246000fd5b600435906001600160a01b0382168203610bbf57565b9190602083019260028210156112f15752565b9190820180921161133d57565b634e487b7160e01b600052601160045260246000fd5b610144356001600160a01b0381168103610bbf5790565b60a0810190811067ffffffffffffffff82111761138657604052565b634e487b7160e01b600052604160045260246000fd5b6060810190811067ffffffffffffffff82111761138657604052565b156113bf57565b60405162461bcd60e51b815260206004820152600b60248201526a16995c9bc8185b5bdd5b9d60aa1b6044820152606490fd5b906000602091828151910182855af11561144e576000513d61144557506001600160a01b0381163b155b6114235750565b604051635274afe760e01b81526001600160a01b039091166004820152602490fd5b6001141561141c565b6040513d6000823e3d90fd5b60026000541461146b576002600055565b604051633ee5aeb560e01b8152600490fd5b1561148457565b60405162461bcd60e51b8152602060048201526012602482015271496e73756666696369656e74207374616b6560701b6044820152606490fd5b9190820391821161133d57565b60405163a9059cbb60e01b60208201526001600160a01b039092166024830152604480830193909352918152608081019167ffffffffffffffff8311828410176113865761151b926040526113f2565b565b6040519061152a8261139c565b600e548252600f5460208301526010546040830152565b8181029291811591840414171561133d57565b811561155e570490565b634e487b7160e01b600052601260045260246000fd5b8051906115936040602083015192015161158e8385611330565b611330565b9081156115c8578083146115c8576115bc92818111156115bf57906115b7916114be565b6115d0565b90565b6115b7916114be565b505050600090565b6127109160001983830992808302928380861095039480860395146116625784831115611649579082910981600003821680920460028082600302188083028203028083028203028083028203028083028203028083028203028092029003029360018380600003040190848311900302920304170290565b82634e487b71600052156003026011186020526024601cfd5b5050906115bc925061155456fea264697066735822122078d4c27d69adf279abf58124e0e9d71dc72e13cd341f8d32f60be38725e7bceb64736f6c63430008140033",
  "linkReferences": {},
  "deployedLinkReferences": {}
}