{
  "_format": "hh-sol-artifact-1",
  "contractName": "MockAMM",
  "sourceName": "contracts/MockAMM.sol",
  "abi": [
    {
      "inputs": [
        {
          "internalType": "address",
          "name": "_token",
          "type": "address"
        }
      ],
      "stateMutability": "nonpayable",
      "type": "constructor"
    },
    {
      "inputs": [],
      "name": "balance",
      "outputs": [
        {
          "internalType": "uint256",
          "name": "",
          "type": "uint256"
        }
      ],
      "stateMutability": "view",
      "type": "function"
    },
    {
      "inputs": [
        {
          "internalType": "uint256",
          "name": "amount",
          "type": "uint256"
        }
      ],
      "name": "mint",
      "outputs": [],
      "stateMutability": "nonpayable",
      "type": "function"
    },
    {
      "inputs": [],
      "name": "token",
      "outputs": [
        {
          "internalType": "address",
          "name": "",
          "type": "address"
        }
      ],
      "stateMutability": "view",
      "type": "function"
    }
  ],
  "bytecode": "0x608060405234801561001057600080fd5b506040516104bf3803806104bf833981810160405281019061003291906100db565b806000806101000a81548173ffffffffffffffffffffffffffffffffffffffff021916908373ffffffffffffffffffffffffffffffffffffffff16021790555050610108565b600080fd5b600073ffffffffffffffffffffffffffffffffffffffff82169050919050565b60006100a88261007d565b9050919050565b6100b88161009d565b81146100c357600080fd5b50565b6000815190506100d5816100af565b92915050565b6000602082840312156100f1576100f0610078565b5b60006100ff848285016100c6565b91505092915050565b6103a8806101176000396000f3fe608060405234801561001057600080fd5b50600436106100415760003560e01c8063a0712d6814610046578063b69ef8a814610062578063fc0c546a14610080575b600080fd5b610060600480360381019061005b91906101c0565b61009e565b005b61006a61015b565b60405161007791906101fc565b60405180910390f35b610088610161565b6040516100959190610258565b60405180910390f35b60008054906101000a900473ffffffffffffffffffffffffffffffffffffffff1673ffffffffffffffffffffffffffffffffffffffff166323b872dd3330846040518463ffffffff1660e01b81526004016100fb93929190610273565b6020604051808303816000875af115801561011a573d6000803e3d6000fd5b505050506040513d601f19601f8201168201806040525081019061013e91906102e2565b508060016000828254610151919061033e565b9250508190555050565b60015481565b60008054906101000a900473ffffffffffffffffffffffffffffffffffffffff1681565b600080fd5b6000819050919050565b61019d8161018a565b81146101a857600080fd5b50565b6000813590506101ba81610194565b92915050565b6000602082840312156101d6576101d5610185565b5b60006101e4848285016101ab565b91505092915050565b6101f68161018a565b82525050565b600060208201905061021160008301846101ed565b92915050565b600073ffffffffffffffffffffffffffffffffffffffff82169050919050565b600061024282610217565b9050919050565b61025281610237565b82525050565b600060208201905061026d6000830184610249565b92915050565b60006060820190506102886000830186610249565b6102956020830185610249565b6102a260408301846101ed565b949350505050565b60008115159050919050565b6102bf816102aa565b81146102ca57600080fd5b50565b6000815190506102dc816102b6565b92915050565b6000602082840312156102f8576102f7610185565b5b6000610306848285016102cd565b91505092915050565b7f4e487b7100000000000000000000000000000000000000000000000000000000600052601160045260246000fd5b60006103498261018a565b91506103548361018a565b925082820190508082111561036c5761036b61030f565b5b9291505056fea264697066735822122069e81bcdb15478417b9ce6363ea727386c253b04666c24a487d828cdb1ce916864736f6c63430008140033",
  "linkReferences": {},
  "deployedLinkReferences": {}
}