{
  "_format": "hh-sol-artifact-1",
  "contractName": "HelixMarketAMM",
  "sourceName": "contracts/HelixMarketAMM.sol",
  "abi": [
    {
      "inputs": [
        {
          "internalType": "address",
          "name": "_hlxToken",
          "type": "address"
        },
        {
          "internalType": "address",
          "name": "_reserveAddress",
          "type": "address"
        }
      ],
      "stateMutability": "nonpayable",
      "type": "constructor"
    },
    {
      "inputs": [
        {
          "internalType": "address",
          "name": "owner",
          "type": "address"
        }
      ],
      "name": "OwnableInvalidOwner",
      "type": "error"
    },
    {
      "inputs": [
        {
          "internalType": "address",
          "name": "account",
          "type": "address"
        }
      ],
      "name": "OwnableUnauthorizedAccount",
      "type": "error"
    },
    {
      "inputs": [],
      "name": "ReentrancyGuardReentrantCall",
      "type": "error"
    },
    {
      "anonymous": false,
      "inputs": [
        {
          "indexed": true,
          "internalType": "address",
          "name": "buyer",
          "type": "address"
        },
        {
          "indexed": false,
          "internalType": "bool",
          "name": "isYes",
          "type": "bool"
        },
        {
          "indexed": false,
          "internalType": "uint256",
          "name": "hlxIn",
          "type": "uint256"
        },
        {
          "indexed": false,
          "internalType": "uint256",
          "name": "sharesOut",
          "type": "uint256"
        }
      ],
      "name": "Buy",
      "type": "event"
    },
    {
      "anonymous": false,
      "inputs": [
        {
          "indexed": false,
          "internalType": "bool",
          "name": "outcome",
          "type": "bool"
        }
      ],
      "name": "MarketResolved",
      "type": "event"
    },
    {
      "anonymous": false,
      "inputs": [
        {
          "indexed": true,
          "internalType": "address",
          "name": "provider",
          "type": "address"
        },
        {
          "indexed": false,
          "internalType": "uint256",
          "name": "amount",
          "type": "uint256"
        }
      ],
      "name": "Mint",
      "type": "event"
    },
    {
      "anonymous": false,
      "inputs": [
        {
          "indexed": true,
          "internalType": "address",
          "name": "previousOwner",
          "type": "address"
        },
        {
          "indexed": true,
          "internalType": "address",
          "name": "newOwner",
          "type": "address"
        }
      ],
      "name": "OwnershipTransferred",
      "type": "event"
    },
    {
      "anonymous": false,
      "inputs": [
        {
          "indexed": true,
          "internalType": "address",
          "name": "seller",
          "type": "address"
        },
        {
          "indexed": false,
          "internalType": "bool",
          "name": "isYes",
          "type": "bool"
        },
        {
          "indexed": false,
          "internalType": "uint256",
          "name": "sharesIn",
          "type": "uint256"
        },
        {
          "indexed": false,
          "internalType": "uint256",
          "name": "hlxOut",
          "type": "uint256"
        }
      ],
      "name": "Sell",
      "type": "event"
    },
    {
      "anonymous": false,
      "inputs": [
        {
          "indexed": true,
          "internalType": "address",
          "name": "user",
          "type": "address"
        },
        {
          "indexed": false,
          "internalType": "uint256",
          "name": "amount",
          "type": "uint256"
        }
      ],
      "name": "WinningsClaimed",
      "type": "event"
    },
    {
      "inputs": [
        {
          "internalType": "bool",
          "name": "isYes",
          "type": "bool"
        },
        {
          "internalType": "uint256",
          "name": "hlxIn",
          "type": "uint256"
        }
      ],
      "name": "buy",
      "outputs": [],
      "stateMutability": "nonpayable",
      "type": "function"
    },
    {
      "inputs": [],
      "name": "claimWinnings",
      "outputs": [],
      "stateMutability": "nonpayable",
      "type": "function"
    },
    {
      "inputs": [],
      "name": "getSpotPrice",
      "outputs": [
        {
          "internalType": "uint256",
          "name": "",
          "type": "uint256"
        }
      ],
      "stateMutability": "view",
      "type": "function"
    },
    {
      "inputs": [],
      "name": "hlxToken",
      "outputs": [
        {
          "internalType": "contract IERC20",
          "name": "",
          "type": "address"
        }
      ],
      "stateMutability": "view",
      "type": "function"
    },
    {
      "inputs": [
        {
          "internalType": "address",
          "name": "",
          "type": "address"
        }
      ],
      "name": "liquidityBalance",
      "outputs": [
        {
          "internalType": "uint256",
          "name": "",
          "type": "uint256"
        }
      ],
      "stateMutability": "view",
      "type": "function"
    },
    {
      "inputs": [],
      "name": "marketResolved",
      "outputs": [
        {
          "internalType": "bool",
          "name": "",
          "type": "bool"
        }
      ],
      "stateMutability": "view",
      "type": "function"
    },
    {
      "inputs": [
        {
          "internalType": "uint256",
          "name": "amount",
          "type": "uint256"
        }
      ],
      "name": "mint",
      "outputs": [],
      "stateMutability": "nonpayable",
      "type": "function"
    },
    {
      "inputs": [
        {
          "internalType": "address",
          "name": "",
          "type": "address"
        }
      ],
      "name": "noBalance",
      "outputs": [
        {
          "internalType": "uint256",
          "name": "",
          "type": "uint256"
        }
      ],
      "stateMutability": "view",
      "type": "function"
    },
    {
      "inputs": [],
      "name": "owner",
      "outputs": [
        {
          "internalType": "address",
          "name": "",
          "type": "address"
        }
      ],
      "stateMutability": "view",
      "type": "function"
    },
    {
      "inputs": [],
      "name": "poolNo",
      "outputs": [
        {
          "internalType": "uint256",
          "name": "",
          "type": "uint256"
        }
      ],
      "stateMutability": "view",
      "type": "function"
    },
    {
      "inputs": [],
      "name": "poolYes",
      "outputs": [
        {
          "internalType": "uint256",
          "name": "",
          "type": "uint256"
        }
      ],
      "stateMutability": "view",
      "type": "function"
    },
    {
      "inputs": [],
      "name": "renounceOwnership",
      "outputs": [],
      "stateMutability": "nonpayable",
      "type": "function"
    },
    {
      "inputs": [],
      "name": "reserveAddress",
      "outputs": [
        {
          "internalType": "address",
          "name": "",
          "type": "address"
        }
      ],
      "stateMutability": "view",
      "type": "function"
    },
    {
      "inputs": [
        {
          "internalType": "bool",
          "name": "outcome",
          "type": "bool"
        }
      ],
      "name": "resolve",
      "outputs": [],
      "stateMutability": "nonpayable",
      "type": "function"
    },
    {
      "inputs": [
        {
          "internalType": "bool",
          "name": "isYes",
          "type": "bool"
        },
        {
          "internalType": "uint256",
          "name": "amountShares",
          "type": "uint256"
        }
      ],
      "name": "sell",
      "outputs": [],
      "stateMutability": "nonpayable",
      "type": "function"
    },
    {
      "inputs": [],
      "name": "totalLiquidity",
      "outputs": [
        {
          "internalType": "uint256",
          "name": "",
          "type": "uint256"
        }
      ],
      "stateMutability": "view",
      "type": "function"
    },
    {
      "inputs": [
        {
          "internalType": "address",
          "name": "newOwner",
          "type": "address"
        }
      ],
      "name": "transferOwnership",
      "outputs": [],
      "stateMutability": "nonpayable",
      "type": "function"
    },
    {
      "inputs": [],
      "name": "winningOutcome",
      "outputs": [
        {
          "internalType": "bool",
          "name": "",
          "type": "bool"
        }
      ],
      "stateMutability": "view",
      "type": "function"
    },
    {
      "inputs": [
        {
          "internalType": "address",
          "name": "",
          "type": "address"
        }
      ],
      "name": "yesBalance",
      "outputs": [
        {
          "internalType": "uint256",
          "name": "",
          "type": "uint256"
        }
      ],
      "stateMutability": "view",
      "type": "function"
    }
  ],
  "bytecode": "0x60806040523480156200001157600080fd5b506040516200283e3803806200283e833981810160405281019062000037919062000362565b33600073ffffffffffffffffffffffffffffffffffffffff168173ffffffffffffffffffffffffffffffffffffffff1603620000ad5760006040517f1e4fbdf7000000000000000000000000000000000000000000000000000000008152600401620000a49190620003ba565b60405180910390fd5b620000be816200023460201b60201c565b5060018081905550600073ffffffffffffffffffffffffffffffffffffffff168273ffffffffffffffffffffffffffffffffffffffff160362000138576040517f08c379a00000000000000000000000000000000000000000000000000000000081526004016200012f9062000438565b60405180910390fd5b600073ffffffffffffffffffffffffffffffffffffffff168173ffffffffffffffffffffffffffffffffffffffff1603620001aa576040517f08c379a0000000000000000000000000000000000000000000000000000000008152600401620001a190620004aa565b60405180910390fd5b81600260006101000a81548173ffffffffffffffffffffffffffffffffffffffff021916908373ffffffffffffffffffffffffffffffffffffffff16021790555080600360006101000a81548173ffffffffffffffffffffffffffffffffffffffff021916908373ffffffffffffffffffffffffffffffffffffffff1602179055505050620004cc565b60008060009054906101000a900473ffffffffffffffffffffffffffffffffffffffff169050816000806101000a81548173ffffffffffffffffffffffffffffffffffffffff021916908373ffffffffffffffffffffffffffffffffffffffff1602179055508173ffffffffffffffffffffffffffffffffffffffff168173ffffffffffffffffffffffffffffffffffffffff167f8be0079c531659141344cd1fd0a4f28419497f9722a3daafe3b4186f6b6457e060405160405180910390a35050565b600080fd5b600073ffffffffffffffffffffffffffffffffffffffff82169050919050565b60006200032a82620002fd565b9050919050565b6200033c816200031d565b81146200034857600080fd5b50565b6000815190506200035c8162000331565b92915050565b600080604083850312156200037c576200037b620002f8565b5b60006200038c858286016200034b565b92505060206200039f858286016200034b565b9150509250929050565b620003b4816200031d565b82525050565b6000602082019050620003d16000830184620003a9565b92915050565b600082825260208201905092915050565b7f496e76616c696420746f6b656e20616464726573730000000000000000000000600082015250565b600062000420601583620003d7565b91506200042d82620003e8565b602082019050919050565b60006020820190508181036000830152620004538162000411565b9050919050565b7f496e76616c696420726573657276652061646472657373000000000000000000600082015250565b600062000492601783620003d7565b91506200049f826200045a565b602082019050919050565b60006020820190508181036000830152620004c58162000483565b9050919050565b61236280620004dc6000396000f3fe608060405234801561001057600080fd5b50600436106101215760003560e01c8063a0712d68116100ad578063dd29648011610071578063dd296480146102c2578063e24c469b146102f2578063f2fde38b1461030e578063f571c5f31461032a578063f79ed94b1461034657610121565b8063a0712d6814610242578063ae40a66a1461025e578063b401faf11461027c578063cd536cfa14610286578063dc76fabc146102a457610121565b80635b883917116100f45780635b883917146101ae578063715018a6146101de578063853fd421146101e85780638da5cb5b146102065780639b34ae031461022457610121565b8063046b93a2146101265780630bede3f8146101445780630ffa9bed1461016057806315770f9214610190575b600080fd5b61012e610364565b60405161013b9190611982565b60405180910390f35b61015e600480360381019061015991906119da565b61036a565b005b61017a60048036038101906101759190611a65565b610431565b6040516101879190611982565b60405180910390f35b610198610449565b6040516101a59190611982565b60405180910390f35b6101c860048036038101906101c39190611a65565b61044f565b6040516101d59190611982565b60405180910390f35b6101e6610467565b005b6101f061047b565b6040516101fd9190611aa1565b60405180910390f35b61020e61048e565b60405161021b9190611acb565b60405180910390f35b61022c6104b7565b6040516102399190611aa1565b60405180910390f35b61025c60048036038101906102579190611b12565b6104ca565b005b610266610740565b6040516102739190611b9e565b60405180910390f35b610284610766565b005b61028e610a83565b60405161029b9190611982565b60405180910390f35b6102ac610a89565b6040516102b99190611982565b60405180910390f35b6102dc60048036038101906102d79190611a65565b610ae2565b6040516102e99190611982565b60405180910390f35b61030c60048036038101906103079190611bb9565b610afa565b005b61032860048036038101906103239190611a65565b610fe4565b005b610344600480360381019061033f9190611bb9565b61106a565b005b61034e6115f8565b60405161035b9190611acb565b60405180910390f35b60045481565b61037261161e565b600a60009054906101000a900460ff16156103c2576040517f08c379a00000000000000000000000000000000000000000000000000000000081526004016103b990611c56565b60405180910390fd5b6001600a60006101000a81548160ff02191690831515021790555080600a60016101000a81548160ff0219169083151502179055507ff528f3b02f5c2503827fc677c9d0cb54ffbf11ed32cb659f73243b70dea7cf0e816040516104269190611aa1565b60405180910390a150565b60076020528060005260406000206000915090505481565b60095481565b60066020528060005260406000206000915090505481565b61046f61161e565b61047960006116a5565b565b600a60009054906101000a900460ff1681565b60008060009054906101000a900473ffffffffffffffffffffffffffffffffffffffff16905090565b600a60019054906101000a900460ff1681565b6104d2611769565b60008111610515576040517f08c379a000000000000000000000000000000000000000000000000000000000815260040161050c90611cc2565b60405180910390fd5b600a60009054906101000a900460ff1615610565576040517f08c379a000000000000000000000000000000000000000000000000000000000815260040161055c90611d2e565b60405180910390fd5b600260009054906101000a900473ffffffffffffffffffffffffffffffffffffffff1673ffffffffffffffffffffffffffffffffffffffff166323b872dd3330846040518463ffffffff1660e01b81526004016105c493929190611d4e565b6020604051808303816000875af11580156105e3573d6000803e3d6000fd5b505050506040513d601f19601f820116820180604052508101906106079190611d9a565b610646576040517f08c379a000000000000000000000000000000000000000000000000000000000815260040161063d90611e13565b60405180910390fd5b80600460008282546106589190611e62565b9250508190555080600560008282546106719190611e62565b9250508190555080600860003373ffffffffffffffffffffffffffffffffffffffff1673ffffffffffffffffffffffffffffffffffffffff16815260200190815260200160002060008282546106c79190611e62565b9250508190555080600960008282546106e09190611e62565b925050819055503373ffffffffffffffffffffffffffffffffffffffff167f0f6798a560793a54c3bcfe86a93cde1e73087d944c0ea20544137d41213968858260405161072d9190611982565b60405180910390a261073d6117af565b50565b600260009054906101000a900473ffffffffffffffffffffffffffffffffffffffff1681565b61076e611769565b600a60009054906101000a900460ff166107bd576040517f08c379a00000000000000000000000000000000000000000000000000000000081526004016107b490611ee2565b60405180910390fd5b6000600a60019054906101000a900460ff1615610870576000600660003373ffffffffffffffffffffffffffffffffffffffff1673ffffffffffffffffffffffffffffffffffffffff168152602001908152602001600020549050600081111561086a576000600660003373ffffffffffffffffffffffffffffffffffffffff1673ffffffffffffffffffffffffffffffffffffffff168152602001908152602001600020819055508091505b50610908565b6000600760003373ffffffffffffffffffffffffffffffffffffffff1673ffffffffffffffffffffffffffffffffffffffff1681526020019081526020016000205490506000811115610906576000600760003373ffffffffffffffffffffffffffffffffffffffff1673ffffffffffffffffffffffffffffffffffffffff168152602001908152602001600020819055508091505b505b6000811161094b576040517f08c379a000000000000000000000000000000000000000000000000000000000815260040161094290611f4e565b60405180910390fd5b600260009054906101000a900473ffffffffffffffffffffffffffffffffffffffff1673ffffffffffffffffffffffffffffffffffffffff1663a9059cbb33836040518363ffffffff1660e01b81526004016109a8929190611f6e565b6020604051808303816000875af11580156109c7573d6000803e3d6000fd5b505050506040513d601f19601f820116820180604052508101906109eb9190611d9a565b610a2a576040517f08c379a0000000000000000000000000000000000000000000000000000000008152600401610a2190611e13565b60405180910390fd5b3373ffffffffffffffffffffffffffffffffffffffff167f1a31e733a172afcf46074b3106c17f0c298e226442682a03c1e99ce256139ec282604051610a709190611982565b60405180910390a250610a816117af565b565b60055481565b600080600454148015610a9e57506000600554145b15610aac5760009050610adf565b600554600454610abc9190611e62565b670de0b6b3a7640000600554610ad29190611f97565b610adc9190612008565b90505b90565b60086020528060005260406000206000915090505481565b610b02611769565b60008111610b45576040517f08c379a0000000000000000000000000000000000000000000000000000000008152600401610b3c90611cc2565b60405180910390fd5b600a60009054906101000a900460ff1615610b95576040517f08c379a0000000000000000000000000000000000000000000000000000000008152600401610b8c90611d2e565b60405180910390fd5b6000600454118015610ba957506000600554115b610be8576040517f08c379a0000000000000000000000000000000000000000000000000000000008152600401610bdf90612085565b60405180910390fd5b60006064600283610bf99190611f97565b610c039190612008565b905060008183610c1391906120a5565b90506000821115610d2257600260009054906101000a900473ffffffffffffffffffffffffffffffffffffffff1673ffffffffffffffffffffffffffffffffffffffff166323b872dd33600360009054906101000a900473ffffffffffffffffffffffffffffffffffffffff16856040518463ffffffff1660e01b8152600401610c9f93929190611d4e565b6020604051808303816000875af1158015610cbe573d6000803e3d6000fd5b505050506040513d601f19601f82011682018060405250810190610ce29190611d9a565b610d21576040517f08c379a0000000000000000000000000000000000000000000000000000000008152600401610d1890612125565b60405180910390fd5b5b600260009054906101000a900473ffffffffffffffffffffffffffffffffffffffff1673ffffffffffffffffffffffffffffffffffffffff166323b872dd3330846040518463ffffffff1660e01b8152600401610d8193929190611d4e565b6020604051808303816000875af1158015610da0573d6000803e3d6000fd5b505050506040513d601f19601f82011682018060405250810190610dc49190611d9a565b610e03576040517f08c379a0000000000000000000000000000000000000000000000000000000008152600401610dfa90611e13565b60405180910390fd5b600080600554600454610e169190611f97565b90508515610ed2576000600554905060008482610e339190611e62565b905060008184610e439190612008565b9050600081600454610e5591906120a5565b90508087610e639190611e62565b9550826005819055508160048190555085600660003373ffffffffffffffffffffffffffffffffffffffff1673ffffffffffffffffffffffffffffffffffffffff1681526020019081526020016000206000828254610ec29190611e62565b9250508190555050505050610f82565b6000600454905060008482610ee79190611e62565b905060008184610ef79190612008565b9050600081600554610f0991906120a5565b90508087610f179190611e62565b9550826004819055508160058190555085600760003373ffffffffffffffffffffffffffffffffffffffff1673ffffffffffffffffffffffffffffffffffffffff1681526020019081526020016000206000828254610f769190611e62565b92505081905550505050505b3373ffffffffffffffffffffffffffffffffffffffff167fe417997ad0a1c7dd102d3158fdf23af437ae25ed1926b1b069dc8e436fd16fb6878785604051610fcc93929190612145565b60405180910390a250505050610fe06117af565b5050565b610fec61161e565b600073ffffffffffffffffffffffffffffffffffffffff168173ffffffffffffffffffffffffffffffffffffffff160361105e5760006040517f1e4fbdf70000000000000000000000000000000000000000000000000000000081526004016110559190611acb565b60405180910390fd5b611067816116a5565b50565b611072611769565b600081116110b5576040517f08c379a00000000000000000000000000000000000000000000000000000000081526004016110ac90611cc2565b60405180910390fd5b600a60009054906101000a900460ff1615611105576040517f08c379a00000000000000000000000000000000000000000000000000000000081526004016110fc90611d2e565b60405180910390fd5b81156111925780600660003373ffffffffffffffffffffffffffffffffffffffff1673ffffffffffffffffffffffffffffffffffffffff16815260200190815260200160002054101561118d576040517f08c379a0000000000000000000000000000000000000000000000000000000008152600401611184906121c8565b60405180910390fd5b611215565b80600760003373ffffffffffffffffffffffffffffffffffffffff1673ffffffffffffffffffffffffffffffffffffffff168152602001908152602001600020541015611214576040517f08c379a000000000000000000000000000000000000000000000000000000000815260040161120b906121c8565b60405180910390fd5b5b600060045490506000600554905060008390506000856112375760045461123b565b6005545b9050600082848661124c9190611e62565b6112569190611e62565b9050600081826112669190611f97565b90506000838560046112789190611f97565b6112829190611f97565b9050808210156112c7576040517f08c379a00000000000000000000000000000000000000000000000000000000081526004016112be90612234565b60405180910390fd5b60006112dd82846112d891906120a5565b6117b8565b90506000600282866112ef91906120a5565b6112f99190612008565b90506000811161133e576040517f08c379a0000000000000000000000000000000000000000000000000000000008152600401611335906122a0565b60405180910390fd5b858110611380576040517f08c379a00000000000000000000000000000000000000000000000000000000081526004016113779061230c565b60405180910390fd5b8a1561141e57808a61139291906120a5565b600460008282546113a39190611e62565b9250508190555080600560008282546113bc91906120a5565b9250508190555089600660003373ffffffffffffffffffffffffffffffffffffffff1673ffffffffffffffffffffffffffffffffffffffff168152602001908152602001600020600082825461141291906120a5565b925050819055506114b2565b808a61142a91906120a5565b6005600082825461143b9190611e62565b92505081905550806004600082825461145491906120a5565b9250508190555089600760003373ffffffffffffffffffffffffffffffffffffffff1673ffffffffffffffffffffffffffffffffffffffff16815260200190815260200160002060008282546114aa91906120a5565b925050819055505b600260009054906101000a900473ffffffffffffffffffffffffffffffffffffffff1673ffffffffffffffffffffffffffffffffffffffff1663a9059cbb33836040518363ffffffff1660e01b815260040161150f929190611f6e565b6020604051808303816000875af115801561152e573d6000803e3d6000fd5b505050506040513d601f19601f820116820180604052508101906115529190611d9a565b611591576040517f08c379a000000000000000000000000000000000000000000000000000000000815260040161158890611e13565b60405180910390fd5b3373ffffffffffffffffffffffffffffffffffffffff167f6ef2400e3559d8a9ff41d96e963ff23b7be0270529ffea64fee0747fb7f29e858c8c846040516115db93929190612145565b60405180910390a25050505050505050506115f46117af565b5050565b600360009054906101000a900473ffffffffffffffffffffffffffffffffffffffff1681565b611626611955565b73ffffffffffffffffffffffffffffffffffffffff1661164461048e565b73ffffffffffffffffffffffffffffffffffffffff16146116a357611667611955565b6040517f118cdaa700000000000000000000000000000000000000000000000000000000815260040161169a9190611acb565b60405180910390fd5b565b60008060009054906101000a900473ffffffffffffffffffffffffffffffffffffffff169050816000806101000a81548173ffffffffffffffffffffffffffffffffffffffff021916908373ffffffffffffffffffffffffffffffffffffffff1602179055508173ffffffffffffffffffffffffffffffffffffffff168173ffffffffffffffffffffffffffffffffffffffff167f8be0079c531659141344cd1fd0a4f28419497f9722a3daafe3b4186f6b6457e060405160405180910390a35050565b6002600154036117a5576040517f3ee5aeb500000000000000000000000000000000000000000000000000000000815260040160405180910390fd5b6002600181905550565b60018081905550565b6000600182116117ca57819050611950565b600082905060006001905070010000000000000000000000000000000082106117fc57608082901c9150604081901b90505b68010000000000000000821061181b57604082901c9150602081901b90505b640100000000821061183657602082901c9150601081901b90505b62010000821061184f57601082901c9150600881901b90505b610100821061186757600882901c9150600481901b90505b6010821061187e57600482901c9150600281901b90505b6004821061188e57600181901b90505b600181600302901c905060018185816118aa576118a9611fd9565b5b048201901c905060018185816118c3576118c2611fd9565b5b048201901c905060018185816118dc576118db611fd9565b5b048201901c905060018185816118f5576118f4611fd9565b5b048201901c9050600181858161190e5761190d611fd9565b5b048201901c9050600181858161192757611926611fd9565b5b048201901c905061194981858161194157611940611fd9565b5b04821161195d565b8103925050505b919050565b600033905090565b60008115159050919050565b6000819050919050565b61197c81611969565b82525050565b60006020820190506119976000830184611973565b92915050565b600080fd5b60008115159050919050565b6119b7816119a2565b81146119c257600080fd5b50565b6000813590506119d4816119ae565b92915050565b6000602082840312156119f0576119ef61199d565b5b60006119fe848285016119c5565b91505092915050565b600073ffffffffffffffffffffffffffffffffffffffff82169050919050565b6000611a3282611a07565b9050919050565b611a4281611a27565b8114611a4d57600080fd5b50565b600081359050611a5f81611a39565b92915050565b600060208284031215611a7b57611a7a61199d565b5b6000611a8984828501611a50565b91505092915050565b611a9b816119a2565b82525050565b6000602082019050611ab66000830184611a92565b92915050565b611ac581611a27565b82525050565b6000602082019050611ae06000830184611abc565b92915050565b611aef81611969565b8114611afa57600080fd5b50565b600081359050611b0c81611ae6565b92915050565b600060208284031215611b2857611b2761199d565b5b6000611b3684828501611afd565b91505092915050565b6000819050919050565b6000611b64611b5f611b5a84611a07565b611b3f565b611a07565b9050919050565b6000611b7682611b49565b9050919050565b6000611b8882611b6b565b9050919050565b611b9881611b7d565b82525050565b6000602082019050611bb36000830184611b8f565b92915050565b60008060408385031215611bd057611bcf61199d565b5b6000611bde858286016119c5565b9250506020611bef85828601611afd565b9150509250929050565b600082825260208201905092915050565b7f416c7265616479207265736f6c76656400000000000000000000000000000000600082015250565b6000611c40601083611bf9565b9150611c4b82611c0a565b602082019050919050565b60006020820190508181036000830152611c6f81611c33565b9050919050565b7f416d6f756e74206d757374206265203e20300000000000000000000000000000600082015250565b6000611cac601283611bf9565b9150611cb782611c76565b602082019050919050565b60006020820190508181036000830152611cdb81611c9f565b9050919050565b7f4d61726b6574207265736f6c7665640000000000000000000000000000000000600082015250565b6000611d18600f83611bf9565b9150611d2382611ce2565b602082019050919050565b60006020820190508181036000830152611d4781611d0b565b9050919050565b6000606082019050611d636000830186611abc565b611d706020830185611abc565b611d7d6040830184611973565b949350505050565b600081519050611d94816119ae565b92915050565b600060208284031215611db057611daf61199d565b5b6000611dbe84828501611d85565b91505092915050565b7f5472616e73666572206661696c65640000000000000000000000000000000000600082015250565b6000611dfd600f83611bf9565b9150611e0882611dc7565b602082019050919050565b60006020820190508181036000830152611e2c81611df0565b9050919050565b7f4e487b7100000000000000000000000000000000000000000000000000000000600052601160045260246000fd5b6000611e6d82611969565b9150611e7883611969565b9250828201905080821115611e9057611e8f611e33565b5b92915050565b7f4e6f74207265736f6c7665640000000000000000000000000000000000000000600082015250565b6000611ecc600c83611bf9565b9150611ed782611e96565b602082019050919050565b60006020820190508181036000830152611efb81611ebf565b9050919050565b7f4e6f2077696e6e696e6773000000000000000000000000000000000000000000600082015250565b6000611f38600b83611bf9565b9150611f4382611f02565b602082019050919050565b60006020820190508181036000830152611f6781611f2b565b9050919050565b6000604082019050611f836000830185611abc565b611f906020830184611973565b9392505050565b6000611fa282611969565b9150611fad83611969565b9250828202611fbb81611969565b91508282048414831517611fd257611fd1611e33565b5b5092915050565b7f4e487b7100000000000000000000000000000000000000000000000000000000600052601260045260246000fd5b600061201382611969565b915061201e83611969565b92508261202e5761202d611fd9565b5b828204905092915050565b7f506f6f6c206e6f7420696e697469616c697a6564000000000000000000000000600082015250565b600061206f601483611bf9565b915061207a82612039565b602082019050919050565b6000602082019050818103600083015261209e81612062565b9050919050565b60006120b082611969565b91506120bb83611969565b92508282039050818111156120d3576120d2611e33565b5b92915050565b7f466565207472616e73666572206661696c656400000000000000000000000000600082015250565b600061210f601383611bf9565b915061211a826120d9565b602082019050919050565b6000602082019050818103600083015261213e81612102565b9050919050565b600060608201905061215a6000830186611a92565b6121676020830185611973565b6121746040830184611973565b949350505050565b7f496e73756666696369656e742062616c616e6365000000000000000000000000600082015250565b60006121b2601483611bf9565b91506121bd8261217c565b602082019050919050565b600060208201905081810360008301526121e1816121a5565b9050919050565b7f4d617468206572726f7200000000000000000000000000000000000000000000600082015250565b600061221e600a83611bf9565b9150612229826121e8565b602082019050919050565b6000602082019050818103600083015261224d81612211565b9050919050565b7f5a65726f206f7574707574000000000000000000000000000000000000000000600082015250565b600061228a600b83611bf9565b915061229582612254565b602082019050919050565b600060208201905081810360008301526122b98161227d565b9050919050565b7f496e73756666696369656e74206c697175696469747900000000000000000000600082015250565b60006122f6601683611bf9565b9150612301826122c0565b602082019050919050565b60006020820190508181036000830152612325816122e9565b905091905056fea2646970667358221220abb1a0ab13c44dae5ec39d8a6084aed8d458469850a95e4e50a0fbf9d80c16b864736f6c63430008140033",
  "linkReferences": {},
  "deployedLinkReferences": {}
}