{
  "_format": "hh-sol-artifact-1",
  "contractName": "HelixMarket",
  "sourceName": "contracts/HelixMarket.sol",
  "abi": [
    {
      "inputs": [
        {
          "internalType": "address",
          "name": "_token",
          "type": "address"
        }
      ],
      "stateMutability": "nonpayable",
      "type": "constructor"
    },
    {
      "inputs": [],
      "name": "AccessControlBadConfirmation",
      "type": "error"
    },
    {
      "inputs": [
        {
          "internalType": "address",
          "name": "account",
          "type": "address"
        },
        {
          "internalType": "bytes32",
          "name": "neededRole",
          "type": "bytes32"
        }
      ],
      "name": "AccessControlUnauthorizedAccount",
      "type": "error"
    },
    {
      "inputs": [],
      "name": "ReentrancyGuardReentrantCall",
      "type": "error"
    },
    {
      "anonymous": false,
      "inputs": [
        {
          "indexed": true,
          "internalType": "uint256",
          "name": "marketId",
          "type": "uint256"
        },
        {
          "indexed": true,
          "internalType": "address",
          "name": "user",
          "type": "address"
        },
        {
          "indexed": false,
          "internalType": "bytes32",
          "name": "commitHash",
          "type": "bytes32"
        },
        {
          "indexed": false,
          "internalType": "uint256",
          "name": "amount",
          "type": "uint256"
        }
      ],
      "name": "BetCommitted",
      "type": "event"
    },
    {
      "anonymous": false,
      "inputs": [
        {
          "indexed": true,
          "internalType": "uint256",
          "name": "marketId",
          "type": "uint256"
        },
        {
          "indexed": true,
          "internalType": "address",
          "name": "user",
          "type": "address"
        },
        {
          "indexed": false,
          "internalType": "bool",
          "name": "choice",
          "type": "bool"
        },
        {
          "indexed": false,
          "internalType": "uint256",
          "name": "amount",
          "type": "uint256"
        }
      ],
      "name": "BetRevealed",
      "type": "event"
    },
    {
      "anonymous": false,
      "inputs": [
        {
          "indexed": true,
          "internalType": "uint256",
          "name": "marketId",
          "type": "uint256"
        },
        {
          "indexed": false,
          "internalType": "bool",
          "name": "outcome",
          "type": "bool"
        },
        {
          "indexed": false,
          "internalType": "bool",
          "name": "tie",
          "type": "bool"
        },
        {
          "indexed": false,
          "internalType": "uint256",
          "name": "totalPool",
          "type": "uint256"
        },
        {
          "indexed": false,
          "internalType": "uint256",
          "name": "originatorFee",
          "type": "uint256"
        }
      ],
      "name": "MarketResolved",
      "type": "event"
    },
    {
      "anonymous": false,
      "inputs": [
        {
          "indexed": true,
          "internalType": "bytes32",
          "name": "role",
          "type": "bytes32"
        },
        {
          "indexed": true,
          "internalType": "bytes32",
          "name": "previousAdminRole",
          "type": "bytes32"
        },
        {
          "indexed": true,
          "internalType": "bytes32",
          "name": "newAdminRole",
          "type": "bytes32"
        }
      ],
      "name": "RoleAdminChanged",
      "type": "event"
    },
    {
      "anonymous": false,
      "inputs": [
        {
          "indexed": true,
          "internalType": "bytes32",
          "name": "role",
          "type": "bytes32"
        },
        {
          "indexed": true,
          "internalType": "address",
          "name": "account",
          "type": "address"
        },
        {
          "indexed": true,
          "internalType": "address",
          "name": "sender",
          "type": "address"
        }
      ],
      "name": "RoleGranted",
      "type": "event"
    },
    {
      "anonymous": false,
      "inputs": [
        {
          "indexed": true,
          "internalType": "bytes32",
          "name": "role",
          "type": "bytes32"
        },
        {
          "indexed": true,
          "internalType": "address",
          "name": "account",
          "type": "address"
        },
        {
          "indexed": true,
          "internalType": "address",
          "name": "sender",
          "type": "address"
        }
      ],
      "name": "RoleRevoked",
      "type": "event"
    },
    {
      "anonymous": false,
      "inputs": [
        {
          "indexed": true,
          "internalType": "uint256",
          "name": "marketId",
          "type": "uint256"
        },
        {
          "indexed": false,
          "internalType": "string",
          "name": "ipfsCid",
          "type": "string"
        },
        {
          "indexed": false,
          "internalType": "uint256",
          "name": "commitEndTime",
          "type": "uint256"
        },
        {
          "indexed": false,
          "internalType": "uint256",
          "name": "revealEndTime",
          "type": "uint256"
        },
        {
          "indexed": false,
          "internalType": "address",
          "name": "originator",
          "type": "address"
        }
      ],
      "name": "StatementCreated",
      "type": "event"
    },
    {
      "inputs": [],
      "name": "DEFAULT_ADMIN_ROLE",
      "outputs": [
        {
          "internalType": "bytes32",
          "name": "",
          "type": "bytes32"
        }
      ],
      "stateMutability": "view",
      "type": "function"
    },
    {
      "inputs": [],
      "name": "STATEMENT_FEE",
      "outputs": [
        {
          "internalType": "uint256",
          "name": "",
          "type": "uint256"
        }
      ],
      "stateMutability": "view",
      "type": "function"
    },
    {
      "inputs": [
        {
          "internalType": "uint256",
          "name": "",
          "type": "uint256"
        },
        {
          "internalType": "address",
          "name": "",
          "type": "address"
        },
        {
          "internalType": "uint8",
          "name": "",
          "type": "uint8"
        }
      ],
      "name": "bets",
      "outputs": [
        {
          "internalType": "uint256",
          "name": "",
          "type": "uint256"
        }
      ],
      "stateMutability": "view",
      "type": "function"
    },
    {
      "inputs": [
        {
          "internalType": "uint256",
          "name": "marketId",
          "type": "uint256"
        }
      ],
      "name": "claim",
      "outputs": [],
      "stateMutability": "nonpayable",
      "type": "function"
    },
    {
      "inputs": [
        {
          "internalType": "uint256",
          "name": "marketId",
          "type": "uint256"
        },
        {
          "internalType": "bytes32",
          "name": "commitHash",
          "type": "bytes32"
        },
        {
          "internalType": "uint256",
          "name": "amount",
          "type": "uint256"
        }
      ],
      "name": "commitBet",
      "outputs": [],
      "stateMutability": "nonpayable",
      "type": "function"
    },
    {
      "inputs": [
        {
          "internalType": "uint256",
          "name": "",
          "type": "uint256"
        },
        {
          "internalType": "address",
          "name": "",
          "type": "address"
        }
      ],
      "name": "commits",
      "outputs": [
        {
          "internalType": "bytes32",
          "name": "",
          "type": "bytes32"
        }
      ],
      "stateMutability": "view",
      "type": "function"
    },
    {
      "inputs": [
        {
          "internalType": "uint256",
          "name": "",
          "type": "uint256"
        },
        {
          "internalType": "address",
          "name": "",
          "type": "address"
        }
      ],
      "name": "committedAmount",
      "outputs": [
        {
          "internalType": "uint256",
          "name": "",
          "type": "uint256"
        }
      ],
      "stateMutability": "view",
      "type": "function"
    },
    {
      "inputs": [
        {
          "internalType": "bytes32",
          "name": "role",
          "type": "bytes32"
        }
      ],
      "name": "getRoleAdmin",
      "outputs": [
        {
          "internalType": "bytes32",
          "name": "",
          "type": "bytes32"
        }
      ],
      "stateMutability": "view",
      "type": "function"
    },
    {
      "inputs": [
        {
          "internalType": "bytes32",
          "name": "role",
          "type": "bytes32"
        },
        {
          "internalType": "address",
          "name": "account",
          "type": "address"
        }
      ],
      "name": "grantRole",
      "outputs": [],
      "stateMutability": "nonpayable",
      "type": "function"
    },
    {
      "inputs": [
        {
          "internalType": "uint256",
          "name": "",
          "type": "uint256"
        },
        {
          "internalType": "address",
          "name": "",
          "type": "address"
        }
      ],
      "name": "hasCommitted",
      "outputs": [
        {
          "internalType": "bool",
          "name": "",
          "type": "bool"
        }
      ],
      "stateMutability": "view",
      "type": "function"
    },
    {
      "inputs": [
        {
          "internalType": "bytes32",
          "name": "role",
          "type": "bytes32"
        },
        {
          "internalType": "address",
          "name": "account",
          "type": "address"
        }
      ],
      "name": "hasRole",
      "outputs": [
        {
          "internalType": "bool",
          "name": "",
          "type": "bool"
        }
      ],
      "stateMutability": "view",
      "type": "function"
    },
    {
      "inputs": [],
      "name": "marketCount",
      "outputs": [
        {
          "internalType": "uint256",
          "name": "",
          "type": "uint256"
        }
      ],
      "stateMutability": "view",
      "type": "function"
    },
    {
      "inputs": [
        {
          "internalType": "uint256",
          "name": "",
          "type": "uint256"
        }
      ],
      "name": "markets",
      "outputs": [
        {
          "internalType": "string",
          "name": "ipfsCid",
          "type": "string"
        },
        {
          "internalType": "uint256",
          "name": "commitEndTime",
          "type": "uint256"
        },
        {
          "internalType": "uint256",
          "name": "revealEndTime",
          "type": "uint256"
        },
        {
          "internalType": "uint256",
          "name": "yesPool",
          "type": "uint256"
        },
        {
          "internalType": "uint256",
          "name": "noPool",
          "type": "uint256"
        },
        {
          "internalType": "uint256",
          "name": "unalignedPool",
          "type": "uint256"
        },
        {
          "internalType": "bool",
          "name": "resolved",
          "type": "bool"
        },
        {
          "internalType": "bool",
          "name": "outcome",
          "type": "bool"
        },
        {
          "internalType": "address",
          "name": "originator",
          "type": "address"
        }
      ],
      "stateMutability": "view",
      "type": "function"
    },
    {
      "inputs": [
        {
          "internalType": "bytes32",
          "name": "role",
          "type": "bytes32"
        },
        {
          "internalType": "address",
          "name": "callerConfirmation",
          "type": "address"
        }
      ],
      "name": "renounceRole",
      "outputs": [],
      "stateMutability": "nonpayable",
      "type": "function"
    },
    {
      "inputs": [
        {
          "internalType": "uint256",
          "name": "marketId",
          "type": "uint256"
        }
      ],
      "name": "resolve",
      "outputs": [],
      "stateMutability": "nonpayable",
      "type": "function"
    },
    {
      "inputs": [
        {
          "internalType": "uint256",
          "name": "marketId",
          "type": "uint256"
        },
        {
          "internalType": "uint8",
          "name": "choice",
          "type": "uint8"
        },
        {
          "internalType": "uint256",
          "name": "salt",
          "type": "uint256"
        }
      ],
      "name": "revealBet",
      "outputs": [],
      "stateMutability": "nonpayable",
      "type": "function"
    },
    {
      "inputs": [
        {
          "internalType": "bytes32",
          "name": "role",
          "type": "bytes32"
        },
        {
          "internalType": "address",
          "name": "account",
          "type": "address"
        }
      ],
      "name": "revokeRole",
      "outputs": [],
      "stateMutability": "nonpayable",
      "type": "function"
    },
    {
      "inputs": [
        {
          "internalType": "string",
          "name": "ipfsCid",
          "type": "string"
        },
        {
          "internalType": "uint256",
          "name": "biddingDuration",
          "type": "uint256"
        },
        {
          "internalType": "uint256",
          "name": "revealDuration",
          "type": "uint256"
        }
      ],
      "name": "submitStatement",
      "outputs": [],
      "stateMutability": "nonpayable",
      "type": "function"
    },
    {
      "inputs": [
        {
          "internalType": "bytes4",
          "name": "interfaceId",
          "type": "bytes4"
        }
      ],
      "name": "supportsInterface",
      "outputs": [
        {
          "internalType": "bool",
          "name": "",
          "type": "bool"
        }
      ],
      "stateMutability": "view",
      "type": "function"
    },
    {
      "inputs": [],
      "name": "token",
      "outputs": [
        {
          "internalType": "contract AlphaHelixToken",
          "name": "",
          "type": "address"
        }
      ],
      "stateMutability": "view",
      "type": "function"
    }
  ],
  "bytecode": "0x60a06040523480156200001157600080fd5b50604051620034df380380620034df833981810160405281019062000037919062000270565b60016000819055508073ffffffffffffffffffffffffffffffffffffffff1660808173ffffffffffffffffffffffffffffffffffffffff1681525050620000886000801b336200009060201b60201c565b5050620002a2565b6000620000a483836200019360201b60201c565b6200018857600180600085815260200190815260200160002060000160008473ffffffffffffffffffffffffffffffffffffffff1673ffffffffffffffffffffffffffffffffffffffff16815260200190815260200160002060006101000a81548160ff02191690831515021790555062000124620001fe60201b60201c565b73ffffffffffffffffffffffffffffffffffffffff168273ffffffffffffffffffffffffffffffffffffffff16847f2f8788117e7eff1d82e926ec794901d17c78024a50270940304540a733656f0d60405160405180910390a4600190506200018d565b600090505b92915050565b60006001600084815260200190815260200160002060000160008373ffffffffffffffffffffffffffffffffffffffff1673ffffffffffffffffffffffffffffffffffffffff16815260200190815260200160002060009054906101000a900460ff16905092915050565b600033905090565b600080fd5b600073ffffffffffffffffffffffffffffffffffffffff82169050919050565b600062000238826200020b565b9050919050565b6200024a816200022b565b81146200025657600080fd5b50565b6000815190506200026a816200023f565b92915050565b60006020828403121562000289576200028862000206565b5b6000620002998482850162000259565b91505092915050565b6080516131fe620002e16000396000818161048d01528181610575015281816107bf01528181611083015281816112770152611b2f01526131fe6000f3fe608060405234801561001057600080fd5b506004361061012c5760003560e01c8063885d68a8116100ad578063b1283e7711610071578063b1283e7714610365578063cdbf95821461039d578063d547741f146103b9578063ec979082146103d5578063fc0c546a146103f35761012c565b8063885d68a8146102875780638f99230e146102b757806391d14854146102e7578063a217fddf14610317578063a99ef9f5146103355761012c565b80632f2ff15d116100f45780632f2ff15d146101e757806336568abe14610203578063379607f51461021f5780634f896d4f1461023b57806357cb0c11146102575761012c565b806301ffc9a7146101315780631204078d146101615780631b88272a1461017d578063248a9ca3146101995780632e8f036a146101c9575b600080fd5b61014b60048036038101906101469190611e78565b610411565b6040516101589190611ec0565b60405180910390f35b61017b60048036038101906101769190612057565b61048b565b005b610197600480360381019061019291906120fc565b61071d565b005b6101b360048036038101906101ae919061214f565b610a06565b6040516101c0919061218b565b60405180910390f35b6101d1610a26565b6040516101de91906121b5565b60405180910390f35b61020160048036038101906101fc919061222e565b610a33565b005b61021d6004803603810190610218919061222e565b610a55565b005b6102396004803603810190610234919061226e565b610ad0565b005b6102556004803603810190610250919061226e565b611168565b005b610271600480360381019061026c919061229b565b6113fb565b60405161027e91906121b5565b60405180910390f35b6102a1600480360381019061029c919061229b565b611420565b6040516102ae919061218b565b60405180910390f35b6102d160048036038101906102cc9190612314565b611445565b6040516102de91906121b5565b60405180910390f35b61030160048036038101906102fc919061222e565b611477565b60405161030e9190611ec0565b60405180910390f35b61031f6114e2565b60405161032c919061218b565b60405180910390f35b61034f600480360381019061034a919061229b565b6114e9565b60405161035c9190611ec0565b60405180910390f35b61037f600480360381019061037a919061226e565b611518565b604051610394999897969594939291906123f5565b60405180910390f35b6103b760048036038101906103b29190612489565b611628565b005b6103d360048036038101906103ce919061222e565b611b05565b005b6103dd611b27565b6040516103ea91906121b5565b60405180910390f35b6103fb611b2d565b604051610408919061253b565b60405180910390f35b60007f7965db0b000000000000000000000000000000000000000000000000000000007bffffffffffffffffffffffffffffffffffffffffffffffffffffffff1916827bffffffffffffffffffffffffffffffffffffffffffffffffffffffff19161480610484575061048382611b51565b5b9050919050565b7f000000000000000000000000000000000000000000000000000000000000000073ffffffffffffffffffffffffffffffffffffffff166323b872dd333068056bc75e2d631000006040518463ffffffff1660e01b81526004016104f193929190612556565b6020604051808303816000875af1158015610510573d6000803e3d6000fd5b505050506040513d601f19601f8201168201806040525081019061053491906125b9565b610573576040517f08c379a000000000000000000000000000000000000000000000000000000000815260040161056a90612632565b60405180910390fd5b7f000000000000000000000000000000000000000000000000000000000000000073ffffffffffffffffffffffffffffffffffffffff1663a9059cbb61dead68056bc75e2d631000006040518363ffffffff1660e01b81526004016105d9929190612652565b6020604051808303816000875af11580156105f8573d6000803e3d6000fd5b505050506040513d601f19601f8201168201806040525081019061061c91906125b9565b50600060026000815480929190610632906126aa565b91905055905060006003600083815260200190815260200160002090508481600001908161066091906128f4565b50834261066d91906129c6565b816001018190555082816001015461068591906129c6565b8160020181905550338160060160026101000a81548173ffffffffffffffffffffffffffffffffffffffff021916908373ffffffffffffffffffffffffffffffffffffffff160217905550817fb0f44ab77840631afd2f642daa49e5d268bce7babf6c72558f47c5d027413b9886836001015484600201543360405161070e94939291906129fa565b60405180910390a25050505050565b60006003600085815260200190815260200160002090508060010154421061077a576040517f08c379a000000000000000000000000000000000000000000000000000000000815260040161077190612a92565b60405180910390fd5b600082116107bd576040517f08c379a00000000000000000000000000000000000000000000000000000000081526004016107b490612afe565b60405180910390fd5b7f000000000000000000000000000000000000000000000000000000000000000073ffffffffffffffffffffffffffffffffffffffff166323b872dd3330856040518463ffffffff1660e01b815260040161081a93929190612556565b6020604051808303816000875af1158015610839573d6000803e3d6000fd5b505050506040513d601f19601f8201168201806040525081019061085d91906125b9565b61089c576040517f08c379a000000000000000000000000000000000000000000000000000000000815260040161089390612b6a565b60405180910390fd5b826004600086815260200190815260200160002060003373ffffffffffffffffffffffffffffffffffffffff1673ffffffffffffffffffffffffffffffffffffffff1681526020019081526020016000208190555060016005600086815260200190815260200160002060003373ffffffffffffffffffffffffffffffffffffffff1673ffffffffffffffffffffffffffffffffffffffff16815260200190815260200160002060006101000a81548160ff021916908315150217905550816007600086815260200190815260200160002060003373ffffffffffffffffffffffffffffffffffffffff1673ffffffffffffffffffffffffffffffffffffffff168152602001908152602001600020819055503373ffffffffffffffffffffffffffffffffffffffff16847fc02f2358fe181cc846163d0ca2cd612408cef67a7acdbb92cd09045df0e2fd9a85856040516109f8929190612b8a565b60405180910390a350505050565b600060016000838152602001908152602001600020600101549050919050565b68056bc75e2d6310000081565b610a3c82610a06565b610a4581611bbb565b610a4f8383611bcf565b50505050565b610a5d611cc0565b73ffffffffffffffffffffffffffffffffffffffff168173ffffffffffffffffffffffffffffffffffffffff1614610ac1576040517f6697b23200000000000000000000000000000000000000000000000000000000815260040160405180910390fd5b610acb8282611cc8565b505050565b60006003600083815260200190815260200160002090508060060160009054906101000a900460ff16610b38576040517f08c379a0000000000000000000000000000000000000000000000000000000008152600401610b2f90612bff565b60405180910390fd5b6000806000836005015484600401548560030154610b5691906129c6565b610b6091906129c6565b90506000606482610b719190612c4e565b905060008183610b819190612c7f565b90508560040154866003015403610ce1576006600088815260200190815260200160002060003373ffffffffffffffffffffffffffffffffffffffff1673ffffffffffffffffffffffffffffffffffffffff1681526020019081526020016000206000600260ff168152602001908152602001600020546006600089815260200190815260200160002060003373ffffffffffffffffffffffffffffffffffffffff1673ffffffffffffffffffffffffffffffffffffffff1681526020019081526020016000206000600160ff16815260200190815260200160002054600660008a815260200190815260200160002060003373ffffffffffffffffffffffffffffffffffffffff1673ffffffffffffffffffffffffffffffffffffffff16815260200190815260200160002060008060ff16815260200190815260200160002054610ccd91906129c6565b610cd791906129c6565b9450829350610ddc565b8560060160019054906101000a900460ff1615610d6c576006600088815260200190815260200160002060003373ffffffffffffffffffffffffffffffffffffffff1673ffffffffffffffffffffffffffffffffffffffff1681526020019081526020016000206000600160ff16815260200190815260200160002054945085600301549350610ddb565b6006600088815260200190815260200160002060003373ffffffffffffffffffffffffffffffffffffffff1673ffffffffffffffffffffffffffffffffffffffff16815260200190815260200160002060008060ff168152602001908152602001600020549450856004015493505b5b60008511610e1f576040517f08c379a0000000000000000000000000000000000000000000000000000000008152600401610e1690612cff565b60405180910390fd5b8560040154866003015403610f735760006006600089815260200190815260200160002060003373ffffffffffffffffffffffffffffffffffffffff1673ffffffffffffffffffffffffffffffffffffffff16815260200190815260200160002060008060ff1681526020019081526020016000208190555060006006600089815260200190815260200160002060003373ffffffffffffffffffffffffffffffffffffffff1673ffffffffffffffffffffffffffffffffffffffff1681526020019081526020016000206000600160ff1681526020019081526020016000208190555060006006600089815260200190815260200160002060003373ffffffffffffffffffffffffffffffffffffffff1673ffffffffffffffffffffffffffffffffffffffff1681526020019081526020016000206000600260ff16815260200190815260200160002081905550611066565b8560060160019054906101000a900460ff1615610ffa5760006006600089815260200190815260200160002060003373ffffffffffffffffffffffffffffffffffffffff1673ffffffffffffffffffffffffffffffffffffffff1681526020019081526020016000206000600160ff16815260200190815260200160002081905550611065565b60006006600089815260200190815260200160002060003373ffffffffffffffffffffffffffffffffffffffff1673ffffffffffffffffffffffffffffffffffffffff16815260200190815260200160002060008060ff168152602001908152602001600020819055505b5b60008482876110759190612d1f565b61107f9190612c4e565b90507f000000000000000000000000000000000000000000000000000000000000000073ffffffffffffffffffffffffffffffffffffffff1663a9059cbb33836040518363ffffffff1660e01b81526004016110dc929190612652565b6020604051808303816000875af11580156110fb573d6000803e3d6000fd5b505050506040513d601f19601f8201168201806040525081019061111f91906125b9565b61115e576040517f08c379a000000000000000000000000000000000000000000000000000000000815260040161115590612b6a565b60405180910390fd5b5050505050505050565b6000600360008381526020019081526020016000209050806002015442116111c5576040517f08c379a00000000000000000000000000000000000000000000000000000000081526004016111bc90612dad565b60405180910390fd5b8060060160009054906101000a900460ff1615611217576040517f08c379a000000000000000000000000000000000000000000000000000000000815260040161120e90612e19565b60405180910390fd5b60018160060160006101000a81548160ff021916908315150217905550600081600501548260040154836003015461124f91906129c6565b61125991906129c6565b9050600060648261126a9190612c4e565b90506000811115611339577f000000000000000000000000000000000000000000000000000000000000000073ffffffffffffffffffffffffffffffffffffffff1663a9059cbb8460060160029054906101000a900473ffffffffffffffffffffffffffffffffffffffff16836040518363ffffffff1660e01b81526004016112f4929190612652565b6020604051808303816000875af1158015611313573d6000803e3d6000fd5b505050506040513d601f19601f8201168201806040525081019061133791906125b9565b505b600083600401548460030154111561136d5760018460060160016101000a81548160ff0219169083151502179055506113a5565b83600301548460040154111561139f5760008460060160016101000a81548160ff0219169083151502179055506113a4565b600190505b5b847fcf0a48d2ad3f7480002e60b1eda352f90145d89af44eb49e792dad0233f533b18560060160019054906101000a900460ff168386866040516113ec9493929190612e39565b60405180910390a25050505050565b6007602052816000526040600020602052806000526040600020600091509150505481565b6004602052816000526040600020602052806000526040600020600091509150505481565b600660205282600052604060002060205281600052604060002060205280600052604060002060009250925050505481565b60006001600084815260200190815260200160002060000160008373ffffffffffffffffffffffffffffffffffffffff1673ffffffffffffffffffffffffffffffffffffffff16815260200190815260200160002060009054906101000a900460ff16905092915050565b6000801b81565b60056020528160005260406000206020528060005260406000206000915091509054906101000a900460ff1681565b600360205280600052604060002060009150905080600001805461153b90612721565b80601f016020809104026020016040519081016040528092919081815260200182805461156790612721565b80156115b45780601f10611589576101008083540402835291602001916115b4565b820191906000526020600020905b81548152906001019060200180831161159757829003601f168201915b5050505050908060010154908060020154908060030154908060040154908060050154908060060160009054906101000a900460ff16908060060160019054906101000a900460ff16908060060160029054906101000a900473ffffffffffffffffffffffffffffffffffffffff16905089565b60006003600085815260200190815260200160002090508060010154421015611686576040517f08c379a000000000000000000000000000000000000000000000000000000000815260040161167d90612eca565b60405180910390fd5b806002015442106116cc576040517f08c379a00000000000000000000000000000000000000000000000000000000081526004016116c390612f36565b60405180910390fd5b60006004600086815260200190815260200160002060003373ffffffffffffffffffffffffffffffffffffffff1673ffffffffffffffffffffffffffffffffffffffff1681526020019081526020016000205490506000801b8103611766576040517f08c379a000000000000000000000000000000000000000000000000000000000815260040161175d90612fa2565b60405180910390fd5b8084843360405160200161177c93929190613061565b60405160208183030381529060405280519060200120146117d2576040517f08c379a00000000000000000000000000000000000000000000000000000000081526004016117c9906130ea565b60405180910390fd5b60006007600087815260200190815260200160002060003373ffffffffffffffffffffffffffffffffffffffff1673ffffffffffffffffffffffffffffffffffffffff1681526020019081526020016000205490506000811161186a576040517f08c379a000000000000000000000000000000000000000000000000000000000815260040161186190613156565b60405180910390fd5b60006007600088815260200190815260200160002060003373ffffffffffffffffffffffffffffffffffffffff1673ffffffffffffffffffffffffffffffffffffffff1681526020019081526020016000208190555060018560ff160361196757808360030160008282546118df91906129c6565b92505081905550806006600088815260200190815260200160002060003373ffffffffffffffffffffffffffffffffffffffff1673ffffffffffffffffffffffffffffffffffffffff1681526020019081526020016000206000600160ff168152602001908152602001600020600082825461195b91906129c6565b92505081905550611aa6565b60008560ff1603611a0d578083600401600082825461198691906129c6565b92505081905550806006600088815260200190815260200160002060003373ffffffffffffffffffffffffffffffffffffffff1673ffffffffffffffffffffffffffffffffffffffff16815260200190815260200160002060008060ff1681526020019081526020016000206000828254611a0191906129c6565b92505081905550611aa5565b80836005016000828254611a2191906129c6565b92505081905550806006600088815260200190815260200160002060003373ffffffffffffffffffffffffffffffffffffffff1673ffffffffffffffffffffffffffffffffffffffff1681526020019081526020016000206000600260ff1681526020019081526020016000206000828254611a9d91906129c6565b925050819055505b5b3373ffffffffffffffffffffffffffffffffffffffff16867f423d5ce55fb03e304e81173c4b9e763c017d818cd6af449e05f3ebad12a34d1b60018860ff161484604051611af5929190613176565b60405180910390a3505050505050565b611b0e82610a06565b611b1781611bbb565b611b218383611cc8565b50505050565b60025481565b7f000000000000000000000000000000000000000000000000000000000000000081565b60007f01ffc9a7000000000000000000000000000000000000000000000000000000007bffffffffffffffffffffffffffffffffffffffffffffffffffffffff1916827bffffffffffffffffffffffffffffffffffffffffffffffffffffffff1916149050919050565b611bcc81611bc7611cc0565b611dbb565b50565b6000611bdb8383611477565b611cb557600180600085815260200190815260200160002060000160008473ffffffffffffffffffffffffffffffffffffffff1673ffffffffffffffffffffffffffffffffffffffff16815260200190815260200160002060006101000a81548160ff021916908315150217905550611c52611cc0565b73ffffffffffffffffffffffffffffffffffffffff168273ffffffffffffffffffffffffffffffffffffffff16847f2f8788117e7eff1d82e926ec794901d17c78024a50270940304540a733656f0d60405160405180910390a460019050611cba565b600090505b92915050565b600033905090565b6000611cd48383611477565b15611db05760006001600085815260200190815260200160002060000160008473ffffffffffffffffffffffffffffffffffffffff1673ffffffffffffffffffffffffffffffffffffffff16815260200190815260200160002060006101000a81548160ff021916908315150217905550611d4d611cc0565b73ffffffffffffffffffffffffffffffffffffffff168273ffffffffffffffffffffffffffffffffffffffff16847ff6391f5c32d9c69d2a47ea670b442974b53935d1edc7fd64eb21e047a839171b60405160405180910390a460019050611db5565b600090505b92915050565b611dc58282611477565b611e085780826040517fe2517d3f000000000000000000000000000000000000000000000000000000008152600401611dff92919061319f565b60405180910390fd5b5050565b6000604051905090565b600080fd5b600080fd5b60007fffffffff0000000000000000000000000000000000000000000000000000000082169050919050565b611e5581611e20565b8114611e6057600080fd5b50565b600081359050611e7281611e4c565b92915050565b600060208284031215611e8e57611e8d611e16565b5b6000611e9c84828501611e63565b91505092915050565b60008115159050919050565b611eba81611ea5565b82525050565b6000602082019050611ed56000830184611eb1565b92915050565b600080fd5b600080fd5b6000601f19601f8301169050919050565b7f4e487b7100000000000000000000000000000000000000000000000000000000600052604160045260246000fd5b611f2e82611ee5565b810181811067ffffffffffffffff82111715611f4d57611f4c611ef6565b5b80604052505050565b6000611f60611e0c565b9050611f6c8282611f25565b919050565b600067ffffffffffffffff821115611f8c57611f8b611ef6565b5b611f9582611ee5565b9050602081019050919050565b82818337600083830152505050565b6000611fc4611fbf84611f71565b611f56565b905082815260208101848484011115611fe057611fdf611ee0565b5b611feb848285611fa2565b509392505050565b600082601f83011261200857612007611edb565b5b8135612018848260208601611fb1565b91505092915050565b6000819050919050565b61203481612021565b811461203f57600080fd5b50565b6000813590506120518161202b565b92915050565b6000806000606084860312156120705761206f611e16565b5b600084013567ffffffffffffffff81111561208e5761208d611e1b565b5b61209a86828701611ff3565b93505060206120ab86828701612042565b92505060406120bc86828701612042565b9150509250925092565b6000819050919050565b6120d9816120c6565b81146120e457600080fd5b50565b6000813590506120f6816120d0565b92915050565b60008060006060848603121561211557612114611e16565b5b600061212386828701612042565b9350506020612134868287016120e7565b925050604061214586828701612042565b9150509250925092565b60006020828403121561216557612164611e16565b5b6000612173848285016120e7565b91505092915050565b612185816120c6565b82525050565b60006020820190506121a0600083018461217c565b92915050565b6121af81612021565b82525050565b60006020820190506121ca60008301846121a6565b92915050565b600073ffffffffffffffffffffffffffffffffffffffff82169050919050565b60006121fb826121d0565b9050919050565b61220b816121f0565b811461221657600080fd5b50565b60008135905061222881612202565b92915050565b6000806040838503121561224557612244611e16565b5b6000612253858286016120e7565b925050602061226485828601612219565b9150509250929050565b60006020828403121561228457612283611e16565b5b600061229284828501612042565b91505092915050565b600080604083850312156122b2576122b1611e16565b5b60006122c085828601612042565b92505060206122d185828601612219565b9150509250929050565b600060ff82169050919050565b6122f1816122db565b81146122fc57600080fd5b50565b60008135905061230e816122e8565b92915050565b60008060006060848603121561232d5761232c611e16565b5b600061233b86828701612042565b935050602061234c86828701612219565b925050604061235d868287016122ff565b9150509250925092565b600081519050919050565b600082825260208201905092915050565b60005b838110156123a1578082015181840152602081019050612386565b60008484015250505050565b60006123b882612367565b6123c28185612372565b93506123d2818560208601612383565b6123db81611ee5565b840191505092915050565b6123ef816121f0565b82525050565b6000610120820190508181036000830152612410818c6123ad565b905061241f602083018b6121a6565b61242c604083018a6121a6565b61243960608301896121a6565b61244660808301886121a6565b61245360a08301876121a6565b61246060c0830186611eb1565b61246d60e0830185611eb1565b61247b6101008301846123e6565b9a9950505050505050505050565b6000806000606084860312156124a2576124a1611e16565b5b60006124b086828701612042565b93505060206124c1868287016122ff565b92505060406124d286828701612042565b9150509250925092565b6000819050919050565b60006125016124fc6124f7846121d0565b6124dc565b6121d0565b9050919050565b6000612513826124e6565b9050919050565b600061252582612508565b9050919050565b6125358161251a565b82525050565b6000602082019050612550600083018461252c565b92915050565b600060608201905061256b60008301866123e6565b61257860208301856123e6565b61258560408301846121a6565b949350505050565b61259681611ea5565b81146125a157600080fd5b50565b6000815190506125b38161258d565b92915050565b6000602082840312156125cf576125ce611e16565b5b60006125dd848285016125a4565b91505092915050565b7f466565207472616e73666572206661696c656400000000000000000000000000600082015250565b600061261c601383612372565b9150612627826125e6565b602082019050919050565b6000602082019050818103600083015261264b8161260f565b9050919050565b600060408201905061266760008301856123e6565b61267460208301846121a6565b9392505050565b7f4e487b7100000000000000000000000000000000000000000000000000000000600052601160045260246000fd5b60006126b582612021565b91507fffffffffffffffffffffffffffffffffffffffffffffffffffffffffffffffff82036126e7576126e661267b565b5b600182019050919050565b7f4e487b7100000000000000000000000000000000000000000000000000000000600052602260045260246000fd5b6000600282049050600182168061273957607f821691505b60208210810361274c5761274b6126f2565b5b50919050565b60008190508160005260206000209050919050565b60006020601f8301049050919050565b600082821b905092915050565b6000600883026127b47fffffffffffffffffffffffffffffffffffffffffffffffffffffffffffffffff82612777565b6127be8683612777565b95508019841693508086168417925050509392505050565b60006127f16127ec6127e784612021565b6124dc565b612021565b9050919050565b6000819050919050565b61280b836127d6565b61281f612817826127f8565b848454612784565b825550505050565b600090565b612834612827565b61283f818484612802565b505050565b5b818110156128635761285860008261282c565b600181019050612845565b5050565b601f8211156128a85761287981612752565b61288284612767565b81016020851015612891578190505b6128a561289d85612767565b830182612844565b50505b505050565b600082821c905092915050565b60006128cb600019846008026128ad565b1980831691505092915050565b60006128e483836128ba565b9150826002028217905092915050565b6128fd82612367565b67ffffffffffffffff81111561291657612915611ef6565b5b6129208254612721565b61292b828285612867565b600060209050601f83116001811461295e576000841561294c578287015190505b61295685826128d8565b8655506129be565b601f19841661296c86612752565b60005b828110156129945784890151825560018201915060208501945060208101905061296f565b868310156129b157848901516129ad601f8916826128ba565b8355505b6001600288020188555050505b505050505050565b60006129d182612021565b91506129dc83612021565b92508282019050808211156129f4576129f361267b565b5b92915050565b60006080820190508181036000830152612a1481876123ad565b9050612a2360208301866121a6565b612a3060408301856121a6565b612a3d60608301846123e6565b95945050505050565b7f436f6d6d6974207068617365206f766572000000000000000000000000000000600082015250565b6000612a7c601183612372565b9150612a8782612a46565b602082019050919050565b60006020820190508181036000830152612aab81612a6f565b9050919050565b7f416d6f756e74206d757374206265203e20300000000000000000000000000000600082015250565b6000612ae8601283612372565b9150612af382612ab2565b602082019050919050565b60006020820190508181036000830152612b1781612adb565b9050919050565b7f5472616e73666572206661696c65640000000000000000000000000000000000600082015250565b6000612b54600f83612372565b9150612b5f82612b1e565b602082019050919050565b60006020820190508181036000830152612b8381612b47565b9050919050565b6000604082019050612b9f600083018561217c565b612bac60208301846121a6565b9392505050565b7f4e6f74207265736f6c7665640000000000000000000000000000000000000000600082015250565b6000612be9600c83612372565b9150612bf482612bb3565b602082019050919050565b60006020820190508181036000830152612c1881612bdc565b9050919050565b7f4e487b7100000000000000000000000000000000000000000000000000000000600052601260045260246000fd5b6000612c5982612021565b9150612c6483612021565b925082612c7457612c73612c1f565b5b828204905092915050565b6000612c8a82612021565b9150612c9583612021565b9250828203905081811115612cad57612cac61267b565b5b92915050565b7f4e6f2077696e6e696e6720626574000000000000000000000000000000000000600082015250565b6000612ce9600e83612372565b9150612cf482612cb3565b602082019050919050565b60006020820190508181036000830152612d1881612cdc565b9050919050565b6000612d2a82612021565b9150612d3583612021565b9250828202612d4381612021565b91508282048414831517612d5a57612d5961267b565b5b5092915050565b7f52657665616c207068617365206e6f74206f7665720000000000000000000000600082015250565b6000612d97601583612372565b9150612da282612d61565b602082019050919050565b60006020820190508181036000830152612dc681612d8a565b9050919050565b7f416c7265616479207265736f6c76656400000000000000000000000000000000600082015250565b6000612e03601083612372565b9150612e0e82612dcd565b602082019050919050565b60006020820190508181036000830152612e3281612df6565b9050919050565b6000608082019050612e4e6000830187611eb1565b612e5b6020830186611eb1565b612e6860408301856121a6565b612e7560608301846121a6565b95945050505050565b7f436f6d6d6974207068617365206e6f7420616374697665000000000000000000600082015250565b6000612eb4601783612372565b9150612ebf82612e7e565b602082019050919050565b60006020820190508181036000830152612ee381612ea7565b9050919050565b7f52657665616c207068617365206f766572000000000000000000000000000000600082015250565b6000612f20601183612372565b9150612f2b82612eea565b602082019050919050565b60006020820190508181036000830152612f4f81612f13565b9050919050565b7f4e6f2062657420636f6d6d697474656400000000000000000000000000000000600082015250565b6000612f8c601083612372565b9150612f9782612f56565b602082019050919050565b60006020820190508181036000830152612fbb81612f7f565b9050919050565b60008160f81b9050919050565b6000612fda82612fc2565b9050919050565b612ff2612fed826122db565b612fcf565b82525050565b6000819050919050565b61301361300e82612021565b612ff8565b82525050565b60008160601b9050919050565b600061303182613019565b9050919050565b600061304382613026565b9050919050565b61305b613056826121f0565b613038565b82525050565b600061306d8286612fe1565b60018201915061307d8285613002565b60208201915061308d828461304a565b601482019150819050949350505050565b7f496e76616c696420686173682f72657665616c00000000000000000000000000600082015250565b60006130d4601383612372565b91506130df8261309e565b602082019050919050565b60006020820190508181036000830152613103816130c7565b9050919050565b7f416c72656164792072657665616c6564206f72206e6f20616d6f756e74000000600082015250565b6000613140601d83612372565b915061314b8261310a565b602082019050919050565b6000602082019050818103600083015261316f81613133565b9050919050565b600060408201905061318b6000830185611eb1565b61319860208301846121a6565b9392505050565b60006040820190506131b460008301856123e6565b6131c1602083018461217c565b939250505056fea264697066735822122063978274ca49a28909ba3c3b3b4de97b774973786a80650b68d7bb106ce46b3e64736f6c63430008140033",
  "linkReferences": {},
  "deployedLinkReferences": {}
}