{
  "_format": "hh-sol-artifact-1",
  "contractName": "HelixMarket",
  "sourceName": "contracts/HelixMarket.sol",
  "abi": [
    {
      "inputs": [
        {
          "internalType": "address",
          "name": "_token",
          "type": "address"
        }
      ],
      "stateMutability": "nonpayable",
      "type": "constructor"
    },
    {
      "inputs": [],
      "name": "ReentrancyGuardReentrantCall",
      "type": "error"
    },
    {
      "anonymous": false,
      "inputs": [
        {
          "indexed": true,
          "internalType": "uint256",
          "name": "marketId",
          "type": "uint256"
        },
        {
          "indexed": true,
          "internalType": "address",
          "name": "user",
          "type": "address"
        },
        {
          "indexed": false,
          "internalType": "bytes32",
          "name": "commitHash",
          "type": "bytes32"
        },
        {
          "indexed": false,
          "internalType": "uint256",
          "name": "amount",
          "type": "uint256"
        }
      ],
      "name": "BetCommitted",
      "type": "event"
    },
    {
      "anonymous": false,
      "inputs": [
        {
          "indexed": true,
          "internalType": "uint256",
          "name": "marketId",
          "type": "uint256"
        },
        {
          "indexed": true,
          "internalType": "address",
          "name": "user",
          "type": "address"
        },
        {
          "indexed": false,
          "internalType": "uint8",
          "name": "choice",
          "type": "uint8"
        },
        {
          "indexed": false,
          "internalType": "uint256",
          "name": "amount",
          "type": "uint256"
        }
      ],
      "name": "BetRevealed",
      "type": "event"
    },
    {
      "anonymous": false,
      "inputs": [
        {
          "indexed": true,
          "internalType": "uint256",
          "name": "marketId",
          "type": "uint256"
        },
        {
          "indexed": false,
          "internalType": "bool",
          "name": "outcome",
          "type": "bool"
        },
        {
          "indexed": false,
          "internalType": "bool",
          "name": "tie",
          "type": "bool"
        },
        {
          "indexed": false,
          "internalType": "uint256",
          "name": "totalPool",
          "type": "uint256"
        },
        {
          "indexed": false,
          "internalType": "uint256",
          "name": "originatorFee",
          "type": "uint256"
        }
      ],
      "name": "MarketResolved",
      "type": "event"
    },
    {
      "anonymous": false,
      "inputs": [
        {
          "indexed": true,
          "internalType": "uint256",
          "name": "marketId",
          "type": "uint256"
        },
        {
          "indexed": false,
          "internalType": "string",
          "name": "ipfsCid",
          "type": "string"
        },
        {
          "indexed": false,
          "internalType": "uint256",
          "name": "commitEndTime",
          "type": "uint256"
        },
        {
          "indexed": false,
          "internalType": "uint256",
          "name": "revealEndTime",
          "type": "uint256"
        },
        {
          "indexed": false,
          "internalType": "address",
          "name": "originator",
          "type": "address"
        }
      ],
      "name": "StatementCreated",
      "type": "event"
    },
    {
      "anonymous": false,
      "inputs": [
        {
          "indexed": true,
          "internalType": "uint256",
          "name": "marketId",
          "type": "uint256"
        },
        {
          "indexed": true,
          "internalType": "address",
          "name": "user",
          "type": "address"
        },
        {
          "indexed": false,
          "internalType": "uint256",
          "name": "amountReturned",
          "type": "uint256"
        },
        {
          "indexed": false,
          "internalType": "uint256",
          "name": "penaltyBurned",
          "type": "uint256"
        }
      ],
      "name": "UnrevealedWithdrawn",
      "type": "event"
    },
    {
      "inputs": [],
      "name": "MAX_CID_LENGTH",
      "outputs": [
        {
          "internalType": "uint256",
          "name": "",
          "type": "uint256"
        }
      ],
      "stateMutability": "view",
      "type": "function"
    },
    {
      "inputs": [],
      "name": "MIN_BIDDING_DURATION",
      "outputs": [
        {
          "internalType": "uint256",
          "name": "",
          "type": "uint256"
        }
      ],
      "stateMutability": "view",
      "type": "function"
    },
    {
      "inputs": [],
      "name": "MIN_REVEAL_DURATION",
      "outputs": [
        {
          "internalType": "uint256",
          "name": "",
          "type": "uint256"
        }
      ],
      "stateMutability": "view",
      "type": "function"
    },
    {
      "inputs": [],
      "name": "ORIGINATOR_FEE_BPS",
      "outputs": [
        {
          "internalType": "uint256",
          "name": "",
          "type": "uint256"
        }
      ],
      "stateMutability": "view",
      "type": "function"
    },
    {
      "inputs": [],
      "name": "STATEMENT_FEE",
      "outputs": [
        {
          "internalType": "uint256",
          "name": "",
          "type": "uint256"
        }
      ],
      "stateMutability": "view",
      "type": "function"
    },
    {
      "inputs": [],
      "name": "UNREVEALED_PENALTY_BPS",
      "outputs": [
        {
          "internalType": "uint256",
          "name": "",
          "type": "uint256"
        }
      ],
      "stateMutability": "view",
      "type": "function"
    },
    {
      "inputs": [
        {
          "internalType": "uint256",
          "name": "",
          "type": "uint256"
        },
        {
          "internalType": "address",
          "name": "",
          "type": "address"
        },
        {
          "internalType": "uint8",
          "name": "",
          "type": "uint8"
        }
      ],
      "name": "bets",
      "outputs": [
        {
          "internalType": "uint256",
          "name": "",
          "type": "uint256"
        }
      ],
      "stateMutability": "view",
      "type": "function"
    },
    {
      "inputs": [
        {
          "internalType": "uint256",
          "name": "marketId",
          "type": "uint256"
        }
      ],
      "name": "claim",
      "outputs": [],
      "stateMutability": "nonpayable",
      "type": "function"
    },
    {
      "inputs": [
        {
          "internalType": "uint256",
          "name": "marketId",
          "type": "uint256"
        },
        {
          "internalType": "bytes32",
          "name": "commitHash",
          "type": "bytes32"
        },
        {
          "internalType": "uint256",
          "name": "amount",
          "type": "uint256"
        }
      ],
      "name": "commitBet",
      "outputs": [],
      "stateMutability": "nonpayable",
      "type": "function"
    },
    {
      "inputs": [
        {
          "internalType": "uint256",
          "name": "",
          "type": "uint256"
        },
        {
          "internalType": "address",
          "name": "",
          "type": "address"
        }
      ],
      "name": "commits",
      "outputs": [
        {
          "internalType": "bytes32",
          "name": "",
          "type": "bytes32"
        }
      ],
      "stateMutability": "view",
      "type": "function"
    },
    {
      "inputs": [
        {
          "internalType": "uint256",
          "name": "",
          "type": "uint256"
        },
        {
          "internalType": "address",
          "name": "",
          "type": "address"
        }
      ],
      "name": "committedAmount",
      "outputs": [
        {
          "internalType": "uint256",
          "name": "",
          "type": "uint256"
        }
      ],
      "stateMutability": "view",
      "type": "function"
    },
    {
      "inputs": [
        {
          "internalType": "uint256",
          "name": "",
          "type": "uint256"
        },
        {
          "internalType": "address",
          "name": "",
          "type": "address"
        }
      ],
      "name": "hasCommitted",
      "outputs": [
        {
          "internalType": "bool",
          "name": "",
          "type": "bool"
        }
      ],
      "stateMutability": "view",
      "type": "function"
    },
    {
      "inputs": [],
      "name": "marketCount",
      "outputs": [
        {
          "internalType": "uint256",
          "name": "",
          "type": "uint256"
        }
      ],
      "stateMutability": "view",
      "type": "function"
    },
    {
      "inputs": [
        {
          "internalType": "uint256",
          "name": "",
          "type": "uint256"
        }
      ],
      "name": "markets",
      "outputs": [
        {
          "internalType": "string",
          "name": "ipfsCid",
          "type": "string"
        },
        {
          "internalType": "uint256",
          "name": "commitEndTime",
          "type": "uint256"
        },
        {
          "internalType": "uint256",
          "name": "revealEndTime",
          "type": "uint256"
        },
        {
          "internalType": "uint256",
          "name": "yesPool",
          "type": "uint256"
        },
        {
          "internalType": "uint256",
          "name": "noPool",
          "type": "uint256"
        },
        {
          "internalType": "uint256",
          "name": "unalignedPool",
          "type": "uint256"
        },
        {
          "internalType": "bool",
          "name": "resolved",
          "type": "bool"
        },
        {
          "internalType": "bool",
          "name": "outcome",
          "type": "bool"
        },
        {
          "internalType": "bool",
          "name": "tie",
          "type": "bool"
        },
        {
          "internalType": "address",
          "name": "originator",
          "type": "address"
        }
      ],
      "stateMutability": "view",
      "type": "function"
    },
    {
      "inputs": [
        {
          "internalType": "uint256",
          "name": "marketId",
          "type": "uint256"
        }
      ],
      "name": "resolve",
      "outputs": [],
      "stateMutability": "nonpayable",
      "type": "function"
    },
    {
      "inputs": [
        {
          "internalType": "uint256",
          "name": "marketId",
          "type": "uint256"
        },
        {
          "internalType": "uint8",
          "name": "choice",
          "type": "uint8"
        },
        {
          "internalType": "uint256",
          "name": "salt",
          "type": "uint256"
        }
      ],
      "name": "revealBet",
      "outputs": [],
      "stateMutability": "nonpayable",
      "type": "function"
    },
    {
      "inputs": [
        {
          "internalType": "string",
          "name": "ipfsCid",
          "type": "string"
        },
        {
          "internalType": "uint256",
          "name": "biddingDuration",
          "type": "uint256"
        },
        {
          "internalType": "uint256",
          "name": "revealDuration",
          "type": "uint256"
        }
      ],
      "name": "submitStatement",
      "outputs": [],
      "stateMutability": "nonpayable",
      "type": "function"
    },
    {
      "inputs": [],
      "name": "token",
      "outputs": [
        {
          "internalType": "contract AlphaHelixToken",
          "name": "",
          "type": "address"
        }
      ],
      "stateMutability": "view",
      "type": "function"
    },
    {
      "inputs": [
        {
          "internalType": "uint256",
          "name": "marketId",
          "type": "uint256"
        }
      ],
      "name": "withdrawUnrevealed",
      "outputs": [],
      "stateMutability": "nonpayable",
      "type": "function"
    }
  ],
  "bytecode": "0x60a060405234801561001057600080fd5b50604051611d10380380611d1083398101604081905261002f91610045565b60016000556001600160a01b0316608052610075565b60006020828403121561005757600080fd5b81516001600160a01b038116811461006e57600080fd5b9392505050565b608051611c4f6100c1600039600081816102b401528181610408015281816104e50152818161078a01528181610a0701528181610c510152818161131201526113ef0152611c4f6000f3fe608060405234801561001057600080fd5b50600436106101165760003560e01c8063a82da60d116100a2578063cdbf958211610071578063cdbf95821461028a578063d329db8f1461029d578063ec979082146102a6578063fc0c546a146102af578063fe838b02146102ee57600080fd5b8063a82da60d1461021b578063a99ef9f514610223578063b1283e7714610261578063b9e42385146101b757600080fd5b80634f896d4f116100e95780634f896d4f1461017957806357cb0c111461018c5780635acd45be146101b7578063885d68a8146101bf5780638f99230e146101ea57600080fd5b80631204078d1461011b5780631b88272a146101305780632e8f036a14610143578063379607f514610166575b600080fd5b61012e610129366004611760565b610301565b005b61012e61013e366004611824565b610668565b61015368056bc75e2d6310000081565b6040519081526020015b60405180910390f35b61012e610174366004611850565b6108e7565b61012e610187366004611850565b610acc565b61015361019a366004611885565b600660209081526000928352604080842090915290825290205481565b610153606481565b6101536101cd366004611885565b600360209081526000928352604080842090915290825290205481565b6101536101f83660046118c2565b600560209081526000938452604080852082529284528284209052825290205481565b610153608081565b610251610231366004611885565b600460209081526000928352604080842090915290825290205460ff1681565b604051901515815260200161015d565b61027461026f366004611850565b610d2f565b60405161015d9a99989796959493929190611944565b61012e6102983660046119ad565b610e1a565b610153610e1081565b61015360015481565b6102d67f000000000000000000000000000000000000000000000000000000000000000081565b6040516001600160a01b03909116815260200161015d565b61012e6102fc366004611850565b6111d3565b6103096114f4565b600083511161034b5760405162461bcd60e51b815260206004820152600960248201526843494420656d70747960b81b60448201526064015b60405180910390fd5b60808351111561038c5760405162461bcd60e51b815260206004820152600c60248201526b43494420746f6f206c6f6e6760a01b6044820152606401610342565b610e108110156103de5760405162461bcd60e51b815260206004820152601960248201527f52657665616c206475726174696f6e20746f6f2073686f7274000000000000006044820152606401610342565b6040516323b872dd60e01b815233600482015230602482015268056bc75e2d6310000060448201527f00000000000000000000000000000000000000000000000000000000000000006001600160a01b0316906323b872dd906064016020604051808303816000875af1158015610459573d6000803e3d6000fd5b505050506040513d601f19601f8201168201806040525081019061047d91906119e2565b6104bf5760405162461bcd60e51b8152602060048201526013602482015272119959481d1c985b9cd9995c8819985a5b1959606a1b6044820152606401610342565b60405163a9059cbb60e01b815261dead600482015268056bc75e2d6310000060248201527f00000000000000000000000000000000000000000000000000000000000000006001600160a01b03169063a9059cbb906044016020604051808303816000875af1158015610536573d6000803e3d6000fd5b505050506040513d601f19601f8201168201806040525081019061055a91906119e2565b61059d5760405162461bcd60e51b8152602060048201526014602482015273109d5c9b881d1c985b9cd9995c8819985a5b195960621b6044820152606401610342565b60018054600091826105ae83611a21565b909155506000818152600260205260409020909150806105ce8682611ac2565b506105d98442611b82565b600182018190556105eb908490611b82565b600282018190556006820180546301000000600160b81b031916336301000000810291909117909155600183015460405185937fb0f44ab77840631afd2f642daa49e5d268bce7babf6c72558f47c5d027413b989361064f938b9390929190611b95565b60405180910390a250506106636001600055565b505050565b6106706114f4565b6000838152600260205260409020600181015442106106c55760405162461bcd60e51b815260206004820152601160248201527021b7b6b6b4ba10383430b9b29037bb32b960791b6044820152606401610342565b6000821161070a5760405162461bcd60e51b81526020600482015260126024820152710416d6f756e74206d757374206265203e20360741b6044820152606401610342565b600084815260046020908152604080832033845290915290205460ff16156107685760405162461bcd60e51b8152602060048201526011602482015270105b1c9958591e4818dbdb5b5a5d1d1959607a1b6044820152606401610342565b6040516323b872dd60e01b8152336004820152306024820152604481018390527f00000000000000000000000000000000000000000000000000000000000000006001600160a01b0316906323b872dd906064016020604051808303816000875af11580156107db573d6000803e3d6000fd5b505050506040513d601f19601f820116820180604052508101906107ff91906119e2565b61083d5760405162461bcd60e51b815260206004820152600f60248201526e151c985b9cd9995c8819985a5b1959608a1b6044820152606401610342565b600084815260036020908152604080832033808552908352818420879055878452600483528184208185528352818420805460ff19166001179055878452600683528184209084529091528120805484929061089a908490611b82565b90915550506040805184815260208101849052339186917fc02f2358fe181cc846163d0ca2cd612408cef67a7acdbb92cd09045df0e2fd9a910160405180910390a3506106636001600055565b6108ef6114f4565b6000818152600260205260409020600681015460ff166109405760405162461bcd60e51b815260206004820152600c60248201526b139bdd081c995cdbdb1d995960a21b6044820152606401610342565b600080600061094f848661151e565b925092509250600083116109965760405162461bcd60e51b815260206004820152600e60248201526d139bc81dda5b9b9a5b99c818995d60921b6044820152606401610342565b60068401546109b790869060ff62010000820481169161010090041661165e565b600684015460009062010000900460ff166109e657826109d78386611bcd565b6109e19190611be4565b6109e8565b835b60405163a9059cbb60e01b8152336004820152602481018290529091507f00000000000000000000000000000000000000000000000000000000000000006001600160a01b03169063a9059cbb906044016020604051808303816000875af1158015610a58573d6000803e3d6000fd5b505050506040513d601f19601f82011682018060405250810190610a7c91906119e2565b610aba5760405162461bcd60e51b815260206004820152600f60248201526e151c985b9cd9995c8819985a5b1959608a1b6044820152606401610342565b5050505050610ac96001600055565b50565b610ad46114f4565b6000818152600260208190526040909120908101544211610b2f5760405162461bcd60e51b81526020600482015260156024820152742932bb32b0b610383430b9b2903737ba1037bb32b960591b6044820152606401610342565b600681015460ff1615610b775760405162461bcd60e51b815260206004820152601060248201526f105b1c9958591e481c995cdbdb1d995960821b6044820152606401610342565b60068101805460ff1916600117905560038101546004820154610b9a91906116f1565b600683018054921515620100000262ff000019921515610100029290921662ffff00199093169290921717905560058101546004820154600383015460009291610be391611b82565b610bed9190611b82565b600683015490915060009062010000900460ff16610c1357610c0e8261172a565b610c16565b60005b90508015610cc057600683015460405163a9059cbb60e01b815263010000009091046001600160a01b039081166004830152602482018390527f0000000000000000000000000000000000000000000000000000000000000000169063a9059cbb906044016020604051808303816000875af1158015610c9a573d6000803e3d6000fd5b505050506040513d601f19601f82011682018060405250810190610cbe91906119e2565b505b60068301546040805160ff6101008404811615158252620100009093049092161515602083015281018390526060810182905284907fcf0a48d2ad3f7480002e60b1eda352f90145d89af44eb49e792dad0233f533b19060800160405180910390a2505050610ac96001600055565b600260205260009081526040902080548190610d4a90611a3a565b80601f0160208091040260200160405190810160405280929190818152602001828054610d7690611a3a565b8015610dc35780601f10610d9857610100808354040283529160200191610dc3565b820191906000526020600020905b815481529060010190602001808311610da657829003601f168201915b5050505060018301546002840154600385015460048601546005870154600690970154959693959294509092909160ff8082169161010081048216916201000082041690630100000090046001600160a01b03168a565b610e226114f4565b60008381526002602052604090206001810154421015610e845760405162461bcd60e51b815260206004820152601760248201527f436f6d6d6974207068617365206e6f74206163746976650000000000000000006044820152606401610342565b80600201544210610ecb5760405162461bcd60e51b81526020600482015260116024820152702932bb32b0b610383430b9b29037bb32b960791b6044820152606401610342565b600084815260036020908152604080832033845290915290205480610f255760405162461bcd60e51b815260206004820152601060248201526f139bc818995d0818dbdb5b5a5d1d195960821b6044820152606401610342565b6040516001600160f81b031960f886901b166020820152602181018490526bffffffffffffffffffffffff193360601b16604182015281906055016040516020818303038152906040528051906020012014610fb95760405162461bcd60e51b8152602060048201526013602482015272125b9d985b1a59081a185cda0bdc995d99585b606a1b6044820152606401610342565b6000858152600660209081526040808320338452909152902054806110205760405162461bcd60e51b815260206004820152601d60248201527f416c72656164792072657665616c6564206f72206e6f20616d6f756e740000006044820152606401610342565b6000868152600660209081526040808320338452909152812055600260ff8616111561107f5760405162461bcd60e51b815260206004820152600e60248201526d496e76616c69642063686f69636560901b6044820152606401610342565b8460ff166001036110e0578083600301600082825461109e9190611b82565b90915550506000868152600560209081526040808320338452825280832060018452909152812080548392906110d5908490611b82565b909155506111869050565b8460ff1660000361113557808360040160008282546110ff9190611b82565b909155505060008681526005602090815260408083203384528252808320838052909152812080548392906110d5908490611b82565b808360050160008282546111499190611b82565b9091555050600086815260056020908152604080832033845282528083206002845290915281208054839290611180908490611b82565b90915550505b6040805160ff8716815260208101839052339188917f69cbe73b5f08f9347a0159dd589b5e7ea7f54d8b523f6bbe183c1a7c13b6dba7910160405180910390a35050506106636001600055565b6111db6114f4565b60008181526002602081905260409091209081015442116112365760405162461bcd60e51b81526020600482015260156024820152742932bb32b0b610383430b9b2903737ba1037bb32b960591b6044820152606401610342565b6000828152600660209081526040808320338452909152902054806112935760405162461bcd60e51b81526020600482015260136024820152724e6f20756e72657665616c6564207374616b6560681b6044820152606401610342565b6000838152600660209081526040808320338085529083528184208490558684526003835281842090845290915281208190556127106112d4606484611bcd565b6112de9190611be4565b905060006112ec8284611c06565b905081156113d35760405163a9059cbb60e01b815261dead6004820152602481018390527f00000000000000000000000000000000000000000000000000000000000000006001600160a01b03169063a9059cbb906044016020604051808303816000875af1158015611363573d6000803e3d6000fd5b505050506040513d601f19601f8201168201806040525081019061138791906119e2565b6113d35760405162461bcd60e51b815260206004820152601760248201527f50656e616c7479207472616e73666572206661696c65640000000000000000006044820152606401610342565b60405163a9059cbb60e01b8152336004820152602481018290527f00000000000000000000000000000000000000000000000000000000000000006001600160a01b03169063a9059cbb906044016020604051808303816000875af1158015611440573d6000803e3d6000fd5b505050506040513d601f19601f8201168201806040525081019061146491906119e2565b6114a95760405162461bcd60e51b81526020600482015260166024820152751499599d5b99081d1c985b9cd9995c8819985a5b195960521b6044820152606401610342565b6040805182815260208101849052339187917f8bb26e72aaf6e900094ea180bfbe84450e669b3c57d843fa18e33e40a46616f5910160405180910390a350505050610ac96001600055565b60026000540361151757604051633ee5aeb560e01b815260040160405180910390fd5b6002600055565b60008060008085600501548660040154876003015461153d9190611b82565b6115479190611b82565b600687015490915060009062010000900460ff1661156d576115688261172a565b611570565b60005b905061157c8183611c06565b600688015490935062010000900460ff16156115e457600086815260056020908152604080832033845282528083206002845290915280822054600183528183205483805291909220546115d09190611b82565b6115da9190611b82565b9450819350611655565b6006870154610100900460ff161561162857600086815260056020908152604080832033845282528083206001845290915290205460038801549095509350611655565b60008681526005602090815260408083203384528252808320838052909152902054600488015490955093505b50509250925092565b811561169e575050600090815260056020908152604080832033845282528083208380529091528082208290556001825280822082905560028252812055565b80156116cb5750506000908152600560209081526040808320338452825280832060018452909152812055565b505060009081526005602090815260408083203384528252808320838052909152812055565b600080828411156117085750600090506001611723565b8383111561171b57506000905080611723565b506001905060005b9250929050565b600061271061173a606484611bcd565b6117449190611be4565b92915050565b634e487b7160e01b600052604160045260246000fd5b60008060006060848603121561177557600080fd5b833567ffffffffffffffff8082111561178d57600080fd5b818601915086601f8301126117a157600080fd5b8135818111156117b3576117b361174a565b604051601f8201601f19908116603f011681019083821181831017156117db576117db61174a565b816040528281528960208487010111156117f457600080fd5b82602086016020830137600060208483010152809750505050505060208401359150604084013590509250925092565b60008060006060848603121561183957600080fd5b505081359360208301359350604090920135919050565b60006020828403121561186257600080fd5b5035919050565b80356001600160a01b038116811461188057600080fd5b919050565b6000806040838503121561189857600080fd5b823591506118a860208401611869565b90509250929050565b803560ff8116811461188057600080fd5b6000806000606084860312156118d757600080fd5b833592506118e760208501611869565b91506118f5604085016118b1565b90509250925092565b6000815180845260005b8181101561192457602081850181015186830182015201611908565b506000602082860101526020601f19601f83011685010191505092915050565b60006101408083526119588184018e6118fe565b602084019c909c52505060408101989098526060880196909652608087019490945260a0860192909252151560c0850152151560e084015215156101008301526001600160a01b031661012090910152919050565b6000806000606084860312156119c257600080fd5b833592506119d2602085016118b1565b9150604084013590509250925092565b6000602082840312156119f457600080fd5b81518015158114611a0457600080fd5b9392505050565b634e487b7160e01b600052601160045260246000fd5b600060018201611a3357611a33611a0b565b5060010190565b600181811c90821680611a4e57607f821691505b602082108103611a6e57634e487b7160e01b600052602260045260246000fd5b50919050565b601f82111561066357600081815260208120601f850160051c81016020861015611a9b5750805b601f850160051c820191505b81811015611aba57828155600101611aa7565b505050505050565b815167ffffffffffffffff811115611adc57611adc61174a565b611af081611aea8454611a3a565b84611a74565b602080601f831160018114611b255760008415611b0d5750858301515b600019600386901b1c1916600185901b178555611aba565b600085815260208120601f198616915b82811015611b5457888601518255948401946001909101908401611b35565b5085821015611b725787850151600019600388901b60f8161c191681555b5050505050600190811b01905550565b8082018082111561174457611744611a0b565b608081526000611ba860808301876118fe565b60208301959095525060408101929092526001600160a01b0316606090910152919050565b808202811582820484141761174457611744611a0b565b600082611c0157634e487b7160e01b600052601260045260246000fd5b500490565b8181038181111561174457611744611a0b56fea2646970667358221220a1c8223be32bf41a2f235e74ce79f3891df361052b42318e4a840323682190fa64736f6c63430008140033",
  "linkReferences": {},
  "deployedLinkReferences": {}
}