{
  "_format": "hh-sol-artifact-1",
  "contractName": "HelixMarket",
  "sourceName": "contracts/HelixMarket.sol",
  "abi": [
    {
      "inputs": [
        {
          "internalType": "address",
          "name": "_token",
          "type": "address"
        }
      ],
      "stateMutability": "nonpayable",
      "type": "constructor"
    },
    {
      "inputs": [],
      "name": "ReentrancyGuardReentrantCall",
      "type": "error"
    },
    {
      "anonymous": false,
      "inputs": [
        {
          "indexed": true,
          "internalType": "uint256",
          "name": "marketId",
          "type": "uint256"
        },
        {
          "indexed": true,
          "internalType": "address",
          "name": "user",
          "type": "address"
        },
        {
          "indexed": false,
          "internalType": "bytes32",
          "name": "commitHash",
          "type": "bytes32"
        },
        {
          "indexed": false,
          "internalType": "uint256",
          "name": "amount",
          "type": "uint256"
        }
      ],
      "name": "BetCommitted",
      "type": "event"
    },
    {
      "anonymous": false,
      "inputs": [
        {
          "indexed": true,
          "internalType": "uint256",
          "name": "marketId",
          "type": "uint256"
        },
        {
          "indexed": true,
          "internalType": "address",
          "name": "user",
          "type": "address"
        },
        {
          "indexed": false,
          "internalType": "uint8",
          "name": "choice",
          "type": "uint8"
        },
        {
          "indexed": false,
          "internalType": "uint256",
          "name": "amount",
          "type": "uint256"
        }
      ],
      "name": "BetRevealed",
      "type": "event"
    },
    {
      "anonymous": false,
      "inputs": [
        {
          "indexed": true,
          "internalType": "uint256",
          "name": "marketId",
          "type": "uint256"
        },
        {
          "indexed": false,
          "internalType": "bool",
          "name": "outcome",
          "type": "bool"
        },
        {
          "indexed": false,
          "internalType": "bool",
          "name": "tie",
          "type": "bool"
        },
        {
          "indexed": false,
          "internalType": "uint256",
          "name": "totalPool",
          "type": "uint256"
        },
        {
          "indexed": false,
          "internalType": "uint256",
          "name": "originatorFee",
          "type": "uint256"
        }
      ],
      "name": "MarketResolved",
      "type": "event"
    },
    {
      "anonymous": false,
      "inputs": [
        {
          "indexed": true,
          "internalType": "uint256",
          "name": "marketId",
          "type": "uint256"
        },
        {
          "indexed": false,
          "internalType": "string",
          "name": "ipfsCid",
          "type": "string"
        },
        {
          "indexed": false,
          "internalType": "uint256",
          "name": "commitEndTime",
          "type": "uint256"
        },
        {
          "indexed": false,
          "internalType": "uint256",
          "name": "revealEndTime",
          "type": "uint256"
        },
        {
          "indexed": false,
          "internalType": "address",
          "name": "originator",
          "type": "address"
        }
      ],
      "name": "StatementCreated",
      "type": "event"
    },
    {
      "anonymous": false,
      "inputs": [
        {
          "indexed": true,
          "internalType": "uint256",
          "name": "marketId",
          "type": "uint256"
        },
        {
          "indexed": true,
          "internalType": "address",
          "name": "user",
          "type": "address"
        },
        {
          "indexed": false,
          "internalType": "uint256",
          "name": "amountReturned",
          "type": "uint256"
        },
        {
          "indexed": false,
          "internalType": "uint256",
          "name": "penaltyBurned",
          "type": "uint256"
        }
      ],
      "name": "UnrevealedWithdrawn",
      "type": "event"
    },
    {
      "inputs": [],
      "name": "MAX_CID_LENGTH",
      "outputs": [
        {
          "internalType": "uint256",
          "name": "",
          "type": "uint256"
        }
      ],
      "stateMutability": "view",
      "type": "function"
    },
    {
      "inputs": [],
      "name": "MAX_DURATION",
      "outputs": [
        {
          "internalType": "uint256",
          "name": "",
          "type": "uint256"
        }
      ],
      "stateMutability": "view",
      "type": "function"
    },
    {
      "inputs": [],
      "name": "MIN_BIDDING_DURATION",
      "outputs": [
        {
          "internalType": "uint256",
          "name": "",
          "type": "uint256"
        }
      ],
      "stateMutability": "view",
      "type": "function"
    },
    {
      "inputs": [],
      "name": "MIN_REVEAL_DURATION",
      "outputs": [
        {
          "internalType": "uint256",
          "name": "",
          "type": "uint256"
        }
      ],
      "stateMutability": "view",
      "type": "function"
    },
    {
      "inputs": [],
      "name": "ORIGINATOR_FEE_BPS",
      "outputs": [
        {
          "internalType": "uint256",
          "name": "",
          "type": "uint256"
        }
      ],
      "stateMutability": "view",
      "type": "function"
    },
    {
      "inputs": [],
      "name": "STATEMENT_FEE",
      "outputs": [
        {
          "internalType": "uint256",
          "name": "",
          "type": "uint256"
        }
      ],
      "stateMutability": "view",
      "type": "function"
    },
    {
      "inputs": [],
      "name": "UNREVEALED_PENALTY_BPS",
      "outputs": [
        {
          "internalType": "uint256",
          "name": "",
          "type": "uint256"
        }
      ],
      "stateMutability": "view",
      "type": "function"
    },
    {
      "inputs": [
        {
          "internalType": "uint256",
          "name": "",
          "type": "uint256"
        },
        {
          "internalType": "address",
          "name": "",
          "type": "address"
        },
        {
          "internalType": "uint8",
          "name": "",
          "type": "uint8"
        }
      ],
      "name": "bets",
      "outputs": [
        {
          "internalType": "uint256",
          "name": "",
          "type": "uint256"
        }
      ],
      "stateMutability": "view",
      "type": "function"
    },
    {
      "inputs": [
        {
          "internalType": "uint256",
          "name": "marketId",
          "type": "uint256"
        }
      ],
      "name": "claim",
      "outputs": [],
      "stateMutability": "nonpayable",
      "type": "function"
    },
    {
      "inputs": [
        {
          "internalType": "uint256",
          "name": "marketId",
          "type": "uint256"
        },
        {
          "internalType": "bytes32",
          "name": "commitHash",
          "type": "bytes32"
        },
        {
          "internalType": "uint256",
          "name": "amount",
          "type": "uint256"
        }
      ],
      "name": "commitBet",
      "outputs": [],
      "stateMutability": "nonpayable",
      "type": "function"
    },
    {
      "inputs": [
        {
          "internalType": "uint256",
          "name": "",
          "type": "uint256"
        },
        {
          "internalType": "address",
          "name": "",
          "type": "address"
        }
      ],
      "name": "commits",
      "outputs": [
        {
          "internalType": "bytes32",
          "name": "",
          "type": "bytes32"
        }
      ],
      "stateMutability": "view",
      "type": "function"
    },
    {
      "inputs": [
        {
          "internalType": "uint256",
          "name": "",
          "type": "uint256"
        },
        {
          "internalType": "address",
          "name": "",
          "type": "address"
        }
      ],
      "name": "committedAmount",
      "outputs": [
        {
          "internalType": "uint256",
          "name": "",
          "type": "uint256"
        }
      ],
      "stateMutability": "view",
      "type": "function"
    },
    {
      "inputs": [
        {
          "internalType": "uint256",
          "name": "",
          "type": "uint256"
        },
        {
          "internalType": "address",
          "name": "",
          "type": "address"
        }
      ],
      "name": "hasCommitted",
      "outputs": [
        {
          "internalType": "bool",
          "name": "",
          "type": "bool"
        }
      ],
      "stateMutability": "view",
      "type": "function"
    },
    {
      "inputs": [],
      "name": "marketCount",
      "outputs": [
        {
          "internalType": "uint256",
          "name": "",
          "type": "uint256"
        }
      ],
      "stateMutability": "view",
      "type": "function"
    },
    {
      "inputs": [
        {
          "internalType": "uint256",
          "name": "",
          "type": "uint256"
        }
      ],
      "name": "markets",
      "outputs": [
        {
          "internalType": "string",
          "name": "ipfsCid",
          "type": "string"
        },
        {
          "internalType": "uint256",
          "name": "commitEndTime",
          "type": "uint256"
        },
        {
          "internalType": "uint256",
          "name": "revealEndTime",
          "type": "uint256"
        },
        {
          "internalType": "uint256",
          "name": "yesPool",
          "type": "uint256"
        },
        {
          "internalType": "uint256",
          "name": "noPool",
          "type": "uint256"
        },
        {
          "internalType": "uint256",
          "name": "unalignedPool",
          "type": "uint256"
        },
        {
          "internalType": "bool",
          "name": "resolved",
          "type": "bool"
        },
        {
          "internalType": "bool",
          "name": "outcome",
          "type": "bool"
        },
        {
          "internalType": "bool",
          "name": "tie",
          "type": "bool"
        },
        {
          "internalType": "address",
          "name": "originator",
          "type": "address"
        }
      ],
      "stateMutability": "view",
      "type": "function"
    },
    {
      "inputs": [
        {
          "internalType": "uint256",
          "name": "marketId",
          "type": "uint256"
        }
      ],
      "name": "resolve",
      "outputs": [],
      "stateMutability": "nonpayable",
      "type": "function"
    },
    {
      "inputs": [
        {
          "internalType": "uint256",
          "name": "marketId",
          "type": "uint256"
        },
        {
          "internalType": "uint8",
          "name": "choice",
          "type": "uint8"
        },
        {
          "internalType": "uint256",
          "name": "salt",
          "type": "uint256"
        }
      ],
      "name": "revealBet",
      "outputs": [],
      "stateMutability": "nonpayable",
      "type": "function"
    },
    {
      "inputs": [
        {
          "internalType": "string",
          "name": "ipfsCid",
          "type": "string"
        },
        {
          "internalType": "uint256",
          "name": "biddingDuration",
          "type": "uint256"
        },
        {
          "internalType": "uint256",
          "name": "revealDuration",
          "type": "uint256"
        }
      ],
      "name": "submitStatement",
      "outputs": [],
      "stateMutability": "nonpayable",
      "type": "function"
    },
    {
      "inputs": [],
      "name": "token",
      "outputs": [
        {
          "internalType": "contract AlphaHelixToken",
          "name": "",
          "type": "address"
        }
      ],
      "stateMutability": "view",
      "type": "function"
    },
    {
      "inputs": [
        {
          "internalType": "uint256",
          "name": "marketId",
          "type": "uint256"
        }
      ],
      "name": "withdrawUnrevealed",
      "outputs": [],
      "stateMutability": "nonpayable",
      "type": "function"
    }
  ],
  "bytecode": "0x60a060405234801561001057600080fd5b50604051611e2b380380611e2b83398101604081905261002f91610045565b60016000556001600160a01b0316608052610075565b60006020828403121561005757600080fd5b81516001600160a01b038116811461006e57600080fd5b9392505050565b608051611d6a6100c1600039600081816102d50152818161052301528181610600015281816108a501528181610b2201528181610d6c0152818161142d015261150a0152611d6a6000f3fe608060405234801561001057600080fd5b506004361061012c5760003560e01c8063a82da60d116100ad578063cdbf958211610071578063cdbf9582146102b4578063d329db8f146101d5578063ec979082146102c7578063fc0c546a146102d0578063fe838b021461030f57600080fd5b8063a82da60d1461023a578063a99ef9f514610242578063b1283e7714610280578063b1724b46146102a9578063b9e42385146101cd57600080fd5b806357cb0c11116100f457806357cb0c11146101a25780635acd45be146101cd578063875aff8a146101d5578063885d68a8146101de5780638f99230e1461020957600080fd5b80631204078d146101315780631b88272a146101465780632e8f036a14610159578063379607f51461017c5780634f896d4f1461018f575b600080fd5b61014461013f36600461187b565b610322565b005b61014461015436600461193f565b610783565b61016968056bc75e2d6310000081565b6040519081526020015b60405180910390f35b61014461018a36600461196b565b610a02565b61014461019d36600461196b565b610be7565b6101696101b03660046119a0565b600660209081526000928352604080842090915290825290205481565b610169606481565b610169610e1081565b6101696101ec3660046119a0565b600360209081526000928352604080842090915290825290205481565b6101696102173660046119dd565b600560209081526000938452604080852082529284528284209052825290205481565b610169608081565b6102706102503660046119a0565b600460209081526000928352604080842090915290825290205460ff1681565b6040519015158152602001610173565b61029361028e36600461196b565b610e4a565b6040516101739a99989796959493929190611a5f565b6101696301dfe20081565b6101446102c2366004611ac8565b610f35565b61016960015481565b6102f77f000000000000000000000000000000000000000000000000000000000000000081565b6040516001600160a01b039091168152602001610173565b61014461031d36600461196b565b6112ee565b61032a61160f565b600083511161036c5760405162461bcd60e51b815260206004820152600960248201526843494420656d70747960b81b60448201526064015b60405180910390fd5b6080835111156103ad5760405162461bcd60e51b815260206004820152600c60248201526b43494420746f6f206c6f6e6760a01b6044820152606401610363565b610e108210156103ff5760405162461bcd60e51b815260206004820152601a60248201527f42696464696e67206475726174696f6e20746f6f2073686f72740000000000006044820152606401610363565b6301dfe2008211156104535760405162461bcd60e51b815260206004820152601960248201527f42696464696e67206475726174696f6e20746f6f206c6f6e67000000000000006044820152606401610363565b610e108110156104a55760405162461bcd60e51b815260206004820152601960248201527f52657665616c206475726174696f6e20746f6f2073686f7274000000000000006044820152606401610363565b6301dfe2008111156104f95760405162461bcd60e51b815260206004820152601860248201527f52657665616c206475726174696f6e20746f6f206c6f6e6700000000000000006044820152606401610363565b6040516323b872dd60e01b815233600482015230602482015268056bc75e2d6310000060448201527f00000000000000000000000000000000000000000000000000000000000000006001600160a01b0316906323b872dd906064016020604051808303816000875af1158015610574573d6000803e3d6000fd5b505050506040513d601f19601f820116820180604052508101906105989190611afd565b6105da5760405162461bcd60e51b8152602060048201526013602482015272119959481d1c985b9cd9995c8819985a5b1959606a1b6044820152606401610363565b60405163a9059cbb60e01b815261dead600482015268056bc75e2d6310000060248201527f00000000000000000000000000000000000000000000000000000000000000006001600160a01b03169063a9059cbb906044016020604051808303816000875af1158015610651573d6000803e3d6000fd5b505050506040513d601f19601f820116820180604052508101906106759190611afd565b6106b85760405162461bcd60e51b8152602060048201526014602482015273109d5c9b881d1c985b9cd9995c8819985a5b195960621b6044820152606401610363565b60018054600091826106c983611b3c565b909155506000818152600260205260409020909150806106e98682611bdd565b506106f48442611c9d565b60018201819055610706908490611c9d565b600282018190556006820180546301000000600160b81b031916336301000000810291909117909155600183015460405185937fb0f44ab77840631afd2f642daa49e5d268bce7babf6c72558f47c5d027413b989361076a938b9390929190611cb0565b60405180910390a2505061077e6001600055565b505050565b61078b61160f565b6000838152600260205260409020600181015442106107e05760405162461bcd60e51b815260206004820152601160248201527021b7b6b6b4ba10383430b9b29037bb32b960791b6044820152606401610363565b600082116108255760405162461bcd60e51b81526020600482015260126024820152710416d6f756e74206d757374206265203e20360741b6044820152606401610363565b600084815260046020908152604080832033845290915290205460ff16156108835760405162461bcd60e51b8152602060048201526011602482015270105b1c9958591e4818dbdb5b5a5d1d1959607a1b6044820152606401610363565b6040516323b872dd60e01b8152336004820152306024820152604481018390527f00000000000000000000000000000000000000000000000000000000000000006001600160a01b0316906323b872dd906064016020604051808303816000875af11580156108f6573d6000803e3d6000fd5b505050506040513d601f19601f8201168201806040525081019061091a9190611afd565b6109585760405162461bcd60e51b815260206004820152600f60248201526e151c985b9cd9995c8819985a5b1959608a1b6044820152606401610363565b600084815260036020908152604080832033808552908352818420879055878452600483528184208185528352818420805460ff1916600117905587845260068352818420908452909152812080548492906109b5908490611c9d565b90915550506040805184815260208101849052339186917fc02f2358fe181cc846163d0ca2cd612408cef67a7acdbb92cd09045df0e2fd9a910160405180910390a35061077e6001600055565b610a0a61160f565b6000818152600260205260409020600681015460ff16610a5b5760405162461bcd60e51b815260206004820152600c60248201526b139bdd081c995cdbdb1d995960a21b6044820152606401610363565b6000806000610a6a8486611639565b92509250925060008311610ab15760405162461bcd60e51b815260206004820152600e60248201526d139bc81dda5b9b9a5b99c818995d60921b6044820152606401610363565b6006840154610ad290869060ff620100008204811691610100900416611779565b600684015460009062010000900460ff16610b015782610af28386611ce8565b610afc9190611cff565b610b03565b835b60405163a9059cbb60e01b8152336004820152602481018290529091507f00000000000000000000000000000000000000000000000000000000000000006001600160a01b03169063a9059cbb906044016020604051808303816000875af1158015610b73573d6000803e3d6000fd5b505050506040513d601f19601f82011682018060405250810190610b979190611afd565b610bd55760405162461bcd60e51b815260206004820152600f60248201526e151c985b9cd9995c8819985a5b1959608a1b6044820152606401610363565b5050505050610be46001600055565b50565b610bef61160f565b6000818152600260208190526040909120908101544211610c4a5760405162461bcd60e51b81526020600482015260156024820152742932bb32b0b610383430b9b2903737ba1037bb32b960591b6044820152606401610363565b600681015460ff1615610c925760405162461bcd60e51b815260206004820152601060248201526f105b1c9958591e481c995cdbdb1d995960821b6044820152606401610363565b60068101805460ff1916600117905560038101546004820154610cb5919061180c565b600683018054921515620100000262ff000019921515610100029290921662ffff00199093169290921717905560058101546004820154600383015460009291610cfe91611c9d565b610d089190611c9d565b600683015490915060009062010000900460ff16610d2e57610d2982611845565b610d31565b60005b90508015610ddb57600683015460405163a9059cbb60e01b815263010000009091046001600160a01b039081166004830152602482018390527f0000000000000000000000000000000000000000000000000000000000000000169063a9059cbb906044016020604051808303816000875af1158015610db5573d6000803e3d6000fd5b505050506040513d601f19601f82011682018060405250810190610dd99190611afd565b505b60068301546040805160ff6101008404811615158252620100009093049092161515602083015281018390526060810182905284907fcf0a48d2ad3f7480002e60b1eda352f90145d89af44eb49e792dad0233f533b19060800160405180910390a2505050610be46001600055565b600260205260009081526040902080548190610e6590611b55565b80601f0160208091040260200160405190810160405280929190818152602001828054610e9190611b55565b8015610ede5780601f10610eb357610100808354040283529160200191610ede565b820191906000526020600020905b815481529060010190602001808311610ec157829003601f168201915b5050505060018301546002840154600385015460048601546005870154600690970154959693959294509092909160ff8082169161010081048216916201000082041690630100000090046001600160a01b03168a565b610f3d61160f565b60008381526002602052604090206001810154421015610f9f5760405162461bcd60e51b815260206004820152601760248201527f436f6d6d6974207068617365206e6f74206163746976650000000000000000006044820152606401610363565b80600201544210610fe65760405162461bcd60e51b81526020600482015260116024820152702932bb32b0b610383430b9b29037bb32b960791b6044820152606401610363565b6000848152600360209081526040808320338452909152902054806110405760405162461bcd60e51b815260206004820152601060248201526f139bc818995d0818dbdb5b5a5d1d195960821b6044820152606401610363565b6040516001600160f81b031960f886901b166020820152602181018490526bffffffffffffffffffffffff193360601b166041820152819060550160405160208183030381529060405280519060200120146110d45760405162461bcd60e51b8152602060048201526013602482015272125b9d985b1a59081a185cda0bdc995d99585b606a1b6044820152606401610363565b60008581526006602090815260408083203384529091529020548061113b5760405162461bcd60e51b815260206004820152601d60248201527f416c72656164792072657665616c6564206f72206e6f20616d6f756e740000006044820152606401610363565b6000868152600660209081526040808320338452909152812055600260ff8616111561119a5760405162461bcd60e51b815260206004820152600e60248201526d496e76616c69642063686f69636560901b6044820152606401610363565b8460ff166001036111fb57808360030160008282546111b99190611c9d565b90915550506000868152600560209081526040808320338452825280832060018452909152812080548392906111f0908490611c9d565b909155506112a19050565b8460ff16600003611250578083600401600082825461121a9190611c9d565b909155505060008681526005602090815260408083203384528252808320838052909152812080548392906111f0908490611c9d565b808360050160008282546112649190611c9d565b909155505060008681526005602090815260408083203384528252808320600284529091528120805483929061129b908490611c9d565b90915550505b6040805160ff8716815260208101839052339188917f69cbe73b5f08f9347a0159dd589b5e7ea7f54d8b523f6bbe183c1a7c13b6dba7910160405180910390a350505061077e6001600055565b6112f661160f565b60008181526002602081905260409091209081015442116113515760405162461bcd60e51b81526020600482015260156024820152742932bb32b0b610383430b9b2903737ba1037bb32b960591b6044820152606401610363565b6000828152600660209081526040808320338452909152902054806113ae5760405162461bcd60e51b81526020600482015260136024820152724e6f20756e72657665616c6564207374616b6560681b6044820152606401610363565b6000838152600660209081526040808320338085529083528184208490558684526003835281842090845290915281208190556127106113ef606484611ce8565b6113f99190611cff565b905060006114078284611d21565b905081156114ee5760405163a9059cbb60e01b815261dead6004820152602481018390527f00000000000000000000000000000000000000000000000000000000000000006001600160a01b03169063a9059cbb906044016020604051808303816000875af115801561147e573d6000803e3d6000fd5b505050506040513d601f19601f820116820180604052508101906114a29190611afd565b6114ee5760405162461bcd60e51b815260206004820152601760248201527f50656e616c7479207472616e73666572206661696c65640000000000000000006044820152606401610363565b60405163a9059cbb60e01b8152336004820152602481018290527f00000000000000000000000000000000000000000000000000000000000000006001600160a01b03169063a9059cbb906044016020604051808303816000875af115801561155b573d6000803e3d6000fd5b505050506040513d601f19601f8201168201806040525081019061157f9190611afd565b6115c45760405162461bcd60e51b81526020600482015260166024820152751499599d5b99081d1c985b9cd9995c8819985a5b195960521b6044820152606401610363565b6040805182815260208101849052339187917f8bb26e72aaf6e900094ea180bfbe84450e669b3c57d843fa18e33e40a46616f5910160405180910390a350505050610be46001600055565b60026000540361163257604051633ee5aeb560e01b815260040160405180910390fd5b6002600055565b6000806000808560050154866004015487600301546116589190611c9d565b6116629190611c9d565b600687015490915060009062010000900460ff166116885761168382611845565b61168b565b60005b90506116978183611d21565b600688015490935062010000900460ff16156116ff57600086815260056020908152604080832033845282528083206002845290915280822054600183528183205483805291909220546116eb9190611c9d565b6116f59190611c9d565b9450819350611770565b6006870154610100900460ff161561174357600086815260056020908152604080832033845282528083206001845290915290205460038801549095509350611770565b60008681526005602090815260408083203384528252808320838052909152902054600488015490955093505b50509250925092565b81156117b9575050600090815260056020908152604080832033845282528083208380529091528082208290556001825280822082905560028252812055565b80156117e65750506000908152600560209081526040808320338452825280832060018452909152812055565b505060009081526005602090815260408083203384528252808320838052909152812055565b60008082841115611823575060009050600161183e565b838311156118365750600090508061183e565b506001905060005b9250929050565b6000612710611855606484611ce8565b61185f9190611cff565b92915050565b634e487b7160e01b600052604160045260246000fd5b60008060006060848603121561189057600080fd5b833567ffffffffffffffff808211156118a857600080fd5b818601915086601f8301126118bc57600080fd5b8135818111156118ce576118ce611865565b604051601f8201601f19908116603f011681019083821181831017156118f6576118f6611865565b8160405282815289602084870101111561190f57600080fd5b82602086016020830137600060208483010152809750505050505060208401359150604084013590509250925092565b60008060006060848603121561195457600080fd5b505081359360208301359350604090920135919050565b60006020828403121561197d57600080fd5b5035919050565b80356001600160a01b038116811461199b57600080fd5b919050565b600080604083850312156119b357600080fd5b823591506119c360208401611984565b90509250929050565b803560ff8116811461199b57600080fd5b6000806000606084860312156119f257600080fd5b83359250611a0260208501611984565b9150611a10604085016119cc565b90509250925092565b6000815180845260005b81811015611a3f57602081850181015186830182015201611a23565b506000602082860101526020601f19601f83011685010191505092915050565b6000610140808352611a738184018e611a19565b602084019c909c52505060408101989098526060880196909652608087019490945260a0860192909252151560c0850152151560e084015215156101008301526001600160a01b031661012090910152919050565b600080600060608486031215611add57600080fd5b83359250611aed602085016119cc565b9150604084013590509250925092565b600060208284031215611b0f57600080fd5b81518015158114611b1f57600080fd5b9392505050565b634e487b7160e01b600052601160045260246000fd5b600060018201611b4e57611b4e611b26565b5060010190565b600181811c90821680611b6957607f821691505b602082108103611b8957634e487b7160e01b600052602260045260246000fd5b50919050565b601f82111561077e57600081815260208120601f850160051c81016020861015611bb65750805b601f850160051c820191505b81811015611bd557828155600101611bc2565b505050505050565b815167ffffffffffffffff811115611bf757611bf7611865565b611c0b81611c058454611b55565b84611b8f565b602080601f831160018114611c405760008415611c285750858301515b600019600386901b1c1916600185901b178555611bd5565b600085815260208120601f198616915b82811015611c6f57888601518255948401946001909101908401611c50565b5085821015611c8d5787850151600019600388901b60f8161c191681555b5050505050600190811b01905550565b8082018082111561185f5761185f611b26565b608081526000611cc36080830187611a19565b60208301959095525060408101929092526001600160a01b0316606090910152919050565b808202811582820484141761185f5761185f611b26565b600082611d1c57634e487b7160e01b600052601260045260246000fd5b500490565b8181038181111561185f5761185f611b2656fea26469706673582212205cdd23cafee8fc3cc0491dc7d534eea8d5c8427ebbac78a9038c7477b7c4d2d764736f6c63430008140033",
  "linkReferences": {},
  "deployedLinkReferences": {}
}