{
  "_format": "hh-sol-artifact-1",
  "contractName": "HelixMarket",
  "sourceName": "contracts/HelixMarket.sol",
  "abi": [
    {
      "inputs": [
        {
          "internalType": "address",
          "name": "_token",
          "type": "address"
        }
      ],
      "stateMutability": "nonpayable",
      "type": "constructor"
    },
    {
      "inputs": [],
      "name": "ReentrancyGuardReentrantCall",
      "type": "error"
    },
    {
      "anonymous": false,
      "inputs": [
        {
          "indexed": true,
          "internalType": "uint256",
          "name": "marketId",
          "type": "uint256"
        },
        {
          "indexed": true,
          "internalType": "address",
          "name": "user",
          "type": "address"
        },
        {
          "indexed": false,
          "internalType": "bytes32",
          "name": "commitHash",
          "type": "bytes32"
        },
        {
          "indexed": false,
          "internalType": "uint256",
          "name": "amount",
          "type": "uint256"
        }
      ],
      "name": "BetCommitted",
      "type": "event"
    },
    {
      "anonymous": false,
      "inputs": [
        {
          "indexed": true,
          "internalType": "uint256",
          "name": "marketId",
          "type": "uint256"
        },
        {
          "indexed": true,
          "internalType": "address",
          "name": "user",
          "type": "address"
        },
        {
          "indexed": false,
          "internalType": "uint8",
          "name": "choice",
          "type": "uint8"
        },
        {
          "indexed": false,
          "internalType": "uint256",
          "name": "amount",
          "type": "uint256"
        }
      ],
      "name": "BetRevealed",
      "type": "event"
    },
    {
      "anonymous": false,
      "inputs": [
        {
          "indexed": true,
          "internalType": "uint256",
          "name": "marketId",
          "type": "uint256"
        },
        {
          "indexed": false,
          "internalType": "bool",
          "name": "outcome",
          "type": "bool"
        },
        {
          "indexed": false,
          "internalType": "bool",
          "name": "tie",
          "type": "bool"
        },
        {
          "indexed": false,
          "internalType": "uint256",
          "name": "totalPool",
          "type": "uint256"
        },
        {
          "indexed": false,
          "internalType": "uint256",
          "name": "originatorFee",
          "type": "uint256"
        }
      ],
      "name": "MarketResolved",
      "type": "event"
    },
    {
      "anonymous": false,
      "inputs": [
        {
          "indexed": true,
          "internalType": "uint256",
          "name": "marketId",
          "type": "uint256"
        },
        {
          "indexed": false,
          "internalType": "string",
          "name": "ipfsCid",
          "type": "string"
        },
        {
          "indexed": false,
          "internalType": "uint256",
          "name": "commitEndTime",
          "type": "uint256"
        },
        {
          "indexed": false,
          "internalType": "uint256",
          "name": "revealEndTime",
          "type": "uint256"
        },
        {
          "indexed": false,
          "internalType": "address",
          "name": "originator",
          "type": "address"
        }
      ],
      "name": "StatementCreated",
      "type": "event"
    },
    {
      "anonymous": false,
      "inputs": [
        {
          "indexed": true,
          "internalType": "uint256",
          "name": "marketId",
          "type": "uint256"
        },
        {
          "indexed": true,
          "internalType": "address",
          "name": "user",
          "type": "address"
        },
        {
          "indexed": false,
          "internalType": "uint256",
          "name": "amountReturned",
          "type": "uint256"
        },
        {
          "indexed": false,
          "internalType": "uint256",
          "name": "penaltyBurned",
          "type": "uint256"
        }
      ],
      "name": "UnrevealedWithdrawn",
      "type": "event"
    },
    {
      "inputs": [],
      "name": "ORIGINATOR_FEE_BPS",
      "outputs": [
        {
          "internalType": "uint256",
          "name": "",
          "type": "uint256"
        }
      ],
      "stateMutability": "view",
      "type": "function"
    },
    {
      "inputs": [],
      "name": "STATEMENT_FEE",
      "outputs": [
        {
          "internalType": "uint256",
          "name": "",
          "type": "uint256"
        }
      ],
      "stateMutability": "view",
      "type": "function"
    },
    {
      "inputs": [],
      "name": "UNREVEALED_PENALTY_BPS",
      "outputs": [
        {
          "internalType": "uint256",
          "name": "",
          "type": "uint256"
        }
      ],
      "stateMutability": "view",
      "type": "function"
    },
    {
      "inputs": [
        {
          "internalType": "uint256",
          "name": "",
          "type": "uint256"
        },
        {
          "internalType": "address",
          "name": "",
          "type": "address"
        },
        {
          "internalType": "uint8",
          "name": "",
          "type": "uint8"
        }
      ],
      "name": "bets",
      "outputs": [
        {
          "internalType": "uint256",
          "name": "",
          "type": "uint256"
        }
      ],
      "stateMutability": "view",
      "type": "function"
    },
    {
      "inputs": [
        {
          "internalType": "uint256",
          "name": "marketId",
          "type": "uint256"
        }
      ],
      "name": "claim",
      "outputs": [],
      "stateMutability": "nonpayable",
      "type": "function"
    },
    {
      "inputs": [
        {
          "internalType": "uint256",
          "name": "marketId",
          "type": "uint256"
        },
        {
          "internalType": "bytes32",
          "name": "commitHash",
          "type": "bytes32"
        },
        {
          "internalType": "uint256",
          "name": "amount",
          "type": "uint256"
        }
      ],
      "name": "commitBet",
      "outputs": [],
      "stateMutability": "nonpayable",
      "type": "function"
    },
    {
      "inputs": [
        {
          "internalType": "uint256",
          "name": "",
          "type": "uint256"
        },
        {
          "internalType": "address",
          "name": "",
          "type": "address"
        }
      ],
      "name": "commits",
      "outputs": [
        {
          "internalType": "bytes32",
          "name": "",
          "type": "bytes32"
        }
      ],
      "stateMutability": "view",
      "type": "function"
    },
    {
      "inputs": [
        {
          "internalType": "uint256",
          "name": "",
          "type": "uint256"
        },
        {
          "internalType": "address",
          "name": "",
          "type": "address"
        }
      ],
      "name": "committedAmount",
      "outputs": [
        {
          "internalType": "uint256",
          "name": "",
          "type": "uint256"
        }
      ],
      "stateMutability": "view",
      "type": "function"
    },
    {
      "inputs": [
        {
          "internalType": "uint256",
          "name": "",
          "type": "uint256"
        },
        {
          "internalType": "address",
          "name": "",
          "type": "address"
        }
      ],
      "name": "hasCommitted",
      "outputs": [
        {
          "internalType": "bool",
          "name": "",
          "type": "bool"
        }
      ],
      "stateMutability": "view",
      "type": "function"
    },
    {
      "inputs": [],
      "name": "marketCount",
      "outputs": [
        {
          "internalType": "uint256",
          "name": "",
          "type": "uint256"
        }
      ],
      "stateMutability": "view",
      "type": "function"
    },
    {
      "inputs": [
        {
          "internalType": "uint256",
          "name": "",
          "type": "uint256"
        }
      ],
      "name": "markets",
      "outputs": [
        {
          "internalType": "string",
          "name": "ipfsCid",
          "type": "string"
        },
        {
          "internalType": "uint256",
          "name": "commitEndTime",
          "type": "uint256"
        },
        {
          "internalType": "uint256",
          "name": "revealEndTime",
          "type": "uint256"
        },
        {
          "internalType": "uint256",
          "name": "yesPool",
          "type": "uint256"
        },
        {
          "internalType": "uint256",
          "name": "noPool",
          "type": "uint256"
        },
        {
          "internalType": "uint256",
          "name": "unalignedPool",
          "type": "uint256"
        },
        {
          "internalType": "bool",
          "name": "resolved",
          "type": "bool"
        },
        {
          "internalType": "bool",
          "name": "outcome",
          "type": "bool"
        },
        {
          "internalType": "bool",
          "name": "tie",
          "type": "bool"
        },
        {
          "internalType": "address",
          "name": "originator",
          "type": "address"
        }
      ],
      "stateMutability": "view",
      "type": "function"
    },
    {
      "inputs": [
        {
          "internalType": "uint256",
          "name": "marketId",
          "type": "uint256"
        }
      ],
      "name": "resolve",
      "outputs": [],
      "stateMutability": "nonpayable",
      "type": "function"
    },
    {
      "inputs": [
        {
          "internalType": "uint256",
          "name": "marketId",
          "type": "uint256"
        },
        {
          "internalType": "uint8",
          "name": "choice",
          "type": "uint8"
        },
        {
          "internalType": "uint256",
          "name": "salt",
          "type": "uint256"
        }
      ],
      "name": "revealBet",
      "outputs": [],
      "stateMutability": "nonpayable",
      "type": "function"
    },
    {
      "inputs": [
        {
          "internalType": "string",
          "name": "ipfsCid",
          "type": "string"
        },
        {
          "internalType": "uint256",
          "name": "biddingDuration",
          "type": "uint256"
        },
        {
          "internalType": "uint256",
          "name": "revealDuration",
          "type": "uint256"
        }
      ],
      "name": "submitStatement",
      "outputs": [],
      "stateMutability": "nonpayable",
      "type": "function"
    },
    {
      "inputs": [],
      "name": "token",
      "outputs": [
        {
          "internalType": "contract AlphaHelixToken",
          "name": "",
          "type": "address"
        }
      ],
      "stateMutability": "view",
      "type": "function"
    },
    {
      "inputs": [
        {
          "internalType": "uint256",
          "name": "marketId",
          "type": "uint256"
        }
      ],
      "name": "withdrawUnrevealed",
      "outputs": [],
      "stateMutability": "nonpayable",
      "type": "function"
    }
  ],
  "bytecode": "0x60a060405234801561001057600080fd5b50604051611c19380380611c1983398101604081905261002f91610045565b60016000556001600160a01b0316608052610075565b60006020828403121561005757600080fd5b81516001600160a01b038116811461006e57600080fd5b9392505050565b608051611b586100c16000396000818161028d0152818161030c015281816103ee015281816106930152818161091001528181610b5a0152818161121b01526112f80152611b586000f3fe608060405234801561001057600080fd5b50600436106101005760003560e01c80638f99230e11610097578063cdbf958211610066578063cdbf95821461026c578063ec9790821461027f578063fc0c546a14610288578063fe838b02146102c757600080fd5b80638f99230e146101d4578063a99ef9f514610205578063b1283e7714610243578063b9e42385146101a157600080fd5b80634f896d4f116100d35780634f896d4f1461016357806357cb0c11146101765780635acd45be146101a1578063885d68a8146101a957600080fd5b80631204078d146101055780631b88272a1461011a5780632e8f036a1461012d578063379607f514610150575b600080fd5b610118610113366004611669565b6102da565b005b61011861012836600461172d565b610571565b61013d68056bc75e2d6310000081565b6040519081526020015b60405180910390f35b61011861015e366004611759565b6107f0565b610118610171366004611759565b6109d5565b61013d61018436600461178e565b600660209081526000928352604080842090915290825290205481565b61013d606481565b61013d6101b736600461178e565b600360209081526000928352604080842090915290825290205481565b61013d6101e23660046117cb565b600560209081526000938452604080852082529284528284209052825290205481565b61023361021336600461178e565b600460209081526000928352604080842090915290825290205460ff1681565b6040519015158152602001610147565b610256610251366004611759565b610c38565b6040516101479a9998979695949392919061184d565b61011861027a3660046118b6565b610d23565b61013d60015481565b6102af7f000000000000000000000000000000000000000000000000000000000000000081565b6040516001600160a01b039091168152602001610147565b6101186102d5366004611759565b6110dc565b6102e26113fd565b6040516323b872dd60e01b815233600482015230602482015268056bc75e2d6310000060448201527f00000000000000000000000000000000000000000000000000000000000000006001600160a01b0316906323b872dd906064016020604051808303816000875af115801561035d573d6000803e3d6000fd5b505050506040513d601f19601f8201168201806040525081019061038191906118eb565b6103c85760405162461bcd60e51b8152602060048201526013602482015272119959481d1c985b9cd9995c8819985a5b1959606a1b60448201526064015b60405180910390fd5b60405163a9059cbb60e01b815261dead600482015268056bc75e2d6310000060248201527f00000000000000000000000000000000000000000000000000000000000000006001600160a01b03169063a9059cbb906044016020604051808303816000875af115801561043f573d6000803e3d6000fd5b505050506040513d601f19601f8201168201806040525081019061046391906118eb565b6104a65760405162461bcd60e51b8152602060048201526014602482015273109d5c9b881d1c985b9cd9995c8819985a5b195960621b60448201526064016103bf565b60018054600091826104b78361192a565b909155506000818152600260205260409020909150806104d786826119cb565b506104e28442611a8b565b600182018190556104f4908490611a8b565b600282018190556006820180546301000000600160b81b031916336301000000810291909117909155600183015460405185937fb0f44ab77840631afd2f642daa49e5d268bce7babf6c72558f47c5d027413b9893610558938b9390929190611a9e565b60405180910390a2505061056c6001600055565b505050565b6105796113fd565b6000838152600260205260409020600181015442106105ce5760405162461bcd60e51b815260206004820152601160248201527021b7b6b6b4ba10383430b9b29037bb32b960791b60448201526064016103bf565b600082116106135760405162461bcd60e51b81526020600482015260126024820152710416d6f756e74206d757374206265203e20360741b60448201526064016103bf565b600084815260046020908152604080832033845290915290205460ff16156106715760405162461bcd60e51b8152602060048201526011602482015270105b1c9958591e4818dbdb5b5a5d1d1959607a1b60448201526064016103bf565b6040516323b872dd60e01b8152336004820152306024820152604481018390527f00000000000000000000000000000000000000000000000000000000000000006001600160a01b0316906323b872dd906064016020604051808303816000875af11580156106e4573d6000803e3d6000fd5b505050506040513d601f19601f8201168201806040525081019061070891906118eb565b6107465760405162461bcd60e51b815260206004820152600f60248201526e151c985b9cd9995c8819985a5b1959608a1b60448201526064016103bf565b600084815260036020908152604080832033808552908352818420879055878452600483528184208185528352818420805460ff1916600117905587845260068352818420908452909152812080548492906107a3908490611a8b565b90915550506040805184815260208101849052339186917fc02f2358fe181cc846163d0ca2cd612408cef67a7acdbb92cd09045df0e2fd9a910160405180910390a35061056c6001600055565b6107f86113fd565b6000818152600260205260409020600681015460ff166108495760405162461bcd60e51b815260206004820152600c60248201526b139bdd081c995cdbdb1d995960a21b60448201526064016103bf565b60008060006108588486611427565b9250925092506000831161089f5760405162461bcd60e51b815260206004820152600e60248201526d139bc81dda5b9b9a5b99c818995d60921b60448201526064016103bf565b60068401546108c090869060ff620100008204811691610100900416611567565b600684015460009062010000900460ff166108ef57826108e08386611ad6565b6108ea9190611aed565b6108f1565b835b60405163a9059cbb60e01b8152336004820152602481018290529091507f00000000000000000000000000000000000000000000000000000000000000006001600160a01b03169063a9059cbb906044016020604051808303816000875af1158015610961573d6000803e3d6000fd5b505050506040513d601f19601f8201168201806040525081019061098591906118eb565b6109c35760405162461bcd60e51b815260206004820152600f60248201526e151c985b9cd9995c8819985a5b1959608a1b60448201526064016103bf565b50505050506109d26001600055565b50565b6109dd6113fd565b6000818152600260208190526040909120908101544211610a385760405162461bcd60e51b81526020600482015260156024820152742932bb32b0b610383430b9b2903737ba1037bb32b960591b60448201526064016103bf565b600681015460ff1615610a805760405162461bcd60e51b815260206004820152601060248201526f105b1c9958591e481c995cdbdb1d995960821b60448201526064016103bf565b60068101805460ff1916600117905560038101546004820154610aa391906115fa565b600683018054921515620100000262ff000019921515610100029290921662ffff00199093169290921717905560058101546004820154600383015460009291610aec91611a8b565b610af69190611a8b565b600683015490915060009062010000900460ff16610b1c57610b1782611633565b610b1f565b60005b90508015610bc957600683015460405163a9059cbb60e01b815263010000009091046001600160a01b039081166004830152602482018390527f0000000000000000000000000000000000000000000000000000000000000000169063a9059cbb906044016020604051808303816000875af1158015610ba3573d6000803e3d6000fd5b505050506040513d601f19601f82011682018060405250810190610bc791906118eb565b505b60068301546040805160ff6101008404811615158252620100009093049092161515602083015281018390526060810182905284907fcf0a48d2ad3f7480002e60b1eda352f90145d89af44eb49e792dad0233f533b19060800160405180910390a25050506109d26001600055565b600260205260009081526040902080548190610c5390611943565b80601f0160208091040260200160405190810160405280929190818152602001828054610c7f90611943565b8015610ccc5780601f10610ca157610100808354040283529160200191610ccc565b820191906000526020600020905b815481529060010190602001808311610caf57829003601f168201915b5050505060018301546002840154600385015460048601546005870154600690970154959693959294509092909160ff8082169161010081048216916201000082041690630100000090046001600160a01b03168a565b610d2b6113fd565b60008381526002602052604090206001810154421015610d8d5760405162461bcd60e51b815260206004820152601760248201527f436f6d6d6974207068617365206e6f742061637469766500000000000000000060448201526064016103bf565b80600201544210610dd45760405162461bcd60e51b81526020600482015260116024820152702932bb32b0b610383430b9b29037bb32b960791b60448201526064016103bf565b600084815260036020908152604080832033845290915290205480610e2e5760405162461bcd60e51b815260206004820152601060248201526f139bc818995d0818dbdb5b5a5d1d195960821b60448201526064016103bf565b6040516001600160f81b031960f886901b166020820152602181018490526bffffffffffffffffffffffff193360601b16604182015281906055016040516020818303038152906040528051906020012014610ec25760405162461bcd60e51b8152602060048201526013602482015272125b9d985b1a59081a185cda0bdc995d99585b606a1b60448201526064016103bf565b600085815260066020908152604080832033845290915290205480610f295760405162461bcd60e51b815260206004820152601d60248201527f416c72656164792072657665616c6564206f72206e6f20616d6f756e7400000060448201526064016103bf565b6000868152600660209081526040808320338452909152812055600260ff86161115610f885760405162461bcd60e51b815260206004820152600e60248201526d496e76616c69642063686f69636560901b60448201526064016103bf565b8460ff16600103610fe95780836003016000828254610fa79190611a8b565b9091555050600086815260056020908152604080832033845282528083206001845290915281208054839290610fde908490611a8b565b9091555061108f9050565b8460ff1660000361103e57808360040160008282546110089190611a8b565b90915550506000868152600560209081526040808320338452825280832083805290915281208054839290610fde908490611a8b565b808360050160008282546110529190611a8b565b9091555050600086815260056020908152604080832033845282528083206002845290915281208054839290611089908490611a8b565b90915550505b6040805160ff8716815260208101839052339188917f69cbe73b5f08f9347a0159dd589b5e7ea7f54d8b523f6bbe183c1a7c13b6dba7910160405180910390a350505061056c6001600055565b6110e46113fd565b600081815260026020819052604090912090810154421161113f5760405162461bcd60e51b81526020600482015260156024820152742932bb32b0b610383430b9b2903737ba1037bb32b960591b60448201526064016103bf565b60008281526006602090815260408083203384529091529020548061119c5760405162461bcd60e51b81526020600482015260136024820152724e6f20756e72657665616c6564207374616b6560681b60448201526064016103bf565b6000838152600660209081526040808320338085529083528184208490558684526003835281842090845290915281208190556127106111dd606484611ad6565b6111e79190611aed565b905060006111f58284611b0f565b905081156112dc5760405163a9059cbb60e01b815261dead6004820152602481018390527f00000000000000000000000000000000000000000000000000000000000000006001600160a01b03169063a9059cbb906044016020604051808303816000875af115801561126c573d6000803e3d6000fd5b505050506040513d601f19601f8201168201806040525081019061129091906118eb565b6112dc5760405162461bcd60e51b815260206004820152601760248201527f50656e616c7479207472616e73666572206661696c656400000000000000000060448201526064016103bf565b60405163a9059cbb60e01b8152336004820152602481018290527f00000000000000000000000000000000000000000000000000000000000000006001600160a01b03169063a9059cbb906044016020604051808303816000875af1158015611349573d6000803e3d6000fd5b505050506040513d601f19601f8201168201806040525081019061136d91906118eb565b6113b25760405162461bcd60e51b81526020600482015260166024820152751499599d5b99081d1c985b9cd9995c8819985a5b195960521b60448201526064016103bf565b6040805182815260208101849052339187917f8bb26e72aaf6e900094ea180bfbe84450e669b3c57d843fa18e33e40a46616f5910160405180910390a3505050506109d26001600055565b60026000540361142057604051633ee5aeb560e01b815260040160405180910390fd5b6002600055565b6000806000808560050154866004015487600301546114469190611a8b565b6114509190611a8b565b600687015490915060009062010000900460ff166114765761147182611633565b611479565b60005b90506114858183611b0f565b600688015490935062010000900460ff16156114ed57600086815260056020908152604080832033845282528083206002845290915280822054600183528183205483805291909220546114d99190611a8b565b6114e39190611a8b565b945081935061155e565b6006870154610100900460ff16156115315760008681526005602090815260408083203384528252808320600184529091529020546003880154909550935061155e565b60008681526005602090815260408083203384528252808320838052909152902054600488015490955093505b50509250925092565b81156115a7575050600090815260056020908152604080832033845282528083208380529091528082208290556001825280822082905560028252812055565b80156115d45750506000908152600560209081526040808320338452825280832060018452909152812055565b505060009081526005602090815260408083203384528252808320838052909152812055565b60008082841115611611575060009050600161162c565b838311156116245750600090508061162c565b506001905060005b9250929050565b6000612710611643606484611ad6565b61164d9190611aed565b92915050565b634e487b7160e01b600052604160045260246000fd5b60008060006060848603121561167e57600080fd5b833567ffffffffffffffff8082111561169657600080fd5b818601915086601f8301126116aa57600080fd5b8135818111156116bc576116bc611653565b604051601f8201601f19908116603f011681019083821181831017156116e4576116e4611653565b816040528281528960208487010111156116fd57600080fd5b82602086016020830137600060208483010152809750505050505060208401359150604084013590509250925092565b60008060006060848603121561174257600080fd5b505081359360208301359350604090920135919050565b60006020828403121561176b57600080fd5b5035919050565b80356001600160a01b038116811461178957600080fd5b919050565b600080604083850312156117a157600080fd5b823591506117b160208401611772565b90509250929050565b803560ff8116811461178957600080fd5b6000806000606084860312156117e057600080fd5b833592506117f060208501611772565b91506117fe604085016117ba565b90509250925092565b6000815180845260005b8181101561182d57602081850181015186830182015201611811565b506000602082860101526020601f19601f83011685010191505092915050565b60006101408083526118618184018e611807565b602084019c909c52505060408101989098526060880196909652608087019490945260a0860192909252151560c0850152151560e084015215156101008301526001600160a01b031661012090910152919050565b6000806000606084860312156118cb57600080fd5b833592506118db602085016117ba565b9150604084013590509250925092565b6000602082840312156118fd57600080fd5b8151801515811461190d57600080fd5b9392505050565b634e487b7160e01b600052601160045260246000fd5b60006001820161193c5761193c611914565b5060010190565b600181811c9082168061195757607f821691505b60208210810361197757634e487b7160e01b600052602260045260246000fd5b50919050565b601f82111561056c57600081815260208120601f850160051c810160208610156119a45750805b601f850160051c820191505b818110156119c3578281556001016119b0565b505050505050565b815167ffffffffffffffff8111156119e5576119e5611653565b6119f9816119f38454611943565b8461197d565b602080601f831160018114611a2e5760008415611a165750858301515b600019600386901b1c1916600185901b1785556119c3565b600085815260208120601f198616915b82811015611a5d57888601518255948401946001909101908401611a3e565b5085821015611a7b5787850151600019600388901b60f8161c191681555b5050505050600190811b01905550565b8082018082111561164d5761164d611914565b608081526000611ab16080830187611807565b60208301959095525060408101929092526001600160a01b0316606090910152919050565b808202811582820484141761164d5761164d611914565b600082611b0a57634e487b7160e01b600052601260045260246000fd5b500490565b8181038181111561164d5761164d61191456fea26469706673582212201f7294c57684881e05a816fa64caa5bc144db26fa15cb07684c962571af6fb0b64736f6c63430008140033",
  "linkReferences": {},
  "deployedLinkReferences": {}
}