{
  "_format": "hh-sol-artifact-1",
  "contractName": "HelixMarket",
  "sourceName": "contracts/HelixMarket.sol",
  "abi": [
    {
      "inputs": [
        {
          "internalType": "address",
          "name": "_token",
          "type": "address"
        }
      ],
      "stateMutability": "nonpayable",
      "type": "constructor"
    },
    {
      "inputs": [],
      "name": "ReentrancyGuardReentrantCall",
      "type": "error"
    },
    {
      "anonymous": false,
      "inputs": [
        {
          "indexed": true,
          "internalType": "uint256",
          "name": "marketId",
          "type": "uint256"
        },
        {
          "indexed": true,
          "internalType": "address",
          "name": "user",
          "type": "address"
        },
        {
          "indexed": false,
          "internalType": "bytes32",
          "name": "commitHash",
          "type": "bytes32"
        },
        {
          "indexed": false,
          "internalType": "uint256",
          "name": "amount",
          "type": "uint256"
        }
      ],
      "name": "BetCommitted",
      "type": "event"
    },
    {
      "anonymous": false,
      "inputs": [
        {
          "indexed": true,
          "internalType": "uint256",
          "name": "marketId",
          "type": "uint256"
        },
        {
          "indexed": true,
          "internalType": "address",
          "name": "user",
          "type": "address"
        },
        {
          "indexed": false,
          "internalType": "uint8",
          "name": "choice",
          "type": "uint8"
        },
        {
          "indexed": false,
          "internalType": "uint256",
          "name": "amount",
          "type": "uint256"
        }
      ],
      "name": "BetRevealed",
      "type": "event"
    },
    {
      "anonymous": false,
      "inputs": [
        {
          "indexed": true,
          "internalType": "uint256",
          "name": "marketId",
          "type": "uint256"
        },
        {
          "indexed": false,
          "internalType": "bool",
          "name": "outcome",
          "type": "bool"
        },
        {
          "indexed": false,
          "internalType": "bool",
          "name": "tie",
          "type": "bool"
        },
        {
          "indexed": false,
          "internalType": "uint256",
          "name": "totalPool",
          "type": "uint256"
        },
        {
          "indexed": false,
          "internalType": "uint256",
          "name": "originatorFee",
          "type": "uint256"
        }
      ],
      "name": "MarketResolved",
      "type": "event"
    },
    {
      "anonymous": false,
      "inputs": [
        {
          "indexed": true,
          "internalType": "uint256",
          "name": "marketId",
          "type": "uint256"
        },
        {
          "indexed": false,
          "internalType": "string",
          "name": "ipfsCid",
          "type": "string"
        },
        {
          "indexed": false,
          "internalType": "uint256",
          "name": "commitEndTime",
          "type": "uint256"
        },
        {
          "indexed": false,
          "internalType": "uint256",
          "name": "revealEndTime",
          "type": "uint256"
        },
        {
          "indexed": false,
          "internalType": "address",
          "name": "originator",
          "type": "address"
        }
      ],
      "name": "StatementCreated",
      "type": "event"
    },
    {
      "anonymous": false,
      "inputs": [
        {
          "indexed": true,
          "internalType": "uint256",
          "name": "marketId",
          "type": "uint256"
        },
        {
          "indexed": true,
          "internalType": "address",
          "name": "user",
          "type": "address"
        },
        {
          "indexed": false,
          "internalType": "uint256",
          "name": "amountReturned",
          "type": "uint256"
        },
        {
          "indexed": false,
          "internalType": "uint256",
          "name": "penaltyBurned",
          "type": "uint256"
        }
      ],
      "name": "UnrevealedWithdrawn",
      "type": "event"
    },
    {
      "inputs": [],
      "name": "MAX_CID_LENGTH",
      "outputs": [
        {
          "internalType": "uint256",
          "name": "",
          "type": "uint256"
        }
      ],
      "stateMutability": "view",
      "type": "function"
    },
    {
      "inputs": [],
      "name": "MAX_DURATION",
      "outputs": [
        {
          "internalType": "uint256",
          "name": "",
          "type": "uint256"
        }
      ],
      "stateMutability": "view",
      "type": "function"
    },
    {
      "inputs": [],
      "name": "MIN_BIDDING_DURATION",
      "outputs": [
        {
          "internalType": "uint256",
          "name": "",
          "type": "uint256"
        }
      ],
      "stateMutability": "view",
      "type": "function"
    },
    {
      "inputs": [],
      "name": "MIN_REVEAL_DURATION",
      "outputs": [
        {
          "internalType": "uint256",
          "name": "",
          "type": "uint256"
        }
      ],
      "stateMutability": "view",
      "type": "function"
    },
    {
      "inputs": [],
      "name": "ORIGINATOR_FEE_BPS",
      "outputs": [
        {
          "internalType": "uint256",
          "name": "",
          "type": "uint256"
        }
      ],
      "stateMutability": "view",
      "type": "function"
    },
    {
      "inputs": [],
      "name": "STATEMENT_FEE",
      "outputs": [
        {
          "internalType": "uint256",
          "name": "",
          "type": "uint256"
        }
      ],
      "stateMutability": "view",
      "type": "function"
    },
    {
      "inputs": [],
      "name": "UNREVEALED_PENALTY_BPS",
      "outputs": [
        {
          "internalType": "uint256",
          "name": "",
          "type": "uint256"
        }
      ],
      "stateMutability": "view",
      "type": "function"
    },
    {
      "inputs": [
        {
          "internalType": "uint256",
          "name": "",
          "type": "uint256"
        },
        {
          "internalType": "address",
          "name": "",
          "type": "address"
        },
        {
          "internalType": "uint8",
          "name": "",
          "type": "uint8"
        }
      ],
      "name": "bets",
      "outputs": [
        {
          "internalType": "uint256",
          "name": "",
          "type": "uint256"
        }
      ],
      "stateMutability": "view",
      "type": "function"
    },
    {
      "inputs": [
        {
          "internalType": "uint256",
          "name": "marketId",
          "type": "uint256"
        }
      ],
      "name": "claim",
      "outputs": [],
      "stateMutability": "nonpayable",
      "type": "function"
    },
    {
      "inputs": [
        {
          "internalType": "uint256",
          "name": "marketId",
          "type": "uint256"
        },
        {
          "internalType": "bytes32",
          "name": "commitHash",
          "type": "bytes32"
        },
        {
          "internalType": "uint256",
          "name": "amount",
          "type": "uint256"
        }
      ],
      "name": "commitBet",
      "outputs": [],
      "stateMutability": "nonpayable",
      "type": "function"
    },
    {
      "inputs": [
        {
          "internalType": "uint256",
          "name": "",
          "type": "uint256"
        },
        {
          "internalType": "address",
          "name": "",
          "type": "address"
        }
      ],
      "name": "commits",
      "outputs": [
        {
          "internalType": "bytes32",
          "name": "",
          "type": "bytes32"
        }
      ],
      "stateMutability": "view",
      "type": "function"
    },
    {
      "inputs": [
        {
          "internalType": "uint256",
          "name": "",
          "type": "uint256"
        },
        {
          "internalType": "address",
          "name": "",
          "type": "address"
        }
      ],
      "name": "committedAmount",
      "outputs": [
        {
          "internalType": "uint256",
          "name": "",
          "type": "uint256"
        }
      ],
      "stateMutability": "view",
      "type": "function"
    },
    {
      "inputs": [
        {
          "internalType": "uint256",
          "name": "",
          "type": "uint256"
        },
        {
          "internalType": "address",
          "name": "",
          "type": "address"
        }
      ],
      "name": "hasCommitted",
      "outputs": [
        {
          "internalType": "bool",
          "name": "",
          "type": "bool"
        }
      ],
      "stateMutability": "view",
      "type": "function"
    },
    {
      "inputs": [],
      "name": "marketCount",
      "outputs": [
        {
          "internalType": "uint256",
          "name": "",
          "type": "uint256"
        }
      ],
      "stateMutability": "view",
      "type": "function"
    },
    {
      "inputs": [
        {
          "internalType": "uint256",
          "name": "",
          "type": "uint256"
        }
      ],
      "name": "markets",
      "outputs": [
        {
          "internalType": "string",
          "name": "ipfsCid",
          "type": "string"
        },
        {
          "internalType": "uint256",
          "name": "commitEndTime",
          "type": "uint256"
        },
        {
          "internalType": "uint256",
          "name": "revealEndTime",
          "type": "uint256"
        },
        {
          "internalType": "uint256",
          "name": "yesPool",
          "type": "uint256"
        },
        {
          "internalType": "uint256",
          "name": "noPool",
          "type": "uint256"
        },
        {
          "internalType": "uint256",
          "name": "unalignedPool",
          "type": "uint256"
        },
        {
          "internalType": "bool",
          "name": "resolved",
          "type": "bool"
        },
        {
          "internalType": "bool",
          "name": "outcome",
          "type": "bool"
        },
        {
          "internalType": "bool",
          "name": "tie",
          "type": "bool"
        },
        {
          "internalType": "address",
          "name": "originator",
          "type": "address"
        }
      ],
      "stateMutability": "view",
      "type": "function"
    },
    {
      "inputs": [
        {
          "internalType": "uint256",
          "name": "marketId",
          "type": "uint256"
        }
      ],
      "name": "resolve",
      "outputs": [],
      "stateMutability": "nonpayable",
      "type": "function"
    },
    {
      "inputs": [
        {
          "internalType": "uint256",
          "name": "marketId",
          "type": "uint256"
        },
        {
          "internalType": "uint8",
          "name": "choice",
          "type": "uint8"
        },
        {
          "internalType": "uint256",
          "name": "salt",
          "type": "uint256"
        }
      ],
      "name": "revealBet",
      "outputs": [],
      "stateMutability": "nonpayable",
      "type": "function"
    },
    {
      "inputs": [
        {
          "internalType": "string",
          "name": "ipfsCid",
          "type": "string"
        },
        {
          "internalType": "uint256",
          "name": "biddingDuration",
          "type": "uint256"
        },
        {
          "internalType": "uint256",
          "name": "revealDuration",
          "type": "uint256"
        }
      ],
      "name": "submitStatement",
      "outputs": [],
      "stateMutability": "nonpayable",
      "type": "function"
    },
    {
      "inputs": [],
      "name": "token",
      "outputs": [
        {
          "internalType": "contract AlphaHelixToken",
          "name": "",
          "type": "address"
        }
      ],
      "stateMutability": "view",
      "type": "function"
    },
    {
      "inputs": [
        {
          "internalType": "uint256",
          "name": "marketId",
          "type": "uint256"
        }
      ],
      "name": "withdrawUnrevealed",
      "outputs": [],
      "stateMutability": "nonpayable",
      "type": "function"
    }
  ],
  "bytecode": "0x60a03461009b57601f611a7938819003918201601f19168301916001600160401b038311848410176100a05780849260209460405283398101031261009b57516001600160a01b0381169081900361009b5760016000556080526040516119c290816100b782396080518181816101c4015281816102cb015281816103ce01528181610b5601528181610dbf0152818161103701526112950152f35b600080fd5b634e487b7160e01b600052604160045260246000fdfe608060408181526004908136101561001657600080fd5b600092833560e01c9081631204078d146111b3575080631b88272a14610fb75780632e8f036a14610f93578063379607f514610c265780634f896d4f14610a1257806357cb0c11146109d05780635acd45be14610774578063875aff8a14610420578063885d68a81461098e5780638f99230e1461092e578063a82da60d14610912578063a99ef9f5146108cc578063b1283e7714610798578063b1724b4614610779578063b9e4238514610774578063cdbf958214610425578063d329db8f14610420578063ec97908214610401578063fc0c546a146103b95763fe838b021461010057600080fd5b346103b557602090816003193601126103b15782359161011e611897565b828552600281526101366002838720015442116118f8565b82855260068152818520338652815281852054908115610379578386526006815282862033875281528583812055838652600381528286203387528152858381205560648202828104606403610366576127106101959104809361193c565b94826102a9575b835163a9059cbb60e01b8152338282019081526020810188905283908290819060400103818b7f00000000000000000000000000000000000000000000000000000000000000006001600160a01b03165af190811561029f578891610272575b50156102385750825194855284015233927f8bb26e72aaf6e900094ea180bfbe84450e669b3c57d843fa18e33e40a46616f59190a36001815580f35b60649184519162461bcd60e51b835282015260166024820152751499599d5b99081d1c985b9cd9995c8819985a5b195960521b6044820152fd5b6102929150833d8511610298575b61028a8183611756565b81019061185c565b386101fc565b503d610280565b85513d8a823e3d90fd5b835163a9059cbb60e01b815261dead828201526024810184905282816044818b7f00000000000000000000000000000000000000000000000000000000000000006001600160a01b03165af190811561029f578891610349575b5061019c5760649184519162461bcd60e51b8352820152601760248201527f50656e616c7479207472616e73666572206661696c65640000000000000000006044820152fd5b6103609150833d85116102985761028a8183611756565b38610303565b634e487b7160e01b875260118652602487fd5b8460649184519162461bcd60e51b835282015260136024820152724e6f20756e72657665616c6564207374616b6560681b6044820152fd5b8380fd5b8280fd5b8382346103fd57816003193601126103fd57517f00000000000000000000000000000000000000000000000000000000000000006001600160a01b03168152602090f35b5080fd5b8382346103fd57816003193601126103fd576020906001549051908152f35b6117c5565b509190346103fd5760603660031901126103fd57803560249384359460ff86169384870361077057610455611897565b83865260209060028252838720976001890154421061072f5760028901544210156106fa578588526003835284882033895283528488205480156106c5578551908482019260ff60f81b9060f81b16835260443560218301523360601b604183015260358252606082019282841067ffffffffffffffff8511176106b357838852825190200361067d5750508487526006825283872033885282528387205492831561063d5785885260068352848820338952835287858120556002871161060c575085969760017f69cbe73b5f08f9347a0159dd589b5e7ea7f54d8b523f6bbe183c1a7c13b6dba7969714600014610595576003915001610558838254611874565b9055848752600581528287203388528152828720600188528152828720610580838254611874565b90555b82519586528501523393a36001815580f35b876105d457016105a6838254611874565b905584875260058152828720338852815282872087805281528287206105cd838254611874565b9055610583565b60059150016105e4838254611874565b90558487526005815282872033885281528287206002885281528287206105cd838254611874565b600e9060649386519362461bcd60e51b85528401528201526d496e76616c69642063686f69636560901b6044820152fd5b601d9060649386519362461bcd60e51b85528401528201527f416c72656164792072657665616c6564206f72206e6f20616d6f756e740000006044820152fd5b9072125b9d985b1a59081a185cda0bdc995d99585b606a1b60a46064938662461bcd60e51b855285820152601360848201520152fd5b634e487b7160e01b8b5260418552868bfd5b855162461bcd60e51b81528084018590526010818701526f139bc818995d0818dbdb5b5a5d1d195960821b6044820152606490fd5b50925162461bcd60e51b815292830152601190820152702932bb32b0b610383430b9b29037bb32b960791b6044820152606490fd5b50925162461bcd60e51b8152928301526017908201527f436f6d6d6974207068617365206e6f74206163746976650000000000000000006044820152606490fd5b8580fd5b6117a9565b8382346103fd57816003193601126103fd57602090516301dfe2008152f35b5090346103b557602090816003193601126103b1578035845260028252828420835193858254906107c8826117e2565b9081885260019283811690816000146108ae575060011461087a575b50506107f586610826980387611756565b8201549260028301546003840154918401549260066005860154950154958151998a99610140808c528b019061181c565b978901528701526060860152608085015260a084015260ff818116151560c0850152600882901c8116151560e0850152601082901c16151561010084015260181c6001600160a01b03166101208301520390f35b9097508381528581205b88821061089b57508601850196506107f5866107e4565b8054888301880152908601908201610884565b60ff1916888a01525050151560051b8601850196506107f5866107e4565b5090346103b557816003193601126103b5578160209360ff926108ed61178e565b813583529086528282206001600160a01b039091168252855220549151911615158152f35b8382346103fd57816003193601126103fd576020905160808152f35b5090346103b55760603660031901126103b55761094961178e565b6044359160ff831680930361098a57358452600560209081528385206001600160a01b03909216855290815282842091845290815291819020549051908152f35b8480fd5b5090346103b557816003193601126103b55760209282916109ad61178e565b90358252600385528282206001600160a01b039091168252845220549051908152f35b5090346103b557816003193601126103b55760209282916109ef61178e565b90358252600685528282206001600160a01b039091168252845220549051908152f35b5090346103b557602090816003193601126103b157803592610a32611897565b8385526002835280852090610a4c600283015442116118f8565b6006820180549260ff8416610bf057806005610aa46003610aad940154966001898501549162ff000061ff00610a82858d611964565b9290151560101b169262ffffff191691151560081b1617171797888755611874565b91015490611874565b9260ff8160101c16600014610be15787945b85610b1a575b505091608093917fcf0a48d2ad3f7480002e60b1eda352f90145d89af44eb49e792dad0233f533b19593549360ff825195818160081c161515875260101c161515908501528301526060820152a26001815580f35b835163a9059cbb60e01b815260189290921c6001600160a01b0390811691830191825260208201879052879183919082908c90829060400103927f0000000000000000000000000000000000000000000000000000000000000000165af18015610bd7579160809593917fcf0a48d2ad3f7480002e60b1eda352f90145d89af44eb49e792dad0233f533b1979593610bba575b5091939581939550610ac5565b610bd090863d88116102985761028a8183611756565b5038610bad565b83513d8a823e3d90fd5b610bea84611949565b94610abf565b825162461bcd60e51b8152808601879052601060248201526f105b1c9958591e481c995cdbdb1d995960821b6044820152606490fd5b5090346103b557602090816003193601126103b1578035610c45611897565b80855260028352838520600681019182549260ff841615610f61576003830154928581015492610c84610c788587611874565b60058094015490611874565b95888a8c60ff8460101c169889600014610f5057610ca3825b8c61193c565b988a15610ef757505091610cf0918386610d11955287835281812033825283528181208180528352878282205493888352528d82822090338352528d828220906001835252205490611874565b838d52848b528b8d20338e528b528b8d2060028e528b528b8d205490611874565b96955b8715610ec3579160ff93918a9897969593600014610e7c5750808c528188528a8c20338d5288528a8c208c805288528b8b812055808c528188528a8c20338d5288528a8c2060018d5288528b8b8120558b528652888a20338b528652888a2060028b52865289898120555b5460101c1615610e345750610dba9390505b855163a9059cbb60e01b8152339181019182526020820192909252909283918291604090910190565b0381877f00000000000000000000000000000000000000000000000000000000000000006001600160a01b03165af1918215610e2757610e0393508492610e0a575b50506118ba565b6001815580f35b610e209250803d106102985761028a8183611756565b3880610dfc565b50505051903d90823e3d90fd5b80919350820291820403610e69578115610e5657918391610dba930490610d91565b634e487b7160e01b865260128352602486fd5b634e487b7160e01b865260118352602486fd5b60081c841615610ea5578b528652888a20338b528652888a2060018b5286528989812055610d7f565b8b528652888a20338b528652888a208a805286528989812055610d7f565b8a5162461bcd60e51b8152808a018b9052600e60248201526d139bc81dda5b9b9a5b99c818995d60921b6044820152606490fd5b93509950505060ff8260081c16600014610f2e5750818b52828952898b20338c528952898b2060018c528952898b20549695610d14565b828c52838a528a8c20338d528a528a8c208c80528a528a8c2054975095610d14565b610ca3610f5c8c611949565b610c9d565b865162461bcd60e51b8152808601879052600c60248201526b139bdd081c995cdbdb1d995960a21b6044820152606490fd5b8382346103fd57816003193601126103fd576020905168056bc75e2d631000008152f35b50346103b55760603660031901126103b557813560243591604435610fda611897565b8286526020600281526001838820015442101561117d57811561114657838752858152828720338852815260ff83882054166111105782516323b872dd60e01b81523387820152306024820152604481018390529581876064818b7f00000000000000000000000000000000000000000000000000000000000000006001600160a01b03165af1968715611106577fc02f2358fe181cc846163d0ca2cd612408cef67a7acdbb92cd09045df0e2fd9a95969761109d918a916110e9575b506118ba565b858852600382528388203389528252868489205585885281528287203388528152828720600160ff19825416179055848752600681528287203388528152828720610580838254611874565b6111009150843d86116102985761028a8183611756565b38611097565b84513d8a823e3d90fd5b8560649184519162461bcd60e51b83528201526011602482015270105b1c9958591e4818dbdb5b5a5d1d1959607a1b6044820152fd5b8560649184519162461bcd60e51b835282015260126024820152710416d6f756e74206d757374206265203e20360741b6044820152fd5b8560649184519162461bcd60e51b8352820152601160248201527021b7b6b6b4ba10383430b9b29037bb32b960791b6044820152fd5b84939150346103b15760603660031901126103b15781359167ffffffffffffffff9081841161077057366023850112156107705783810135948286116117435760209287601f199661120c8689601f8c01160188611756565b888752602498368a82840101116103b557808a889301838a013787010152863560449182359261123a611897565b8751156117175760808851116116e857610e108084106116a7576301dfe200908185116116655785106116245784116115e45784516323b872dd60e01b81523387820152308b82015268056bc75e2d631000008282018190527f00000000000000000000000000000000000000000000000000000000000000006001600160a01b0316918d908a8160648185885af19182156115d957916115bc575b50156115845761dead83898f8f958d958c51978896879563a9059cbb60e01b87528601528401525af190811561157a578c9161155d575b5015611526575060019889549860001991828b14611515578b8b018c558a8d5260028952868d20978a519485116115045750508a9061134c88546117e2565b601f81116114b6575b508c8991601f861160011461142357509484806006957fb0f44ab77840631afd2f642daa49e5d268bce7babf6c72558f47c5d027413b989d9b99976113c3966113b7966114039f9d9b94611418575b501b9260031b1c19161787555b42611874565b92838c87015583611874565b60028501819055930180546301000000600160b81b0319163360181b6301000000600160b81b03161790558151608080825290968796909187019061181c565b938501528301523360608301520390a2815580f35b8e01519350386113a4565b859492919395168984528a8420935b81811061149f575094846113c3946113b7946114039d9b99947fb0f44ab77840631afd2f642daa49e5d268bce7babf6c72558f47c5d027413b989f9d9b999860069910611487575b505050811b0187556113b1565b8d01519060f88460031b161c1916905538808061147a565b8c83015185558e9690940193918b01918b01611432565b909150878d52888d20601f850160051c8101918a86106114fa575b8d9392918f91601f0160051c0191905b8282106114ef575050611355565b81558d93018e6114e1565b90915081906114d1565b634e487b7160e01b8e52604190528cfd5b634e487b7160e01b8d52601188528cfd5b8573109d5c9b881d1c985b9cd9995c8819985a5b195960621b60649260148d8b8a519562461bcd60e51b8752860152840152820152fd5b6115749150883d8a116102985761028a8183611756565b8c61130d565b86513d8e823e3d90fd5b50855162461bcd60e51b81528088018990526013818d015272119959481d1c985b9cd9995c8819985a5b1959606a1b81840152606490fd5b6115d391508a3d8c116102985761028a8183611756565b8e6112d6565b8951903d90823e3d90fd5b857f52657665616c206475726174696f6e20746f6f206c6f6e67000000000000000060649260188d8b8a519562461bcd60e51b8752860152840152820152fd5b855162461bcd60e51b81528088018990526019818d01527f52657665616c206475726174696f6e20746f6f2073686f72740000000000000081840152606490fd5b50855162461bcd60e51b81528088018990526019818d01527f42696464696e67206475726174696f6e20746f6f206c6f6e670000000000000081840152606490fd5b855162461bcd60e51b8152808801899052601a818d01527f42696464696e67206475726174696f6e20746f6f2073686f727400000000000081840152606490fd5b856b43494420746f6f206c6f6e6760a01b606492600c8d8b8a519562461bcd60e51b8752860152840152820152fd5b856843494420656d70747960b81b60649260098d8b8a519562461bcd60e51b8752860152840152820152fd5b634e487b7160e01b875260418252602487fd5b90601f8019910116810190811067ffffffffffffffff82111761177857604052565b634e487b7160e01b600052604160045260246000fd5b602435906001600160a01b03821682036117a457565b600080fd5b346117a45760003660031901126117a457602060405160648152f35b346117a45760003660031901126117a4576020604051610e108152f35b90600182811c92168015611812575b60208310146117fc57565b634e487b7160e01b600052602260045260246000fd5b91607f16916117f1565b919082519283825260005b848110611848575050826000602080949584010152601f8019910116010190565b602081830181015184830182015201611827565b908160209103126117a4575180151581036117a45790565b9190820180921161188157565b634e487b7160e01b600052601160045260246000fd5b6002600054146118a8576002600055565b604051633ee5aeb560e01b8152600490fd5b156118c157565b60405162461bcd60e51b815260206004820152600f60248201526e151c985b9cd9995c8819985a5b1959608a1b6044820152606490fd5b156118ff57565b60405162461bcd60e51b81526020600482015260156024820152742932bb32b0b610383430b9b2903737ba1037bb32b960591b6044820152606490fd5b9190820391821161188157565b60648102908082046064149015171561188157612710900490565b9080821115611977575050600090600190565b1161198457600190600090565b60009060009056fea2646970667358221220682b16ca63b174ccb863a0eef825ec33e07eed2619452059b826bb7981f2d83564736f6c63430008140033",
  "linkReferences": {},
  "deployedLinkReferences": {}
}