{
  "_format": "hh-sol-artifact-1",
  "contractName": "HelixMarket",
  "sourceName": "contracts/HelixMarket.sol",
  "abi": [
    {
      "inputs": [
        {
          "internalType": "address",
          "name": "_token",
          "type": "address"
        }
      ],
      "stateMutability": "nonpayable",
      "type": "constructor"
    },
    {
      "inputs": [],
      "name": "AccessControlBadConfirmation",
      "type": "error"
    },
    {
      "inputs": [
        {
          "internalType": "address",
          "name": "account",
          "type": "address"
        },
        {
          "internalType": "bytes32",
          "name": "neededRole",
          "type": "bytes32"
        }
      ],
      "name": "AccessControlUnauthorizedAccount",
      "type": "error"
    },
    {
      "inputs": [],
      "name": "ReentrancyGuardReentrantCall",
      "type": "error"
    },
    {
      "anonymous": false,
      "inputs": [
        {
          "indexed": true,
          "internalType": "uint256",
          "name": "marketId",
          "type": "uint256"
        },
        {
          "indexed": true,
          "internalType": "address",
          "name": "user",
          "type": "address"
        },
        {
          "indexed": false,
          "internalType": "bytes32",
          "name": "commitHash",
          "type": "bytes32"
        },
        {
          "indexed": false,
          "internalType": "uint256",
          "name": "amount",
          "type": "uint256"
        }
      ],
      "name": "BetCommitted",
      "type": "event"
    },
    {
      "anonymous": false,
      "inputs": [
        {
          "indexed": true,
          "internalType": "uint256",
          "name": "marketId",
          "type": "uint256"
        },
        {
          "indexed": true,
          "internalType": "address",
          "name": "user",
          "type": "address"
        },
        {
          "indexed": false,
          "internalType": "bool",
          "name": "choice",
          "type": "bool"
        },
        {
          "indexed": false,
          "internalType": "uint256",
          "name": "amount",
          "type": "uint256"
        }
      ],
      "name": "BetRevealed",
      "type": "event"
    },
    {
      "anonymous": false,
      "inputs": [
        {
          "indexed": true,
          "internalType": "uint256",
          "name": "marketId",
          "type": "uint256"
        },
        {
          "indexed": false,
          "internalType": "bool",
          "name": "outcome",
          "type": "bool"
        },
        {
          "indexed": false,
          "internalType": "bool",
          "name": "tie",
          "type": "bool"
        },
        {
          "indexed": false,
          "internalType": "uint256",
          "name": "totalPool",
          "type": "uint256"
        },
        {
          "indexed": false,
          "internalType": "uint256",
          "name": "originatorFee",
          "type": "uint256"
        }
      ],
      "name": "MarketResolved",
      "type": "event"
    },
    {
      "anonymous": false,
      "inputs": [
        {
          "indexed": true,
          "internalType": "bytes32",
          "name": "role",
          "type": "bytes32"
        },
        {
          "indexed": true,
          "internalType": "bytes32",
          "name": "previousAdminRole",
          "type": "bytes32"
        },
        {
          "indexed": true,
          "internalType": "bytes32",
          "name": "newAdminRole",
          "type": "bytes32"
        }
      ],
      "name": "RoleAdminChanged",
      "type": "event"
    },
    {
      "anonymous": false,
      "inputs": [
        {
          "indexed": true,
          "internalType": "bytes32",
          "name": "role",
          "type": "bytes32"
        },
        {
          "indexed": true,
          "internalType": "address",
          "name": "account",
          "type": "address"
        },
        {
          "indexed": true,
          "internalType": "address",
          "name": "sender",
          "type": "address"
        }
      ],
      "name": "RoleGranted",
      "type": "event"
    },
    {
      "anonymous": false,
      "inputs": [
        {
          "indexed": true,
          "internalType": "bytes32",
          "name": "role",
          "type": "bytes32"
        },
        {
          "indexed": true,
          "internalType": "address",
          "name": "account",
          "type": "address"
        },
        {
          "indexed": true,
          "internalType": "address",
          "name": "sender",
          "type": "address"
        }
      ],
      "name": "RoleRevoked",
      "type": "event"
    },
    {
      "anonymous": false,
      "inputs": [
        {
          "indexed": true,
          "internalType": "uint256",
          "name": "marketId",
          "type": "uint256"
        },
        {
          "indexed": false,
          "internalType": "string",
          "name": "ipfsCid",
          "type": "string"
        },
        {
          "indexed": false,
          "internalType": "uint256",
          "name": "commitEndTime",
          "type": "uint256"
        },
        {
          "indexed": false,
          "internalType": "uint256",
          "name": "revealEndTime",
          "type": "uint256"
        },
        {
          "indexed": false,
          "internalType": "address",
          "name": "originator",
          "type": "address"
        }
      ],
      "name": "StatementCreated",
      "type": "event"
    },
    {
      "inputs": [],
      "name": "DEFAULT_ADMIN_ROLE",
      "outputs": [
        {
          "internalType": "bytes32",
          "name": "",
          "type": "bytes32"
        }
      ],
      "stateMutability": "view",
      "type": "function"
    },
    {
      "inputs": [],
      "name": "STATEMENT_FEE",
      "outputs": [
        {
          "internalType": "uint256",
          "name": "",
          "type": "uint256"
        }
      ],
      "stateMutability": "view",
      "type": "function"
    },
    {
      "inputs": [
        {
          "internalType": "uint256",
          "name": "",
          "type": "uint256"
        },
        {
          "internalType": "address",
          "name": "",
          "type": "address"
        },
        {
          "internalType": "uint8",
          "name": "",
          "type": "uint8"
        }
      ],
      "name": "bets",
      "outputs": [
        {
          "internalType": "uint256",
          "name": "",
          "type": "uint256"
        }
      ],
      "stateMutability": "view",
      "type": "function"
    },
    {
      "inputs": [
        {
          "internalType": "uint256",
          "name": "marketId",
          "type": "uint256"
        }
      ],
      "name": "claim",
      "outputs": [],
      "stateMutability": "nonpayable",
      "type": "function"
    },
    {
      "inputs": [
        {
          "internalType": "uint256",
          "name": "marketId",
          "type": "uint256"
        },
        {
          "internalType": "bytes32",
          "name": "commitHash",
          "type": "bytes32"
        },
        {
          "internalType": "uint256",
          "name": "amount",
          "type": "uint256"
        }
      ],
      "name": "commitBet",
      "outputs": [],
      "stateMutability": "nonpayable",
      "type": "function"
    },
    {
      "inputs": [
        {
          "internalType": "uint256",
          "name": "",
          "type": "uint256"
        },
        {
          "internalType": "address",
          "name": "",
          "type": "address"
        }
      ],
      "name": "commits",
      "outputs": [
        {
          "internalType": "bytes32",
          "name": "",
          "type": "bytes32"
        }
      ],
      "stateMutability": "view",
      "type": "function"
    },
    {
      "inputs": [
        {
          "internalType": "uint256",
          "name": "",
          "type": "uint256"
        },
        {
          "internalType": "address",
          "name": "",
          "type": "address"
        }
      ],
      "name": "committedAmount",
      "outputs": [
        {
          "internalType": "uint256",
          "name": "",
          "type": "uint256"
        }
      ],
      "stateMutability": "view",
      "type": "function"
    },
    {
      "inputs": [
        {
          "internalType": "bytes32",
          "name": "role",
          "type": "bytes32"
        }
      ],
      "name": "getRoleAdmin",
      "outputs": [
        {
          "internalType": "bytes32",
          "name": "",
          "type": "bytes32"
        }
      ],
      "stateMutability": "view",
      "type": "function"
    },
    {
      "inputs": [
        {
          "internalType": "bytes32",
          "name": "role",
          "type": "bytes32"
        },
        {
          "internalType": "address",
          "name": "account",
          "type": "address"
        }
      ],
      "name": "grantRole",
      "outputs": [],
      "stateMutability": "nonpayable",
      "type": "function"
    },
    {
      "inputs": [
        {
          "internalType": "uint256",
          "name": "",
          "type": "uint256"
        },
        {
          "internalType": "address",
          "name": "",
          "type": "address"
        }
      ],
      "name": "hasCommitted",
      "outputs": [
        {
          "internalType": "bool",
          "name": "",
          "type": "bool"
        }
      ],
      "stateMutability": "view",
      "type": "function"
    },
    {
      "inputs": [
        {
          "internalType": "bytes32",
          "name": "role",
          "type": "bytes32"
        },
        {
          "internalType": "address",
          "name": "account",
          "type": "address"
        }
      ],
      "name": "hasRole",
      "outputs": [
        {
          "internalType": "bool",
          "name": "",
          "type": "bool"
        }
      ],
      "stateMutability": "view",
      "type": "function"
    },
    {
      "inputs": [],
      "name": "marketCount",
      "outputs": [
        {
          "internalType": "uint256",
          "name": "",
          "type": "uint256"
        }
      ],
      "stateMutability": "view",
      "type": "function"
    },
    {
      "inputs": [
        {
          "internalType": "uint256",
          "name": "",
          "type": "uint256"
        }
      ],
      "name": "markets",
      "outputs": [
        {
          "internalType": "string",
          "name": "ipfsCid",
          "type": "string"
        },
        {
          "internalType": "uint256",
          "name": "commitEndTime",
          "type": "uint256"
        },
        {
          "internalType": "uint256",
          "name": "revealEndTime",
          "type": "uint256"
        },
        {
          "internalType": "uint256",
          "name": "yesPool",
          "type": "uint256"
        },
        {
          "internalType": "uint256",
          "name": "noPool",
          "type": "uint256"
        },
        {
          "internalType": "uint256",
          "name": "unalignedPool",
          "type": "uint256"
        },
        {
          "internalType": "bool",
          "name": "resolved",
          "type": "bool"
        },
        {
          "internalType": "bool",
          "name": "outcome",
          "type": "bool"
        },
        {
          "internalType": "address",
          "name": "originator",
          "type": "address"
        }
      ],
      "stateMutability": "view",
      "type": "function"
    },
    {
      "inputs": [
        {
          "internalType": "bytes32",
          "name": "role",
          "type": "bytes32"
        },
        {
          "internalType": "address",
          "name": "callerConfirmation",
          "type": "address"
        }
      ],
      "name": "renounceRole",
      "outputs": [],
      "stateMutability": "nonpayable",
      "type": "function"
    },
    {
      "inputs": [
        {
          "internalType": "uint256",
          "name": "marketId",
          "type": "uint256"
        }
      ],
      "name": "resolve",
      "outputs": [],
      "stateMutability": "nonpayable",
      "type": "function"
    },
    {
      "inputs": [
        {
          "internalType": "uint256",
          "name": "marketId",
          "type": "uint256"
        },
        {
          "internalType": "uint8",
          "name": "choice",
          "type": "uint8"
        },
        {
          "internalType": "uint256",
          "name": "salt",
          "type": "uint256"
        }
      ],
      "name": "revealBet",
      "outputs": [],
      "stateMutability": "nonpayable",
      "type": "function"
    },
    {
      "inputs": [
        {
          "internalType": "bytes32",
          "name": "role",
          "type": "bytes32"
        },
        {
          "internalType": "address",
          "name": "account",
          "type": "address"
        }
      ],
      "name": "revokeRole",
      "outputs": [],
      "stateMutability": "nonpayable",
      "type": "function"
    },
    {
      "inputs": [
        {
          "internalType": "string",
          "name": "ipfsCid",
          "type": "string"
        },
        {
          "internalType": "uint256",
          "name": "biddingDuration",
          "type": "uint256"
        },
        {
          "internalType": "uint256",
          "name": "revealDuration",
          "type": "uint256"
        }
      ],
      "name": "submitStatement",
      "outputs": [],
      "stateMutability": "nonpayable",
      "type": "function"
    },
    {
      "inputs": [
        {
          "internalType": "bytes4",
          "name": "interfaceId",
          "type": "bytes4"
        }
      ],
      "name": "supportsInterface",
      "outputs": [
        {
          "internalType": "bool",
          "name": "",
          "type": "bool"
        }
      ],
      "stateMutability": "view",
      "type": "function"
    },
    {
      "inputs": [],
      "name": "token",
      "outputs": [
        {
          "internalType": "contract AlphaHelixToken",
          "name": "",
          "type": "address"
        }
      ],
      "stateMutability": "view",
      "type": "function"
    }
  ],
  "bytecode": "0x60a06040523480156200001157600080fd5b506040516200350438038062003504833981810160405281019062000037919062000270565b60016000819055508073ffffffffffffffffffffffffffffffffffffffff1660808173ffffffffffffffffffffffffffffffffffffffff1681525050620000886000801b336200009060201b60201c565b5050620002a2565b6000620000a483836200019360201b60201c565b6200018857600180600085815260200190815260200160002060000160008473ffffffffffffffffffffffffffffffffffffffff1673ffffffffffffffffffffffffffffffffffffffff16815260200190815260200160002060006101000a81548160ff02191690831515021790555062000124620001fe60201b60201c565b73ffffffffffffffffffffffffffffffffffffffff168273ffffffffffffffffffffffffffffffffffffffff16847f2f8788117e7eff1d82e926ec794901d17c78024a50270940304540a733656f0d60405160405180910390a4600190506200018d565b600090505b92915050565b60006001600084815260200190815260200160002060000160008373ffffffffffffffffffffffffffffffffffffffff1673ffffffffffffffffffffffffffffffffffffffff16815260200190815260200160002060009054906101000a900460ff16905092915050565b600033905090565b600080fd5b600073ffffffffffffffffffffffffffffffffffffffff82169050919050565b600062000238826200020b565b9050919050565b6200024a816200022b565b81146200025657600080fd5b50565b6000815190506200026a816200023f565b92915050565b60006020828403121562000289576200028862000206565b5b6000620002998482850162000259565b91505092915050565b608051613223620002e16000396000818161048d01528181610575015281816107be015281816110970152818161129b0152611b5401526132236000f3fe608060405234801561001057600080fd5b506004361061012c5760003560e01c8063885d68a8116100ad578063b1283e7711610071578063b1283e7714610365578063cdbf95821461039d578063d547741f146103b9578063ec979082146103d5578063fc0c546a146103f35761012c565b8063885d68a8146102875780638f99230e146102b757806391d14854146102e7578063a217fddf14610317578063a99ef9f5146103355761012c565b80632f2ff15d116100f45780632f2ff15d146101e757806336568abe14610203578063379607f51461021f5780634f896d4f1461023b57806357cb0c11146102575761012c565b806301ffc9a7146101315780631204078d146101615780631b88272a1461017d578063248a9ca3146101995780632e8f036a146101c9575b600080fd5b61014b60048036038101906101469190611e9d565b610411565b6040516101589190611ee5565b60405180910390f35b61017b6004803603810190610176919061207c565b61048b565b005b61019760048036038101906101929190612121565b61071c565b005b6101b360048036038101906101ae9190612174565b610a1a565b6040516101c091906121b0565b60405180910390f35b6101d1610a3a565b6040516101de91906121da565b60405180910390f35b61020160048036038101906101fc9190612253565b610a47565b005b61021d60048036038101906102189190612253565b610a69565b005b61023960048036038101906102349190612293565b610ae4565b005b61025560048036038101906102509190612293565b61117c565b005b610271600480360381019061026c91906122c0565b611420565b60405161027e91906121da565b60405180910390f35b6102a1600480360381019061029c91906122c0565b611445565b6040516102ae91906121b0565b60405180910390f35b6102d160048036038101906102cc9190612339565b61146a565b6040516102de91906121da565b60405180910390f35b61030160048036038101906102fc9190612253565b61149c565b60405161030e9190611ee5565b60405180910390f35b61031f611507565b60405161032c91906121b0565b60405180910390f35b61034f600480360381019061034a91906122c0565b61150e565b60405161035c9190611ee5565b60405180910390f35b61037f600480360381019061037a9190612293565b61153d565b6040516103949998979695949392919061241a565b60405180910390f35b6103b760048036038101906103b291906124ae565b61164d565b005b6103d360048036038101906103ce9190612253565b611b2a565b005b6103dd611b4c565b6040516103ea91906121da565b60405180910390f35b6103fb611b52565b6040516104089190612560565b60405180910390f35b60007f7965db0b000000000000000000000000000000000000000000000000000000007bffffffffffffffffffffffffffffffffffffffffffffffffffffffff1916827bffffffffffffffffffffffffffffffffffffffffffffffffffffffff19161480610484575061048382611b76565b5b9050919050565b7f000000000000000000000000000000000000000000000000000000000000000073ffffffffffffffffffffffffffffffffffffffff166323b872dd333068056bc75e2d631000006040518463ffffffff1660e01b81526004016104f19392919061257b565b6020604051808303816000875af1158015610510573d6000803e3d6000fd5b505050506040513d601f19601f8201168201806040525081019061053491906125de565b610573576040517f08c379a000000000000000000000000000000000000000000000000000000000815260040161056a90612657565b60405180910390fd5b7f000000000000000000000000000000000000000000000000000000000000000073ffffffffffffffffffffffffffffffffffffffff1663a9059cbb600068056bc75e2d631000006040518363ffffffff1660e01b81526004016105d8929190612677565b6020604051808303816000875af11580156105f7573d6000803e3d6000fd5b505050506040513d601f19601f8201168201806040525081019061061b91906125de565b50600060026000815480929190610631906126cf565b91905055905060006003600083815260200190815260200160002090508481600001908161065f9190612919565b50834261066c91906129eb565b816001018190555082816001015461068491906129eb565b8160020181905550338160060160026101000a81548173ffffffffffffffffffffffffffffffffffffffff021916908373ffffffffffffffffffffffffffffffffffffffff160217905550817fb0f44ab77840631afd2f642daa49e5d268bce7babf6c72558f47c5d027413b9886836001015484600201543360405161070d9493929190612a1f565b60405180910390a25050505050565b600060036000858152602001908152602001600020905080600101544210610779576040517f08c379a000000000000000000000000000000000000000000000000000000000815260040161077090612ab7565b60405180910390fd5b600082116107bc576040517f08c379a00000000000000000000000000000000000000000000000000000000081526004016107b390612b23565b60405180910390fd5b7f000000000000000000000000000000000000000000000000000000000000000073ffffffffffffffffffffffffffffffffffffffff166323b872dd3330856040518463ffffffff1660e01b81526004016108199392919061257b565b6020604051808303816000875af1158015610838573d6000803e3d6000fd5b505050506040513d601f19601f8201168201806040525081019061085c91906125de565b61089b576040517f08c379a000000000000000000000000000000000000000000000000000000000815260040161089290612b8f565b60405180910390fd5b826004600086815260200190815260200160002060003373ffffffffffffffffffffffffffffffffffffffff1673ffffffffffffffffffffffffffffffffffffffff1681526020019081526020016000208190555060016005600086815260200190815260200160002060003373ffffffffffffffffffffffffffffffffffffffff1673ffffffffffffffffffffffffffffffffffffffff16815260200190815260200160002060006101000a81548160ff021916908315150217905550816006600086815260200190815260200160002060003373ffffffffffffffffffffffffffffffffffffffff1673ffffffffffffffffffffffffffffffffffffffff1681526020019081526020016000206000600360ff168152602001908152602001600020819055503373ffffffffffffffffffffffffffffffffffffffff16847fc02f2358fe181cc846163d0ca2cd612408cef67a7acdbb92cd09045df0e2fd9a8585604051610a0c929190612baf565b60405180910390a350505050565b600060016000838152602001908152602001600020600101549050919050565b68056bc75e2d6310000081565b610a5082610a1a565b610a5981611be0565b610a638383611bf4565b50505050565b610a71611ce5565b73ffffffffffffffffffffffffffffffffffffffff168173ffffffffffffffffffffffffffffffffffffffff1614610ad5576040517f6697b23200000000000000000000000000000000000000000000000000000000815260040160405180910390fd5b610adf8282611ced565b505050565b60006003600083815260200190815260200160002090508060060160009054906101000a900460ff16610b4c576040517f08c379a0000000000000000000000000000000000000000000000000000000008152600401610b4390612c24565b60405180910390fd5b6000806000836005015484600401548560030154610b6a91906129eb565b610b7491906129eb565b90506000606482610b859190612c73565b905060008183610b959190612ca4565b90508560040154866003015403610cf5576006600088815260200190815260200160002060003373ffffffffffffffffffffffffffffffffffffffff1673ffffffffffffffffffffffffffffffffffffffff1681526020019081526020016000206000600260ff168152602001908152602001600020546006600089815260200190815260200160002060003373ffffffffffffffffffffffffffffffffffffffff1673ffffffffffffffffffffffffffffffffffffffff1681526020019081526020016000206000600160ff16815260200190815260200160002054600660008a815260200190815260200160002060003373ffffffffffffffffffffffffffffffffffffffff1673ffffffffffffffffffffffffffffffffffffffff16815260200190815260200160002060008060ff16815260200190815260200160002054610ce191906129eb565b610ceb91906129eb565b9450829350610df0565b8560060160019054906101000a900460ff1615610d80576006600088815260200190815260200160002060003373ffffffffffffffffffffffffffffffffffffffff1673ffffffffffffffffffffffffffffffffffffffff1681526020019081526020016000206000600160ff16815260200190815260200160002054945085600301549350610def565b6006600088815260200190815260200160002060003373ffffffffffffffffffffffffffffffffffffffff1673ffffffffffffffffffffffffffffffffffffffff16815260200190815260200160002060008060ff168152602001908152602001600020549450856004015493505b5b60008511610e33576040517f08c379a0000000000000000000000000000000000000000000000000000000008152600401610e2a90612d24565b60405180910390fd5b8560040154866003015403610f875760006006600089815260200190815260200160002060003373ffffffffffffffffffffffffffffffffffffffff1673ffffffffffffffffffffffffffffffffffffffff16815260200190815260200160002060008060ff1681526020019081526020016000208190555060006006600089815260200190815260200160002060003373ffffffffffffffffffffffffffffffffffffffff1673ffffffffffffffffffffffffffffffffffffffff1681526020019081526020016000206000600160ff1681526020019081526020016000208190555060006006600089815260200190815260200160002060003373ffffffffffffffffffffffffffffffffffffffff1673ffffffffffffffffffffffffffffffffffffffff1681526020019081526020016000206000600260ff1681526020019081526020016000208190555061107a565b8560060160019054906101000a900460ff161561100e5760006006600089815260200190815260200160002060003373ffffffffffffffffffffffffffffffffffffffff1673ffffffffffffffffffffffffffffffffffffffff1681526020019081526020016000206000600160ff16815260200190815260200160002081905550611079565b60006006600089815260200190815260200160002060003373ffffffffffffffffffffffffffffffffffffffff1673ffffffffffffffffffffffffffffffffffffffff16815260200190815260200160002060008060ff168152602001908152602001600020819055505b5b60008482876110899190612d44565b6110939190612c73565b90507f000000000000000000000000000000000000000000000000000000000000000073ffffffffffffffffffffffffffffffffffffffff1663a9059cbb33836040518363ffffffff1660e01b81526004016110f0929190612677565b6020604051808303816000875af115801561110f573d6000803e3d6000fd5b505050506040513d601f19601f8201168201806040525081019061113391906125de565b611172576040517f08c379a000000000000000000000000000000000000000000000000000000000815260040161116990612b8f565b60405180910390fd5b5050505050505050565b6000600360008381526020019081526020016000209050806002015442116111d9576040517f08c379a00000000000000000000000000000000000000000000000000000000081526004016111d090612dd2565b60405180910390fd5b8060060160009054906101000a900460ff161561122b576040517f08c379a000000000000000000000000000000000000000000000000000000000815260040161122290612e3e565b60405180910390fd5b60018160060160006101000a81548160ff021916908315150217905550600081600501548260040154836003015461126391906129eb565b61126d91906129eb565b9050600060648261127e9190612c73565b90506000818361128e9190612ca4565b9050600082111561135d577f000000000000000000000000000000000000000000000000000000000000000073ffffffffffffffffffffffffffffffffffffffff1663a9059cbb8560060160029054906101000a900473ffffffffffffffffffffffffffffffffffffffff16846040518363ffffffff1660e01b8152600401611318929190612677565b6020604051808303816000875af1158015611337573d6000803e3d6000fd5b505050506040513d601f19601f8201168201806040525081019061135b91906125de565b505b60008460040154856003015411156113915760018560060160016101000a81548160ff0219169083151502179055506113c9565b8460030154856004015411156113c35760008560060160016101000a81548160ff0219169083151502179055506113c8565b600190505b5b857fcf0a48d2ad3f7480002e60b1eda352f90145d89af44eb49e792dad0233f533b18660060160019054906101000a900460ff168387876040516114109493929190612e5e565b60405180910390a2505050505050565b6007602052816000526040600020602052806000526040600020600091509150505481565b6004602052816000526040600020602052806000526040600020600091509150505481565b600660205282600052604060002060205281600052604060002060205280600052604060002060009250925050505481565b60006001600084815260200190815260200160002060000160008373ffffffffffffffffffffffffffffffffffffffff1673ffffffffffffffffffffffffffffffffffffffff16815260200190815260200160002060009054906101000a900460ff16905092915050565b6000801b81565b60056020528160005260406000206020528060005260406000206000915091509054906101000a900460ff1681565b600360205280600052604060002060009150905080600001805461156090612746565b80601f016020809104026020016040519081016040528092919081815260200182805461158c90612746565b80156115d95780601f106115ae576101008083540402835291602001916115d9565b820191906000526020600020905b8154815290600101906020018083116115bc57829003601f168201915b5050505050908060010154908060020154908060030154908060040154908060050154908060060160009054906101000a900460ff16908060060160019054906101000a900460ff16908060060160029054906101000a900473ffffffffffffffffffffffffffffffffffffffff16905089565b600060036000858152602001908152602001600020905080600101544210156116ab576040517f08c379a00000000000000000000000000000000000000000000000000000000081526004016116a290612eef565b60405180910390fd5b806002015442106116f1576040517f08c379a00000000000000000000000000000000000000000000000000000000081526004016116e890612f5b565b60405180910390fd5b60006004600086815260200190815260200160002060003373ffffffffffffffffffffffffffffffffffffffff1673ffffffffffffffffffffffffffffffffffffffff1681526020019081526020016000205490506000801b810361178b576040517f08c379a000000000000000000000000000000000000000000000000000000000815260040161178290612fc7565b60405180910390fd5b808484336040516020016117a193929190613086565b60405160208183030381529060405280519060200120146117f7576040517f08c379a00000000000000000000000000000000000000000000000000000000081526004016117ee9061310f565b60405180910390fd5b60006007600087815260200190815260200160002060003373ffffffffffffffffffffffffffffffffffffffff1673ffffffffffffffffffffffffffffffffffffffff1681526020019081526020016000205490506000811161188f576040517f08c379a00000000000000000000000000000000000000000000000000000000081526004016118869061317b565b60405180910390fd5b60006007600088815260200190815260200160002060003373ffffffffffffffffffffffffffffffffffffffff1673ffffffffffffffffffffffffffffffffffffffff1681526020019081526020016000208190555060018560ff160361198c578083600301600082825461190491906129eb565b92505081905550806006600088815260200190815260200160002060003373ffffffffffffffffffffffffffffffffffffffff1673ffffffffffffffffffffffffffffffffffffffff1681526020019081526020016000206000600160ff168152602001908152602001600020600082825461198091906129eb565b92505081905550611acb565b60008560ff1603611a3257808360040160008282546119ab91906129eb565b92505081905550806006600088815260200190815260200160002060003373ffffffffffffffffffffffffffffffffffffffff1673ffffffffffffffffffffffffffffffffffffffff16815260200190815260200160002060008060ff1681526020019081526020016000206000828254611a2691906129eb565b92505081905550611aca565b80836005016000828254611a4691906129eb565b92505081905550806006600088815260200190815260200160002060003373ffffffffffffffffffffffffffffffffffffffff1673ffffffffffffffffffffffffffffffffffffffff1681526020019081526020016000206000600260ff1681526020019081526020016000206000828254611ac291906129eb565b925050819055505b5b3373ffffffffffffffffffffffffffffffffffffffff16867f423d5ce55fb03e304e81173c4b9e763c017d818cd6af449e05f3ebad12a34d1b60018860ff161484604051611b1a92919061319b565b60405180910390a3505050505050565b611b3382610a1a565b611b3c81611be0565b611b468383611ced565b50505050565b60025481565b7f000000000000000000000000000000000000000000000000000000000000000081565b60007f01ffc9a7000000000000000000000000000000000000000000000000000000007bffffffffffffffffffffffffffffffffffffffffffffffffffffffff1916827bffffffffffffffffffffffffffffffffffffffffffffffffffffffff1916149050919050565b611bf181611bec611ce5565b611de0565b50565b6000611c00838361149c565b611cda57600180600085815260200190815260200160002060000160008473ffffffffffffffffffffffffffffffffffffffff1673ffffffffffffffffffffffffffffffffffffffff16815260200190815260200160002060006101000a81548160ff021916908315150217905550611c77611ce5565b73ffffffffffffffffffffffffffffffffffffffff168273ffffffffffffffffffffffffffffffffffffffff16847f2f8788117e7eff1d82e926ec794901d17c78024a50270940304540a733656f0d60405160405180910390a460019050611cdf565b600090505b92915050565b600033905090565b6000611cf9838361149c565b15611dd55760006001600085815260200190815260200160002060000160008473ffffffffffffffffffffffffffffffffffffffff1673ffffffffffffffffffffffffffffffffffffffff16815260200190815260200160002060006101000a81548160ff021916908315150217905550611d72611ce5565b73ffffffffffffffffffffffffffffffffffffffff168273ffffffffffffffffffffffffffffffffffffffff16847ff6391f5c32d9c69d2a47ea670b442974b53935d1edc7fd64eb21e047a839171b60405160405180910390a460019050611dda565b600090505b92915050565b611dea828261149c565b611e2d5780826040517fe2517d3f000000000000000000000000000000000000000000000000000000008152600401611e249291906131c4565b60405180910390fd5b5050565b6000604051905090565b600080fd5b600080fd5b60007fffffffff0000000000000000000000000000000000000000000000000000000082169050919050565b611e7a81611e45565b8114611e8557600080fd5b50565b600081359050611e9781611e71565b92915050565b600060208284031215611eb357611eb2611e3b565b5b6000611ec184828501611e88565b91505092915050565b60008115159050919050565b611edf81611eca565b82525050565b6000602082019050611efa6000830184611ed6565b92915050565b600080fd5b600080fd5b6000601f19601f8301169050919050565b7f4e487b7100000000000000000000000000000000000000000000000000000000600052604160045260246000fd5b611f5382611f0a565b810181811067ffffffffffffffff82111715611f7257611f71611f1b565b5b80604052505050565b6000611f85611e31565b9050611f918282611f4a565b919050565b600067ffffffffffffffff821115611fb157611fb0611f1b565b5b611fba82611f0a565b9050602081019050919050565b82818337600083830152505050565b6000611fe9611fe484611f96565b611f7b565b90508281526020810184848401111561200557612004611f05565b5b612010848285611fc7565b509392505050565b600082601f83011261202d5761202c611f00565b5b813561203d848260208601611fd6565b91505092915050565b6000819050919050565b61205981612046565b811461206457600080fd5b50565b60008135905061207681612050565b92915050565b60008060006060848603121561209557612094611e3b565b5b600084013567ffffffffffffffff8111156120b3576120b2611e40565b5b6120bf86828701612018565b93505060206120d086828701612067565b92505060406120e186828701612067565b9150509250925092565b6000819050919050565b6120fe816120eb565b811461210957600080fd5b50565b60008135905061211b816120f5565b92915050565b60008060006060848603121561213a57612139611e3b565b5b600061214886828701612067565b93505060206121598682870161210c565b925050604061216a86828701612067565b9150509250925092565b60006020828403121561218a57612189611e3b565b5b60006121988482850161210c565b91505092915050565b6121aa816120eb565b82525050565b60006020820190506121c560008301846121a1565b92915050565b6121d481612046565b82525050565b60006020820190506121ef60008301846121cb565b92915050565b600073ffffffffffffffffffffffffffffffffffffffff82169050919050565b6000612220826121f5565b9050919050565b61223081612215565b811461223b57600080fd5b50565b60008135905061224d81612227565b92915050565b6000806040838503121561226a57612269611e3b565b5b60006122788582860161210c565b92505060206122898582860161223e565b9150509250929050565b6000602082840312156122a9576122a8611e3b565b5b60006122b784828501612067565b91505092915050565b600080604083850312156122d7576122d6611e3b565b5b60006122e585828601612067565b92505060206122f68582860161223e565b9150509250929050565b600060ff82169050919050565b61231681612300565b811461232157600080fd5b50565b6000813590506123338161230d565b92915050565b60008060006060848603121561235257612351611e3b565b5b600061236086828701612067565b93505060206123718682870161223e565b925050604061238286828701612324565b9150509250925092565b600081519050919050565b600082825260208201905092915050565b60005b838110156123c65780820151818401526020810190506123ab565b60008484015250505050565b60006123dd8261238c565b6123e78185612397565b93506123f78185602086016123a8565b61240081611f0a565b840191505092915050565b61241481612215565b82525050565b6000610120820190508181036000830152612435818c6123d2565b9050612444602083018b6121cb565b612451604083018a6121cb565b61245e60608301896121cb565b61246b60808301886121cb565b61247860a08301876121cb565b61248560c0830186611ed6565b61249260e0830185611ed6565b6124a061010083018461240b565b9a9950505050505050505050565b6000806000606084860312156124c7576124c6611e3b565b5b60006124d586828701612067565b93505060206124e686828701612324565b92505060406124f786828701612067565b9150509250925092565b6000819050919050565b600061252661252161251c846121f5565b612501565b6121f5565b9050919050565b60006125388261250b565b9050919050565b600061254a8261252d565b9050919050565b61255a8161253f565b82525050565b60006020820190506125756000830184612551565b92915050565b6000606082019050612590600083018661240b565b61259d602083018561240b565b6125aa60408301846121cb565b949350505050565b6125bb81611eca565b81146125c657600080fd5b50565b6000815190506125d8816125b2565b92915050565b6000602082840312156125f4576125f3611e3b565b5b6000612602848285016125c9565b91505092915050565b7f466565207472616e73666572206661696c656400000000000000000000000000600082015250565b6000612641601383612397565b915061264c8261260b565b602082019050919050565b6000602082019050818103600083015261267081612634565b9050919050565b600060408201905061268c600083018561240b565b61269960208301846121cb565b9392505050565b7f4e487b7100000000000000000000000000000000000000000000000000000000600052601160045260246000fd5b60006126da82612046565b91507fffffffffffffffffffffffffffffffffffffffffffffffffffffffffffffffff820361270c5761270b6126a0565b5b600182019050919050565b7f4e487b7100000000000000000000000000000000000000000000000000000000600052602260045260246000fd5b6000600282049050600182168061275e57607f821691505b60208210810361277157612770612717565b5b50919050565b60008190508160005260206000209050919050565b60006020601f8301049050919050565b600082821b905092915050565b6000600883026127d97fffffffffffffffffffffffffffffffffffffffffffffffffffffffffffffffff8261279c565b6127e3868361279c565b95508019841693508086168417925050509392505050565b600061281661281161280c84612046565b612501565b612046565b9050919050565b6000819050919050565b612830836127fb565b61284461283c8261281d565b8484546127a9565b825550505050565b600090565b61285961284c565b612864818484612827565b505050565b5b818110156128885761287d600082612851565b60018101905061286a565b5050565b601f8211156128cd5761289e81612777565b6128a78461278c565b810160208510156128b6578190505b6128ca6128c28561278c565b830182612869565b50505b505050565b600082821c905092915050565b60006128f0600019846008026128d2565b1980831691505092915050565b600061290983836128df565b9150826002028217905092915050565b6129228261238c565b67ffffffffffffffff81111561293b5761293a611f1b565b5b6129458254612746565b61295082828561288c565b600060209050601f8311600181146129835760008415612971578287015190505b61297b85826128fd565b8655506129e3565b601f19841661299186612777565b60005b828110156129b957848901518255600182019150602085019450602081019050612994565b868310156129d657848901516129d2601f8916826128df565b8355505b6001600288020188555050505b505050505050565b60006129f682612046565b9150612a0183612046565b9250828201905080821115612a1957612a186126a0565b5b92915050565b60006080820190508181036000830152612a3981876123d2565b9050612a4860208301866121cb565b612a5560408301856121cb565b612a62606083018461240b565b95945050505050565b7f436f6d6d6974207068617365206f766572000000000000000000000000000000600082015250565b6000612aa1601183612397565b9150612aac82612a6b565b602082019050919050565b60006020820190508181036000830152612ad081612a94565b9050919050565b7f416d6f756e74206d757374206265203e20300000000000000000000000000000600082015250565b6000612b0d601283612397565b9150612b1882612ad7565b602082019050919050565b60006020820190508181036000830152612b3c81612b00565b9050919050565b7f5472616e73666572206661696c65640000000000000000000000000000000000600082015250565b6000612b79600f83612397565b9150612b8482612b43565b602082019050919050565b60006020820190508181036000830152612ba881612b6c565b9050919050565b6000604082019050612bc460008301856121a1565b612bd160208301846121cb565b9392505050565b7f4e6f74207265736f6c7665640000000000000000000000000000000000000000600082015250565b6000612c0e600c83612397565b9150612c1982612bd8565b602082019050919050565b60006020820190508181036000830152612c3d81612c01565b9050919050565b7f4e487b7100000000000000000000000000000000000000000000000000000000600052601260045260246000fd5b6000612c7e82612046565b9150612c8983612046565b925082612c9957612c98612c44565b5b828204905092915050565b6000612caf82612046565b9150612cba83612046565b9250828203905081811115612cd257612cd16126a0565b5b92915050565b7f4e6f2077696e6e696e6720626574000000000000000000000000000000000000600082015250565b6000612d0e600e83612397565b9150612d1982612cd8565b602082019050919050565b60006020820190508181036000830152612d3d81612d01565b9050919050565b6000612d4f82612046565b9150612d5a83612046565b9250828202612d6881612046565b91508282048414831517612d7f57612d7e6126a0565b5b5092915050565b7f52657665616c207068617365206e6f74206f7665720000000000000000000000600082015250565b6000612dbc601583612397565b9150612dc782612d86565b602082019050919050565b60006020820190508181036000830152612deb81612daf565b9050919050565b7f416c7265616479207265736f6c76656400000000000000000000000000000000600082015250565b6000612e28601083612397565b9150612e3382612df2565b602082019050919050565b60006020820190508181036000830152612e5781612e1b565b9050919050565b6000608082019050612e736000830187611ed6565b612e806020830186611ed6565b612e8d60408301856121cb565b612e9a60608301846121cb565b95945050505050565b7f436f6d6d6974207068617365206e6f7420616374697665000000000000000000600082015250565b6000612ed9601783612397565b9150612ee482612ea3565b602082019050919050565b60006020820190508181036000830152612f0881612ecc565b9050919050565b7f52657665616c207068617365206f766572000000000000000000000000000000600082015250565b6000612f45601183612397565b9150612f5082612f0f565b602082019050919050565b60006020820190508181036000830152612f7481612f38565b9050919050565b7f4e6f2062657420636f6d6d697474656400000000000000000000000000000000600082015250565b6000612fb1601083612397565b9150612fbc82612f7b565b602082019050919050565b60006020820190508181036000830152612fe081612fa4565b9050919050565b60008160f81b9050919050565b6000612fff82612fe7565b9050919050565b61301761301282612300565b612ff4565b82525050565b6000819050919050565b61303861303382612046565b61301d565b82525050565b60008160601b9050919050565b60006130568261303e565b9050919050565b60006130688261304b565b9050919050565b61308061307b82612215565b61305d565b82525050565b60006130928286613006565b6001820191506130a28285613027565b6020820191506130b2828461306f565b601482019150819050949350505050565b7f496e76616c696420686173682f72657665616c00000000000000000000000000600082015250565b60006130f9601383612397565b9150613104826130c3565b602082019050919050565b60006020820190508181036000830152613128816130ec565b9050919050565b7f416c72656164792072657665616c6564206f72206e6f20616d6f756e74000000600082015250565b6000613165601d83612397565b91506131708261312f565b602082019050919050565b6000602082019050818103600083015261319481613158565b9050919050565b60006040820190506131b06000830185611ed6565b6131bd60208301846121cb565b9392505050565b60006040820190506131d9600083018561240b565b6131e660208301846121a1565b939250505056fea2646970667358221220cd464c2d6b111e91fdf31ff93d71a98b148e5781208341f90149fd8e4adb584c64736f6c63430008140033",
  "linkReferences": {},
  "deployedLinkReferences": {}
}