{
  "_format": "hh-sol-artifact-1",
  "contractName": "HelixMarket",
  "sourceName": "contracts/HelixMarket.sol",
  "abi": [
    {
      "inputs": [
        {
          "internalType": "address",
          "name": "_token",
          "type": "address"
        }
      ],
      "stateMutability": "nonpayable",
      "type": "constructor"
    },
    {
      "inputs": [],
      "name": "ReentrancyGuardReentrantCall",
      "type": "error"
    },
    {
      "anonymous": false,
      "inputs": [
        {
          "indexed": true,
          "internalType": "uint256",
          "name": "marketId",
          "type": "uint256"
        },
        {
          "indexed": true,
          "internalType": "address",
          "name": "user",
          "type": "address"
        },
        {
          "indexed": false,
          "internalType": "bytes32",
          "name": "commitHash",
          "type": "bytes32"
        },
        {
          "indexed": false,
          "internalType": "uint256",
          "name": "amount",
          "type": "uint256"
        }
      ],
      "name": "BetCommitted",
      "type": "event"
    },
    {
      "anonymous": false,
      "inputs": [
        {
          "indexed": true,
          "internalType": "uint256",
          "name": "marketId",
          "type": "uint256"
        },
        {
          "indexed": true,
          "internalType": "address",
          "name": "user",
          "type": "address"
        },
        {
          "indexed": false,
          "internalType": "uint8",
          "name": "choice",
          "type": "uint8"
        },
        {
          "indexed": false,
          "internalType": "uint256",
          "name": "amount",
          "type": "uint256"
        }
      ],
      "name": "BetRevealed",
      "type": "event"
    },
    {
      "anonymous": false,
      "inputs": [
        {
          "indexed": true,
          "internalType": "uint256",
          "name": "marketId",
          "type": "uint256"
        },
        {
          "indexed": false,
          "internalType": "bool",
          "name": "outcome",
          "type": "bool"
        },
        {
          "indexed": false,
          "internalType": "bool",
          "name": "tie",
          "type": "bool"
        },
        {
          "indexed": false,
          "internalType": "uint256",
          "name": "totalPool",
          "type": "uint256"
        },
        {
          "indexed": false,
          "internalType": "uint256",
          "name": "originatorFee",
          "type": "uint256"
        }
      ],
      "name": "MarketResolved",
      "type": "event"
    },
    {
      "anonymous": false,
      "inputs": [
        {
          "indexed": true,
          "internalType": "uint256",
          "name": "marketId",
          "type": "uint256"
        },
        {
          "indexed": false,
          "internalType": "string",
          "name": "ipfsCid",
          "type": "string"
        },
        {
          "indexed": false,
          "internalType": "uint256",
          "name": "commitEndTime",
          "type": "uint256"
        },
        {
          "indexed": false,
          "internalType": "uint256",
          "name": "revealEndTime",
          "type": "uint256"
        },
        {
          "indexed": false,
          "internalType": "address",
          "name": "originator",
          "type": "address"
        }
      ],
      "name": "StatementCreated",
      "type": "event"
    },
    {
      "anonymous": false,
      "inputs": [
        {
          "indexed": true,
          "internalType": "uint256",
          "name": "marketId",
          "type": "uint256"
        },
        {
          "indexed": true,
          "internalType": "address",
          "name": "user",
          "type": "address"
        },
        {
          "indexed": false,
          "internalType": "uint256",
          "name": "amountReturned",
          "type": "uint256"
        },
        {
          "indexed": false,
          "internalType": "uint256",
          "name": "penaltyBurned",
          "type": "uint256"
        }
      ],
      "name": "UnrevealedWithdrawn",
      "type": "event"
    },
    {
      "inputs": [],
      "name": "MAX_CID_LENGTH",
      "outputs": [
        {
          "internalType": "uint256",
          "name": "",
          "type": "uint256"
        }
      ],
      "stateMutability": "view",
      "type": "function"
    },
    {
      "inputs": [],
      "name": "MIN_BIDDING_DURATION",
      "outputs": [
        {
          "internalType": "uint256",
          "name": "",
          "type": "uint256"
        }
      ],
      "stateMutability": "view",
      "type": "function"
    },
    {
      "inputs": [],
      "name": "MIN_REVEAL_DURATION",
      "outputs": [
        {
          "internalType": "uint256",
          "name": "",
          "type": "uint256"
        }
      ],
      "stateMutability": "view",
      "type": "function"
    },
    {
      "inputs": [],
      "name": "ORIGINATOR_FEE_BPS",
      "outputs": [
        {
          "internalType": "uint256",
          "name": "",
          "type": "uint256"
        }
      ],
      "stateMutability": "view",
      "type": "function"
    },
    {
      "inputs": [],
      "name": "STATEMENT_FEE",
      "outputs": [
        {
          "internalType": "uint256",
          "name": "",
          "type": "uint256"
        }
      ],
      "stateMutability": "view",
      "type": "function"
    },
    {
      "inputs": [],
      "name": "UNREVEALED_PENALTY_BPS",
      "outputs": [
        {
          "internalType": "uint256",
          "name": "",
          "type": "uint256"
        }
      ],
      "stateMutability": "view",
      "type": "function"
    },
    {
      "inputs": [
        {
          "internalType": "uint256",
          "name": "",
          "type": "uint256"
        },
        {
          "internalType": "address",
          "name": "",
          "type": "address"
        },
        {
          "internalType": "uint8",
          "name": "",
          "type": "uint8"
        }
      ],
      "name": "bets",
      "outputs": [
        {
          "internalType": "uint256",
          "name": "",
          "type": "uint256"
        }
      ],
      "stateMutability": "view",
      "type": "function"
    },
    {
      "inputs": [
        {
          "internalType": "uint256",
          "name": "marketId",
          "type": "uint256"
        }
      ],
      "name": "claim",
      "outputs": [],
      "stateMutability": "nonpayable",
      "type": "function"
    },
    {
      "inputs": [
        {
          "internalType": "uint256",
          "name": "marketId",
          "type": "uint256"
        },
        {
          "internalType": "bytes32",
          "name": "commitHash",
          "type": "bytes32"
        },
        {
          "internalType": "uint256",
          "name": "amount",
          "type": "uint256"
        }
      ],
      "name": "commitBet",
      "outputs": [],
      "stateMutability": "nonpayable",
      "type": "function"
    },
    {
      "inputs": [
        {
          "internalType": "uint256",
          "name": "",
          "type": "uint256"
        },
        {
          "internalType": "address",
          "name": "",
          "type": "address"
        }
      ],
      "name": "commits",
      "outputs": [
        {
          "internalType": "bytes32",
          "name": "",
          "type": "bytes32"
        }
      ],
      "stateMutability": "view",
      "type": "function"
    },
    {
      "inputs": [
        {
          "internalType": "uint256",
          "name": "",
          "type": "uint256"
        },
        {
          "internalType": "address",
          "name": "",
          "type": "address"
        }
      ],
      "name": "committedAmount",
      "outputs": [
        {
          "internalType": "uint256",
          "name": "",
          "type": "uint256"
        }
      ],
      "stateMutability": "view",
      "type": "function"
    },
    {
      "inputs": [
        {
          "internalType": "uint256",
          "name": "",
          "type": "uint256"
        },
        {
          "internalType": "address",
          "name": "",
          "type": "address"
        }
      ],
      "name": "hasCommitted",
      "outputs": [
        {
          "internalType": "bool",
          "name": "",
          "type": "bool"
        }
      ],
      "stateMutability": "view",
      "type": "function"
    },
    {
      "inputs": [],
      "name": "marketCount",
      "outputs": [
        {
          "internalType": "uint256",
          "name": "",
          "type": "uint256"
        }
      ],
      "stateMutability": "view",
      "type": "function"
    },
    {
      "inputs": [
        {
          "internalType": "uint256",
          "name": "",
          "type": "uint256"
        }
      ],
      "name": "markets",
      "outputs": [
        {
          "internalType": "string",
          "name": "ipfsCid",
          "type": "string"
        },
        {
          "internalType": "uint256",
          "name": "commitEndTime",
          "type": "uint256"
        },
        {
          "internalType": "uint256",
          "name": "revealEndTime",
          "type": "uint256"
        },
        {
          "internalType": "uint256",
          "name": "yesPool",
          "type": "uint256"
        },
        {
          "internalType": "uint256",
          "name": "noPool",
          "type": "uint256"
        },
        {
          "internalType": "uint256",
          "name": "unalignedPool",
          "type": "uint256"
        },
        {
          "internalType": "bool",
          "name": "resolved",
          "type": "bool"
        },
        {
          "internalType": "bool",
          "name": "outcome",
          "type": "bool"
        },
        {
          "internalType": "bool",
          "name": "tie",
          "type": "bool"
        },
        {
          "internalType": "address",
          "name": "originator",
          "type": "address"
        }
      ],
      "stateMutability": "view",
      "type": "function"
    },
    {
      "inputs": [
        {
          "internalType": "uint256",
          "name": "marketId",
          "type": "uint256"
        }
      ],
      "name": "resolve",
      "outputs": [],
      "stateMutability": "nonpayable",
      "type": "function"
    },
    {
      "inputs": [
        {
          "internalType": "uint256",
          "name": "marketId",
          "type": "uint256"
        },
        {
          "internalType": "uint8",
          "name": "choice",
          "type": "uint8"
        },
        {
          "internalType": "uint256",
          "name": "salt",
          "type": "uint256"
        }
      ],
      "name": "revealBet",
      "outputs": [],
      "stateMutability": "nonpayable",
      "type": "function"
    },
    {
      "inputs": [
        {
          "internalType": "string",
          "name": "ipfsCid",
          "type": "string"
        },
        {
          "internalType": "uint256",
          "name": "biddingDuration",
          "type": "uint256"
        },
        {
          "internalType": "uint256",
          "name": "revealDuration",
          "type": "uint256"
        }
      ],
      "name": "submitStatement",
      "outputs": [],
      "stateMutability": "nonpayable",
      "type": "function"
    },
    {
      "inputs": [],
      "name": "token",
      "outputs": [
        {
          "internalType": "contract AlphaHelixToken",
          "name": "",
          "type": "address"
        }
      ],
      "stateMutability": "view",
      "type": "function"
    },
    {
      "inputs": [
        {
          "internalType": "uint256",
          "name": "marketId",
          "type": "uint256"
        }
      ],
      "name": "withdrawUnrevealed",
      "outputs": [],
      "stateMutability": "nonpayable",
      "type": "function"
    }
  ],
  "bytecode": "0x60a060405234801561001057600080fd5b50604051611d6d380380611d6d83398101604081905261002f91610045565b60016000556001600160a01b0316608052610075565b60006020828403121561005757600080fd5b81516001600160a01b038116811461006e57600080fd5b9392505050565b608051611cac6100c1600039600081816102bf0152818161046501528181610542015281816107e701528181610a6401528181610cae0152818161136f015261144c0152611cac6000f3fe608060405234801561001057600080fd5b50600436106101215760003560e01c80638f99230e116100ad578063cdbf958211610071578063cdbf95821461029e578063d329db8f146101ca578063ec979082146102b1578063fc0c546a146102ba578063fe838b02146102f957600080fd5b80638f99230e146101fe578063a82da60d1461022f578063a99ef9f514610237578063b1283e7714610275578063b9e42385146101c257600080fd5b80634f896d4f116100f45780634f896d4f1461018457806357cb0c11146101975780635acd45be146101c2578063875aff8a146101ca578063885d68a8146101d357600080fd5b80631204078d146101265780631b88272a1461013b5780632e8f036a1461014e578063379607f514610171575b600080fd5b6101396101343660046117bd565b61030c565b005b610139610149366004611881565b6106c5565b61015e68056bc75e2d6310000081565b6040519081526020015b60405180910390f35b61013961017f3660046118ad565b610944565b6101396101923660046118ad565b610b29565b61015e6101a53660046118e2565b600660209081526000928352604080842090915290825290205481565b61015e606481565b61015e610e1081565b61015e6101e13660046118e2565b600360209081526000928352604080842090915290825290205481565b61015e61020c36600461191f565b600560209081526000938452604080852082529284528284209052825290205481565b61015e608081565b6102656102453660046118e2565b600460209081526000928352604080842090915290825290205460ff1681565b6040519015158152602001610168565b6102886102833660046118ad565b610d8c565b6040516101689a999897969594939291906119a1565b6101396102ac366004611a0a565b610e77565b61015e60015481565b6102e17f000000000000000000000000000000000000000000000000000000000000000081565b6040516001600160a01b039091168152602001610168565b6101396103073660046118ad565b611230565b610314611551565b60008351116103565760405162461bcd60e51b815260206004820152600960248201526843494420656d70747960b81b60448201526064015b60405180910390fd5b6080835111156103975760405162461bcd60e51b815260206004820152600c60248201526b43494420746f6f206c6f6e6760a01b604482015260640161034d565b610e108210156103e95760405162461bcd60e51b815260206004820152601a60248201527f42696464696e67206475726174696f6e20746f6f2073686f7274000000000000604482015260640161034d565b610e1081101561043b5760405162461bcd60e51b815260206004820152601960248201527f52657665616c206475726174696f6e20746f6f2073686f727400000000000000604482015260640161034d565b6040516323b872dd60e01b815233600482015230602482015268056bc75e2d6310000060448201527f00000000000000000000000000000000000000000000000000000000000000006001600160a01b0316906323b872dd906064016020604051808303816000875af11580156104b6573d6000803e3d6000fd5b505050506040513d601f19601f820116820180604052508101906104da9190611a3f565b61051c5760405162461bcd60e51b8152602060048201526013602482015272119959481d1c985b9cd9995c8819985a5b1959606a1b604482015260640161034d565b60405163a9059cbb60e01b815261dead600482015268056bc75e2d6310000060248201527f00000000000000000000000000000000000000000000000000000000000000006001600160a01b03169063a9059cbb906044016020604051808303816000875af1158015610593573d6000803e3d6000fd5b505050506040513d601f19601f820116820180604052508101906105b79190611a3f565b6105fa5760405162461bcd60e51b8152602060048201526014602482015273109d5c9b881d1c985b9cd9995c8819985a5b195960621b604482015260640161034d565b600180546000918261060b83611a7e565b9091555060008181526002602052604090209091508061062b8682611b1f565b506106368442611bdf565b60018201819055610648908490611bdf565b600282018190556006820180546301000000600160b81b031916336301000000810291909117909155600183015460405185937fb0f44ab77840631afd2f642daa49e5d268bce7babf6c72558f47c5d027413b98936106ac938b9390929190611bf2565b60405180910390a250506106c06001600055565b505050565b6106cd611551565b6000838152600260205260409020600181015442106107225760405162461bcd60e51b815260206004820152601160248201527021b7b6b6b4ba10383430b9b29037bb32b960791b604482015260640161034d565b600082116107675760405162461bcd60e51b81526020600482015260126024820152710416d6f756e74206d757374206265203e20360741b604482015260640161034d565b600084815260046020908152604080832033845290915290205460ff16156107c55760405162461bcd60e51b8152602060048201526011602482015270105b1c9958591e4818dbdb5b5a5d1d1959607a1b604482015260640161034d565b6040516323b872dd60e01b8152336004820152306024820152604481018390527f00000000000000000000000000000000000000000000000000000000000000006001600160a01b0316906323b872dd906064016020604051808303816000875af1158015610838573d6000803e3d6000fd5b505050506040513d601f19601f8201168201806040525081019061085c9190611a3f565b61089a5760405162461bcd60e51b815260206004820152600f60248201526e151c985b9cd9995c8819985a5b1959608a1b604482015260640161034d565b600084815260036020908152604080832033808552908352818420879055878452600483528184208185528352818420805460ff1916600117905587845260068352818420908452909152812080548492906108f7908490611bdf565b90915550506040805184815260208101849052339186917fc02f2358fe181cc846163d0ca2cd612408cef67a7acdbb92cd09045df0e2fd9a910160405180910390a3506106c06001600055565b61094c611551565b6000818152600260205260409020600681015460ff1661099d5760405162461bcd60e51b815260206004820152600c60248201526b139bdd081c995cdbdb1d995960a21b604482015260640161034d565b60008060006109ac848661157b565b925092509250600083116109f35760405162461bcd60e51b815260206004820152600e60248201526d139bc81dda5b9b9a5b99c818995d60921b604482015260640161034d565b6006840154610a1490869060ff6201000082048116916101009004166116bb565b600684015460009062010000900460ff16610a435782610a348386611c2a565b610a3e9190611c41565b610a45565b835b60405163a9059cbb60e01b8152336004820152602481018290529091507f00000000000000000000000000000000000000000000000000000000000000006001600160a01b03169063a9059cbb906044016020604051808303816000875af1158015610ab5573d6000803e3d6000fd5b505050506040513d601f19601f82011682018060405250810190610ad99190611a3f565b610b175760405162461bcd60e51b815260206004820152600f60248201526e151c985b9cd9995c8819985a5b1959608a1b604482015260640161034d565b5050505050610b266001600055565b50565b610b31611551565b6000818152600260208190526040909120908101544211610b8c5760405162461bcd60e51b81526020600482015260156024820152742932bb32b0b610383430b9b2903737ba1037bb32b960591b604482015260640161034d565b600681015460ff1615610bd45760405162461bcd60e51b815260206004820152601060248201526f105b1c9958591e481c995cdbdb1d995960821b604482015260640161034d565b60068101805460ff1916600117905560038101546004820154610bf7919061174e565b600683018054921515620100000262ff000019921515610100029290921662ffff00199093169290921717905560058101546004820154600383015460009291610c4091611bdf565b610c4a9190611bdf565b600683015490915060009062010000900460ff16610c7057610c6b82611787565b610c73565b60005b90508015610d1d57600683015460405163a9059cbb60e01b815263010000009091046001600160a01b039081166004830152602482018390527f0000000000000000000000000000000000000000000000000000000000000000169063a9059cbb906044016020604051808303816000875af1158015610cf7573d6000803e3d6000fd5b505050506040513d601f19601f82011682018060405250810190610d1b9190611a3f565b505b60068301546040805160ff6101008404811615158252620100009093049092161515602083015281018390526060810182905284907fcf0a48d2ad3f7480002e60b1eda352f90145d89af44eb49e792dad0233f533b19060800160405180910390a2505050610b266001600055565b600260205260009081526040902080548190610da790611a97565b80601f0160208091040260200160405190810160405280929190818152602001828054610dd390611a97565b8015610e205780601f10610df557610100808354040283529160200191610e20565b820191906000526020600020905b815481529060010190602001808311610e0357829003601f168201915b5050505060018301546002840154600385015460048601546005870154600690970154959693959294509092909160ff8082169161010081048216916201000082041690630100000090046001600160a01b03168a565b610e7f611551565b60008381526002602052604090206001810154421015610ee15760405162461bcd60e51b815260206004820152601760248201527f436f6d6d6974207068617365206e6f7420616374697665000000000000000000604482015260640161034d565b80600201544210610f285760405162461bcd60e51b81526020600482015260116024820152702932bb32b0b610383430b9b29037bb32b960791b604482015260640161034d565b600084815260036020908152604080832033845290915290205480610f825760405162461bcd60e51b815260206004820152601060248201526f139bc818995d0818dbdb5b5a5d1d195960821b604482015260640161034d565b6040516001600160f81b031960f886901b166020820152602181018490526bffffffffffffffffffffffff193360601b166041820152819060550160405160208183030381529060405280519060200120146110165760405162461bcd60e51b8152602060048201526013602482015272125b9d985b1a59081a185cda0bdc995d99585b606a1b604482015260640161034d565b60008581526006602090815260408083203384529091529020548061107d5760405162461bcd60e51b815260206004820152601d60248201527f416c72656164792072657665616c6564206f72206e6f20616d6f756e74000000604482015260640161034d565b6000868152600660209081526040808320338452909152812055600260ff861611156110dc5760405162461bcd60e51b815260206004820152600e60248201526d496e76616c69642063686f69636560901b604482015260640161034d565b8460ff1660010361113d57808360030160008282546110fb9190611bdf565b9091555050600086815260056020908152604080832033845282528083206001845290915281208054839290611132908490611bdf565b909155506111e39050565b8460ff16600003611192578083600401600082825461115c9190611bdf565b90915550506000868152600560209081526040808320338452825280832083805290915281208054839290611132908490611bdf565b808360050160008282546111a69190611bdf565b90915550506000868152600560209081526040808320338452825280832060028452909152812080548392906111dd908490611bdf565b90915550505b6040805160ff8716815260208101839052339188917f69cbe73b5f08f9347a0159dd589b5e7ea7f54d8b523f6bbe183c1a7c13b6dba7910160405180910390a35050506106c06001600055565b611238611551565b60008181526002602081905260409091209081015442116112935760405162461bcd60e51b81526020600482015260156024820152742932bb32b0b610383430b9b2903737ba1037bb32b960591b604482015260640161034d565b6000828152600660209081526040808320338452909152902054806112f05760405162461bcd60e51b81526020600482015260136024820152724e6f20756e72657665616c6564207374616b6560681b604482015260640161034d565b600083815260066020908152604080832033808552908352818420849055868452600383528184209084529091528120819055612710611331606484611c2a565b61133b9190611c41565b905060006113498284611c63565b905081156114305760405163a9059cbb60e01b815261dead6004820152602481018390527f00000000000000000000000000000000000000000000000000000000000000006001600160a01b03169063a9059cbb906044016020604051808303816000875af11580156113c0573d6000803e3d6000fd5b505050506040513d601f19601f820116820180604052508101906113e49190611a3f565b6114305760405162461bcd60e51b815260206004820152601760248201527f50656e616c7479207472616e73666572206661696c6564000000000000000000604482015260640161034d565b60405163a9059cbb60e01b8152336004820152602481018290527f00000000000000000000000000000000000000000000000000000000000000006001600160a01b03169063a9059cbb906044016020604051808303816000875af115801561149d573d6000803e3d6000fd5b505050506040513d601f19601f820116820180604052508101906114c19190611a3f565b6115065760405162461bcd60e51b81526020600482015260166024820152751499599d5b99081d1c985b9cd9995c8819985a5b195960521b604482015260640161034d565b6040805182815260208101849052339187917f8bb26e72aaf6e900094ea180bfbe84450e669b3c57d843fa18e33e40a46616f5910160405180910390a350505050610b266001600055565b60026000540361157457604051633ee5aeb560e01b815260040160405180910390fd5b6002600055565b60008060008085600501548660040154876003015461159a9190611bdf565b6115a49190611bdf565b600687015490915060009062010000900460ff166115ca576115c582611787565b6115cd565b60005b90506115d98183611c63565b600688015490935062010000900460ff1615611641576000868152600560209081526040808320338452825280832060028452909152808220546001835281832054838052919092205461162d9190611bdf565b6116379190611bdf565b94508193506116b2565b6006870154610100900460ff1615611685576000868152600560209081526040808320338452825280832060018452909152902054600388015490955093506116b2565b60008681526005602090815260408083203384528252808320838052909152902054600488015490955093505b50509250925092565b81156116fb575050600090815260056020908152604080832033845282528083208380529091528082208290556001825280822082905560028252812055565b80156117285750506000908152600560209081526040808320338452825280832060018452909152812055565b505060009081526005602090815260408083203384528252808320838052909152812055565b600080828411156117655750600090506001611780565b8383111561177857506000905080611780565b506001905060005b9250929050565b6000612710611797606484611c2a565b6117a19190611c41565b92915050565b634e487b7160e01b600052604160045260246000fd5b6000806000606084860312156117d257600080fd5b833567ffffffffffffffff808211156117ea57600080fd5b818601915086601f8301126117fe57600080fd5b813581811115611810576118106117a7565b604051601f8201601f19908116603f01168101908382118183101715611838576118386117a7565b8160405282815289602084870101111561185157600080fd5b82602086016020830137600060208483010152809750505050505060208401359150604084013590509250925092565b60008060006060848603121561189657600080fd5b505081359360208301359350604090920135919050565b6000602082840312156118bf57600080fd5b5035919050565b80356001600160a01b03811681146118dd57600080fd5b919050565b600080604083850312156118f557600080fd5b82359150611905602084016118c6565b90509250929050565b803560ff811681146118dd57600080fd5b60008060006060848603121561193457600080fd5b83359250611944602085016118c6565b91506119526040850161190e565b90509250925092565b6000815180845260005b8181101561198157602081850181015186830182015201611965565b506000602082860101526020601f19601f83011685010191505092915050565b60006101408083526119b58184018e61195b565b602084019c909c52505060408101989098526060880196909652608087019490945260a0860192909252151560c0850152151560e084015215156101008301526001600160a01b031661012090910152919050565b600080600060608486031215611a1f57600080fd5b83359250611a2f6020850161190e565b9150604084013590509250925092565b600060208284031215611a5157600080fd5b81518015158114611a6157600080fd5b9392505050565b634e487b7160e01b600052601160045260246000fd5b600060018201611a9057611a90611a68565b5060010190565b600181811c90821680611aab57607f821691505b602082108103611acb57634e487b7160e01b600052602260045260246000fd5b50919050565b601f8211156106c057600081815260208120601f850160051c81016020861015611af85750805b601f850160051c820191505b81811015611b1757828155600101611b04565b505050505050565b815167ffffffffffffffff811115611b3957611b396117a7565b611b4d81611b478454611a97565b84611ad1565b602080601f831160018114611b825760008415611b6a5750858301515b600019600386901b1c1916600185901b178555611b17565b600085815260208120601f198616915b82811015611bb157888601518255948401946001909101908401611b92565b5085821015611bcf5787850151600019600388901b60f8161c191681555b5050505050600190811b01905550565b808201808211156117a1576117a1611a68565b608081526000611c05608083018761195b565b60208301959095525060408101929092526001600160a01b0316606090910152919050565b80820281158282048414176117a1576117a1611a68565b600082611c5e57634e487b7160e01b600052601260045260246000fd5b500490565b818103818111156117a1576117a1611a6856fea2646970667358221220a2eedf99ff78cb8b6e0678b7c63080cfc51e63dd410812ee0d9af20cc55e084564736f6c63430008140033",
  "linkReferences": {},
  "deployedLinkReferences": {}
}