{
  "_format": "hh-sol-artifact-1",
  "contractName": "HelixMarket",
  "sourceName": "contracts/HelixMarket.sol",
  "abi": [
    {
      "inputs": [
        {
          "internalType": "address",
          "name": "_token",
          "type": "address"
        }
      ],
      "stateMutability": "nonpayable",
      "type": "constructor"
    },
    {
      "inputs": [],
      "name": "ReentrancyGuardReentrantCall",
      "type": "error"
    },
    {
      "anonymous": false,
      "inputs": [
        {
          "indexed": true,
          "internalType": "uint256",
          "name": "marketId",
          "type": "uint256"
        },
        {
          "indexed": true,
          "internalType": "address",
          "name": "user",
          "type": "address"
        },
        {
          "indexed": false,
          "internalType": "bytes32",
          "name": "commitHash",
          "type": "bytes32"
        },
        {
          "indexed": false,
          "internalType": "uint256",
          "name": "amount",
          "type": "uint256"
        }
      ],
      "name": "BetCommitted",
      "type": "event"
    },
    {
      "anonymous": false,
      "inputs": [
        {
          "indexed": true,
          "internalType": "uint256",
          "name": "marketId",
          "type": "uint256"
        },
        {
          "indexed": true,
          "internalType": "address",
          "name": "user",
          "type": "address"
        },
        {
          "indexed": false,
          "internalType": "uint8",
          "name": "choice",
          "type": "uint8"
        },
        {
          "indexed": false,
          "internalType": "uint256",
          "name": "amount",
          "type": "uint256"
        }
      ],
      "name": "BetRevealed",
      "type": "event"
    },
    {
      "anonymous": false,
      "inputs": [
        {
          "indexed": true,
          "internalType": "uint256",
          "name": "marketId",
          "type": "uint256"
        },
        {
          "indexed": false,
          "internalType": "bool",
          "name": "outcome",
          "type": "bool"
        },
        {
          "indexed": false,
          "internalType": "bool",
          "name": "tie",
          "type": "bool"
        },
        {
          "indexed": false,
          "internalType": "uint256",
          "name": "totalPool",
          "type": "uint256"
        },
        {
          "indexed": false,
          "internalType": "uint256",
          "name": "originatorFee",
          "type": "uint256"
        }
      ],
      "name": "MarketResolved",
      "type": "event"
    },
    {
      "anonymous": false,
      "inputs": [
        {
          "indexed": true,
          "internalType": "uint256",
          "name": "marketId",
          "type": "uint256"
        },
        {
          "indexed": false,
          "internalType": "string",
          "name": "ipfsCid",
          "type": "string"
        },
        {
          "indexed": false,
          "internalType": "uint256",
          "name": "commitEndTime",
          "type": "uint256"
        },
        {
          "indexed": false,
          "internalType": "uint256",
          "name": "revealEndTime",
          "type": "uint256"
        },
        {
          "indexed": false,
          "internalType": "address",
          "name": "originator",
          "type": "address"
        }
      ],
      "name": "StatementCreated",
      "type": "event"
    },
    {
      "anonymous": false,
      "inputs": [
        {
          "indexed": true,
          "internalType": "uint256",
          "name": "marketId",
          "type": "uint256"
        },
        {
          "indexed": true,
          "internalType": "address",
          "name": "user",
          "type": "address"
        },
        {
          "indexed": false,
          "internalType": "uint256",
          "name": "amountReturned",
          "type": "uint256"
        },
        {
          "indexed": false,
          "internalType": "uint256",
          "name": "penaltyBurned",
          "type": "uint256"
        }
      ],
      "name": "UnrevealedWithdrawn",
      "type": "event"
    },
    {
      "inputs": [],
      "name": "MIN_REVEAL_DURATION",
      "outputs": [
        {
          "internalType": "uint256",
          "name": "",
          "type": "uint256"
        }
      ],
      "stateMutability": "view",
      "type": "function"
    },
    {
      "inputs": [],
      "name": "ORIGINATOR_FEE_BPS",
      "outputs": [
        {
          "internalType": "uint256",
          "name": "",
          "type": "uint256"
        }
      ],
      "stateMutability": "view",
      "type": "function"
    },
    {
      "inputs": [],
      "name": "STATEMENT_FEE",
      "outputs": [
        {
          "internalType": "uint256",
          "name": "",
          "type": "uint256"
        }
      ],
      "stateMutability": "view",
      "type": "function"
    },
    {
      "inputs": [],
      "name": "UNREVEALED_PENALTY_BPS",
      "outputs": [
        {
          "internalType": "uint256",
          "name": "",
          "type": "uint256"
        }
      ],
      "stateMutability": "view",
      "type": "function"
    },
    {
      "inputs": [
        {
          "internalType": "uint256",
          "name": "",
          "type": "uint256"
        },
        {
          "internalType": "address",
          "name": "",
          "type": "address"
        },
        {
          "internalType": "uint8",
          "name": "",
          "type": "uint8"
        }
      ],
      "name": "bets",
      "outputs": [
        {
          "internalType": "uint256",
          "name": "",
          "type": "uint256"
        }
      ],
      "stateMutability": "view",
      "type": "function"
    },
    {
      "inputs": [
        {
          "internalType": "uint256",
          "name": "marketId",
          "type": "uint256"
        }
      ],
      "name": "claim",
      "outputs": [],
      "stateMutability": "nonpayable",
      "type": "function"
    },
    {
      "inputs": [
        {
          "internalType": "uint256",
          "name": "marketId",
          "type": "uint256"
        },
        {
          "internalType": "bytes32",
          "name": "commitHash",
          "type": "bytes32"
        },
        {
          "internalType": "uint256",
          "name": "amount",
          "type": "uint256"
        }
      ],
      "name": "commitBet",
      "outputs": [],
      "stateMutability": "nonpayable",
      "type": "function"
    },
    {
      "inputs": [
        {
          "internalType": "uint256",
          "name": "",
          "type": "uint256"
        },
        {
          "internalType": "address",
          "name": "",
          "type": "address"
        }
      ],
      "name": "commits",
      "outputs": [
        {
          "internalType": "bytes32",
          "name": "",
          "type": "bytes32"
        }
      ],
      "stateMutability": "view",
      "type": "function"
    },
    {
      "inputs": [
        {
          "internalType": "uint256",
          "name": "",
          "type": "uint256"
        },
        {
          "internalType": "address",
          "name": "",
          "type": "address"
        }
      ],
      "name": "committedAmount",
      "outputs": [
        {
          "internalType": "uint256",
          "name": "",
          "type": "uint256"
        }
      ],
      "stateMutability": "view",
      "type": "function"
    },
    {
      "inputs": [
        {
          "internalType": "uint256",
          "name": "",
          "type": "uint256"
        },
        {
          "internalType": "address",
          "name": "",
          "type": "address"
        }
      ],
      "name": "hasCommitted",
      "outputs": [
        {
          "internalType": "bool",
          "name": "",
          "type": "bool"
        }
      ],
      "stateMutability": "view",
      "type": "function"
    },
    {
      "inputs": [],
      "name": "marketCount",
      "outputs": [
        {
          "internalType": "uint256",
          "name": "",
          "type": "uint256"
        }
      ],
      "stateMutability": "view",
      "type": "function"
    },
    {
      "inputs": [
        {
          "internalType": "uint256",
          "name": "",
          "type": "uint256"
        }
      ],
      "name": "markets",
      "outputs": [
        {
          "internalType": "string",
          "name": "ipfsCid",
          "type": "string"
        },
        {
          "internalType": "uint256",
          "name": "commitEndTime",
          "type": "uint256"
        },
        {
          "internalType": "uint256",
          "name": "revealEndTime",
          "type": "uint256"
        },
        {
          "internalType": "uint256",
          "name": "yesPool",
          "type": "uint256"
        },
        {
          "internalType": "uint256",
          "name": "noPool",
          "type": "uint256"
        },
        {
          "internalType": "uint256",
          "name": "unalignedPool",
          "type": "uint256"
        },
        {
          "internalType": "bool",
          "name": "resolved",
          "type": "bool"
        },
        {
          "internalType": "bool",
          "name": "outcome",
          "type": "bool"
        },
        {
          "internalType": "bool",
          "name": "tie",
          "type": "bool"
        },
        {
          "internalType": "address",
          "name": "originator",
          "type": "address"
        }
      ],
      "stateMutability": "view",
      "type": "function"
    },
    {
      "inputs": [
        {
          "internalType": "uint256",
          "name": "marketId",
          "type": "uint256"
        }
      ],
      "name": "resolve",
      "outputs": [],
      "stateMutability": "nonpayable",
      "type": "function"
    },
    {
      "inputs": [
        {
          "internalType": "uint256",
          "name": "marketId",
          "type": "uint256"
        },
        {
          "internalType": "uint8",
          "name": "choice",
          "type": "uint8"
        },
        {
          "internalType": "uint256",
          "name": "salt",
          "type": "uint256"
        }
      ],
      "name": "revealBet",
      "outputs": [],
      "stateMutability": "nonpayable",
      "type": "function"
    },
    {
      "inputs": [
        {
          "internalType": "string",
          "name": "ipfsCid",
          "type": "string"
        },
        {
          "internalType": "uint256",
          "name": "biddingDuration",
          "type": "uint256"
        },
        {
          "internalType": "uint256",
          "name": "revealDuration",
          "type": "uint256"
        }
      ],
      "name": "submitStatement",
      "outputs": [],
      "stateMutability": "nonpayable",
      "type": "function"
    },
    {
      "inputs": [],
      "name": "token",
      "outputs": [
        {
          "internalType": "contract AlphaHelixToken",
          "name": "",
          "type": "address"
        }
      ],
      "stateMutability": "view",
      "type": "function"
    },
    {
      "inputs": [
        {
          "internalType": "uint256",
          "name": "marketId",
          "type": "uint256"
        }
      ],
      "name": "withdrawUnrevealed",
      "outputs": [],
      "stateMutability": "nonpayable",
      "type": "function"
    }
  ],
  "bytecode": "0x60a060405234801561001057600080fd5b50604051611c7f380380611c7f83398101604081905261002f91610045565b60016000556001600160a01b0316608052610075565b60006020828403121561005757600080fd5b81516001600160a01b038116811461006e57600080fd5b9392505050565b608051611bbe6100c1600039600081816102a10152818161037701528181610454015281816106f90152818161097601528181610bc001528181611281015261135e0152611bbe6000f3fe608060405234801561001057600080fd5b506004361061010b5760003560e01c80638f99230e116100a2578063cdbf958211610071578063cdbf958214610277578063d329db8f1461028a578063ec97908214610293578063fc0c546a1461029c578063fe838b02146102db57600080fd5b80638f99230e146101df578063a99ef9f514610210578063b1283e771461024e578063b9e42385146101ac57600080fd5b80634f896d4f116100de5780634f896d4f1461016e57806357cb0c11146101815780635acd45be146101ac578063885d68a8146101b457600080fd5b80631204078d146101105780631b88272a146101255780632e8f036a14610138578063379607f51461015b575b600080fd5b61012361011e3660046116cf565b6102ee565b005b610123610133366004611793565b6105d7565b61014868056bc75e2d6310000081565b6040519081526020015b60405180910390f35b6101236101693660046117bf565b610856565b61012361017c3660046117bf565b610a3b565b61014861018f3660046117f4565b600660209081526000928352604080842090915290825290205481565b610148606481565b6101486101c23660046117f4565b600360209081526000928352604080842090915290825290205481565b6101486101ed366004611831565b600560209081526000938452604080852082529284528284209052825290205481565b61023e61021e3660046117f4565b600460209081526000928352604080842090915290825290205460ff1681565b6040519015158152602001610152565b61026161025c3660046117bf565b610c9e565b6040516101529a999897969594939291906118b3565b61012361028536600461191c565b610d89565b610148610e1081565b61014860015481565b6102c37f000000000000000000000000000000000000000000000000000000000000000081565b6040516001600160a01b039091168152602001610152565b6101236102e93660046117bf565b611142565b6102f6611463565b610e1081101561034d5760405162461bcd60e51b815260206004820152601960248201527f52657665616c206475726174696f6e20746f6f2073686f72740000000000000060448201526064015b60405180910390fd5b6040516323b872dd60e01b815233600482015230602482015268056bc75e2d6310000060448201527f00000000000000000000000000000000000000000000000000000000000000006001600160a01b0316906323b872dd906064016020604051808303816000875af11580156103c8573d6000803e3d6000fd5b505050506040513d601f19601f820116820180604052508101906103ec9190611951565b61042e5760405162461bcd60e51b8152602060048201526013602482015272119959481d1c985b9cd9995c8819985a5b1959606a1b6044820152606401610344565b60405163a9059cbb60e01b815261dead600482015268056bc75e2d6310000060248201527f00000000000000000000000000000000000000000000000000000000000000006001600160a01b03169063a9059cbb906044016020604051808303816000875af11580156104a5573d6000803e3d6000fd5b505050506040513d601f19601f820116820180604052508101906104c99190611951565b61050c5760405162461bcd60e51b8152602060048201526014602482015273109d5c9b881d1c985b9cd9995c8819985a5b195960621b6044820152606401610344565b600180546000918261051d83611990565b9091555060008181526002602052604090209091508061053d8682611a31565b506105488442611af1565b6001820181905561055a908490611af1565b600282018190556006820180546301000000600160b81b031916336301000000810291909117909155600183015460405185937fb0f44ab77840631afd2f642daa49e5d268bce7babf6c72558f47c5d027413b98936105be938b9390929190611b04565b60405180910390a250506105d26001600055565b505050565b6105df611463565b6000838152600260205260409020600181015442106106345760405162461bcd60e51b815260206004820152601160248201527021b7b6b6b4ba10383430b9b29037bb32b960791b6044820152606401610344565b600082116106795760405162461bcd60e51b81526020600482015260126024820152710416d6f756e74206d757374206265203e20360741b6044820152606401610344565b600084815260046020908152604080832033845290915290205460ff16156106d75760405162461bcd60e51b8152602060048201526011602482015270105b1c9958591e4818dbdb5b5a5d1d1959607a1b6044820152606401610344565b6040516323b872dd60e01b8152336004820152306024820152604481018390527f00000000000000000000000000000000000000000000000000000000000000006001600160a01b0316906323b872dd906064016020604051808303816000875af115801561074a573d6000803e3d6000fd5b505050506040513d601f19601f8201168201806040525081019061076e9190611951565b6107ac5760405162461bcd60e51b815260206004820152600f60248201526e151c985b9cd9995c8819985a5b1959608a1b6044820152606401610344565b600084815260036020908152604080832033808552908352818420879055878452600483528184208185528352818420805460ff191660011790558784526006835281842090845290915281208054849290610809908490611af1565b90915550506040805184815260208101849052339186917fc02f2358fe181cc846163d0ca2cd612408cef67a7acdbb92cd09045df0e2fd9a910160405180910390a3506105d26001600055565b61085e611463565b6000818152600260205260409020600681015460ff166108af5760405162461bcd60e51b815260206004820152600c60248201526b139bdd081c995cdbdb1d995960a21b6044820152606401610344565b60008060006108be848661148d565b925092509250600083116109055760405162461bcd60e51b815260206004820152600e60248201526d139bc81dda5b9b9a5b99c818995d60921b6044820152606401610344565b600684015461092690869060ff6201000082048116916101009004166115cd565b600684015460009062010000900460ff1661095557826109468386611b3c565b6109509190611b53565b610957565b835b60405163a9059cbb60e01b8152336004820152602481018290529091507f00000000000000000000000000000000000000000000000000000000000000006001600160a01b03169063a9059cbb906044016020604051808303816000875af11580156109c7573d6000803e3d6000fd5b505050506040513d601f19601f820116820180604052508101906109eb9190611951565b610a295760405162461bcd60e51b815260206004820152600f60248201526e151c985b9cd9995c8819985a5b1959608a1b6044820152606401610344565b5050505050610a386001600055565b50565b610a43611463565b6000818152600260208190526040909120908101544211610a9e5760405162461bcd60e51b81526020600482015260156024820152742932bb32b0b610383430b9b2903737ba1037bb32b960591b6044820152606401610344565b600681015460ff1615610ae65760405162461bcd60e51b815260206004820152601060248201526f105b1c9958591e481c995cdbdb1d995960821b6044820152606401610344565b60068101805460ff1916600117905560038101546004820154610b099190611660565b600683018054921515620100000262ff000019921515610100029290921662ffff00199093169290921717905560058101546004820154600383015460009291610b5291611af1565b610b5c9190611af1565b600683015490915060009062010000900460ff16610b8257610b7d82611699565b610b85565b60005b90508015610c2f57600683015460405163a9059cbb60e01b815263010000009091046001600160a01b039081166004830152602482018390527f0000000000000000000000000000000000000000000000000000000000000000169063a9059cbb906044016020604051808303816000875af1158015610c09573d6000803e3d6000fd5b505050506040513d601f19601f82011682018060405250810190610c2d9190611951565b505b60068301546040805160ff6101008404811615158252620100009093049092161515602083015281018390526060810182905284907fcf0a48d2ad3f7480002e60b1eda352f90145d89af44eb49e792dad0233f533b19060800160405180910390a2505050610a386001600055565b600260205260009081526040902080548190610cb9906119a9565b80601f0160208091040260200160405190810160405280929190818152602001828054610ce5906119a9565b8015610d325780601f10610d0757610100808354040283529160200191610d32565b820191906000526020600020905b815481529060010190602001808311610d1557829003601f168201915b5050505060018301546002840154600385015460048601546005870154600690970154959693959294509092909160ff8082169161010081048216916201000082041690630100000090046001600160a01b03168a565b610d91611463565b60008381526002602052604090206001810154421015610df35760405162461bcd60e51b815260206004820152601760248201527f436f6d6d6974207068617365206e6f74206163746976650000000000000000006044820152606401610344565b80600201544210610e3a5760405162461bcd60e51b81526020600482015260116024820152702932bb32b0b610383430b9b29037bb32b960791b6044820152606401610344565b600084815260036020908152604080832033845290915290205480610e945760405162461bcd60e51b815260206004820152601060248201526f139bc818995d0818dbdb5b5a5d1d195960821b6044820152606401610344565b6040516001600160f81b031960f886901b166020820152602181018490526bffffffffffffffffffffffff193360601b16604182015281906055016040516020818303038152906040528051906020012014610f285760405162461bcd60e51b8152602060048201526013602482015272125b9d985b1a59081a185cda0bdc995d99585b606a1b6044820152606401610344565b600085815260066020908152604080832033845290915290205480610f8f5760405162461bcd60e51b815260206004820152601d60248201527f416c72656164792072657665616c6564206f72206e6f20616d6f756e740000006044820152606401610344565b6000868152600660209081526040808320338452909152812055600260ff86161115610fee5760405162461bcd60e51b815260206004820152600e60248201526d496e76616c69642063686f69636560901b6044820152606401610344565b8460ff1660010361104f578083600301600082825461100d9190611af1565b9091555050600086815260056020908152604080832033845282528083206001845290915281208054839290611044908490611af1565b909155506110f59050565b8460ff166000036110a4578083600401600082825461106e9190611af1565b90915550506000868152600560209081526040808320338452825280832083805290915281208054839290611044908490611af1565b808360050160008282546110b89190611af1565b90915550506000868152600560209081526040808320338452825280832060028452909152812080548392906110ef908490611af1565b90915550505b6040805160ff8716815260208101839052339188917f69cbe73b5f08f9347a0159dd589b5e7ea7f54d8b523f6bbe183c1a7c13b6dba7910160405180910390a35050506105d26001600055565b61114a611463565b60008181526002602081905260409091209081015442116111a55760405162461bcd60e51b81526020600482015260156024820152742932bb32b0b610383430b9b2903737ba1037bb32b960591b6044820152606401610344565b6000828152600660209081526040808320338452909152902054806112025760405162461bcd60e51b81526020600482015260136024820152724e6f20756e72657665616c6564207374616b6560681b6044820152606401610344565b600083815260066020908152604080832033808552908352818420849055868452600383528184209084529091528120819055612710611243606484611b3c565b61124d9190611b53565b9050600061125b8284611b75565b905081156113425760405163a9059cbb60e01b815261dead6004820152602481018390527f00000000000000000000000000000000000000000000000000000000000000006001600160a01b03169063a9059cbb906044016020604051808303816000875af11580156112d2573d6000803e3d6000fd5b505050506040513d601f19601f820116820180604052508101906112f69190611951565b6113425760405162461bcd60e51b815260206004820152601760248201527f50656e616c7479207472616e73666572206661696c65640000000000000000006044820152606401610344565b60405163a9059cbb60e01b8152336004820152602481018290527f00000000000000000000000000000000000000000000000000000000000000006001600160a01b03169063a9059cbb906044016020604051808303816000875af11580156113af573d6000803e3d6000fd5b505050506040513d601f19601f820116820180604052508101906113d39190611951565b6114185760405162461bcd60e51b81526020600482015260166024820152751499599d5b99081d1c985b9cd9995c8819985a5b195960521b6044820152606401610344565b6040805182815260208101849052339187917f8bb26e72aaf6e900094ea180bfbe84450e669b3c57d843fa18e33e40a46616f5910160405180910390a350505050610a386001600055565b60026000540361148657604051633ee5aeb560e01b815260040160405180910390fd5b6002600055565b6000806000808560050154866004015487600301546114ac9190611af1565b6114b69190611af1565b600687015490915060009062010000900460ff166114dc576114d782611699565b6114df565b60005b90506114eb8183611b75565b600688015490935062010000900460ff1615611553576000868152600560209081526040808320338452825280832060028452909152808220546001835281832054838052919092205461153f9190611af1565b6115499190611af1565b94508193506115c4565b6006870154610100900460ff1615611597576000868152600560209081526040808320338452825280832060018452909152902054600388015490955093506115c4565b60008681526005602090815260408083203384528252808320838052909152902054600488015490955093505b50509250925092565b811561160d575050600090815260056020908152604080832033845282528083208380529091528082208290556001825280822082905560028252812055565b801561163a5750506000908152600560209081526040808320338452825280832060018452909152812055565b505060009081526005602090815260408083203384528252808320838052909152812055565b600080828411156116775750600090506001611692565b8383111561168a57506000905080611692565b506001905060005b9250929050565b60006127106116a9606484611b3c565b6116b39190611b53565b92915050565b634e487b7160e01b600052604160045260246000fd5b6000806000606084860312156116e457600080fd5b833567ffffffffffffffff808211156116fc57600080fd5b818601915086601f83011261171057600080fd5b813581811115611722576117226116b9565b604051601f8201601f19908116603f0116810190838211818310171561174a5761174a6116b9565b8160405282815289602084870101111561176357600080fd5b82602086016020830137600060208483010152809750505050505060208401359150604084013590509250925092565b6000806000606084860312156117a857600080fd5b505081359360208301359350604090920135919050565b6000602082840312156117d157600080fd5b5035919050565b80356001600160a01b03811681146117ef57600080fd5b919050565b6000806040838503121561180757600080fd5b82359150611817602084016117d8565b90509250929050565b803560ff811681146117ef57600080fd5b60008060006060848603121561184657600080fd5b83359250611856602085016117d8565b915061186460408501611820565b90509250925092565b6000815180845260005b8181101561189357602081850181015186830182015201611877565b506000602082860101526020601f19601f83011685010191505092915050565b60006101408083526118c78184018e61186d565b602084019c909c52505060408101989098526060880196909652608087019490945260a0860192909252151560c0850152151560e084015215156101008301526001600160a01b031661012090910152919050565b60008060006060848603121561193157600080fd5b8335925061194160208501611820565b9150604084013590509250925092565b60006020828403121561196357600080fd5b8151801515811461197357600080fd5b9392505050565b634e487b7160e01b600052601160045260246000fd5b6000600182016119a2576119a261197a565b5060010190565b600181811c908216806119bd57607f821691505b6020821081036119dd57634e487b7160e01b600052602260045260246000fd5b50919050565b601f8211156105d257600081815260208120601f850160051c81016020861015611a0a5750805b601f850160051c820191505b81811015611a2957828155600101611a16565b505050505050565b815167ffffffffffffffff811115611a4b57611a4b6116b9565b611a5f81611a5984546119a9565b846119e3565b602080601f831160018114611a945760008415611a7c5750858301515b600019600386901b1c1916600185901b178555611a29565b600085815260208120601f198616915b82811015611ac357888601518255948401946001909101908401611aa4565b5085821015611ae15787850151600019600388901b60f8161c191681555b5050505050600190811b01905550565b808201808211156116b3576116b361197a565b608081526000611b17608083018761186d565b60208301959095525060408101929092526001600160a01b0316606090910152919050565b80820281158282048414176116b3576116b361197a565b600082611b7057634e487b7160e01b600052601260045260246000fd5b500490565b818103818111156116b3576116b361197a56fea264697066735822122045731e77b1685984642d4ea2343fd23960111f51c993df986621b4939ff0b08864736f6c63430008140033",
  "linkReferences": {},
  "deployedLinkReferences": {}
}