{
  "_format": "hh-sol-artifact-1",
  "contractName": "HelixReserve",
  "sourceName": "contracts/HelixReserve.sol",
  "abi": [
    {
      "inputs": [
        {
          "internalType": "address",
          "name": "tokenAddress",
          "type": "address"
        }
      ],
      "stateMutability": "nonpayable",
      "type": "constructor"
    },
    {
      "inputs": [
        {
          "internalType": "address",
          "name": "owner",
          "type": "address"
        }
      ],
      "name": "OwnableInvalidOwner",
      "type": "error"
    },
    {
      "inputs": [
        {
          "internalType": "address",
          "name": "account",
          "type": "address"
        }
      ],
      "name": "OwnableUnauthorizedAccount",
      "type": "error"
    },
    {
      "inputs": [],
      "name": "ReentrancyGuardReentrantCall",
      "type": "error"
    },
    {
      "anonymous": false,
      "inputs": [
        {
          "indexed": true,
          "internalType": "address",
          "name": "buyer",
          "type": "address"
        },
        {
          "indexed": false,
          "internalType": "uint256",
          "name": "ethIn",
          "type": "uint256"
        },
        {
          "indexed": false,
          "internalType": "uint256",
          "name": "hlxOut",
          "type": "uint256"
        }
      ],
      "name": "Bought",
      "type": "event"
    },
    {
      "anonymous": false,
      "inputs": [
        {
          "indexed": true,
          "internalType": "address",
          "name": "marketAMM",
          "type": "address"
        },
        {
          "indexed": false,
          "internalType": "uint256",
          "name": "hlxAmount",
          "type": "uint256"
        }
      ],
      "name": "MarketSeeded",
      "type": "event"
    },
    {
      "anonymous": false,
      "inputs": [
        {
          "indexed": true,
          "internalType": "address",
          "name": "previousOwner",
          "type": "address"
        },
        {
          "indexed": true,
          "internalType": "address",
          "name": "newOwner",
          "type": "address"
        }
      ],
      "name": "OwnershipTransferred",
      "type": "event"
    },
    {
      "anonymous": false,
      "inputs": [
        {
          "indexed": true,
          "internalType": "address",
          "name": "seller",
          "type": "address"
        },
        {
          "indexed": false,
          "internalType": "uint256",
          "name": "hlxIn",
          "type": "uint256"
        },
        {
          "indexed": false,
          "internalType": "uint256",
          "name": "ethOut",
          "type": "uint256"
        }
      ],
      "name": "Sold",
      "type": "event"
    },
    {
      "inputs": [],
      "name": "RATE",
      "outputs": [
        {
          "internalType": "uint256",
          "name": "",
          "type": "uint256"
        }
      ],
      "stateMutability": "view",
      "type": "function"
    },
    {
      "inputs": [],
      "name": "buy",
      "outputs": [],
      "stateMutability": "payable",
      "type": "function"
    },
    {
      "inputs": [],
      "name": "owner",
      "outputs": [
        {
          "internalType": "address",
          "name": "",
          "type": "address"
        }
      ],
      "stateMutability": "view",
      "type": "function"
    },
    {
      "inputs": [],
      "name": "renounceOwnership",
      "outputs": [],
      "stateMutability": "nonpayable",
      "type": "function"
    },
    {
      "inputs": [
        {
          "internalType": "address",
          "name": "marketAMM",
          "type": "address"
        },
        {
          "internalType": "uint256",
          "name": "hlxAmount",
          "type": "uint256"
        }
      ],
      "name": "seedMarket",
      "outputs": [],
      "stateMutability": "nonpayable",
      "type": "function"
    },
    {
      "inputs": [
        {
          "internalType": "uint256",
          "name": "hlxAmount",
          "type": "uint256"
        }
      ],
      "name": "sell",
      "outputs": [],
      "stateMutability": "nonpayable",
      "type": "function"
    },
    {
      "inputs": [],
      "name": "token",
      "outputs": [
        {
          "internalType": "contract AlphaHelixToken",
          "name": "",
          "type": "address"
        }
      ],
      "stateMutability": "view",
      "type": "function"
    },
    {
      "inputs": [
        {
          "internalType": "address",
          "name": "newOwner",
          "type": "address"
        }
      ],
      "name": "transferOwnership",
      "outputs": [],
      "stateMutability": "nonpayable",
      "type": "function"
    },
    {
      "stateMutability": "payable",
      "type": "receive"
    }
  ],
  "bytecode": "0x60a060405234801561001057600080fd5b50604051610d68380380610d6883398101604081905261002f9161011e565b6001600055338061005b57604051631e4fbdf760e01b8152600060048201526024015b60405180910390fd5b610064816100cc565b506001600160a01b0381166100bb5760405162461bcd60e51b815260206004820152601c60248201527f546f6b656e20616464726573732063616e6e6f74206265207a65726f000000006044820152606401610052565b6001600160a01b031660805261014e565b600180546001600160a01b038381166001600160a01b0319831681179093556040519116919082907f8be0079c531659141344cd1fd0a4f28419497f9722a3daafe3b4186f6b6457e090600090a35050565b60006020828403121561013057600080fd5b81516001600160a01b038116811461014757600080fd5b9392505050565b608051610bd56101936000396000818161019101528181610257015281816103ab0152818161049201528181610716015281816107f201526108840152610bd56000f3fe60806040526004361061007f5760003560e01c8063da5cc7e61161004e578063da5cc7e61461011f578063e4849b321461013f578063f2fde38b1461015f578063fc0c546a1461017f57600080fd5b8063664e9704146100a7578063715018a6146100d05780638da5cb5b146100e5578063a6f2ae3a1461011757600080fd5b366100a25761008c6101b3565b61009633346101dd565b6100a06001600055565b005b600080fd5b3480156100b357600080fd5b506100bd6103e881565b6040519081526020015b60405180910390f35b3480156100dc57600080fd5b506100a06102fe565b3480156100f157600080fd5b506001546001600160a01b03165b6040516001600160a01b0390911681526020016100c7565b6100a0610312565b34801561012b57600080fd5b506100a061013a366004610a96565b61032e565b34801561014b57600080fd5b506100a061015a366004610ac0565b6105e7565b34801561016b57600080fd5b506100a061017a366004610ad9565b6109c0565b34801561018b57600080fd5b506100ff7f000000000000000000000000000000000000000000000000000000000000000081565b6002600054036101d657604051633ee5aeb560e01b815260040160405180910390fd5b6002600055565b600081116102205760405162461bcd60e51b815260206004820152600b60248201526a139bc8115512081cd95b9d60aa1b60448201526064015b60405180910390fd5b600061022e6103e883610afb565b6040516340c10f1960e01b81526001600160a01b038581166004830152602482018390529192507f0000000000000000000000000000000000000000000000000000000000000000909116906340c10f1990604401600060405180830381600087803b15801561029d57600080fd5b505af11580156102b1573d6000803e3d6000fd5b505060408051858152602081018590526001600160a01b03871693507fa9a40dec7a304e5915d11358b968c1e8d365992abf20f82285d1df1b30c8e24c92500160405180910390a2505050565b6103066109fb565b6103106000610a28565b565b61031a6101b3565b61032433346101dd565b6103106001600055565b6103366109fb565b61033e6101b3565b6001600160a01b0382166103945760405162461bcd60e51b815260206004820152601960248201527f4d61726b657420414d4d2063616e6e6f74206265207a65726f000000000000006044820152606401610217565b6040516370a0823160e01b815230600482015281907f00000000000000000000000000000000000000000000000000000000000000006001600160a01b0316906370a0823190602401602060405180830381865afa1580156103fa573d6000803e3d6000fd5b505050506040513d601f19601f8201168201806040525081019061041e9190610b26565b101561046c5760405162461bcd60e51b815260206004820152601860248201527f496e73756666696369656e7420484c58207265736572766500000000000000006044820152606401610217565b60405163095ea7b360e01b81526001600160a01b038381166004830152602482018390527f0000000000000000000000000000000000000000000000000000000000000000169063095ea7b3906044016020604051808303816000875af11580156104db573d6000803e3d6000fd5b505050506040513d601f19601f820116820180604052508101906104ff9190610b3f565b61053c5760405162461bcd60e51b815260206004820152600e60248201526d105c1c1c9bdd994819985a5b195960921b6044820152606401610217565b60405163140e25ad60e31b8152600481018290526001600160a01b0383169063a0712d6890602401600060405180830381600087803b15801561057e57600080fd5b505af1158015610592573d6000803e3d6000fd5b50505050816001600160a01b03167fba8aa5840f5167bbc6733953899c93f85400c9147684c18a556f8342255ee0d6826040516105d191815260200190565b60405180910390a26105e36001600055565b5050565b6105ef6101b3565b600081116106345760405162461bcd60e51b8152602060048201526012602482015271484c5820616d6f756e74206973207a65726f60701b6044820152606401610217565b6106406103e882610b77565b156106995760405162461bcd60e51b8152602060048201526024808201527f484c5820616d6f756e74206d75737420636f6e7665727420746f2077686f6c656044820152632077656960e01b6064820152608401610217565b60006106a76103e883610b8b565b9050804710156106f95760405162461bcd60e51b815260206004820152601b60248201527f496e73756666696369656e742045544820696e207265736572766500000000006044820152606401610217565b604051636eb1769f60e11b815233600482015230602482015282907f00000000000000000000000000000000000000000000000000000000000000006001600160a01b03169063dd62ed3e90604401602060405180830381865afa158015610765573d6000803e3d6000fd5b505050506040513d601f19601f820116820180604052508101906107899190610b26565b10156107d05760405162461bcd60e51b8152602060048201526016602482015275496e73756666696369656e7420616c6c6f77616e636560501b6044820152606401610217565b6040516323b872dd60e01b8152336004820152306024820152604481018390527f00000000000000000000000000000000000000000000000000000000000000006001600160a01b0316906323b872dd906064016020604051808303816000875af1158015610843573d6000803e3d6000fd5b505050506040513d601f19601f820116820180604052508101906108679190610b3f565b50604051632770a7eb60e21b8152306004820152602481018390527f00000000000000000000000000000000000000000000000000000000000000006001600160a01b031690639dc29fac90604401600060405180830381600087803b1580156108d057600080fd5b505af11580156108e4573d6000803e3d6000fd5b50506040516000925033915083908381818185875af1925050503d806000811461092a576040519150601f19603f3d011682016040523d82523d6000602084013e61092f565b606091505b50509050806109765760405162461bcd60e51b8152602060048201526013602482015272115512081d1c985b9cd9995c8819985a5b1959606a1b6044820152606401610217565b604080518481526020810184905233917fbac9694ac0daa55169abd117086fe32c89401d9a3b15dd1d34e55e0aa4e47a9d910160405180910390a250506109bd6001600055565b50565b6109c86109fb565b6001600160a01b0381166109f257604051631e4fbdf760e01b815260006004820152602401610217565b6109bd81610a28565b6001546001600160a01b031633146103105760405163118cdaa760e01b8152336004820152602401610217565b600180546001600160a01b038381166001600160a01b0319831681179093556040519116919082907f8be0079c531659141344cd1fd0a4f28419497f9722a3daafe3b4186f6b6457e090600090a35050565b80356001600160a01b0381168114610a9157600080fd5b919050565b60008060408385031215610aa957600080fd5b610ab283610a7a565b946020939093013593505050565b600060208284031215610ad257600080fd5b5035919050565b600060208284031215610aeb57600080fd5b610af482610a7a565b9392505050565b8082028115828204841417610b2057634e487b7160e01b600052601160045260246000fd5b92915050565b600060208284031215610b3857600080fd5b5051919050565b600060208284031215610b5157600080fd5b81518015158114610af457600080fd5b634e487b7160e01b600052601260045260246000fd5b600082610b8657610b86610b61565b500690565b600082610b9a57610b9a610b61565b50049056fea264697066735822122066d635ba91c3edec0c06918d732c43fa1d753dcc3b144eb75b33c82f271f75db64736f6c63430008140033",
  "linkReferences": {},
  "deployedLinkReferences": {}
}