{
  "_format": "hh-sol-artifact-1",
  "contractName": "HelixReserve",
  "sourceName": "contracts/HelixReserve.sol",
  "abi": [
    {
      "inputs": [
        {
          "internalType": "address",
          "name": "tokenAddress",
          "type": "address"
        }
      ],
      "stateMutability": "nonpayable",
      "type": "constructor"
    },
    {
      "inputs": [
        {
          "internalType": "address",
          "name": "owner",
          "type": "address"
        }
      ],
      "name": "OwnableInvalidOwner",
      "type": "error"
    },
    {
      "inputs": [
        {
          "internalType": "address",
          "name": "account",
          "type": "address"
        }
      ],
      "name": "OwnableUnauthorizedAccount",
      "type": "error"
    },
    {
      "inputs": [],
      "name": "ReentrancyGuardReentrantCall",
      "type": "error"
    },
    {
      "anonymous": false,
      "inputs": [
        {
          "indexed": true,
          "internalType": "address",
          "name": "previousOwner",
          "type": "address"
        },
        {
          "indexed": true,
          "internalType": "address",
          "name": "newOwner",
          "type": "address"
        }
      ],
      "name": "OwnershipTransferred",
      "type": "event"
    },
    {
      "inputs": [],
      "name": "RATE",
      "outputs": [
        {
          "internalType": "uint256",
          "name": "",
          "type": "uint256"
        }
      ],
      "stateMutability": "view",
      "type": "function"
    },
    {
      "inputs": [],
      "name": "buy",
      "outputs": [],
      "stateMutability": "payable",
      "type": "function"
    },
    {
      "inputs": [],
      "name": "owner",
      "outputs": [
        {
          "internalType": "address",
          "name": "",
          "type": "address"
        }
      ],
      "stateMutability": "view",
      "type": "function"
    },
    {
      "inputs": [],
      "name": "renounceOwnership",
      "outputs": [],
      "stateMutability": "nonpayable",
      "type": "function"
    },
    {
      "inputs": [
        {
          "internalType": "address",
          "name": "marketAMM",
          "type": "address"
        },
        {
          "internalType": "uint256",
          "name": "hlxAmount",
          "type": "uint256"
        }
      ],
      "name": "seedMarket",
      "outputs": [],
      "stateMutability": "nonpayable",
      "type": "function"
    },
    {
      "inputs": [
        {
          "internalType": "uint256",
          "name": "hlxAmount",
          "type": "uint256"
        }
      ],
      "name": "sell",
      "outputs": [],
      "stateMutability": "nonpayable",
      "type": "function"
    },
    {
      "inputs": [],
      "name": "token",
      "outputs": [
        {
          "internalType": "contract AlphaHelixToken",
          "name": "",
          "type": "address"
        }
      ],
      "stateMutability": "view",
      "type": "function"
    },
    {
      "inputs": [
        {
          "internalType": "address",
          "name": "newOwner",
          "type": "address"
        }
      ],
      "name": "transferOwnership",
      "outputs": [],
      "stateMutability": "nonpayable",
      "type": "function"
    },
    {
      "stateMutability": "payable",
      "type": "receive"
    }
  ],
  "bytecode": "0x60a06040523480156200001157600080fd5b5060405162001740380380620017408339818101604052810190620000379190620002a4565b336001600081905550600073ffffffffffffffffffffffffffffffffffffffff168173ffffffffffffffffffffffffffffffffffffffff1603620000b55760006040517f1e4fbdf7000000000000000000000000000000000000000000000000000000008152600401620000ac9190620002e7565b60405180910390fd5b620000c6816200017460201b60201c565b50600073ffffffffffffffffffffffffffffffffffffffff168173ffffffffffffffffffffffffffffffffffffffff160362000139576040517f08c379a0000000000000000000000000000000000000000000000000000000008152600401620001309062000365565b60405180910390fd5b8073ffffffffffffffffffffffffffffffffffffffff1660808173ffffffffffffffffffffffffffffffffffffffff16815250505062000387565b6000600160009054906101000a900473ffffffffffffffffffffffffffffffffffffffff16905081600160006101000a81548173ffffffffffffffffffffffffffffffffffffffff021916908373ffffffffffffffffffffffffffffffffffffffff1602179055508173ffffffffffffffffffffffffffffffffffffffff168173ffffffffffffffffffffffffffffffffffffffff167f8be0079c531659141344cd1fd0a4f28419497f9722a3daafe3b4186f6b6457e060405160405180910390a35050565b600080fd5b600073ffffffffffffffffffffffffffffffffffffffff82169050919050565b60006200026c826200023f565b9050919050565b6200027e816200025f565b81146200028a57600080fd5b50565b6000815190506200029e8162000273565b92915050565b600060208284031215620002bd57620002bc6200023a565b5b6000620002cd848285016200028d565b91505092915050565b620002e1816200025f565b82525050565b6000602082019050620002fe6000830184620002d6565b92915050565b600082825260208201905092915050565b7f546f6b656e20616464726573732063616e6e6f74206265207a65726f00000000600082015250565b60006200034d601c8362000304565b91506200035a8262000315565b602082019050919050565b6000602082019050818103600083015262000380816200033e565b9050919050565b608051611373620003cd6000396000818161020f015281816102fc015281816103d70152818161061c015281816106f90152818161079a015261096601526113736000f3fe60806040526004361061007f5760003560e01c8063da5cc7e61161004e578063da5cc7e61461010a578063e4849b3214610133578063f2fde38b1461015c578063fc0c546a146101855761008e565b8063664e970414610093578063715018a6146100be5780638da5cb5b146100d5578063a6f2ae3a146101005761008e565b3661008e5761008c6101b0565b005b600080fd5b34801561009f57600080fd5b506100a86102a5565b6040516100b59190610b46565b60405180910390f35b3480156100ca57600080fd5b506100d36102ab565b005b3480156100e157600080fd5b506100ea6102bf565b6040516100f79190610ba2565b60405180910390f35b6101086101b0565b005b34801561011657600080fd5b50610131600480360381019061012c9190610c1a565b6102e9565b005b34801561013f57600080fd5b5061015a60048036038101906101559190610c5a565b610529565b005b34801561016857600080fd5b50610183600480360381019061017e9190610c87565b6108de565b005b34801561019157600080fd5b5061019a610964565b6040516101a79190610d13565b60405180910390f35b6101b8610988565b600034116101fb576040517f08c379a00000000000000000000000000000000000000000000000000000000081526004016101f290610d8b565b60405180910390fd5b60006103e83461020b9190610dda565b90507f000000000000000000000000000000000000000000000000000000000000000073ffffffffffffffffffffffffffffffffffffffff166340c10f1933836040518363ffffffff1660e01b8152600401610268929190610e1c565b600060405180830381600087803b15801561028257600080fd5b505af1158015610296573d6000803e3d6000fd5b50505050506102a36109ce565b565b6103e881565b6102b36109d8565b6102bd6000610a5f565b565b6000600160009054906101000a900473ffffffffffffffffffffffffffffffffffffffff16905090565b6102f16109d8565b6102f9610988565b807f000000000000000000000000000000000000000000000000000000000000000073ffffffffffffffffffffffffffffffffffffffff166370a08231306040518263ffffffff1660e01b81526004016103539190610ba2565b602060405180830381865afa158015610370573d6000803e3d6000fd5b505050506040513d601f19601f820116820180604052508101906103949190610e5a565b10156103d5576040517f08c379a00000000000000000000000000000000000000000000000000000000081526004016103cc90610ed3565b60405180910390fd5b7f000000000000000000000000000000000000000000000000000000000000000073ffffffffffffffffffffffffffffffffffffffff1663095ea7b383836040518363ffffffff1660e01b8152600401610430929190610e1c565b6020604051808303816000875af115801561044f573d6000803e3d6000fd5b505050506040513d601f19601f820116820180604052508101906104739190610f2b565b6104b2576040517f08c379a00000000000000000000000000000000000000000000000000000000081526004016104a990610fa4565b60405180910390fd5b8173ffffffffffffffffffffffffffffffffffffffff1663a0712d68826040518263ffffffff1660e01b81526004016104eb9190610b46565b600060405180830381600087803b15801561050557600080fd5b505af1158015610519573d6000803e3d6000fd5b505050506105256109ce565b5050565b610531610988565b60008111610574576040517f08c379a000000000000000000000000000000000000000000000000000000000815260040161056b90611010565b60405180910390fd5b60006103e882610584919061105f565b146105c4576040517f08c379a00000000000000000000000000000000000000000000000000000000081526004016105bb90611102565b60405180910390fd5b60006103e8826105d49190611122565b905080471015610619576040517f08c379a00000000000000000000000000000000000000000000000000000000081526004016106109061119f565b60405180910390fd5b817f000000000000000000000000000000000000000000000000000000000000000073ffffffffffffffffffffffffffffffffffffffff1663dd62ed3e33306040518363ffffffff1660e01b81526004016106759291906111bf565b602060405180830381865afa158015610692573d6000803e3d6000fd5b505050506040513d601f19601f820116820180604052508101906106b69190610e5a565b10156106f7576040517f08c379a00000000000000000000000000000000000000000000000000000000081526004016106ee90611234565b60405180910390fd5b7f000000000000000000000000000000000000000000000000000000000000000073ffffffffffffffffffffffffffffffffffffffff166323b872dd3330856040518463ffffffff1660e01b815260040161075493929190611254565b6020604051808303816000875af1158015610773573d6000803e3d6000fd5b505050506040513d601f19601f820116820180604052508101906107979190610f2b565b507f000000000000000000000000000000000000000000000000000000000000000073ffffffffffffffffffffffffffffffffffffffff16639dc29fac30846040518363ffffffff1660e01b81526004016107f3929190610e1c565b600060405180830381600087803b15801561080d57600080fd5b505af1158015610821573d6000803e3d6000fd5b5050505060003373ffffffffffffffffffffffffffffffffffffffff168260405161084b906112bc565b60006040518083038185875af1925050503d8060008114610888576040519150601f19603f3d011682016040523d82523d6000602084013e61088d565b606091505b50509050806108d1576040517f08c379a00000000000000000000000000000000000000000000000000000000081526004016108c89061131d565b60405180910390fd5b50506108db6109ce565b50565b6108e66109d8565b600073ffffffffffffffffffffffffffffffffffffffff168173ffffffffffffffffffffffffffffffffffffffff16036109585760006040517f1e4fbdf700000000000000000000000000000000000000000000000000000000815260040161094f9190610ba2565b60405180910390fd5b61096181610a5f565b50565b7f000000000000000000000000000000000000000000000000000000000000000081565b6002600054036109c4576040517f3ee5aeb500000000000000000000000000000000000000000000000000000000815260040160405180910390fd5b6002600081905550565b6001600081905550565b6109e0610b25565b73ffffffffffffffffffffffffffffffffffffffff166109fe6102bf565b73ffffffffffffffffffffffffffffffffffffffff1614610a5d57610a21610b25565b6040517f118cdaa7000000000000000000000000000000000000000000000000000000008152600401610a549190610ba2565b60405180910390fd5b565b6000600160009054906101000a900473ffffffffffffffffffffffffffffffffffffffff16905081600160006101000a81548173ffffffffffffffffffffffffffffffffffffffff021916908373ffffffffffffffffffffffffffffffffffffffff1602179055508173ffffffffffffffffffffffffffffffffffffffff168173ffffffffffffffffffffffffffffffffffffffff167f8be0079c531659141344cd1fd0a4f28419497f9722a3daafe3b4186f6b6457e060405160405180910390a35050565b600033905090565b6000819050919050565b610b4081610b2d565b82525050565b6000602082019050610b5b6000830184610b37565b92915050565b600073ffffffffffffffffffffffffffffffffffffffff82169050919050565b6000610b8c82610b61565b9050919050565b610b9c81610b81565b82525050565b6000602082019050610bb76000830184610b93565b92915050565b600080fd5b610bcb81610b81565b8114610bd657600080fd5b50565b600081359050610be881610bc2565b92915050565b610bf781610b2d565b8114610c0257600080fd5b50565b600081359050610c1481610bee565b92915050565b60008060408385031215610c3157610c30610bbd565b5b6000610c3f85828601610bd9565b9250506020610c5085828601610c05565b9150509250929050565b600060208284031215610c7057610c6f610bbd565b5b6000610c7e84828501610c05565b91505092915050565b600060208284031215610c9d57610c9c610bbd565b5b6000610cab84828501610bd9565b91505092915050565b6000819050919050565b6000610cd9610cd4610ccf84610b61565b610cb4565b610b61565b9050919050565b6000610ceb82610cbe565b9050919050565b6000610cfd82610ce0565b9050919050565b610d0d81610cf2565b82525050565b6000602082019050610d286000830184610d04565b92915050565b600082825260208201905092915050565b7f4e6f204554482073656e74000000000000000000000000000000000000000000600082015250565b6000610d75600b83610d2e565b9150610d8082610d3f565b602082019050919050565b60006020820190508181036000830152610da481610d68565b9050919050565b7f4e487b7100000000000000000000000000000000000000000000000000000000600052601160045260246000fd5b6000610de582610b2d565b9150610df083610b2d565b9250828202610dfe81610b2d565b91508282048414831517610e1557610e14610dab565b5b5092915050565b6000604082019050610e316000830185610b93565b610e3e6020830184610b37565b9392505050565b600081519050610e5481610bee565b92915050565b600060208284031215610e7057610e6f610bbd565b5b6000610e7e84828501610e45565b91505092915050565b7f496e73756666696369656e7420484c5820726573657276650000000000000000600082015250565b6000610ebd601883610d2e565b9150610ec882610e87565b602082019050919050565b60006020820190508181036000830152610eec81610eb0565b9050919050565b60008115159050919050565b610f0881610ef3565b8114610f1357600080fd5b50565b600081519050610f2581610eff565b92915050565b600060208284031215610f4157610f40610bbd565b5b6000610f4f84828501610f16565b91505092915050565b7f417070726f7665206661696c6564000000000000000000000000000000000000600082015250565b6000610f8e600e83610d2e565b9150610f9982610f58565b602082019050919050565b60006020820190508181036000830152610fbd81610f81565b9050919050565b7f484c5820616d6f756e74206973207a65726f0000000000000000000000000000600082015250565b6000610ffa601283610d2e565b915061100582610fc4565b602082019050919050565b6000602082019050818103600083015261102981610fed565b9050919050565b7f4e487b7100000000000000000000000000000000000000000000000000000000600052601260045260246000fd5b600061106a82610b2d565b915061107583610b2d565b92508261108557611084611030565b5b828206905092915050565b7f484c5820616d6f756e74206d75737420636f6e7665727420746f2077686f6c6560008201527f2077656900000000000000000000000000000000000000000000000000000000602082015250565b60006110ec602483610d2e565b91506110f782611090565b604082019050919050565b6000602082019050818103600083015261111b816110df565b9050919050565b600061112d82610b2d565b915061113883610b2d565b92508261114857611147611030565b5b828204905092915050565b7f496e73756666696369656e742045544820696e20726573657276650000000000600082015250565b6000611189601b83610d2e565b915061119482611153565b602082019050919050565b600060208201905081810360008301526111b88161117c565b9050919050565b60006040820190506111d46000830185610b93565b6111e16020830184610b93565b9392505050565b7f496e73756666696369656e7420616c6c6f77616e636500000000000000000000600082015250565b600061121e601683610d2e565b9150611229826111e8565b602082019050919050565b6000602082019050818103600083015261124d81611211565b9050919050565b60006060820190506112696000830186610b93565b6112766020830185610b93565b6112836040830184610b37565b949350505050565b600081905092915050565b50565b60006112a660008361128b565b91506112b182611296565b600082019050919050565b60006112c782611299565b9150819050919050565b7f455448207472616e73666572206661696c656400000000000000000000000000600082015250565b6000611307601383610d2e565b9150611312826112d1565b602082019050919050565b60006020820190508181036000830152611336816112fa565b905091905056fea26469706673582212209b8137a930ff8296e8e10337308b9ad53de195068ac5d083051c9a903f7b43c064736f6c63430008140033",
  "linkReferences": {},
  "deployedLinkReferences": {}
}