{
  "_format": "hh-sol-artifact-1",
  "contractName": "HelixReserve",
  "sourceName": "contracts/HelixReserve.sol",
  "abi": [
    {
      "inputs": [
        {
          "internalType": "address",
          "name": "tokenAddress",
          "type": "address"
        }
      ],
      "stateMutability": "nonpayable",
      "type": "constructor"
    },
    {
      "inputs": [
        {
          "internalType": "address",
          "name": "owner",
          "type": "address"
        }
      ],
      "name": "OwnableInvalidOwner",
      "type": "error"
    },
    {
      "inputs": [
        {
          "internalType": "address",
          "name": "account",
          "type": "address"
        }
      ],
      "name": "OwnableUnauthorizedAccount",
      "type": "error"
    },
    {
      "inputs": [],
      "name": "ReentrancyGuardReentrantCall",
      "type": "error"
    },
    {
      "anonymous": false,
      "inputs": [
        {
          "indexed": true,
          "internalType": "address",
          "name": "buyer",
          "type": "address"
        },
        {
          "indexed": false,
          "internalType": "uint256",
          "name": "ethIn",
          "type": "uint256"
        },
        {
          "indexed": false,
          "internalType": "uint256",
          "name": "hlxOut",
          "type": "uint256"
        }
      ],
      "name": "Bought",
      "type": "event"
    },
    {
      "anonymous": false,
      "inputs": [
        {
          "indexed": true,
          "internalType": "address",
          "name": "marketAMM",
          "type": "address"
        },
        {
          "indexed": false,
          "internalType": "uint256",
          "name": "hlxAmount",
          "type": "uint256"
        }
      ],
      "name": "MarketSeeded",
      "type": "event"
    },
    {
      "anonymous": false,
      "inputs": [
        {
          "indexed": true,
          "internalType": "address",
          "name": "previousOwner",
          "type": "address"
        },
        {
          "indexed": true,
          "internalType": "address",
          "name": "newOwner",
          "type": "address"
        }
      ],
      "name": "OwnershipTransferStarted",
      "type": "event"
    },
    {
      "anonymous": false,
      "inputs": [
        {
          "indexed": true,
          "internalType": "address",
          "name": "previousOwner",
          "type": "address"
        },
        {
          "indexed": true,
          "internalType": "address",
          "name": "newOwner",
          "type": "address"
        }
      ],
      "name": "OwnershipTransferred",
      "type": "event"
    },
    {
      "anonymous": false,
      "inputs": [
        {
          "indexed": true,
          "internalType": "address",
          "name": "seller",
          "type": "address"
        },
        {
          "indexed": false,
          "internalType": "uint256",
          "name": "hlxIn",
          "type": "uint256"
        },
        {
          "indexed": false,
          "internalType": "uint256",
          "name": "ethOut",
          "type": "uint256"
        }
      ],
      "name": "Sold",
      "type": "event"
    },
    {
      "inputs": [],
      "name": "RATE",
      "outputs": [
        {
          "internalType": "uint256",
          "name": "",
          "type": "uint256"
        }
      ],
      "stateMutability": "view",
      "type": "function"
    },
    {
      "inputs": [],
      "name": "acceptOwnership",
      "outputs": [],
      "stateMutability": "nonpayable",
      "type": "function"
    },
    {
      "inputs": [],
      "name": "buy",
      "outputs": [],
      "stateMutability": "payable",
      "type": "function"
    },
    {
      "inputs": [],
      "name": "owner",
      "outputs": [
        {
          "internalType": "address",
          "name": "",
          "type": "address"
        }
      ],
      "stateMutability": "view",
      "type": "function"
    },
    {
      "inputs": [],
      "name": "pendingOwner",
      "outputs": [
        {
          "internalType": "address",
          "name": "",
          "type": "address"
        }
      ],
      "stateMutability": "view",
      "type": "function"
    },
    {
      "inputs": [],
      "name": "renounceOwnership",
      "outputs": [],
      "stateMutability": "nonpayable",
      "type": "function"
    },
    {
      "inputs": [
        {
          "internalType": "address",
          "name": "marketAMM",
          "type": "address"
        },
        {
          "internalType": "uint256",
          "name": "hlxAmount",
          "type": "uint256"
        }
      ],
      "name": "seedMarket",
      "outputs": [],
      "stateMutability": "nonpayable",
      "type": "function"
    },
    {
      "inputs": [
        {
          "internalType": "uint256",
          "name": "hlxAmount",
          "type": "uint256"
        }
      ],
      "name": "sell",
      "outputs": [],
      "stateMutability": "nonpayable",
      "type": "function"
    },
    {
      "inputs": [],
      "name": "token",
      "outputs": [
        {
          "internalType": "contract AlphaHelixToken",
          "name": "",
          "type": "address"
        }
      ],
      "stateMutability": "view",
      "type": "function"
    },
    {
      "inputs": [
        {
          "internalType": "address",
          "name": "newOwner",
          "type": "address"
        }
      ],
      "name": "transferOwnership",
      "outputs": [],
      "stateMutability": "nonpayable",
      "type": "function"
    },
    {
      "stateMutability": "payable",
      "type": "receive"
    }
  ],
  "bytecode": "0x60a03461013657601f610c6938819003918201601f19168301916001600160401b0383118484101761013b5780849260209460405283398101031261013657516001600160a01b0380821691829003610136576001600055331561011d5760018060a01b03198060025416600255600154903390821617600155604051913391167f8be0079c531659141344cd1fd0a4f28419497f9722a3daafe3b4186f6b6457e0600080a381156100db5750608052604051610b179081610152823960805181818160c8015281816101c00152818161055101526109e50152f35b62461bcd60e51b815260206004820152601c60248201527f546f6b656e20616464726573732063616e6e6f74206265207a65726f000000006044820152606490fd5b604051631e4fbdf760e01b815260006004820152602490fd5b600080fd5b634e487b7160e01b600052604160045260246000fdfe6080604081815260049182361015610037575b505050361561002057600080fd5b6100286109ab565b6100306109ce565b6001600055005b600092833560e01c918263664e9704146108e957508163715018a61461088257816379ba5097146107f45781638da5cb5b146107cb578163a6f2ae3a146107a8578163da5cc7e61461050b578163e30c3978146104e2578163e4849b321461016c57508063f2fde38b146100fb5763fc0c546a146100b55780610012565b346100f757816003193601126100f757517f00000000000000000000000000000000000000000000000000000000000000006001600160a01b03168152602090f35b5080fd5b823461016957602036600319011261016957610115610905565b61011d61091b565b600280546001600160a01b0319166001600160a01b039283169081179091556001549091167f38d16b8cac22d99fc7c124b9cd0de2d3fa1faef420bfe791d8c362d765e227008380a380f35b80fd5b839150346100f757602092836003193601126104de5781359161018d6109ab565b82156104a8576103e880840661045a57830490814710610417578251636eb1769f60e11b815233828201523060248201527f00000000000000000000000000000000000000000000000000000000000000006001600160a01b0316908781604481855afa90811561039b5790869188916103e1575b50106103a55783516323b872dd60e01b815233838201523060248201526044810186905287816064818a865af1801561039b5761036e575b50803b1561036a578351632770a7eb60e21b815230838201908152602081018790529091879183919082908490829060400103925af1801561036057908691610348575b5080808085335af13d15610343573d67ffffffffffffffff8111610330578451906102b2601f8201601f19168a0183610971565b815286883d92013e5b156102f757507fbac9694ac0daa55169abd117086fe32c89401d9a3b15dd1d34e55e0aa4e47a9d92939482519485528401523392a26001815580f35b825162461bcd60e51b81529081018690526013602482015272115512081d1c985b9cd9995c8819985a5b1959606a1b6044820152606490fd5b634e487b7160e01b875260418352602487fd5b6102bb565b61035190610947565b61035c57848761027e565b8480fd5b84513d88823e3d90fd5b8580fd5b61038d90883d8a11610394575b6103858183610971565b810190610993565b508761023a565b503d61037b565b85513d89823e3d90fd5b835162461bcd60e51b81528083018890526016602482015275496e73756666696369656e7420616c6c6f77616e636560501b6044820152606490fd5b809250898092503d8311610410575b6103fa8183610971565b8101031261040b5785905189610202565b600080fd5b503d6103f0565b825162461bcd60e51b8152908101869052601b60248201527f496e73756666696369656e742045544820696e207265736572766500000000006044820152606490fd5b5084608492519162461bcd60e51b83528201526024808201527f484c5820616d6f756e74206d75737420636f6e7665727420746f2077686f6c656044820152632077656960e01b6064820152fd5b84606492519162461bcd60e51b83528201526012602482015271484c5820616d6f756e74206973207a65726f60701b6044820152fd5b8280fd5b5050346100f757816003193601126100f75760025490516001600160a01b039091168152602090f35b839150346100f757826003193601126100f757610526610905565b60249182359061053461091b565b61053c6109ab565b6001600160a01b0383811694908515610766577f0000000000000000000000000000000000000000000000000000000000000000168751946370a0823160e01b8652308487015260209586818581865afa90811561075c579086918a91610727575b50106106e557885163095ea7b360e01b81526001600160a01b03909116848201908152602081018690529091869183919082908b90829060400103925af19081156106db5787916106be575b501561068b57843b1561036a57865163140e25ad60e31b8152918201839052859082908183885af180156106815761064e575b507fba8aa5840f5167bbc6733953899c93f85400c9147684c18a556f8342255ee0d692939451908152a26001815580f35b9361067a7fba8aa5840f5167bbc6733953899c93f85400c9147684c18a556f8342255ee0d69495610947565b939261061d565b86513d87823e3d90fd5b865162461bcd60e51b8152918201849052600e908201526d105c1c1c9bdd994819985a5b195960921b6044820152606490fd5b6106d59150853d8711610394576103858183610971565b886105ea565b88513d89823e3d90fd5b885162461bcd60e51b81528085018790526018818501527f496e73756666696369656e7420484c58207265736572766500000000000000006044820152606490fd5b809250888092503d8311610755575b6107408183610971565b81010312610751578590518b61059e565b8880fd5b503d610736565b8a513d8b823e3d90fd5b875162461bcd60e51b81526020818501526019818401527f4d61726b657420414d4d2063616e6e6f74206265207a65726f000000000000006044820152606490fd5b8380600319360112610169576107bc6109ab565b6107c46109ce565b6001815580f35b5050346100f757816003193601126100f75760015490516001600160a01b039091168152602090f35b919050346104de57826003193601126104de57600254916001600160a01b0391338385160361086b5750506bffffffffffffffffffffffff60a01b8092166002556001549133908316176001553391167f8be0079c531659141344cd1fd0a4f28419497f9722a3daafe3b4186f6b6457e08380a380f35b60249250519063118cdaa760e01b82523390820152fd5b833461016957806003193601126101695761089b61091b565b600280546001600160a01b031990811690915560018054918216905581906001600160a01b03167f8be0079c531659141344cd1fd0a4f28419497f9722a3daafe3b4186f6b6457e08280a380f35b8490346100f757816003193601126100f757806103e860209252f35b600435906001600160a01b038216820361040b57565b6001546001600160a01b0316330361092f57565b60405163118cdaa760e01b8152336004820152602490fd5b67ffffffffffffffff811161095b57604052565b634e487b7160e01b600052604160045260246000fd5b90601f8019910116810190811067ffffffffffffffff82111761095b57604052565b9081602091031261040b5751801515810361040b5790565b6002600054146109bc576002600055565b604051633ee5aeb560e01b8152600490fd5b3415610aae576103e88034029034820403610a98577f00000000000000000000000000000000000000000000000000000000000000006001600160a01b0316803b1561040b576040516340c10f1960e01b815233600482015260248101839052906000908290604490829084905af18015610a8c57610a7d575b506040519034825260208201527fa9a40dec7a304e5915d11358b968c1e8d365992abf20f82285d1df1b30c8e24c60403392a2565b610a8690610947565b38610a48565b6040513d6000823e3d90fd5b634e487b7160e01b600052601160045260246000fd5b60405162461bcd60e51b815260206004820152600b60248201526a139bc8115512081cd95b9d60aa1b6044820152606490fdfea26469706673582212205287c942ab971bd8be36facfffedefe4277e22f61230b2d9266e86521805702464736f6c63430008140033",
  "linkReferences": {},
  "deployedLinkReferences": {}
}