{
  "_format": "hh-sol-artifact-1",
  "contractName": "HelixReserve",
  "sourceName": "contracts/HelixReserve.sol",
  "abi": [
    {
      "inputs": [
        {
          "internalType": "address",
          "name": "tokenAddress",
          "type": "address"
        }
      ],
      "stateMutability": "nonpayable",
      "type": "constructor"
    },
    {
      "inputs": [
        {
          "internalType": "address",
          "name": "owner",
          "type": "address"
        }
      ],
      "name": "OwnableInvalidOwner",
      "type": "error"
    },
    {
      "inputs": [
        {
          "internalType": "address",
          "name": "account",
          "type": "address"
        }
      ],
      "name": "OwnableUnauthorizedAccount",
      "type": "error"
    },
    {
      "inputs": [],
      "name": "ReentrancyGuardReentrantCall",
      "type": "error"
    },
    {
      "anonymous": false,
      "inputs": [
        {
          "indexed": true,
          "internalType": "address",
          "name": "buyer",
          "type": "address"
        },
        {
          "indexed": false,
          "internalType": "uint256",
          "name": "ethIn",
          "type": "uint256"
        },
        {
          "indexed": false,
          "internalType": "uint256",
          "name": "hlxOut",
          "type": "uint256"
        }
      ],
      "name": "Bought",
      "type": "event"
    },
    {
      "anonymous": false,
      "inputs": [
        {
          "indexed": true,
          "internalType": "address",
          "name": "marketAMM",
          "type": "address"
        },
        {
          "indexed": false,
          "internalType": "uint256",
          "name": "hlxAmount",
          "type": "uint256"
        }
      ],
      "name": "MarketSeeded",
      "type": "event"
    },
    {
      "anonymous": false,
      "inputs": [
        {
          "indexed": true,
          "internalType": "address",
          "name": "previousOwner",
          "type": "address"
        },
        {
          "indexed": true,
          "internalType": "address",
          "name": "newOwner",
          "type": "address"
        }
      ],
      "name": "OwnershipTransferStarted",
      "type": "event"
    },
    {
      "anonymous": false,
      "inputs": [
        {
          "indexed": true,
          "internalType": "address",
          "name": "previousOwner",
          "type": "address"
        },
        {
          "indexed": true,
          "internalType": "address",
          "name": "newOwner",
          "type": "address"
        }
      ],
      "name": "OwnershipTransferred",
      "type": "event"
    },
    {
      "anonymous": false,
      "inputs": [
        {
          "indexed": true,
          "internalType": "address",
          "name": "seller",
          "type": "address"
        },
        {
          "indexed": false,
          "internalType": "uint256",
          "name": "hlxIn",
          "type": "uint256"
        },
        {
          "indexed": false,
          "internalType": "uint256",
          "name": "ethOut",
          "type": "uint256"
        }
      ],
      "name": "Sold",
      "type": "event"
    },
    {
      "inputs": [],
      "name": "RATE",
      "outputs": [
        {
          "internalType": "uint256",
          "name": "",
          "type": "uint256"
        }
      ],
      "stateMutability": "view",
      "type": "function"
    },
    {
      "inputs": [],
      "name": "acceptOwnership",
      "outputs": [],
      "stateMutability": "nonpayable",
      "type": "function"
    },
    {
      "inputs": [],
      "name": "buy",
      "outputs": [],
      "stateMutability": "payable",
      "type": "function"
    },
    {
      "inputs": [],
      "name": "owner",
      "outputs": [
        {
          "internalType": "address",
          "name": "",
          "type": "address"
        }
      ],
      "stateMutability": "view",
      "type": "function"
    },
    {
      "inputs": [],
      "name": "pendingOwner",
      "outputs": [
        {
          "internalType": "address",
          "name": "",
          "type": "address"
        }
      ],
      "stateMutability": "view",
      "type": "function"
    },
    {
      "inputs": [],
      "name": "renounceOwnership",
      "outputs": [],
      "stateMutability": "nonpayable",
      "type": "function"
    },
    {
      "inputs": [
        {
          "internalType": "address",
          "name": "marketAMM",
          "type": "address"
        },
        {
          "internalType": "uint256",
          "name": "hlxAmount",
          "type": "uint256"
        }
      ],
      "name": "seedMarket",
      "outputs": [],
      "stateMutability": "nonpayable",
      "type": "function"
    },
    {
      "inputs": [
        {
          "internalType": "uint256",
          "name": "hlxAmount",
          "type": "uint256"
        }
      ],
      "name": "sell",
      "outputs": [],
      "stateMutability": "nonpayable",
      "type": "function"
    },
    {
      "inputs": [],
      "name": "token",
      "outputs": [
        {
          "internalType": "contract AlphaHelixToken",
          "name": "",
          "type": "address"
        }
      ],
      "stateMutability": "view",
      "type": "function"
    },
    {
      "inputs": [
        {
          "internalType": "address",
          "name": "newOwner",
          "type": "address"
        }
      ],
      "name": "transferOwnership",
      "outputs": [],
      "stateMutability": "nonpayable",
      "type": "function"
    },
    {
      "stateMutability": "payable",
      "type": "receive"
    }
  ],
  "bytecode": "0x60a060405234801561001057600080fd5b50604051610e58380380610e5883398101604081905261002f9161013a565b6001600055338061005b57604051631e4fbdf760e01b8152600060048201526024015b60405180910390fd5b610064816100cc565b506001600160a01b0381166100bb5760405162461bcd60e51b815260206004820152601c60248201527f546f6b656e20616464726573732063616e6e6f74206265207a65726f000000006044820152606401610052565b6001600160a01b031660805261016a565b600280546001600160a01b03191690556100e5816100e8565b50565b600180546001600160a01b038381166001600160a01b0319831681179093556040519116919082907f8be0079c531659141344cd1fd0a4f28419497f9722a3daafe3b4186f6b6457e090600090a35050565b60006020828403121561014c57600080fd5b81516001600160a01b038116811461016357600080fd5b9392505050565b608051610ca96101af600039600081816101da015281816102a0015281816104380152818161051f015281816107a30152818161087f01526109110152610ca96000f3fe6080604052600436106100955760003560e01c8063da5cc7e611610059578063da5cc7e61461014a578063e30c39781461016a578063e4849b3214610188578063f2fde38b146101a8578063fc0c546a146101c857600080fd5b8063664e9704146100bd578063715018a6146100e657806379ba5097146100fb5780638da5cb5b14610110578063a6f2ae3a1461014257600080fd5b366100b8576100a26101fc565b6100ac3334610226565b6100b66001600055565b005b600080fd5b3480156100c957600080fd5b506100d36103e881565b6040519081526020015b60405180910390f35b3480156100f257600080fd5b506100b6610347565b34801561010757600080fd5b506100b661035b565b34801561011c57600080fd5b506001546001600160a01b03165b6040516001600160a01b0390911681526020016100dd565b6100b661039f565b34801561015657600080fd5b506100b6610165366004610b6a565b6103bb565b34801561017657600080fd5b506002546001600160a01b031661012a565b34801561019457600080fd5b506100b66101a3366004610b94565b610674565b3480156101b457600080fd5b506100b66101c3366004610bad565b610a4a565b3480156101d457600080fd5b5061012a7f000000000000000000000000000000000000000000000000000000000000000081565b60026000540361021f57604051633ee5aeb560e01b815260040160405180910390fd5b6002600055565b600081116102695760405162461bcd60e51b815260206004820152600b60248201526a139bc8115512081cd95b9d60aa1b60448201526064015b60405180910390fd5b60006102776103e883610bcf565b6040516340c10f1960e01b81526001600160a01b038581166004830152602482018390529192507f0000000000000000000000000000000000000000000000000000000000000000909116906340c10f1990604401600060405180830381600087803b1580156102e657600080fd5b505af11580156102fa573d6000803e3d6000fd5b505060408051858152602081018590526001600160a01b03871693507fa9a40dec7a304e5915d11358b968c1e8d365992abf20f82285d1df1b30c8e24c92500160405180910390a2505050565b61034f610abb565b6103596000610ae8565b565b60025433906001600160a01b031681146103935760405163118cdaa760e01b81526001600160a01b0382166004820152602401610260565b61039c81610ae8565b50565b6103a76101fc565b6103b13334610226565b6103596001600055565b6103c3610abb565b6103cb6101fc565b6001600160a01b0382166104215760405162461bcd60e51b815260206004820152601960248201527f4d61726b657420414d4d2063616e6e6f74206265207a65726f000000000000006044820152606401610260565b6040516370a0823160e01b815230600482015281907f00000000000000000000000000000000000000000000000000000000000000006001600160a01b0316906370a0823190602401602060405180830381865afa158015610487573d6000803e3d6000fd5b505050506040513d601f19601f820116820180604052508101906104ab9190610bfa565b10156104f95760405162461bcd60e51b815260206004820152601860248201527f496e73756666696369656e7420484c58207265736572766500000000000000006044820152606401610260565b60405163095ea7b360e01b81526001600160a01b038381166004830152602482018390527f0000000000000000000000000000000000000000000000000000000000000000169063095ea7b3906044016020604051808303816000875af1158015610568573d6000803e3d6000fd5b505050506040513d601f19601f8201168201806040525081019061058c9190610c13565b6105c95760405162461bcd60e51b815260206004820152600e60248201526d105c1c1c9bdd994819985a5b195960921b6044820152606401610260565b60405163140e25ad60e31b8152600481018290526001600160a01b0383169063a0712d6890602401600060405180830381600087803b15801561060b57600080fd5b505af115801561061f573d6000803e3d6000fd5b50505050816001600160a01b03167fba8aa5840f5167bbc6733953899c93f85400c9147684c18a556f8342255ee0d68260405161065e91815260200190565b60405180910390a26106706001600055565b5050565b61067c6101fc565b600081116106c15760405162461bcd60e51b8152602060048201526012602482015271484c5820616d6f756e74206973207a65726f60701b6044820152606401610260565b6106cd6103e882610c4b565b156107265760405162461bcd60e51b8152602060048201526024808201527f484c5820616d6f756e74206d75737420636f6e7665727420746f2077686f6c656044820152632077656960e01b6064820152608401610260565b60006107346103e883610c5f565b9050804710156107865760405162461bcd60e51b815260206004820152601b60248201527f496e73756666696369656e742045544820696e207265736572766500000000006044820152606401610260565b604051636eb1769f60e11b815233600482015230602482015282907f00000000000000000000000000000000000000000000000000000000000000006001600160a01b03169063dd62ed3e90604401602060405180830381865afa1580156107f2573d6000803e3d6000fd5b505050506040513d601f19601f820116820180604052508101906108169190610bfa565b101561085d5760405162461bcd60e51b8152602060048201526016602482015275496e73756666696369656e7420616c6c6f77616e636560501b6044820152606401610260565b6040516323b872dd60e01b8152336004820152306024820152604481018390527f00000000000000000000000000000000000000000000000000000000000000006001600160a01b0316906323b872dd906064016020604051808303816000875af11580156108d0573d6000803e3d6000fd5b505050506040513d601f19601f820116820180604052508101906108f49190610c13565b50604051632770a7eb60e21b8152306004820152602481018390527f00000000000000000000000000000000000000000000000000000000000000006001600160a01b031690639dc29fac90604401600060405180830381600087803b15801561095d57600080fd5b505af1158015610971573d6000803e3d6000fd5b50506040516000925033915083908381818185875af1925050503d80600081146109b7576040519150601f19603f3d011682016040523d82523d6000602084013e6109bc565b606091505b5050905080610a035760405162461bcd60e51b8152602060048201526013602482015272115512081d1c985b9cd9995c8819985a5b1959606a1b6044820152606401610260565b604080518481526020810184905233917fbac9694ac0daa55169abd117086fe32c89401d9a3b15dd1d34e55e0aa4e47a9d910160405180910390a2505061039c6001600055565b610a52610abb565b600280546001600160a01b0383166001600160a01b03199091168117909155610a836001546001600160a01b031690565b6001600160a01b03167f38d16b8cac22d99fc7c124b9cd0de2d3fa1faef420bfe791d8c362d765e2270060405160405180910390a350565b6001546001600160a01b031633146103595760405163118cdaa760e01b8152336004820152602401610260565b600280546001600160a01b031916905561039c81600180546001600160a01b038381166001600160a01b0319831681179093556040519116919082907f8be0079c531659141344cd1fd0a4f28419497f9722a3daafe3b4186f6b6457e090600090a35050565b80356001600160a01b0381168114610b6557600080fd5b919050565b60008060408385031215610b7d57600080fd5b610b8683610b4e565b946020939093013593505050565b600060208284031215610ba657600080fd5b5035919050565b600060208284031215610bbf57600080fd5b610bc882610b4e565b9392505050565b8082028115828204841417610bf457634e487b7160e01b600052601160045260246000fd5b92915050565b600060208284031215610c0c57600080fd5b5051919050565b600060208284031215610c2557600080fd5b81518015158114610bc857600080fd5b634e487b7160e01b600052601260045260246000fd5b600082610c5a57610c5a610c35565b500690565b600082610c6e57610c6e610c35565b50049056fea2646970667358221220e465d6855a08cd2757835838d861aed3a409726e00a003167fe7bef793ae868b64736f6c63430008140033",
  "linkReferences": {},
  "deployedLinkReferences": {}
}