{
  "_format": "hh-sol-artifact-1",
  "contractName": "HelixReserve",
  "sourceName": "contracts/HelixReserve.sol",
  "abi": [
    {
      "inputs": [
        {
          "internalType": "address",
          "name": "tokenAddress",
          "type": "address"
        }
      ],
      "stateMutability": "nonpayable",
      "type": "constructor"
    },
    {
      "inputs": [],
      "name": "ReentrancyGuardReentrantCall",
      "type": "error"
    },
    {
      "inputs": [],
      "name": "RATE",
      "outputs": [
        {
          "internalType": "uint256",
          "name": "",
          "type": "uint256"
        }
      ],
      "stateMutability": "view",
      "type": "function"
    },
    {
      "inputs": [],
      "name": "buy",
      "outputs": [],
      "stateMutability": "payable",
      "type": "function"
    },
    {
      "inputs": [
        {
          "internalType": "uint256",
          "name": "hlxAmount",
          "type": "uint256"
        }
      ],
      "name": "sell",
      "outputs": [],
      "stateMutability": "nonpayable",
      "type": "function"
    },
    {
      "inputs": [],
      "name": "token",
      "outputs": [
        {
          "internalType": "contract AlphaHelixToken",
          "name": "",
          "type": "address"
        }
      ],
      "stateMutability": "view",
      "type": "function"
    },
    {
      "stateMutability": "payable",
      "type": "receive"
    }
  ],
  "bytecode": "0x60a06040523480156200001157600080fd5b5060405162000f0138038062000f01833981810160405281019062000037919062000156565b6001600081905550600073ffffffffffffffffffffffffffffffffffffffff168173ffffffffffffffffffffffffffffffffffffffff1603620000b1576040517f08c379a0000000000000000000000000000000000000000000000000000000008152600401620000a890620001e9565b60405180910390fd5b8073ffffffffffffffffffffffffffffffffffffffff1660808173ffffffffffffffffffffffffffffffffffffffff1681525050506200020b565b600080fd5b600073ffffffffffffffffffffffffffffffffffffffff82169050919050565b60006200011e82620000f1565b9050919050565b620001308162000111565b81146200013c57600080fd5b50565b600081519050620001508162000125565b92915050565b6000602082840312156200016f576200016e620000ec565b5b60006200017f848285016200013f565b91505092915050565b600082825260208201905092915050565b7f546f6b656e20616464726573732063616e6e6f74206265207a65726f00000000600082015250565b6000620001d1601c8362000188565b9150620001de8262000199565b602082019050919050565b600060208201905081810360008301526200020481620001c2565b9050919050565b608051610cbe620002436000396000818161013f015281816102ce015281816103ab0152818161044c01526105920152610cbe6000f3fe6080604052600436106100435760003560e01c8063664e970414610057578063a6f2ae3a14610082578063e4849b321461008c578063fc0c546a146100b557610052565b36610052576100506100e0565b005b600080fd5b34801561006357600080fd5b5061006c6101d5565b604051610079919061061d565b60405180910390f35b61008a6100e0565b005b34801561009857600080fd5b506100b360048036038101906100ae9190610669565b6101db565b005b3480156100c157600080fd5b506100ca610590565b6040516100d79190610715565b60405180910390f35b6100e86105b4565b6000341161012b576040517f08c379a00000000000000000000000000000000000000000000000000000000081526004016101229061078d565b60405180910390fd5b60006103e83461013b91906107dc565b90507f000000000000000000000000000000000000000000000000000000000000000073ffffffffffffffffffffffffffffffffffffffff166340c10f1933836040518363ffffffff1660e01b815260040161019892919061083f565b600060405180830381600087803b1580156101b257600080fd5b505af11580156101c6573d6000803e3d6000fd5b50505050506101d36105fa565b565b6103e881565b6101e36105b4565b60008111610226576040517f08c379a000000000000000000000000000000000000000000000000000000000815260040161021d906108b4565b60405180910390fd5b60006103e8826102369190610903565b14610276576040517f08c379a000000000000000000000000000000000000000000000000000000000815260040161026d906109a6565b60405180910390fd5b60006103e88261028691906109c6565b9050804710156102cb576040517f08c379a00000000000000000000000000000000000000000000000000000000081526004016102c290610a43565b60405180910390fd5b817f000000000000000000000000000000000000000000000000000000000000000073ffffffffffffffffffffffffffffffffffffffff1663dd62ed3e33306040518363ffffffff1660e01b8152600401610327929190610a63565b602060405180830381865afa158015610344573d6000803e3d6000fd5b505050506040513d601f19601f820116820180604052508101906103689190610aa1565b10156103a9576040517f08c379a00000000000000000000000000000000000000000000000000000000081526004016103a090610b1a565b60405180910390fd5b7f000000000000000000000000000000000000000000000000000000000000000073ffffffffffffffffffffffffffffffffffffffff166323b872dd3330856040518463ffffffff1660e01b815260040161040693929190610b3a565b6020604051808303816000875af1158015610425573d6000803e3d6000fd5b505050506040513d601f19601f820116820180604052508101906104499190610ba9565b507f000000000000000000000000000000000000000000000000000000000000000073ffffffffffffffffffffffffffffffffffffffff16639dc29fac30846040518363ffffffff1660e01b81526004016104a592919061083f565b600060405180830381600087803b1580156104bf57600080fd5b505af11580156104d3573d6000803e3d6000fd5b5050505060003373ffffffffffffffffffffffffffffffffffffffff16826040516104fd90610c07565b60006040518083038185875af1925050503d806000811461053a576040519150601f19603f3d011682016040523d82523d6000602084013e61053f565b606091505b5050905080610583576040517f08c379a000000000000000000000000000000000000000000000000000000000815260040161057a90610c68565b60405180910390fd5b505061058d6105fa565b50565b7f000000000000000000000000000000000000000000000000000000000000000081565b6002600054036105f0576040517f3ee5aeb500000000000000000000000000000000000000000000000000000000815260040160405180910390fd5b6002600081905550565b6001600081905550565b6000819050919050565b61061781610604565b82525050565b6000602082019050610632600083018461060e565b92915050565b600080fd5b61064681610604565b811461065157600080fd5b50565b6000813590506106638161063d565b92915050565b60006020828403121561067f5761067e610638565b5b600061068d84828501610654565b91505092915050565b600073ffffffffffffffffffffffffffffffffffffffff82169050919050565b6000819050919050565b60006106db6106d66106d184610696565b6106b6565b610696565b9050919050565b60006106ed826106c0565b9050919050565b60006106ff826106e2565b9050919050565b61070f816106f4565b82525050565b600060208201905061072a6000830184610706565b92915050565b600082825260208201905092915050565b7f4e6f204554482073656e74000000000000000000000000000000000000000000600082015250565b6000610777600b83610730565b915061078282610741565b602082019050919050565b600060208201905081810360008301526107a68161076a565b9050919050565b7f4e487b7100000000000000000000000000000000000000000000000000000000600052601160045260246000fd5b60006107e782610604565b91506107f283610604565b925082820261080081610604565b91508282048414831517610817576108166107ad565b5b5092915050565b600061082982610696565b9050919050565b6108398161081e565b82525050565b60006040820190506108546000830185610830565b610861602083018461060e565b9392505050565b7f484c5820616d6f756e74206973207a65726f0000000000000000000000000000600082015250565b600061089e601283610730565b91506108a982610868565b602082019050919050565b600060208201905081810360008301526108cd81610891565b9050919050565b7f4e487b7100000000000000000000000000000000000000000000000000000000600052601260045260246000fd5b600061090e82610604565b915061091983610604565b925082610929576109286108d4565b5b828206905092915050565b7f484c5820616d6f756e74206d75737420636f6e7665727420746f2077686f6c6560008201527f2077656900000000000000000000000000000000000000000000000000000000602082015250565b6000610990602483610730565b915061099b82610934565b604082019050919050565b600060208201905081810360008301526109bf81610983565b9050919050565b60006109d182610604565b91506109dc83610604565b9250826109ec576109eb6108d4565b5b828204905092915050565b7f496e73756666696369656e742045544820696e20726573657276650000000000600082015250565b6000610a2d601b83610730565b9150610a38826109f7565b602082019050919050565b60006020820190508181036000830152610a5c81610a20565b9050919050565b6000604082019050610a786000830185610830565b610a856020830184610830565b9392505050565b600081519050610a9b8161063d565b92915050565b600060208284031215610ab757610ab6610638565b5b6000610ac584828501610a8c565b91505092915050565b7f496e73756666696369656e7420616c6c6f77616e636500000000000000000000600082015250565b6000610b04601683610730565b9150610b0f82610ace565b602082019050919050565b60006020820190508181036000830152610b3381610af7565b9050919050565b6000606082019050610b4f6000830186610830565b610b5c6020830185610830565b610b69604083018461060e565b949350505050565b60008115159050919050565b610b8681610b71565b8114610b9157600080fd5b50565b600081519050610ba381610b7d565b92915050565b600060208284031215610bbf57610bbe610638565b5b6000610bcd84828501610b94565b91505092915050565b600081905092915050565b50565b6000610bf1600083610bd6565b9150610bfc82610be1565b600082019050919050565b6000610c1282610be4565b9150819050919050565b7f455448207472616e73666572206661696c656400000000000000000000000000600082015250565b6000610c52601383610730565b9150610c5d82610c1c565b602082019050919050565b60006020820190508181036000830152610c8181610c45565b905091905056fea2646970667358221220b865bc3573b81ea7ae0843fdd66a4294d8f32bce8879a0decf2ecc9a63e16d9b64736f6c63430008140033",
  "linkReferences": {},
  "deployedLinkReferences": {}
}